{
	"EparsFactory.sol": {
		"indexPeopleWithMapping": {
			"abi": [
				{
					"inputs": [
						{
							"internalType": "contract IERC20",
							"name": "_tokenAddress",
							"type": "address"
						}
					],
					"stateMutability": "nonpayable",
					"type": "constructor"
				},
				{
					"inputs": [
						{
							"internalType": "string",
							"name": "_pic",
							"type": "string"
						}
					],
					"name": "addPerson",
					"outputs": [],
					"stateMutability": "nonpayable",
					"type": "function"
				},
				{
					"inputs": [],
					"name": "factoryOwner",
					"outputs": [
						{
							"internalType": "address",
							"name": "",
							"type": "address"
						}
					],
					"stateMutability": "view",
					"type": "function"
				},
				{
					"inputs": [
						{
							"internalType": "address",
							"name": "_owner",
							"type": "address"
						}
					],
					"name": "getBalance",
					"outputs": [
						{
							"internalType": "uint256",
							"name": "balance",
							"type": "uint256"
						}
					],
					"stateMutability": "view",
					"type": "function"
				},
				{
					"inputs": [
						{
							"internalType": "uint256",
							"name": "",
							"type": "uint256"
						}
					],
					"name": "people",
					"outputs": [
						{
							"internalType": "uint256",
							"name": "_id",
							"type": "uint256"
						},
						{
							"internalType": "string",
							"name": "pic",
							"type": "string"
						}
					],
					"stateMutability": "view",
					"type": "function"
				},
				{
					"inputs": [],
					"name": "peopleCount",
					"outputs": [
						{
							"internalType": "uint256",
							"name": "",
							"type": "uint256"
						}
					],
					"stateMutability": "view",
					"type": "function"
				},
				{
					"inputs": [
						{
							"internalType": "address",
							"name": "_to",
							"type": "address"
						},
						{
							"internalType": "uint256",
							"name": "_amount",
							"type": "uint256"
						}
					],
					"name": "sendGift",
					"outputs": [
						{
							"internalType": "bool",
							"name": "success",
							"type": "bool"
						}
					],
					"stateMutability": "nonpayable",
					"type": "function"
				},
				{
					"inputs": [],
					"name": "tokenAddress",
					"outputs": [
						{
							"internalType": "contract IERC20",
							"name": "",
							"type": "address"
						}
					],
					"stateMutability": "view",
					"type": "function"
				}
			],
			"devdoc": {
				"kind": "dev",
				"methods": {},
				"version": 1
			},
			"evm": {
				"assembly": "    /* \"EparsFactory.sol\":1746:2863  contract indexPeopleWithMapping {... */\n  mstore(0x40, 0x80)\n    /* \"EparsFactory.sol\":1881:1882  0 */\n  0x00\n    /* \"EparsFactory.sol\":1852:1882  uint256 public peopleCount = 0 */\n  0x02\n  sstore\n    /* \"EparsFactory.sol\":1943:2060  constructor(IERC20 _tokenAddress) {... */\n  callvalue\n  dup1\n  iszero\n  tag_1\n  jumpi\n  0x00\n  dup1\n  revert\ntag_1:\n  pop\n  mload(0x40)\n  sub(codesize, bytecodeSize)\n  dup1\n  bytecodeSize\n  dup4\n  codecopy\n  dup2\n  dup2\n  add\n  0x40\n  mstore\n  dup2\n  add\n  swap1\n  tag_2\n  swap2\n  swap1\n  tag_3\n  jump\t// in\ntag_2:\n    /* \"EparsFactory.sol\":2003:2013  msg.sender */\n  caller\n    /* \"EparsFactory.sol\":1988:2000  factoryOwner */\n  0x00\n  dup1\n    /* \"EparsFactory.sol\":1988:2013  factoryOwner = msg.sender */\n  0x0100\n  exp\n  dup2\n  sload\n  dup2\n  0xffffffffffffffffffffffffffffffffffffffff\n  mul\n  not\n  and\n  swap1\n  dup4\n  0xffffffffffffffffffffffffffffffffffffffff\n  and\n  mul\n  or\n  swap1\n  sstore\n  pop\n    /* \"EparsFactory.sol\":2039:2052  _tokenAddress */\n  dup1\n    /* \"EparsFactory.sol\":2024:2036  tokenAddress */\n  0x01\n  0x00\n    /* \"EparsFactory.sol\":2024:2052  tokenAddress = _tokenAddress */\n  0x0100\n  exp\n  dup2\n  sload\n  dup2\n  0xffffffffffffffffffffffffffffffffffffffff\n  mul\n  not\n  and\n  swap1\n  dup4\n  0xffffffffffffffffffffffffffffffffffffffff\n  and\n  mul\n  or\n  swap1\n  sstore\n  pop\n    /* \"EparsFactory.sol\":1943:2060  constructor(IERC20 _tokenAddress) {... */\n  pop\n    /* \"EparsFactory.sol\":1746:2863  contract indexPeopleWithMapping {... */\n  jump(tag_6)\n    /* \"#utility.yul\":88:205   */\ntag_8:\n    /* \"#utility.yul\":197:198   */\n  0x00\n    /* \"#utility.yul\":194:195   */\n  dup1\n    /* \"#utility.yul\":187:199   */\n  revert\n    /* \"#utility.yul\":334:460   */\ntag_10:\n    /* \"#utility.yul\":371:378   */\n  0x00\n    /* \"#utility.yul\":411:453   */\n  0xffffffffffffffffffffffffffffffffffffffff\n    /* \"#utility.yul\":404:409   */\n  dup3\n    /* \"#utility.yul\":400:454   */\n  and\n    /* \"#utility.yul\":389:454   */\n  swap1\n  pop\n    /* \"#utility.yul\":334:460   */\n  swap2\n  swap1\n  pop\n  jump\t// out\n    /* \"#utility.yul\":466:562   */\ntag_11:\n    /* \"#utility.yul\":503:510   */\n  0x00\n    /* \"#utility.yul\":532:556   */\n  tag_21\n    /* \"#utility.yul\":550:555   */\n  dup3\n    /* \"#utility.yul\":532:556   */\n  tag_10\n  jump\t// in\ntag_21:\n    /* \"#utility.yul\":521:556   */\n  swap1\n  pop\n    /* \"#utility.yul\":466:562   */\n  swap2\n  swap1\n  pop\n  jump\t// out\n    /* \"#utility.yul\":568:678   */\ntag_12:\n    /* \"#utility.yul\":619:626   */\n  0x00\n    /* \"#utility.yul\":648:672   */\n  tag_23\n    /* \"#utility.yul\":666:671   */\n  dup3\n    /* \"#utility.yul\":648:672   */\n  tag_11\n  jump\t// in\ntag_23:\n    /* \"#utility.yul\":637:672   */\n  swap1\n  pop\n    /* \"#utility.yul\":568:678   */\n  swap2\n  swap1\n  pop\n  jump\t// out\n    /* \"#utility.yul\":684:834   */\ntag_13:\n    /* \"#utility.yul\":771:809   */\n  tag_25\n    /* \"#utility.yul\":803:808   */\n  dup2\n    /* \"#utility.yul\":771:809   */\n  tag_12\n  jump\t// in\ntag_25:\n    /* \"#utility.yul\":764:769   */\n  dup2\n    /* \"#utility.yul\":761:810   */\n  eq\n    /* \"#utility.yul\":751:828   */\n  tag_26\n  jumpi\n    /* \"#utility.yul\":824:825   */\n  0x00\n    /* \"#utility.yul\":821:822   */\n  dup1\n    /* \"#utility.yul\":814:826   */\n  revert\n    /* \"#utility.yul\":751:828   */\ntag_26:\n    /* \"#utility.yul\":684:834   */\n  pop\n  jump\t// out\n    /* \"#utility.yul\":840:1011   */\ntag_14:\n    /* \"#utility.yul\":911:916   */\n  0x00\n    /* \"#utility.yul\":942:948   */\n  dup2\n    /* \"#utility.yul\":936:949   */\n  mload\n    /* \"#utility.yul\":927:949   */\n  swap1\n  pop\n    /* \"#utility.yul\":958:1005   */\n  tag_28\n    /* \"#utility.yul\":999:1004   */\n  dup2\n    /* \"#utility.yul\":958:1005   */\n  tag_13\n  jump\t// in\ntag_28:\n    /* \"#utility.yul\":840:1011   */\n  swap3\n  swap2\n  pop\n  pop\n  jump\t// out\n    /* \"#utility.yul\":1017:1396   */\ntag_3:\n    /* \"#utility.yul\":1101:1107   */\n  0x00\n    /* \"#utility.yul\":1150:1152   */\n  0x20\n    /* \"#utility.yul\":1138:1147   */\n  dup3\n    /* \"#utility.yul\":1129:1136   */\n  dup5\n    /* \"#utility.yul\":1125:1148   */\n  sub\n    /* \"#utility.yul\":1121:1153   */\n  slt\n    /* \"#utility.yul\":1118:1237   */\n  iszero\n  tag_30\n  jumpi\n    /* \"#utility.yul\":1156:1235   */\n  tag_31\n  tag_8\n  jump\t// in\ntag_31:\n    /* \"#utility.yul\":1118:1237   */\ntag_30:\n    /* \"#utility.yul\":1276:1277   */\n  0x00\n    /* \"#utility.yul\":1301:1379   */\n  tag_32\n    /* \"#utility.yul\":1371:1378   */\n  dup5\n    /* \"#utility.yul\":1362:1368   */\n  dup3\n    /* \"#utility.yul\":1351:1360   */\n  dup6\n    /* \"#utility.yul\":1347:1369   */\n  add\n    /* \"#utility.yul\":1301:1379   */\n  tag_14\n  jump\t// in\ntag_32:\n    /* \"#utility.yul\":1291:1379   */\n  swap2\n  pop\n    /* \"#utility.yul\":1247:1389   */\n  pop\n    /* \"#utility.yul\":1017:1396   */\n  swap3\n  swap2\n  pop\n  pop\n  jump\t// out\n    /* \"EparsFactory.sol\":1746:2863  contract indexPeopleWithMapping {... */\ntag_6:\n  dataSize(sub_0)\n  dup1\n  dataOffset(sub_0)\n  0x00\n  codecopy\n  0x00\n  return\nstop\n\nsub_0: assembly {\n        /* \"EparsFactory.sol\":1746:2863  contract indexPeopleWithMapping {... */\n      mstore(0x40, 0x80)\n      callvalue\n      dup1\n      iszero\n      tag_1\n      jumpi\n      0x00\n      dup1\n      revert\n    tag_1:\n      pop\n      jumpi(tag_2, lt(calldatasize, 0x04))\n      shr(0xe0, calldataload(0x00))\n      dup1\n      0x63d9b4b1\n      gt\n      tag_10\n      jumpi\n      dup1\n      0x63d9b4b1\n      eq\n      tag_6\n      jumpi\n      dup1\n      0x9d76ea58\n      eq\n      tag_7\n      jumpi\n      dup1\n      0x9e7a13ad\n      eq\n      tag_8\n      jumpi\n      dup1\n      0xf8b2cb4f\n      eq\n      tag_9\n      jumpi\n      jump(tag_2)\n    tag_10:\n      dup1\n      0x0bf2ee8d\n      eq\n      tag_3\n      jumpi\n      dup1\n      0x267c68e0\n      eq\n      tag_4\n      jumpi\n      dup1\n      0x4273601c\n      eq\n      tag_5\n      jumpi\n    tag_2:\n      0x00\n      dup1\n      revert\n        /* \"EparsFactory.sol\":2141:2294  function addPerson(string memory _pic)... */\n    tag_3:\n      tag_11\n      0x04\n      dup1\n      calldatasize\n      sub\n      dup2\n      add\n      swap1\n      tag_12\n      swap2\n      swap1\n      tag_13\n      jump\t// in\n    tag_12:\n      tag_14\n      jump\t// in\n    tag_11:\n      stop\n        /* \"EparsFactory.sol\":1852:1882  uint256 public peopleCount = 0 */\n    tag_4:\n      tag_15\n      tag_16\n      jump\t// in\n    tag_15:\n      mload(0x40)\n      tag_17\n      swap2\n      swap1\n      tag_18\n      jump\t// in\n    tag_17:\n      mload(0x40)\n      dup1\n      swap2\n      sub\n      swap1\n      return\n        /* \"EparsFactory.sol\":1785:1812  address public factoryOwner */\n    tag_5:\n      tag_19\n      tag_20\n      jump\t// in\n    tag_19:\n      mload(0x40)\n      tag_21\n      swap2\n      swap1\n      tag_22\n      jump\t// in\n    tag_21:\n      mload(0x40)\n      dup1\n      swap2\n      sub\n      swap1\n      return\n        /* \"EparsFactory.sol\":2482:2687  function sendGift(address _to, uint256 _amount)... */\n    tag_6:\n      tag_23\n      0x04\n      dup1\n      calldatasize\n      sub\n      dup2\n      add\n      swap1\n      tag_24\n      swap2\n      swap1\n      tag_25\n      jump\t// in\n    tag_24:\n      tag_26\n      jump\t// in\n    tag_23:\n      mload(0x40)\n      tag_27\n      swap2\n      swap1\n      tag_28\n      jump\t// in\n    tag_27:\n      mload(0x40)\n      dup1\n      swap2\n      sub\n      swap1\n      return\n        /* \"EparsFactory.sol\":1819:1845  IERC20 public tokenAddress */\n    tag_7:\n      tag_29\n      tag_30\n      jump\t// in\n    tag_29:\n      mload(0x40)\n      tag_31\n      swap2\n      swap1\n      tag_32\n      jump\t// in\n    tag_31:\n      mload(0x40)\n      dup1\n      swap2\n      sub\n      swap1\n      return\n        /* \"EparsFactory.sol\":1891:1931  mapping(uint256 => Person) public people */\n    tag_8:\n      tag_33\n      0x04\n      dup1\n      calldatasize\n      sub\n      dup2\n      add\n      swap1\n      tag_34\n      swap2\n      swap1\n      tag_35\n      jump\t// in\n    tag_34:\n      tag_36\n      jump\t// in\n    tag_33:\n      mload(0x40)\n      tag_37\n      swap3\n      swap2\n      swap1\n      tag_38\n      jump\t// in\n    tag_37:\n      mload(0x40)\n      dup1\n      swap2\n      sub\n      swap1\n      return\n        /* \"EparsFactory.sol\":2696:2860  function getBalance(address _owner)... */\n    tag_9:\n      tag_39\n      0x04\n      dup1\n      calldatasize\n      sub\n      dup2\n      add\n      swap1\n      tag_40\n      swap2\n      swap1\n      tag_41\n      jump\t// in\n    tag_40:\n      tag_42\n      jump\t// in\n    tag_39:\n      mload(0x40)\n      tag_43\n      swap2\n      swap1\n      tag_18\n      jump\t// in\n    tag_43:\n      mload(0x40)\n      dup1\n      swap2\n      sub\n      swap1\n      return\n        /* \"EparsFactory.sol\":2141:2294  function addPerson(string memory _pic)... */\n    tag_14:\n        /* \"EparsFactory.sol\":2234:2259  Person(peopleCount, _pic) */\n      mload(0x40)\n      dup1\n      0x40\n      add\n      0x40\n      mstore\n      dup1\n        /* \"EparsFactory.sol\":2241:2252  peopleCount */\n      sload(0x02)\n        /* \"EparsFactory.sol\":2234:2259  Person(peopleCount, _pic) */\n      dup2\n      mstore\n      0x20\n      add\n        /* \"EparsFactory.sol\":2254:2258  _pic */\n      dup3\n        /* \"EparsFactory.sol\":2234:2259  Person(peopleCount, _pic) */\n      dup2\n      mstore\n      pop\n        /* \"EparsFactory.sol\":2212:2218  people */\n      0x03\n        /* \"EparsFactory.sol\":2212:2231  people[peopleCount] */\n      0x00\n        /* \"EparsFactory.sol\":2219:2230  peopleCount */\n      sload(0x02)\n        /* \"EparsFactory.sol\":2212:2231  people[peopleCount] */\n      dup2\n      mstore\n      0x20\n      add\n      swap1\n      dup2\n      mstore\n      0x20\n      add\n      0x00\n      keccak256\n        /* \"EparsFactory.sol\":2212:2259  people[peopleCount] = Person(peopleCount, _pic) */\n      0x00\n      dup3\n      add\n      mload\n      dup2\n      0x00\n      add\n      sstore\n      0x20\n      dup3\n      add\n      mload\n      dup2\n      0x01\n      add\n      swap1\n      dup2\n      tag_45\n      swap2\n      swap1\n      tag_46\n      jump\t// in\n    tag_45:\n      pop\n      swap1\n      pop\n      pop\n        /* \"EparsFactory.sol\":2270:2286  incrementCount() */\n      tag_47\n        /* \"EparsFactory.sol\":2270:2284  incrementCount */\n      tag_48\n        /* \"EparsFactory.sol\":2270:2286  incrementCount() */\n      jump\t// in\n    tag_47:\n        /* \"EparsFactory.sol\":2141:2294  function addPerson(string memory _pic)... */\n      pop\n      jump\t// out\n        /* \"EparsFactory.sol\":1852:1882  uint256 public peopleCount = 0 */\n    tag_16:\n      sload(0x02)\n      dup2\n      jump\t// out\n        /* \"EparsFactory.sol\":1785:1812  address public factoryOwner */\n    tag_20:\n      0x00\n      dup1\n      sload\n      swap1\n      0x0100\n      exp\n      swap1\n      div\n      0xffffffffffffffffffffffffffffffffffffffff\n      and\n      dup2\n      jump\t// out\n        /* \"EparsFactory.sol\":2482:2687  function sendGift(address _to, uint256 _amount)... */\n    tag_26:\n        /* \"EparsFactory.sol\":2592:2604  bool success */\n      0x00\n        /* \"EparsFactory.sol\":2441:2453  factoryOwner */\n      dup1\n      0x00\n      swap1\n      sload\n      swap1\n      0x0100\n      exp\n      swap1\n      div\n      0xffffffffffffffffffffffffffffffffffffffff\n      and\n        /* \"EparsFactory.sol\":2427:2453  msg.sender == factoryOwner */\n      0xffffffffffffffffffffffffffffffffffffffff\n      and\n        /* \"EparsFactory.sol\":2427:2437  msg.sender */\n      caller\n        /* \"EparsFactory.sol\":2427:2453  msg.sender == factoryOwner */\n      0xffffffffffffffffffffffffffffffffffffffff\n      and\n      eq\n        /* \"EparsFactory.sol\":2419:2454  require(msg.sender == factoryOwner) */\n      tag_50\n      jumpi\n      0x00\n      dup1\n      revert\n    tag_50:\n        /* \"EparsFactory.sol\":2622:2634  tokenAddress */\n      0x01\n      0x00\n      swap1\n      sload\n      swap1\n      0x0100\n      exp\n      swap1\n      div\n      0xffffffffffffffffffffffffffffffffffffffff\n      and\n        /* \"EparsFactory.sol\":2622:2643  tokenAddress.transfer */\n      0xffffffffffffffffffffffffffffffffffffffff\n      and\n      0xa9059cbb\n        /* \"EparsFactory.sol\":2644:2647  _to */\n      dup5\n        /* \"EparsFactory.sol\":2649:2656  _amount */\n      dup5\n        /* \"EparsFactory.sol\":2622:2657  tokenAddress.transfer(_to, _amount) */\n      mload(0x40)\n      dup4\n      0xffffffff\n      and\n      0xe0\n      shl\n      dup2\n      mstore\n      0x04\n      add\n      tag_52\n      swap3\n      swap2\n      swap1\n      tag_53\n      jump\t// in\n    tag_52:\n      0x20\n      mload(0x40)\n      dup1\n      dup4\n      sub\n      dup2\n      0x00\n      dup8\n      gas\n      call\n      iszero\n      dup1\n      iszero\n      tag_55\n      jumpi\n      returndatasize\n      0x00\n      dup1\n      returndatacopy\n      revert(0x00, returndatasize)\n    tag_55:\n      pop\n      pop\n      pop\n      pop\n      mload(0x40)\n      returndatasize\n      not(0x1f)\n      0x1f\n      dup3\n      add\n      and\n      dup3\n      add\n      dup1\n      0x40\n      mstore\n      pop\n      dup2\n      add\n      swap1\n      tag_56\n      swap2\n      swap1\n      tag_57\n      jump\t// in\n    tag_56:\n      pop\n        /* \"EparsFactory.sol\":2675:2679  true */\n      0x01\n        /* \"EparsFactory.sol\":2668:2679  return true */\n      swap1\n      pop\n        /* \"EparsFactory.sol\":2482:2687  function sendGift(address _to, uint256 _amount)... */\n      swap3\n      swap2\n      pop\n      pop\n      jump\t// out\n        /* \"EparsFactory.sol\":1819:1845  IERC20 public tokenAddress */\n    tag_30:\n      0x01\n      0x00\n      swap1\n      sload\n      swap1\n      0x0100\n      exp\n      swap1\n      div\n      0xffffffffffffffffffffffffffffffffffffffff\n      and\n      dup2\n      jump\t// out\n        /* \"EparsFactory.sol\":1891:1931  mapping(uint256 => Person) public people */\n    tag_36:\n      mstore(0x20, 0x03)\n      dup1\n      0x00\n      mstore\n      keccak256(0x00, 0x40)\n      0x00\n      swap2\n      pop\n      swap1\n      pop\n      dup1\n      0x00\n      add\n      sload\n      swap1\n      dup1\n      0x01\n      add\n      dup1\n      sload\n      tag_58\n      swap1\n      tag_59\n      jump\t// in\n    tag_58:\n      dup1\n      0x1f\n      add\n      0x20\n      dup1\n      swap2\n      div\n      mul\n      0x20\n      add\n      mload(0x40)\n      swap1\n      dup2\n      add\n      0x40\n      mstore\n      dup1\n      swap3\n      swap2\n      swap1\n      dup2\n      dup2\n      mstore\n      0x20\n      add\n      dup3\n      dup1\n      sload\n      tag_60\n      swap1\n      tag_59\n      jump\t// in\n    tag_60:\n      dup1\n      iszero\n      tag_61\n      jumpi\n      dup1\n      0x1f\n      lt\n      tag_62\n      jumpi\n      0x0100\n      dup1\n      dup4\n      sload\n      div\n      mul\n      dup4\n      mstore\n      swap2\n      0x20\n      add\n      swap2\n      jump(tag_61)\n    tag_62:\n      dup3\n      add\n      swap2\n      swap1\n      0x00\n      mstore\n      keccak256(0x00, 0x20)\n      swap1\n    tag_63:\n      dup2\n      sload\n      dup2\n      mstore\n      swap1\n      0x01\n      add\n      swap1\n      0x20\n      add\n      dup1\n      dup4\n      gt\n      tag_63\n      jumpi\n      dup3\n      swap1\n      sub\n      0x1f\n      and\n      dup3\n      add\n      swap2\n    tag_61:\n      pop\n      pop\n      pop\n      pop\n      pop\n      swap1\n      pop\n      dup3\n      jump\t// out\n        /* \"EparsFactory.sol\":2696:2860  function getBalance(address _owner)... */\n    tag_42:\n        /* \"EparsFactory.sol\":2782:2797  uint256 balance */\n      0x00\n        /* \"EparsFactory.sol\":2822:2834  tokenAddress */\n      0x01\n      0x00\n      swap1\n      sload\n      swap1\n      0x0100\n      exp\n      swap1\n      div\n      0xffffffffffffffffffffffffffffffffffffffff\n      and\n        /* \"EparsFactory.sol\":2822:2844  tokenAddress.balanceOf */\n      0xffffffffffffffffffffffffffffffffffffffff\n      and\n      0x70a08231\n        /* \"EparsFactory.sol\":2845:2851  _owner */\n      dup4\n        /* \"EparsFactory.sol\":2822:2852  tokenAddress.balanceOf(_owner) */\n      mload(0x40)\n      dup3\n      0xffffffff\n      and\n      0xe0\n      shl\n      dup2\n      mstore\n      0x04\n      add\n      tag_65\n      swap2\n      swap1\n      tag_22\n      jump\t// in\n    tag_65:\n      0x20\n      mload(0x40)\n      dup1\n      dup4\n      sub\n      dup2\n      dup7\n      gas\n      staticcall\n      iszero\n      dup1\n      iszero\n      tag_67\n      jumpi\n      returndatasize\n      0x00\n      dup1\n      returndatacopy\n      revert(0x00, returndatasize)\n    tag_67:\n      pop\n      pop\n      pop\n      pop\n      mload(0x40)\n      returndatasize\n      not(0x1f)\n      0x1f\n      dup3\n      add\n      and\n      dup3\n      add\n      dup1\n      0x40\n      mstore\n      pop\n      dup2\n      add\n      swap1\n      tag_68\n      swap2\n      swap1\n      tag_69\n      jump\t// in\n    tag_68:\n        /* \"EparsFactory.sol\":2815:2852  return tokenAddress.balanceOf(_owner) */\n      swap1\n      pop\n        /* \"EparsFactory.sol\":2696:2860  function getBalance(address _owner)... */\n      swap2\n      swap1\n      pop\n      jump\t// out\n        /* \"EparsFactory.sol\":2302:2372  function incrementCount() internal {... */\n    tag_48:\n        /* \"EparsFactory.sol\":2363:2364  1 */\n      0x01\n        /* \"EparsFactory.sol\":2348:2359  peopleCount */\n      0x02\n      0x00\n        /* \"EparsFactory.sol\":2348:2364  peopleCount += 1 */\n      dup3\n      dup3\n      sload\n      tag_71\n      swap2\n      swap1\n      tag_72\n      jump\t// in\n    tag_71:\n      swap3\n      pop\n      pop\n      dup2\n      swap1\n      sstore\n      pop\n        /* \"EparsFactory.sol\":2302:2372  function incrementCount() internal {... */\n      jump\t// out\n        /* \"#utility.yul\":7:82   */\n    tag_73:\n        /* \"#utility.yul\":40:46   */\n      0x00\n        /* \"#utility.yul\":73:75   */\n      0x40\n        /* \"#utility.yul\":67:76   */\n      mload\n        /* \"#utility.yul\":57:76   */\n      swap1\n      pop\n        /* \"#utility.yul\":7:82   */\n      swap1\n      jump\t// out\n        /* \"#utility.yul\":88:205   */\n    tag_74:\n        /* \"#utility.yul\":197:198   */\n      0x00\n        /* \"#utility.yul\":194:195   */\n      dup1\n        /* \"#utility.yul\":187:199   */\n      revert\n        /* \"#utility.yul\":211:328   */\n    tag_75:\n        /* \"#utility.yul\":320:321   */\n      0x00\n        /* \"#utility.yul\":317:318   */\n      dup1\n        /* \"#utility.yul\":310:322   */\n      revert\n        /* \"#utility.yul\":334:451   */\n    tag_76:\n        /* \"#utility.yul\":443:444   */\n      0x00\n        /* \"#utility.yul\":440:441   */\n      dup1\n        /* \"#utility.yul\":433:445   */\n      revert\n        /* \"#utility.yul\":457:574   */\n    tag_77:\n        /* \"#utility.yul\":566:567   */\n      0x00\n        /* \"#utility.yul\":563:564   */\n      dup1\n        /* \"#utility.yul\":556:568   */\n      revert\n        /* \"#utility.yul\":580:682   */\n    tag_78:\n        /* \"#utility.yul\":621:627   */\n      0x00\n        /* \"#utility.yul\":672:674   */\n      0x1f\n        /* \"#utility.yul\":668:675   */\n      not\n        /* \"#utility.yul\":663:665   */\n      0x1f\n        /* \"#utility.yul\":656:661   */\n      dup4\n        /* \"#utility.yul\":652:666   */\n      add\n        /* \"#utility.yul\":648:676   */\n      and\n        /* \"#utility.yul\":638:676   */\n      swap1\n      pop\n        /* \"#utility.yul\":580:682   */\n      swap2\n      swap1\n      pop\n      jump\t// out\n        /* \"#utility.yul\":688:868   */\n    tag_79:\n        /* \"#utility.yul\":736:813   */\n      0x4e487b7100000000000000000000000000000000000000000000000000000000\n        /* \"#utility.yul\":733:734   */\n      0x00\n        /* \"#utility.yul\":726:814   */\n      mstore\n        /* \"#utility.yul\":833:837   */\n      0x41\n        /* \"#utility.yul\":830:831   */\n      0x04\n        /* \"#utility.yul\":823:838   */\n      mstore\n        /* \"#utility.yul\":857:861   */\n      0x24\n        /* \"#utility.yul\":854:855   */\n      0x00\n        /* \"#utility.yul\":847:862   */\n      revert\n        /* \"#utility.yul\":874:1155   */\n    tag_80:\n        /* \"#utility.yul\":957:984   */\n      tag_134\n        /* \"#utility.yul\":979:983   */\n      dup3\n        /* \"#utility.yul\":957:984   */\n      tag_78\n      jump\t// in\n    tag_134:\n        /* \"#utility.yul\":949:955   */\n      dup2\n        /* \"#utility.yul\":945:985   */\n      add\n        /* \"#utility.yul\":1087:1093   */\n      dup2\n        /* \"#utility.yul\":1075:1085   */\n      dup2\n        /* \"#utility.yul\":1072:1094   */\n      lt\n        /* \"#utility.yul\":1051:1069   */\n      0xffffffffffffffff\n        /* \"#utility.yul\":1039:1049   */\n      dup3\n        /* \"#utility.yul\":1036:1070   */\n      gt\n        /* \"#utility.yul\":1033:1095   */\n      or\n        /* \"#utility.yul\":1030:1118   */\n      iszero\n      tag_135\n      jumpi\n        /* \"#utility.yul\":1098:1116   */\n      tag_136\n      tag_79\n      jump\t// in\n    tag_136:\n        /* \"#utility.yul\":1030:1118   */\n    tag_135:\n        /* \"#utility.yul\":1138:1148   */\n      dup1\n        /* \"#utility.yul\":1134:1136   */\n      0x40\n        /* \"#utility.yul\":1127:1149   */\n      mstore\n        /* \"#utility.yul\":917:1155   */\n      pop\n        /* \"#utility.yul\":874:1155   */\n      pop\n      pop\n      jump\t// out\n        /* \"#utility.yul\":1161:1290   */\n    tag_81:\n        /* \"#utility.yul\":1195:1201   */\n      0x00\n        /* \"#utility.yul\":1222:1242   */\n      tag_138\n      tag_73\n      jump\t// in\n    tag_138:\n        /* \"#utility.yul\":1212:1242   */\n      swap1\n      pop\n        /* \"#utility.yul\":1251:1284   */\n      tag_139\n        /* \"#utility.yul\":1279:1283   */\n      dup3\n        /* \"#utility.yul\":1271:1277   */\n      dup3\n        /* \"#utility.yul\":1251:1284   */\n      tag_80\n      jump\t// in\n    tag_139:\n        /* \"#utility.yul\":1161:1290   */\n      swap2\n      swap1\n      pop\n      jump\t// out\n        /* \"#utility.yul\":1296:1604   */\n    tag_82:\n        /* \"#utility.yul\":1358:1362   */\n      0x00\n        /* \"#utility.yul\":1448:1466   */\n      0xffffffffffffffff\n        /* \"#utility.yul\":1440:1446   */\n      dup3\n        /* \"#utility.yul\":1437:1467   */\n      gt\n        /* \"#utility.yul\":1434:1490   */\n      iszero\n      tag_141\n      jumpi\n        /* \"#utility.yul\":1470:1488   */\n      tag_142\n      tag_79\n      jump\t// in\n    tag_142:\n        /* \"#utility.yul\":1434:1490   */\n    tag_141:\n        /* \"#utility.yul\":1508:1537   */\n      tag_143\n        /* \"#utility.yul\":1530:1536   */\n      dup3\n        /* \"#utility.yul\":1508:1537   */\n      tag_78\n      jump\t// in\n    tag_143:\n        /* \"#utility.yul\":1500:1537   */\n      swap1\n      pop\n        /* \"#utility.yul\":1592:1596   */\n      0x20\n        /* \"#utility.yul\":1586:1590   */\n      dup2\n        /* \"#utility.yul\":1582:1597   */\n      add\n        /* \"#utility.yul\":1574:1597   */\n      swap1\n      pop\n        /* \"#utility.yul\":1296:1604   */\n      swap2\n      swap1\n      pop\n      jump\t// out\n        /* \"#utility.yul\":1610:1764   */\n    tag_83:\n        /* \"#utility.yul\":1694:1700   */\n      dup3\n        /* \"#utility.yul\":1689:1692   */\n      dup2\n        /* \"#utility.yul\":1684:1687   */\n      dup4\n        /* \"#utility.yul\":1671:1701   */\n      calldatacopy\n        /* \"#utility.yul\":1756:1757   */\n      0x00\n        /* \"#utility.yul\":1747:1753   */\n      dup4\n        /* \"#utility.yul\":1742:1745   */\n      dup4\n        /* \"#utility.yul\":1738:1754   */\n      add\n        /* \"#utility.yul\":1731:1758   */\n      mstore\n        /* \"#utility.yul\":1610:1764   */\n      pop\n      pop\n      pop\n      jump\t// out\n        /* \"#utility.yul\":1770:2182   */\n    tag_84:\n        /* \"#utility.yul\":1848:1853   */\n      0x00\n        /* \"#utility.yul\":1873:1939   */\n      tag_146\n        /* \"#utility.yul\":1889:1938   */\n      tag_147\n        /* \"#utility.yul\":1931:1937   */\n      dup5\n        /* \"#utility.yul\":1889:1938   */\n      tag_82\n      jump\t// in\n    tag_147:\n        /* \"#utility.yul\":1873:1939   */\n      tag_81\n      jump\t// in\n    tag_146:\n        /* \"#utility.yul\":1864:1939   */\n      swap1\n      pop\n        /* \"#utility.yul\":1962:1968   */\n      dup3\n        /* \"#utility.yul\":1955:1960   */\n      dup2\n        /* \"#utility.yul\":1948:1969   */\n      mstore\n        /* \"#utility.yul\":2000:2004   */\n      0x20\n        /* \"#utility.yul\":1993:1998   */\n      dup2\n        /* \"#utility.yul\":1989:2005   */\n      add\n        /* \"#utility.yul\":2038:2041   */\n      dup5\n        /* \"#utility.yul\":2029:2035   */\n      dup5\n        /* \"#utility.yul\":2024:2027   */\n      dup5\n        /* \"#utility.yul\":2020:2036   */\n      add\n        /* \"#utility.yul\":2017:2042   */\n      gt\n        /* \"#utility.yul\":2014:2126   */\n      iszero\n      tag_148\n      jumpi\n        /* \"#utility.yul\":2045:2124   */\n      tag_149\n      tag_77\n      jump\t// in\n    tag_149:\n        /* \"#utility.yul\":2014:2126   */\n    tag_148:\n        /* \"#utility.yul\":2135:2176   */\n      tag_150\n        /* \"#utility.yul\":2169:2175   */\n      dup5\n        /* \"#utility.yul\":2164:2167   */\n      dup3\n        /* \"#utility.yul\":2159:2162   */\n      dup6\n        /* \"#utility.yul\":2135:2176   */\n      tag_83\n      jump\t// in\n    tag_150:\n        /* \"#utility.yul\":1854:2182   */\n      pop\n        /* \"#utility.yul\":1770:2182   */\n      swap4\n      swap3\n      pop\n      pop\n      pop\n      jump\t// out\n        /* \"#utility.yul\":2202:2542   */\n    tag_85:\n        /* \"#utility.yul\":2258:2263   */\n      0x00\n        /* \"#utility.yul\":2307:2310   */\n      dup3\n        /* \"#utility.yul\":2300:2304   */\n      0x1f\n        /* \"#utility.yul\":2292:2298   */\n      dup4\n        /* \"#utility.yul\":2288:2305   */\n      add\n        /* \"#utility.yul\":2284:2311   */\n      slt\n        /* \"#utility.yul\":2274:2396   */\n      tag_152\n      jumpi\n        /* \"#utility.yul\":2315:2394   */\n      tag_153\n      tag_76\n      jump\t// in\n    tag_153:\n        /* \"#utility.yul\":2274:2396   */\n    tag_152:\n        /* \"#utility.yul\":2432:2438   */\n      dup2\n        /* \"#utility.yul\":2419:2439   */\n      calldataload\n        /* \"#utility.yul\":2457:2536   */\n      tag_154\n        /* \"#utility.yul\":2532:2535   */\n      dup5\n        /* \"#utility.yul\":2524:2530   */\n      dup3\n        /* \"#utility.yul\":2517:2521   */\n      0x20\n        /* \"#utility.yul\":2509:2515   */\n      dup7\n        /* \"#utility.yul\":2505:2522   */\n      add\n        /* \"#utility.yul\":2457:2536   */\n      tag_84\n      jump\t// in\n    tag_154:\n        /* \"#utility.yul\":2448:2536   */\n      swap2\n      pop\n        /* \"#utility.yul\":2264:2542   */\n      pop\n        /* \"#utility.yul\":2202:2542   */\n      swap3\n      swap2\n      pop\n      pop\n      jump\t// out\n        /* \"#utility.yul\":2548:3057   */\n    tag_13:\n        /* \"#utility.yul\":2617:2623   */\n      0x00\n        /* \"#utility.yul\":2666:2668   */\n      0x20\n        /* \"#utility.yul\":2654:2663   */\n      dup3\n        /* \"#utility.yul\":2645:2652   */\n      dup5\n        /* \"#utility.yul\":2641:2664   */\n      sub\n        /* \"#utility.yul\":2637:2669   */\n      slt\n        /* \"#utility.yul\":2634:2753   */\n      iszero\n      tag_156\n      jumpi\n        /* \"#utility.yul\":2672:2751   */\n      tag_157\n      tag_74\n      jump\t// in\n    tag_157:\n        /* \"#utility.yul\":2634:2753   */\n    tag_156:\n        /* \"#utility.yul\":2820:2821   */\n      0x00\n        /* \"#utility.yul\":2809:2818   */\n      dup3\n        /* \"#utility.yul\":2805:2822   */\n      add\n        /* \"#utility.yul\":2792:2823   */\n      calldataload\n        /* \"#utility.yul\":2850:2868   */\n      0xffffffffffffffff\n        /* \"#utility.yul\":2842:2848   */\n      dup2\n        /* \"#utility.yul\":2839:2869   */\n      gt\n        /* \"#utility.yul\":2836:2953   */\n      iszero\n      tag_158\n      jumpi\n        /* \"#utility.yul\":2872:2951   */\n      tag_159\n      tag_75\n      jump\t// in\n    tag_159:\n        /* \"#utility.yul\":2836:2953   */\n    tag_158:\n        /* \"#utility.yul\":2977:3040   */\n      tag_160\n        /* \"#utility.yul\":3032:3039   */\n      dup5\n        /* \"#utility.yul\":3023:3029   */\n      dup3\n        /* \"#utility.yul\":3012:3021   */\n      dup6\n        /* \"#utility.yul\":3008:3030   */\n      add\n        /* \"#utility.yul\":2977:3040   */\n      tag_85\n      jump\t// in\n    tag_160:\n        /* \"#utility.yul\":2967:3040   */\n      swap2\n      pop\n        /* \"#utility.yul\":2763:3050   */\n      pop\n        /* \"#utility.yul\":2548:3057   */\n      swap3\n      swap2\n      pop\n      pop\n      jump\t// out\n        /* \"#utility.yul\":3063:3140   */\n    tag_86:\n        /* \"#utility.yul\":3100:3107   */\n      0x00\n        /* \"#utility.yul\":3129:3134   */\n      dup2\n        /* \"#utility.yul\":3118:3134   */\n      swap1\n      pop\n        /* \"#utility.yul\":3063:3140   */\n      swap2\n      swap1\n      pop\n      jump\t// out\n        /* \"#utility.yul\":3146:3264   */\n    tag_87:\n        /* \"#utility.yul\":3233:3257   */\n      tag_163\n        /* \"#utility.yul\":3251:3256   */\n      dup2\n        /* \"#utility.yul\":3233:3257   */\n      tag_86\n      jump\t// in\n    tag_163:\n        /* \"#utility.yul\":3228:3231   */\n      dup3\n        /* \"#utility.yul\":3221:3258   */\n      mstore\n        /* \"#utility.yul\":3146:3264   */\n      pop\n      pop\n      jump\t// out\n        /* \"#utility.yul\":3270:3492   */\n    tag_18:\n        /* \"#utility.yul\":3363:3367   */\n      0x00\n        /* \"#utility.yul\":3401:3403   */\n      0x20\n        /* \"#utility.yul\":3390:3399   */\n      dup3\n        /* \"#utility.yul\":3386:3404   */\n      add\n        /* \"#utility.yul\":3378:3404   */\n      swap1\n      pop\n        /* \"#utility.yul\":3414:3485   */\n      tag_165\n        /* \"#utility.yul\":3482:3483   */\n      0x00\n        /* \"#utility.yul\":3471:3480   */\n      dup4\n        /* \"#utility.yul\":3467:3484   */\n      add\n        /* \"#utility.yul\":3458:3464   */\n      dup5\n        /* \"#utility.yul\":3414:3485   */\n      tag_87\n      jump\t// in\n    tag_165:\n        /* \"#utility.yul\":3270:3492   */\n      swap3\n      swap2\n      pop\n      pop\n      jump\t// out\n        /* \"#utility.yul\":3498:3624   */\n    tag_88:\n        /* \"#utility.yul\":3535:3542   */\n      0x00\n        /* \"#utility.yul\":3575:3617   */\n      0xffffffffffffffffffffffffffffffffffffffff\n        /* \"#utility.yul\":3568:3573   */\n      dup3\n        /* \"#utility.yul\":3564:3618   */\n      and\n        /* \"#utility.yul\":3553:3618   */\n      swap1\n      pop\n        /* \"#utility.yul\":3498:3624   */\n      swap2\n      swap1\n      pop\n      jump\t// out\n        /* \"#utility.yul\":3630:3726   */\n    tag_89:\n        /* \"#utility.yul\":3667:3674   */\n      0x00\n        /* \"#utility.yul\":3696:3720   */\n      tag_168\n        /* \"#utility.yul\":3714:3719   */\n      dup3\n        /* \"#utility.yul\":3696:3720   */\n      tag_88\n      jump\t// in\n    tag_168:\n        /* \"#utility.yul\":3685:3720   */\n      swap1\n      pop\n        /* \"#utility.yul\":3630:3726   */\n      swap2\n      swap1\n      pop\n      jump\t// out\n        /* \"#utility.yul\":3732:3850   */\n    tag_90:\n        /* \"#utility.yul\":3819:3843   */\n      tag_170\n        /* \"#utility.yul\":3837:3842   */\n      dup2\n        /* \"#utility.yul\":3819:3843   */\n      tag_89\n      jump\t// in\n    tag_170:\n        /* \"#utility.yul\":3814:3817   */\n      dup3\n        /* \"#utility.yul\":3807:3844   */\n      mstore\n        /* \"#utility.yul\":3732:3850   */\n      pop\n      pop\n      jump\t// out\n        /* \"#utility.yul\":3856:4078   */\n    tag_22:\n        /* \"#utility.yul\":3949:3953   */\n      0x00\n        /* \"#utility.yul\":3987:3989   */\n      0x20\n        /* \"#utility.yul\":3976:3985   */\n      dup3\n        /* \"#utility.yul\":3972:3990   */\n      add\n        /* \"#utility.yul\":3964:3990   */\n      swap1\n      pop\n        /* \"#utility.yul\":4000:4071   */\n      tag_172\n        /* \"#utility.yul\":4068:4069   */\n      0x00\n        /* \"#utility.yul\":4057:4066   */\n      dup4\n        /* \"#utility.yul\":4053:4070   */\n      add\n        /* \"#utility.yul\":4044:4050   */\n      dup5\n        /* \"#utility.yul\":4000:4071   */\n      tag_90\n      jump\t// in\n    tag_172:\n        /* \"#utility.yul\":3856:4078   */\n      swap3\n      swap2\n      pop\n      pop\n      jump\t// out\n        /* \"#utility.yul\":4084:4206   */\n    tag_91:\n        /* \"#utility.yul\":4157:4181   */\n      tag_174\n        /* \"#utility.yul\":4175:4180   */\n      dup2\n        /* \"#utility.yul\":4157:4181   */\n      tag_89\n      jump\t// in\n    tag_174:\n        /* \"#utility.yul\":4150:4155   */\n      dup2\n        /* \"#utility.yul\":4147:4182   */\n      eq\n        /* \"#utility.yul\":4137:4200   */\n      tag_175\n      jumpi\n        /* \"#utility.yul\":4196:4197   */\n      0x00\n        /* \"#utility.yul\":4193:4194   */\n      dup1\n        /* \"#utility.yul\":4186:4198   */\n      revert\n        /* \"#utility.yul\":4137:4200   */\n    tag_175:\n        /* \"#utility.yul\":4084:4206   */\n      pop\n      jump\t// out\n        /* \"#utility.yul\":4212:4351   */\n    tag_92:\n        /* \"#utility.yul\":4258:4263   */\n      0x00\n        /* \"#utility.yul\":4296:4302   */\n      dup2\n        /* \"#utility.yul\":4283:4303   */\n      calldataload\n        /* \"#utility.yul\":4274:4303   */\n      swap1\n      pop\n        /* \"#utility.yul\":4312:4345   */\n      tag_177\n        /* \"#utility.yul\":4339:4344   */\n      dup2\n        /* \"#utility.yul\":4312:4345   */\n      tag_91\n      jump\t// in\n    tag_177:\n        /* \"#utility.yul\":4212:4351   */\n      swap3\n      swap2\n      pop\n      pop\n      jump\t// out\n        /* \"#utility.yul\":4357:4479   */\n    tag_93:\n        /* \"#utility.yul\":4430:4454   */\n      tag_179\n        /* \"#utility.yul\":4448:4453   */\n      dup2\n        /* \"#utility.yul\":4430:4454   */\n      tag_86\n      jump\t// in\n    tag_179:\n        /* \"#utility.yul\":4423:4428   */\n      dup2\n        /* \"#utility.yul\":4420:4455   */\n      eq\n        /* \"#utility.yul\":4410:4473   */\n      tag_180\n      jumpi\n        /* \"#utility.yul\":4469:4470   */\n      0x00\n        /* \"#utility.yul\":4466:4467   */\n      dup1\n        /* \"#utility.yul\":4459:4471   */\n      revert\n        /* \"#utility.yul\":4410:4473   */\n    tag_180:\n        /* \"#utility.yul\":4357:4479   */\n      pop\n      jump\t// out\n        /* \"#utility.yul\":4485:4624   */\n    tag_94:\n        /* \"#utility.yul\":4531:4536   */\n      0x00\n        /* \"#utility.yul\":4569:4575   */\n      dup2\n        /* \"#utility.yul\":4556:4576   */\n      calldataload\n        /* \"#utility.yul\":4547:4576   */\n      swap1\n      pop\n        /* \"#utility.yul\":4585:4618   */\n      tag_182\n        /* \"#utility.yul\":4612:4617   */\n      dup2\n        /* \"#utility.yul\":4585:4618   */\n      tag_93\n      jump\t// in\n    tag_182:\n        /* \"#utility.yul\":4485:4624   */\n      swap3\n      swap2\n      pop\n      pop\n      jump\t// out\n        /* \"#utility.yul\":4630:5104   */\n    tag_25:\n        /* \"#utility.yul\":4698:4704   */\n      0x00\n        /* \"#utility.yul\":4706:4712   */\n      dup1\n        /* \"#utility.yul\":4755:4757   */\n      0x40\n        /* \"#utility.yul\":4743:4752   */\n      dup4\n        /* \"#utility.yul\":4734:4741   */\n      dup6\n        /* \"#utility.yul\":4730:4753   */\n      sub\n        /* \"#utility.yul\":4726:4758   */\n      slt\n        /* \"#utility.yul\":4723:4842   */\n      iszero\n      tag_184\n      jumpi\n        /* \"#utility.yul\":4761:4840   */\n      tag_185\n      tag_74\n      jump\t// in\n    tag_185:\n        /* \"#utility.yul\":4723:4842   */\n    tag_184:\n        /* \"#utility.yul\":4881:4882   */\n      0x00\n        /* \"#utility.yul\":4906:4959   */\n      tag_186\n        /* \"#utility.yul\":4951:4958   */\n      dup6\n        /* \"#utility.yul\":4942:4948   */\n      dup3\n        /* \"#utility.yul\":4931:4940   */\n      dup7\n        /* \"#utility.yul\":4927:4949   */\n      add\n        /* \"#utility.yul\":4906:4959   */\n      tag_92\n      jump\t// in\n    tag_186:\n        /* \"#utility.yul\":4896:4959   */\n      swap3\n      pop\n        /* \"#utility.yul\":4852:4969   */\n      pop\n        /* \"#utility.yul\":5008:5010   */\n      0x20\n        /* \"#utility.yul\":5034:5087   */\n      tag_187\n        /* \"#utility.yul\":5079:5086   */\n      dup6\n        /* \"#utility.yul\":5070:5076   */\n      dup3\n        /* \"#utility.yul\":5059:5068   */\n      dup7\n        /* \"#utility.yul\":5055:5077   */\n      add\n        /* \"#utility.yul\":5034:5087   */\n      tag_94\n      jump\t// in\n    tag_187:\n        /* \"#utility.yul\":5024:5087   */\n      swap2\n      pop\n        /* \"#utility.yul\":4979:5097   */\n      pop\n        /* \"#utility.yul\":4630:5104   */\n      swap3\n      pop\n      swap3\n      swap1\n      pop\n      jump\t// out\n        /* \"#utility.yul\":5110:5200   */\n    tag_95:\n        /* \"#utility.yul\":5144:5151   */\n      0x00\n        /* \"#utility.yul\":5187:5192   */\n      dup2\n        /* \"#utility.yul\":5180:5193   */\n      iszero\n        /* \"#utility.yul\":5173:5194   */\n      iszero\n        /* \"#utility.yul\":5162:5194   */\n      swap1\n      pop\n        /* \"#utility.yul\":5110:5200   */\n      swap2\n      swap1\n      pop\n      jump\t// out\n        /* \"#utility.yul\":5206:5315   */\n    tag_96:\n        /* \"#utility.yul\":5287:5308   */\n      tag_190\n        /* \"#utility.yul\":5302:5307   */\n      dup2\n        /* \"#utility.yul\":5287:5308   */\n      tag_95\n      jump\t// in\n    tag_190:\n        /* \"#utility.yul\":5282:5285   */\n      dup3\n        /* \"#utility.yul\":5275:5309   */\n      mstore\n        /* \"#utility.yul\":5206:5315   */\n      pop\n      pop\n      jump\t// out\n        /* \"#utility.yul\":5321:5531   */\n    tag_28:\n        /* \"#utility.yul\":5408:5412   */\n      0x00\n        /* \"#utility.yul\":5446:5448   */\n      0x20\n        /* \"#utility.yul\":5435:5444   */\n      dup3\n        /* \"#utility.yul\":5431:5449   */\n      add\n        /* \"#utility.yul\":5423:5449   */\n      swap1\n      pop\n        /* \"#utility.yul\":5459:5524   */\n      tag_192\n        /* \"#utility.yul\":5521:5522   */\n      0x00\n        /* \"#utility.yul\":5510:5519   */\n      dup4\n        /* \"#utility.yul\":5506:5523   */\n      add\n        /* \"#utility.yul\":5497:5503   */\n      dup5\n        /* \"#utility.yul\":5459:5524   */\n      tag_96\n      jump\t// in\n    tag_192:\n        /* \"#utility.yul\":5321:5531   */\n      swap3\n      swap2\n      pop\n      pop\n      jump\t// out\n        /* \"#utility.yul\":5537:5597   */\n    tag_97:\n        /* \"#utility.yul\":5565:5568   */\n      0x00\n        /* \"#utility.yul\":5586:5591   */\n      dup2\n        /* \"#utility.yul\":5579:5591   */\n      swap1\n      pop\n        /* \"#utility.yul\":5537:5597   */\n      swap2\n      swap1\n      pop\n      jump\t// out\n        /* \"#utility.yul\":5603:5745   */\n    tag_98:\n        /* \"#utility.yul\":5653:5662   */\n      0x00\n        /* \"#utility.yul\":5686:5739   */\n      tag_195\n        /* \"#utility.yul\":5704:5738   */\n      tag_196\n        /* \"#utility.yul\":5713:5737   */\n      tag_197\n        /* \"#utility.yul\":5731:5736   */\n      dup5\n        /* \"#utility.yul\":5713:5737   */\n      tag_88\n      jump\t// in\n    tag_197:\n        /* \"#utility.yul\":5704:5738   */\n      tag_97\n      jump\t// in\n    tag_196:\n        /* \"#utility.yul\":5686:5739   */\n      tag_88\n      jump\t// in\n    tag_195:\n        /* \"#utility.yul\":5673:5739   */\n      swap1\n      pop\n        /* \"#utility.yul\":5603:5745   */\n      swap2\n      swap1\n      pop\n      jump\t// out\n        /* \"#utility.yul\":5751:5877   */\n    tag_99:\n        /* \"#utility.yul\":5801:5810   */\n      0x00\n        /* \"#utility.yul\":5834:5871   */\n      tag_199\n        /* \"#utility.yul\":5865:5870   */\n      dup3\n        /* \"#utility.yul\":5834:5871   */\n      tag_98\n      jump\t// in\n    tag_199:\n        /* \"#utility.yul\":5821:5871   */\n      swap1\n      pop\n        /* \"#utility.yul\":5751:5877   */\n      swap2\n      swap1\n      pop\n      jump\t// out\n        /* \"#utility.yul\":5883:6023   */\n    tag_100:\n        /* \"#utility.yul\":5947:5956   */\n      0x00\n        /* \"#utility.yul\":5980:6017   */\n      tag_201\n        /* \"#utility.yul\":6011:6016   */\n      dup3\n        /* \"#utility.yul\":5980:6017   */\n      tag_99\n      jump\t// in\n    tag_201:\n        /* \"#utility.yul\":5967:6017   */\n      swap1\n      pop\n        /* \"#utility.yul\":5883:6023   */\n      swap2\n      swap1\n      pop\n      jump\t// out\n        /* \"#utility.yul\":6029:6188   */\n    tag_101:\n        /* \"#utility.yul\":6130:6181   */\n      tag_203\n        /* \"#utility.yul\":6175:6180   */\n      dup2\n        /* \"#utility.yul\":6130:6181   */\n      tag_100\n      jump\t// in\n    tag_203:\n        /* \"#utility.yul\":6125:6128   */\n      dup3\n        /* \"#utility.yul\":6118:6182   */\n      mstore\n        /* \"#utility.yul\":6029:6188   */\n      pop\n      pop\n      jump\t// out\n        /* \"#utility.yul\":6194:6444   */\n    tag_32:\n        /* \"#utility.yul\":6301:6305   */\n      0x00\n        /* \"#utility.yul\":6339:6341   */\n      0x20\n        /* \"#utility.yul\":6328:6337   */\n      dup3\n        /* \"#utility.yul\":6324:6342   */\n      add\n        /* \"#utility.yul\":6316:6342   */\n      swap1\n      pop\n        /* \"#utility.yul\":6352:6437   */\n      tag_205\n        /* \"#utility.yul\":6434:6435   */\n      0x00\n        /* \"#utility.yul\":6423:6432   */\n      dup4\n        /* \"#utility.yul\":6419:6436   */\n      add\n        /* \"#utility.yul\":6410:6416   */\n      dup5\n        /* \"#utility.yul\":6352:6437   */\n      tag_101\n      jump\t// in\n    tag_205:\n        /* \"#utility.yul\":6194:6444   */\n      swap3\n      swap2\n      pop\n      pop\n      jump\t// out\n        /* \"#utility.yul\":6450:6779   */\n    tag_35:\n        /* \"#utility.yul\":6509:6515   */\n      0x00\n        /* \"#utility.yul\":6558:6560   */\n      0x20\n        /* \"#utility.yul\":6546:6555   */\n      dup3\n        /* \"#utility.yul\":6537:6544   */\n      dup5\n        /* \"#utility.yul\":6533:6556   */\n      sub\n        /* \"#utility.yul\":6529:6561   */\n      slt\n        /* \"#utility.yul\":6526:6645   */\n      iszero\n      tag_207\n      jumpi\n        /* \"#utility.yul\":6564:6643   */\n      tag_208\n      tag_74\n      jump\t// in\n    tag_208:\n        /* \"#utility.yul\":6526:6645   */\n    tag_207:\n        /* \"#utility.yul\":6684:6685   */\n      0x00\n        /* \"#utility.yul\":6709:6762   */\n      tag_209\n        /* \"#utility.yul\":6754:6761   */\n      dup5\n        /* \"#utility.yul\":6745:6751   */\n      dup3\n        /* \"#utility.yul\":6734:6743   */\n      dup6\n        /* \"#utility.yul\":6730:6752   */\n      add\n        /* \"#utility.yul\":6709:6762   */\n      tag_94\n      jump\t// in\n    tag_209:\n        /* \"#utility.yul\":6699:6762   */\n      swap2\n      pop\n        /* \"#utility.yul\":6655:6772   */\n      pop\n        /* \"#utility.yul\":6450:6779   */\n      swap3\n      swap2\n      pop\n      pop\n      jump\t// out\n        /* \"#utility.yul\":6785:6884   */\n    tag_102:\n        /* \"#utility.yul\":6837:6843   */\n      0x00\n        /* \"#utility.yul\":6871:6876   */\n      dup2\n        /* \"#utility.yul\":6865:6877   */\n      mload\n        /* \"#utility.yul\":6855:6877   */\n      swap1\n      pop\n        /* \"#utility.yul\":6785:6884   */\n      swap2\n      swap1\n      pop\n      jump\t// out\n        /* \"#utility.yul\":6890:7059   */\n    tag_103:\n        /* \"#utility.yul\":6974:6985   */\n      0x00\n        /* \"#utility.yul\":7008:7014   */\n      dup3\n        /* \"#utility.yul\":7003:7006   */\n      dup3\n        /* \"#utility.yul\":6996:7015   */\n      mstore\n        /* \"#utility.yul\":7048:7052   */\n      0x20\n        /* \"#utility.yul\":7043:7046   */\n      dup3\n        /* \"#utility.yul\":7039:7053   */\n      add\n        /* \"#utility.yul\":7024:7053   */\n      swap1\n      pop\n        /* \"#utility.yul\":6890:7059   */\n      swap3\n      swap2\n      pop\n      pop\n      jump\t// out\n        /* \"#utility.yul\":7065:7372   */\n    tag_104:\n        /* \"#utility.yul\":7133:7134   */\n      0x00\n        /* \"#utility.yul\":7143:7256   */\n    tag_213:\n        /* \"#utility.yul\":7157:7163   */\n      dup4\n        /* \"#utility.yul\":7154:7155   */\n      dup2\n        /* \"#utility.yul\":7151:7164   */\n      lt\n        /* \"#utility.yul\":7143:7256   */\n      iszero\n      tag_215\n      jumpi\n        /* \"#utility.yul\":7242:7243   */\n      dup1\n        /* \"#utility.yul\":7237:7240   */\n      dup3\n        /* \"#utility.yul\":7233:7244   */\n      add\n        /* \"#utility.yul\":7227:7245   */\n      mload\n        /* \"#utility.yul\":7223:7224   */\n      dup2\n        /* \"#utility.yul\":7218:7221   */\n      dup5\n        /* \"#utility.yul\":7214:7225   */\n      add\n        /* \"#utility.yul\":7207:7246   */\n      mstore\n        /* \"#utility.yul\":7179:7181   */\n      0x20\n        /* \"#utility.yul\":7176:7177   */\n      dup2\n        /* \"#utility.yul\":7172:7182   */\n      add\n        /* \"#utility.yul\":7167:7182   */\n      swap1\n      pop\n        /* \"#utility.yul\":7143:7256   */\n      jump(tag_213)\n    tag_215:\n        /* \"#utility.yul\":7274:7280   */\n      dup4\n        /* \"#utility.yul\":7271:7272   */\n      dup2\n        /* \"#utility.yul\":7268:7281   */\n      gt\n        /* \"#utility.yul\":7265:7366   */\n      iszero\n      tag_216\n      jumpi\n        /* \"#utility.yul\":7354:7355   */\n      0x00\n        /* \"#utility.yul\":7345:7351   */\n      dup5\n        /* \"#utility.yul\":7340:7343   */\n      dup5\n        /* \"#utility.yul\":7336:7352   */\n      add\n        /* \"#utility.yul\":7329:7356   */\n      mstore\n        /* \"#utility.yul\":7265:7366   */\n    tag_216:\n        /* \"#utility.yul\":7114:7372   */\n      pop\n        /* \"#utility.yul\":7065:7372   */\n      pop\n      pop\n      pop\n      jump\t// out\n        /* \"#utility.yul\":7378:7742   */\n    tag_105:\n        /* \"#utility.yul\":7466:7469   */\n      0x00\n        /* \"#utility.yul\":7494:7533   */\n      tag_218\n        /* \"#utility.yul\":7527:7532   */\n      dup3\n        /* \"#utility.yul\":7494:7533   */\n      tag_102\n      jump\t// in\n    tag_218:\n        /* \"#utility.yul\":7549:7620   */\n      tag_219\n        /* \"#utility.yul\":7613:7619   */\n      dup2\n        /* \"#utility.yul\":7608:7611   */\n      dup6\n        /* \"#utility.yul\":7549:7620   */\n      tag_103\n      jump\t// in\n    tag_219:\n        /* \"#utility.yul\":7542:7620   */\n      swap4\n      pop\n        /* \"#utility.yul\":7629:7681   */\n      tag_220\n        /* \"#utility.yul\":7674:7680   */\n      dup2\n        /* \"#utility.yul\":7669:7672   */\n      dup6\n        /* \"#utility.yul\":7662:7666   */\n      0x20\n        /* \"#utility.yul\":7655:7660   */\n      dup7\n        /* \"#utility.yul\":7651:7667   */\n      add\n        /* \"#utility.yul\":7629:7681   */\n      tag_104\n      jump\t// in\n    tag_220:\n        /* \"#utility.yul\":7706:7735   */\n      tag_221\n        /* \"#utility.yul\":7728:7734   */\n      dup2\n        /* \"#utility.yul\":7706:7735   */\n      tag_78\n      jump\t// in\n    tag_221:\n        /* \"#utility.yul\":7701:7704   */\n      dup5\n        /* \"#utility.yul\":7697:7736   */\n      add\n        /* \"#utility.yul\":7690:7736   */\n      swap2\n      pop\n        /* \"#utility.yul\":7470:7742   */\n      pop\n        /* \"#utility.yul\":7378:7742   */\n      swap3\n      swap2\n      pop\n      pop\n      jump\t// out\n        /* \"#utility.yul\":7748:8171   */\n    tag_38:\n        /* \"#utility.yul\":7889:7893   */\n      0x00\n        /* \"#utility.yul\":7927:7929   */\n      0x40\n        /* \"#utility.yul\":7916:7925   */\n      dup3\n        /* \"#utility.yul\":7912:7930   */\n      add\n        /* \"#utility.yul\":7904:7930   */\n      swap1\n      pop\n        /* \"#utility.yul\":7940:8011   */\n      tag_223\n        /* \"#utility.yul\":8008:8009   */\n      0x00\n        /* \"#utility.yul\":7997:8006   */\n      dup4\n        /* \"#utility.yul\":7993:8010   */\n      add\n        /* \"#utility.yul\":7984:7990   */\n      dup6\n        /* \"#utility.yul\":7940:8011   */\n      tag_87\n      jump\t// in\n    tag_223:\n        /* \"#utility.yul\":8058:8067   */\n      dup2\n        /* \"#utility.yul\":8052:8056   */\n      dup2\n        /* \"#utility.yul\":8048:8068   */\n      sub\n        /* \"#utility.yul\":8043:8045   */\n      0x20\n        /* \"#utility.yul\":8032:8041   */\n      dup4\n        /* \"#utility.yul\":8028:8046   */\n      add\n        /* \"#utility.yul\":8021:8069   */\n      mstore\n        /* \"#utility.yul\":8086:8164   */\n      tag_224\n        /* \"#utility.yul\":8159:8163   */\n      dup2\n        /* \"#utility.yul\":8150:8156   */\n      dup5\n        /* \"#utility.yul\":8086:8164   */\n      tag_105\n      jump\t// in\n    tag_224:\n        /* \"#utility.yul\":8078:8164   */\n      swap1\n      pop\n        /* \"#utility.yul\":7748:8171   */\n      swap4\n      swap3\n      pop\n      pop\n      pop\n      jump\t// out\n        /* \"#utility.yul\":8177:8506   */\n    tag_41:\n        /* \"#utility.yul\":8236:8242   */\n      0x00\n        /* \"#utility.yul\":8285:8287   */\n      0x20\n        /* \"#utility.yul\":8273:8282   */\n      dup3\n        /* \"#utility.yul\":8264:8271   */\n      dup5\n        /* \"#utility.yul\":8260:8283   */\n      sub\n        /* \"#utility.yul\":8256:8288   */\n      slt\n        /* \"#utility.yul\":8253:8372   */\n      iszero\n      tag_226\n      jumpi\n        /* \"#utility.yul\":8291:8370   */\n      tag_227\n      tag_74\n      jump\t// in\n    tag_227:\n        /* \"#utility.yul\":8253:8372   */\n    tag_226:\n        /* \"#utility.yul\":8411:8412   */\n      0x00\n        /* \"#utility.yul\":8436:8489   */\n      tag_228\n        /* \"#utility.yul\":8481:8488   */\n      dup5\n        /* \"#utility.yul\":8472:8478   */\n      dup3\n        /* \"#utility.yul\":8461:8470   */\n      dup6\n        /* \"#utility.yul\":8457:8479   */\n      add\n        /* \"#utility.yul\":8436:8489   */\n      tag_92\n      jump\t// in\n    tag_228:\n        /* \"#utility.yul\":8426:8489   */\n      swap2\n      pop\n        /* \"#utility.yul\":8382:8499   */\n      pop\n        /* \"#utility.yul\":8177:8506   */\n      swap3\n      swap2\n      pop\n      pop\n      jump\t// out\n        /* \"#utility.yul\":8512:8692   */\n    tag_106:\n        /* \"#utility.yul\":8560:8637   */\n      0x4e487b7100000000000000000000000000000000000000000000000000000000\n        /* \"#utility.yul\":8557:8558   */\n      0x00\n        /* \"#utility.yul\":8550:8638   */\n      mstore\n        /* \"#utility.yul\":8657:8661   */\n      0x22\n        /* \"#utility.yul\":8654:8655   */\n      0x04\n        /* \"#utility.yul\":8647:8662   */\n      mstore\n        /* \"#utility.yul\":8681:8685   */\n      0x24\n        /* \"#utility.yul\":8678:8679   */\n      0x00\n        /* \"#utility.yul\":8671:8686   */\n      revert\n        /* \"#utility.yul\":8698:9018   */\n    tag_59:\n        /* \"#utility.yul\":8742:8748   */\n      0x00\n        /* \"#utility.yul\":8779:8780   */\n      0x02\n        /* \"#utility.yul\":8773:8777   */\n      dup3\n        /* \"#utility.yul\":8769:8781   */\n      div\n        /* \"#utility.yul\":8759:8781   */\n      swap1\n      pop\n        /* \"#utility.yul\":8826:8827   */\n      0x01\n        /* \"#utility.yul\":8820:8824   */\n      dup3\n        /* \"#utility.yul\":8816:8828   */\n      and\n        /* \"#utility.yul\":8847:8865   */\n      dup1\n        /* \"#utility.yul\":8837:8918   */\n      tag_231\n      jumpi\n        /* \"#utility.yul\":8903:8907   */\n      0x7f\n        /* \"#utility.yul\":8895:8901   */\n      dup3\n        /* \"#utility.yul\":8891:8908   */\n      and\n        /* \"#utility.yul\":8881:8908   */\n      swap2\n      pop\n        /* \"#utility.yul\":8837:8918   */\n    tag_231:\n        /* \"#utility.yul\":8965:8967   */\n      0x20\n        /* \"#utility.yul\":8957:8963   */\n      dup3\n        /* \"#utility.yul\":8954:8968   */\n      lt\n        /* \"#utility.yul\":8934:8952   */\n      dup2\n        /* \"#utility.yul\":8931:8969   */\n      sub\n        /* \"#utility.yul\":8928:9012   */\n      tag_232\n      jumpi\n        /* \"#utility.yul\":8984:9002   */\n      tag_233\n      tag_106\n      jump\t// in\n    tag_233:\n        /* \"#utility.yul\":8928:9012   */\n    tag_232:\n        /* \"#utility.yul\":8749:9018   */\n      pop\n        /* \"#utility.yul\":8698:9018   */\n      swap2\n      swap1\n      pop\n      jump\t// out\n        /* \"#utility.yul\":9024:9165   */\n    tag_107:\n        /* \"#utility.yul\":9073:9077   */\n      0x00\n        /* \"#utility.yul\":9096:9099   */\n      dup2\n        /* \"#utility.yul\":9088:9099   */\n      swap1\n      pop\n        /* \"#utility.yul\":9119:9122   */\n      dup2\n        /* \"#utility.yul\":9116:9117   */\n      0x00\n        /* \"#utility.yul\":9109:9123   */\n      mstore\n        /* \"#utility.yul\":9153:9157   */\n      0x20\n        /* \"#utility.yul\":9150:9151   */\n      0x00\n        /* \"#utility.yul\":9140:9158   */\n      keccak256\n        /* \"#utility.yul\":9132:9158   */\n      swap1\n      pop\n        /* \"#utility.yul\":9024:9165   */\n      swap2\n      swap1\n      pop\n      jump\t// out\n        /* \"#utility.yul\":9171:9264   */\n    tag_108:\n        /* \"#utility.yul\":9208:9214   */\n      0x00\n        /* \"#utility.yul\":9255:9257   */\n      0x20\n        /* \"#utility.yul\":9250:9252   */\n      0x1f\n        /* \"#utility.yul\":9243:9248   */\n      dup4\n        /* \"#utility.yul\":9239:9253   */\n      add\n        /* \"#utility.yul\":9235:9258   */\n      div\n        /* \"#utility.yul\":9225:9258   */\n      swap1\n      pop\n        /* \"#utility.yul\":9171:9264   */\n      swap2\n      swap1\n      pop\n      jump\t// out\n        /* \"#utility.yul\":9270:9377   */\n    tag_109:\n        /* \"#utility.yul\":9314:9322   */\n      0x00\n        /* \"#utility.yul\":9364:9369   */\n      dup3\n        /* \"#utility.yul\":9358:9362   */\n      dup3\n        /* \"#utility.yul\":9354:9370   */\n      shl\n        /* \"#utility.yul\":9333:9370   */\n      swap1\n      pop\n        /* \"#utility.yul\":9270:9377   */\n      swap3\n      swap2\n      pop\n      pop\n      jump\t// out\n        /* \"#utility.yul\":9383:9776   */\n    tag_110:\n        /* \"#utility.yul\":9452:9458   */\n      0x00\n        /* \"#utility.yul\":9502:9503   */\n      0x08\n        /* \"#utility.yul\":9490:9500   */\n      dup4\n        /* \"#utility.yul\":9486:9504   */\n      mul\n        /* \"#utility.yul\":9525:9622   */\n      tag_238\n        /* \"#utility.yul\":9555:9621   */\n      0xffffffffffffffffffffffffffffffffffffffffffffffffffffffffffffffff\n        /* \"#utility.yul\":9544:9553   */\n      dup3\n        /* \"#utility.yul\":9525:9622   */\n      tag_109\n      jump\t// in\n    tag_238:\n        /* \"#utility.yul\":9643:9682   */\n      tag_239\n        /* \"#utility.yul\":9673:9681   */\n      dup7\n        /* \"#utility.yul\":9662:9671   */\n      dup4\n        /* \"#utility.yul\":9643:9682   */\n      tag_109\n      jump\t// in\n    tag_239:\n        /* \"#utility.yul\":9631:9682   */\n      swap6\n      pop\n        /* \"#utility.yul\":9715:9719   */\n      dup1\n        /* \"#utility.yul\":9711:9720   */\n      not\n        /* \"#utility.yul\":9704:9709   */\n      dup5\n        /* \"#utility.yul\":9700:9721   */\n      and\n        /* \"#utility.yul\":9691:9721   */\n      swap4\n      pop\n        /* \"#utility.yul\":9764:9768   */\n      dup1\n        /* \"#utility.yul\":9754:9762   */\n      dup7\n        /* \"#utility.yul\":9750:9769   */\n      and\n        /* \"#utility.yul\":9743:9748   */\n      dup5\n        /* \"#utility.yul\":9740:9770   */\n      or\n        /* \"#utility.yul\":9730:9770   */\n      swap3\n      pop\n        /* \"#utility.yul\":9459:9776   */\n      pop\n      pop\n        /* \"#utility.yul\":9383:9776   */\n      swap4\n      swap3\n      pop\n      pop\n      pop\n      jump\t// out\n        /* \"#utility.yul\":9782:9924   */\n    tag_111:\n        /* \"#utility.yul\":9832:9841   */\n      0x00\n        /* \"#utility.yul\":9865:9918   */\n      tag_241\n        /* \"#utility.yul\":9883:9917   */\n      tag_242\n        /* \"#utility.yul\":9892:9916   */\n      tag_243\n        /* \"#utility.yul\":9910:9915   */\n      dup5\n        /* \"#utility.yul\":9892:9916   */\n      tag_86\n      jump\t// in\n    tag_243:\n        /* \"#utility.yul\":9883:9917   */\n      tag_97\n      jump\t// in\n    tag_242:\n        /* \"#utility.yul\":9865:9918   */\n      tag_86\n      jump\t// in\n    tag_241:\n        /* \"#utility.yul\":9852:9918   */\n      swap1\n      pop\n        /* \"#utility.yul\":9782:9924   */\n      swap2\n      swap1\n      pop\n      jump\t// out\n        /* \"#utility.yul\":9930:10005   */\n    tag_112:\n        /* \"#utility.yul\":9973:9976   */\n      0x00\n        /* \"#utility.yul\":9994:9999   */\n      dup2\n        /* \"#utility.yul\":9987:9999   */\n      swap1\n      pop\n        /* \"#utility.yul\":9930:10005   */\n      swap2\n      swap1\n      pop\n      jump\t// out\n        /* \"#utility.yul\":10011:10280   */\n    tag_113:\n        /* \"#utility.yul\":10121:10160   */\n      tag_246\n        /* \"#utility.yul\":10152:10159   */\n      dup4\n        /* \"#utility.yul\":10121:10160   */\n      tag_111\n      jump\t// in\n    tag_246:\n        /* \"#utility.yul\":10182:10273   */\n      tag_247\n        /* \"#utility.yul\":10231:10272   */\n      tag_248\n        /* \"#utility.yul\":10255:10271   */\n      dup3\n        /* \"#utility.yul\":10231:10272   */\n      tag_112\n      jump\t// in\n    tag_248:\n        /* \"#utility.yul\":10223:10229   */\n      dup5\n        /* \"#utility.yul\":10216:10220   */\n      dup5\n        /* \"#utility.yul\":10210:10221   */\n      sload\n        /* \"#utility.yul\":10182:10273   */\n      tag_110\n      jump\t// in\n    tag_247:\n        /* \"#utility.yul\":10176:10180   */\n      dup3\n        /* \"#utility.yul\":10169:10274   */\n      sstore\n        /* \"#utility.yul\":10087:10280   */\n      pop\n        /* \"#utility.yul\":10011:10280   */\n      pop\n      pop\n      pop\n      jump\t// out\n        /* \"#utility.yul\":10286:10359   */\n    tag_114:\n        /* \"#utility.yul\":10331:10334   */\n      0x00\n        /* \"#utility.yul\":10286:10359   */\n      swap1\n      jump\t// out\n        /* \"#utility.yul\":10365:10554   */\n    tag_115:\n        /* \"#utility.yul\":10442:10474   */\n      tag_251\n      tag_114\n      jump\t// in\n    tag_251:\n        /* \"#utility.yul\":10483:10548   */\n      tag_252\n        /* \"#utility.yul\":10541:10547   */\n      dup2\n        /* \"#utility.yul\":10533:10539   */\n      dup5\n        /* \"#utility.yul\":10527:10531   */\n      dup5\n        /* \"#utility.yul\":10483:10548   */\n      tag_113\n      jump\t// in\n    tag_252:\n        /* \"#utility.yul\":10418:10554   */\n      pop\n        /* \"#utility.yul\":10365:10554   */\n      pop\n      pop\n      jump\t// out\n        /* \"#utility.yul\":10560:10746   */\n    tag_116:\n        /* \"#utility.yul\":10620:10740   */\n    tag_254:\n        /* \"#utility.yul\":10637:10640   */\n      dup2\n        /* \"#utility.yul\":10630:10635   */\n      dup2\n        /* \"#utility.yul\":10627:10641   */\n      lt\n        /* \"#utility.yul\":10620:10740   */\n      iszero\n      tag_256\n      jumpi\n        /* \"#utility.yul\":10691:10730   */\n      tag_257\n        /* \"#utility.yul\":10728:10729   */\n      0x00\n        /* \"#utility.yul\":10721:10726   */\n      dup3\n        /* \"#utility.yul\":10691:10730   */\n      tag_115\n      jump\t// in\n    tag_257:\n        /* \"#utility.yul\":10664:10665   */\n      0x01\n        /* \"#utility.yul\":10657:10662   */\n      dup2\n        /* \"#utility.yul\":10653:10666   */\n      add\n        /* \"#utility.yul\":10644:10666   */\n      swap1\n      pop\n        /* \"#utility.yul\":10620:10740   */\n      jump(tag_254)\n    tag_256:\n        /* \"#utility.yul\":10560:10746   */\n      pop\n      pop\n      jump\t// out\n        /* \"#utility.yul\":10752:11295   */\n    tag_117:\n        /* \"#utility.yul\":10853:10855   */\n      0x1f\n        /* \"#utility.yul\":10848:10851   */\n      dup3\n        /* \"#utility.yul\":10845:10856   */\n      gt\n        /* \"#utility.yul\":10842:11288   */\n      iszero\n      tag_259\n      jumpi\n        /* \"#utility.yul\":10887:10925   */\n      tag_260\n        /* \"#utility.yul\":10919:10924   */\n      dup2\n        /* \"#utility.yul\":10887:10925   */\n      tag_107\n      jump\t// in\n    tag_260:\n        /* \"#utility.yul\":10971:11000   */\n      tag_261\n        /* \"#utility.yul\":10989:10999   */\n      dup5\n        /* \"#utility.yul\":10971:11000   */\n      tag_108\n      jump\t// in\n    tag_261:\n        /* \"#utility.yul\":10961:10969   */\n      dup2\n        /* \"#utility.yul\":10957:11001   */\n      add\n        /* \"#utility.yul\":11154:11156   */\n      0x20\n        /* \"#utility.yul\":11142:11152   */\n      dup6\n        /* \"#utility.yul\":11139:11157   */\n      lt\n        /* \"#utility.yul\":11136:11185   */\n      iszero\n      tag_262\n      jumpi\n        /* \"#utility.yul\":11175:11183   */\n      dup2\n        /* \"#utility.yul\":11160:11183   */\n      swap1\n      pop\n        /* \"#utility.yul\":11136:11185   */\n    tag_262:\n        /* \"#utility.yul\":11198:11278   */\n      tag_263\n        /* \"#utility.yul\":11254:11276   */\n      tag_264\n        /* \"#utility.yul\":11272:11275   */\n      dup6\n        /* \"#utility.yul\":11254:11276   */\n      tag_108\n      jump\t// in\n    tag_264:\n        /* \"#utility.yul\":11244:11252   */\n      dup4\n        /* \"#utility.yul\":11240:11277   */\n      add\n        /* \"#utility.yul\":11227:11238   */\n      dup3\n        /* \"#utility.yul\":11198:11278   */\n      tag_116\n      jump\t// in\n    tag_263:\n        /* \"#utility.yul\":10857:11288   */\n      pop\n      pop\n        /* \"#utility.yul\":10842:11288   */\n    tag_259:\n        /* \"#utility.yul\":10752:11295   */\n      pop\n      pop\n      pop\n      jump\t// out\n        /* \"#utility.yul\":11301:11418   */\n    tag_118:\n        /* \"#utility.yul\":11355:11363   */\n      0x00\n        /* \"#utility.yul\":11405:11410   */\n      dup3\n        /* \"#utility.yul\":11399:11403   */\n      dup3\n        /* \"#utility.yul\":11395:11411   */\n      shr\n        /* \"#utility.yul\":11374:11411   */\n      swap1\n      pop\n        /* \"#utility.yul\":11301:11418   */\n      swap3\n      swap2\n      pop\n      pop\n      jump\t// out\n        /* \"#utility.yul\":11424:11593   */\n    tag_119:\n        /* \"#utility.yul\":11468:11474   */\n      0x00\n        /* \"#utility.yul\":11501:11552   */\n      tag_267\n        /* \"#utility.yul\":11549:11550   */\n      0x00\n        /* \"#utility.yul\":11545:11551   */\n      not\n        /* \"#utility.yul\":11537:11542   */\n      dup5\n        /* \"#utility.yul\":11534:11535   */\n      0x08\n        /* \"#utility.yul\":11530:11543   */\n      mul\n        /* \"#utility.yul\":11501:11552   */\n      tag_118\n      jump\t// in\n    tag_267:\n        /* \"#utility.yul\":11497:11553   */\n      not\n        /* \"#utility.yul\":11582:11586   */\n      dup1\n        /* \"#utility.yul\":11576:11580   */\n      dup4\n        /* \"#utility.yul\":11572:11587   */\n      and\n        /* \"#utility.yul\":11562:11587   */\n      swap2\n      pop\n        /* \"#utility.yul\":11475:11593   */\n      pop\n        /* \"#utility.yul\":11424:11593   */\n      swap3\n      swap2\n      pop\n      pop\n      jump\t// out\n        /* \"#utility.yul\":11598:11893   */\n    tag_120:\n        /* \"#utility.yul\":11674:11678   */\n      0x00\n        /* \"#utility.yul\":11820:11849   */\n      tag_269\n        /* \"#utility.yul\":11845:11848   */\n      dup4\n        /* \"#utility.yul\":11839:11843   */\n      dup4\n        /* \"#utility.yul\":11820:11849   */\n      tag_119\n      jump\t// in\n    tag_269:\n        /* \"#utility.yul\":11812:11849   */\n      swap2\n      pop\n        /* \"#utility.yul\":11882:11885   */\n      dup3\n        /* \"#utility.yul\":11879:11880   */\n      0x02\n        /* \"#utility.yul\":11875:11886   */\n      mul\n        /* \"#utility.yul\":11869:11873   */\n      dup3\n        /* \"#utility.yul\":11866:11887   */\n      or\n        /* \"#utility.yul\":11858:11887   */\n      swap1\n      pop\n        /* \"#utility.yul\":11598:11893   */\n      swap3\n      swap2\n      pop\n      pop\n      jump\t// out\n        /* \"#utility.yul\":11898:13293   */\n    tag_46:\n        /* \"#utility.yul\":12015:12052   */\n      tag_271\n        /* \"#utility.yul\":12048:12051   */\n      dup3\n        /* \"#utility.yul\":12015:12052   */\n      tag_102\n      jump\t// in\n    tag_271:\n        /* \"#utility.yul\":12117:12135   */\n      0xffffffffffffffff\n        /* \"#utility.yul\":12109:12115   */\n      dup2\n        /* \"#utility.yul\":12106:12136   */\n      gt\n        /* \"#utility.yul\":12103:12159   */\n      iszero\n      tag_272\n      jumpi\n        /* \"#utility.yul\":12139:12157   */\n      tag_273\n      tag_79\n      jump\t// in\n    tag_273:\n        /* \"#utility.yul\":12103:12159   */\n    tag_272:\n        /* \"#utility.yul\":12183:12221   */\n      tag_274\n        /* \"#utility.yul\":12215:12219   */\n      dup3\n        /* \"#utility.yul\":12209:12220   */\n      sload\n        /* \"#utility.yul\":12183:12221   */\n      tag_59\n      jump\t// in\n    tag_274:\n        /* \"#utility.yul\":12268:12335   */\n      tag_275\n        /* \"#utility.yul\":12328:12334   */\n      dup3\n        /* \"#utility.yul\":12320:12326   */\n      dup3\n        /* \"#utility.yul\":12314:12318   */\n      dup6\n        /* \"#utility.yul\":12268:12335   */\n      tag_117\n      jump\t// in\n    tag_275:\n        /* \"#utility.yul\":12362:12363   */\n      0x00\n        /* \"#utility.yul\":12386:12390   */\n      0x20\n        /* \"#utility.yul\":12373:12390   */\n      swap1\n      pop\n        /* \"#utility.yul\":12418:12420   */\n      0x1f\n        /* \"#utility.yul\":12410:12416   */\n      dup4\n        /* \"#utility.yul\":12407:12421   */\n      gt\n        /* \"#utility.yul\":12435:12436   */\n      0x01\n        /* \"#utility.yul\":12430:13048   */\n      dup2\n      eq\n      tag_277\n      jumpi\n        /* \"#utility.yul\":13092:13093   */\n      0x00\n        /* \"#utility.yul\":13109:13115   */\n      dup5\n        /* \"#utility.yul\":13106:13183   */\n      iszero\n      tag_278\n      jumpi\n        /* \"#utility.yul\":13158:13167   */\n      dup3\n        /* \"#utility.yul\":13153:13156   */\n      dup8\n        /* \"#utility.yul\":13149:13168   */\n      add\n        /* \"#utility.yul\":13143:13169   */\n      mload\n        /* \"#utility.yul\":13134:13169   */\n      swap1\n      pop\n        /* \"#utility.yul\":13106:13183   */\n    tag_278:\n        /* \"#utility.yul\":13209:13276   */\n      tag_279\n        /* \"#utility.yul\":13269:13275   */\n      dup6\n        /* \"#utility.yul\":13262:13267   */\n      dup3\n        /* \"#utility.yul\":13209:13276   */\n      tag_120\n      jump\t// in\n    tag_279:\n        /* \"#utility.yul\":13203:13207   */\n      dup7\n        /* \"#utility.yul\":13196:13277   */\n      sstore\n        /* \"#utility.yul\":13065:13287   */\n      pop\n        /* \"#utility.yul\":12400:13287   */\n      jump(tag_276)\n        /* \"#utility.yul\":12430:13048   */\n    tag_277:\n        /* \"#utility.yul\":12482:12486   */\n      0x1f\n        /* \"#utility.yul\":12478:12487   */\n      not\n        /* \"#utility.yul\":12470:12476   */\n      dup5\n        /* \"#utility.yul\":12466:12488   */\n      and\n        /* \"#utility.yul\":12516:12553   */\n      tag_280\n        /* \"#utility.yul\":12548:12552   */\n      dup7\n        /* \"#utility.yul\":12516:12553   */\n      tag_107\n      jump\t// in\n    tag_280:\n        /* \"#utility.yul\":12575:12576   */\n      0x00\n        /* \"#utility.yul\":12589:12797   */\n    tag_281:\n        /* \"#utility.yul\":12603:12610   */\n      dup3\n        /* \"#utility.yul\":12600:12601   */\n      dup2\n        /* \"#utility.yul\":12597:12611   */\n      lt\n        /* \"#utility.yul\":12589:12797   */\n      iszero\n      tag_283\n      jumpi\n        /* \"#utility.yul\":12682:12691   */\n      dup5\n        /* \"#utility.yul\":12677:12680   */\n      dup10\n        /* \"#utility.yul\":12673:12692   */\n      add\n        /* \"#utility.yul\":12667:12693   */\n      mload\n        /* \"#utility.yul\":12659:12665   */\n      dup3\n        /* \"#utility.yul\":12652:12694   */\n      sstore\n        /* \"#utility.yul\":12733:12734   */\n      0x01\n        /* \"#utility.yul\":12725:12731   */\n      dup3\n        /* \"#utility.yul\":12721:12735   */\n      add\n        /* \"#utility.yul\":12711:12735   */\n      swap2\n      pop\n        /* \"#utility.yul\":12780:12782   */\n      0x20\n        /* \"#utility.yul\":12769:12778   */\n      dup6\n        /* \"#utility.yul\":12765:12783   */\n      add\n        /* \"#utility.yul\":12752:12783   */\n      swap5\n      pop\n        /* \"#utility.yul\":12626:12630   */\n      0x20\n        /* \"#utility.yul\":12623:12624   */\n      dup2\n        /* \"#utility.yul\":12619:12631   */\n      add\n        /* \"#utility.yul\":12614:12631   */\n      swap1\n      pop\n        /* \"#utility.yul\":12589:12797   */\n      jump(tag_281)\n    tag_283:\n        /* \"#utility.yul\":12825:12831   */\n      dup7\n        /* \"#utility.yul\":12816:12823   */\n      dup4\n        /* \"#utility.yul\":12813:12832   */\n      lt\n        /* \"#utility.yul\":12810:12989   */\n      iszero\n      tag_284\n      jumpi\n        /* \"#utility.yul\":12883:12892   */\n      dup5\n        /* \"#utility.yul\":12878:12881   */\n      dup10\n        /* \"#utility.yul\":12874:12893   */\n      add\n        /* \"#utility.yul\":12868:12894   */\n      mload\n        /* \"#utility.yul\":12926:12974   */\n      tag_285\n        /* \"#utility.yul\":12968:12972   */\n      0x1f\n        /* \"#utility.yul\":12960:12966   */\n      dup10\n        /* \"#utility.yul\":12956:12973   */\n      and\n        /* \"#utility.yul\":12945:12954   */\n      dup3\n        /* \"#utility.yul\":12926:12974   */\n      tag_119\n      jump\t// in\n    tag_285:\n        /* \"#utility.yul\":12918:12924   */\n      dup4\n        /* \"#utility.yul\":12911:12975   */\n      sstore\n        /* \"#utility.yul\":12833:12989   */\n      pop\n        /* \"#utility.yul\":12810:12989   */\n    tag_284:\n        /* \"#utility.yul\":13035:13036   */\n      0x01\n        /* \"#utility.yul\":13031:13032   */\n      0x02\n        /* \"#utility.yul\":13023:13029   */\n      dup9\n        /* \"#utility.yul\":13019:13033   */\n      mul\n        /* \"#utility.yul\":13015:13037   */\n      add\n        /* \"#utility.yul\":13009:13013   */\n      dup9\n        /* \"#utility.yul\":13002:13038   */\n      sstore\n        /* \"#utility.yul\":12437:13048   */\n      pop\n      pop\n      pop\n        /* \"#utility.yul\":12400:13287   */\n    tag_276:\n      pop\n        /* \"#utility.yul\":11990:13293   */\n      pop\n      pop\n      pop\n        /* \"#utility.yul\":11898:13293   */\n      pop\n      pop\n      jump\t// out\n        /* \"#utility.yul\":13299:13631   */\n    tag_53:\n        /* \"#utility.yul\":13420:13424   */\n      0x00\n        /* \"#utility.yul\":13458:13460   */\n      0x40\n        /* \"#utility.yul\":13447:13456   */\n      dup3\n        /* \"#utility.yul\":13443:13461   */\n      add\n        /* \"#utility.yul\":13435:13461   */\n      swap1\n      pop\n        /* \"#utility.yul\":13471:13542   */\n      tag_287\n        /* \"#utility.yul\":13539:13540   */\n      0x00\n        /* \"#utility.yul\":13528:13537   */\n      dup4\n        /* \"#utility.yul\":13524:13541   */\n      add\n        /* \"#utility.yul\":13515:13521   */\n      dup6\n        /* \"#utility.yul\":13471:13542   */\n      tag_90\n      jump\t// in\n    tag_287:\n        /* \"#utility.yul\":13552:13624   */\n      tag_288\n        /* \"#utility.yul\":13620:13622   */\n      0x20\n        /* \"#utility.yul\":13609:13618   */\n      dup4\n        /* \"#utility.yul\":13605:13623   */\n      add\n        /* \"#utility.yul\":13596:13602   */\n      dup5\n        /* \"#utility.yul\":13552:13624   */\n      tag_87\n      jump\t// in\n    tag_288:\n        /* \"#utility.yul\":13299:13631   */\n      swap4\n      swap3\n      pop\n      pop\n      pop\n      jump\t// out\n        /* \"#utility.yul\":13637:13753   */\n    tag_121:\n        /* \"#utility.yul\":13707:13728   */\n      tag_290\n        /* \"#utility.yul\":13722:13727   */\n      dup2\n        /* \"#utility.yul\":13707:13728   */\n      tag_95\n      jump\t// in\n    tag_290:\n        /* \"#utility.yul\":13700:13705   */\n      dup2\n        /* \"#utility.yul\":13697:13729   */\n      eq\n        /* \"#utility.yul\":13687:13747   */\n      tag_291\n      jumpi\n        /* \"#utility.yul\":13743:13744   */\n      0x00\n        /* \"#utility.yul\":13740:13741   */\n      dup1\n        /* \"#utility.yul\":13733:13745   */\n      revert\n        /* \"#utility.yul\":13687:13747   */\n    tag_291:\n        /* \"#utility.yul\":13637:13753   */\n      pop\n      jump\t// out\n        /* \"#utility.yul\":13759:13896   */\n    tag_122:\n        /* \"#utility.yul\":13813:13818   */\n      0x00\n        /* \"#utility.yul\":13844:13850   */\n      dup2\n        /* \"#utility.yul\":13838:13851   */\n      mload\n        /* \"#utility.yul\":13829:13851   */\n      swap1\n      pop\n        /* \"#utility.yul\":13860:13890   */\n      tag_293\n        /* \"#utility.yul\":13884:13889   */\n      dup2\n        /* \"#utility.yul\":13860:13890   */\n      tag_121\n      jump\t// in\n    tag_293:\n        /* \"#utility.yul\":13759:13896   */\n      swap3\n      swap2\n      pop\n      pop\n      jump\t// out\n        /* \"#utility.yul\":13902:14247   */\n    tag_57:\n        /* \"#utility.yul\":13969:13975   */\n      0x00\n        /* \"#utility.yul\":14018:14020   */\n      0x20\n        /* \"#utility.yul\":14006:14015   */\n      dup3\n        /* \"#utility.yul\":13997:14004   */\n      dup5\n        /* \"#utility.yul\":13993:14016   */\n      sub\n        /* \"#utility.yul\":13989:14021   */\n      slt\n        /* \"#utility.yul\":13986:14105   */\n      iszero\n      tag_295\n      jumpi\n        /* \"#utility.yul\":14024:14103   */\n      tag_296\n      tag_74\n      jump\t// in\n    tag_296:\n        /* \"#utility.yul\":13986:14105   */\n    tag_295:\n        /* \"#utility.yul\":14144:14145   */\n      0x00\n        /* \"#utility.yul\":14169:14230   */\n      tag_297\n        /* \"#utility.yul\":14222:14229   */\n      dup5\n        /* \"#utility.yul\":14213:14219   */\n      dup3\n        /* \"#utility.yul\":14202:14211   */\n      dup6\n        /* \"#utility.yul\":14198:14220   */\n      add\n        /* \"#utility.yul\":14169:14230   */\n      tag_122\n      jump\t// in\n    tag_297:\n        /* \"#utility.yul\":14159:14230   */\n      swap2\n      pop\n        /* \"#utility.yul\":14115:14240   */\n      pop\n        /* \"#utility.yul\":13902:14247   */\n      swap3\n      swap2\n      pop\n      pop\n      jump\t// out\n        /* \"#utility.yul\":14253:14396   */\n    tag_123:\n        /* \"#utility.yul\":14310:14315   */\n      0x00\n        /* \"#utility.yul\":14341:14347   */\n      dup2\n        /* \"#utility.yul\":14335:14348   */\n      mload\n        /* \"#utility.yul\":14326:14348   */\n      swap1\n      pop\n        /* \"#utility.yul\":14357:14390   */\n      tag_299\n        /* \"#utility.yul\":14384:14389   */\n      dup2\n        /* \"#utility.yul\":14357:14390   */\n      tag_93\n      jump\t// in\n    tag_299:\n        /* \"#utility.yul\":14253:14396   */\n      swap3\n      swap2\n      pop\n      pop\n      jump\t// out\n        /* \"#utility.yul\":14402:14753   */\n    tag_69:\n        /* \"#utility.yul\":14472:14478   */\n      0x00\n        /* \"#utility.yul\":14521:14523   */\n      0x20\n        /* \"#utility.yul\":14509:14518   */\n      dup3\n        /* \"#utility.yul\":14500:14507   */\n      dup5\n        /* \"#utility.yul\":14496:14519   */\n      sub\n        /* \"#utility.yul\":14492:14524   */\n      slt\n        /* \"#utility.yul\":14489:14608   */\n      iszero\n      tag_301\n      jumpi\n        /* \"#utility.yul\":14527:14606   */\n      tag_302\n      tag_74\n      jump\t// in\n    tag_302:\n        /* \"#utility.yul\":14489:14608   */\n    tag_301:\n        /* \"#utility.yul\":14647:14648   */\n      0x00\n        /* \"#utility.yul\":14672:14736   */\n      tag_303\n        /* \"#utility.yul\":14728:14735   */\n      dup5\n        /* \"#utility.yul\":14719:14725   */\n      dup3\n        /* \"#utility.yul\":14708:14717   */\n      dup6\n        /* \"#utility.yul\":14704:14726   */\n      add\n        /* \"#utility.yul\":14672:14736   */\n      tag_123\n      jump\t// in\n    tag_303:\n        /* \"#utility.yul\":14662:14736   */\n      swap2\n      pop\n        /* \"#utility.yul\":14618:14746   */\n      pop\n        /* \"#utility.yul\":14402:14753   */\n      swap3\n      swap2\n      pop\n      pop\n      jump\t// out\n        /* \"#utility.yul\":14759:14939   */\n    tag_124:\n        /* \"#utility.yul\":14807:14884   */\n      0x4e487b7100000000000000000000000000000000000000000000000000000000\n        /* \"#utility.yul\":14804:14805   */\n      0x00\n        /* \"#utility.yul\":14797:14885   */\n      mstore\n        /* \"#utility.yul\":14904:14908   */\n      0x11\n        /* \"#utility.yul\":14901:14902   */\n      0x04\n        /* \"#utility.yul\":14894:14909   */\n      mstore\n        /* \"#utility.yul\":14928:14932   */\n      0x24\n        /* \"#utility.yul\":14925:14926   */\n      0x00\n        /* \"#utility.yul\":14918:14933   */\n      revert\n        /* \"#utility.yul\":14945:15136   */\n    tag_72:\n        /* \"#utility.yul\":14985:14988   */\n      0x00\n        /* \"#utility.yul\":15004:15024   */\n      tag_306\n        /* \"#utility.yul\":15022:15023   */\n      dup3\n        /* \"#utility.yul\":15004:15024   */\n      tag_86\n      jump\t// in\n    tag_306:\n        /* \"#utility.yul\":14999:15024   */\n      swap2\n      pop\n        /* \"#utility.yul\":15038:15058   */\n      tag_307\n        /* \"#utility.yul\":15056:15057   */\n      dup4\n        /* \"#utility.yul\":15038:15058   */\n      tag_86\n      jump\t// in\n    tag_307:\n        /* \"#utility.yul\":15033:15058   */\n      swap3\n      pop\n        /* \"#utility.yul\":15081:15082   */\n      dup3\n        /* \"#utility.yul\":15078:15079   */\n      dup3\n        /* \"#utility.yul\":15074:15083   */\n      add\n        /* \"#utility.yul\":15067:15083   */\n      swap1\n      pop\n        /* \"#utility.yul\":15102:15105   */\n      dup1\n        /* \"#utility.yul\":15099:15100   */\n      dup3\n        /* \"#utility.yul\":15096:15106   */\n      gt\n        /* \"#utility.yul\":15093:15129   */\n      iszero\n      tag_308\n      jumpi\n        /* \"#utility.yul\":15109:15127   */\n      tag_309\n      tag_124\n      jump\t// in\n    tag_309:\n        /* \"#utility.yul\":15093:15129   */\n    tag_308:\n        /* \"#utility.yul\":14945:15136   */\n      swap3\n      swap2\n      pop\n      pop\n      jump\t// out\n\n    auxdata: 0xa2646970667358221220511c339bdf8ac44a1407efa093871b4fae40d5c2c206d3df91ed5bf1c8eacaa264736f6c637823302e382e31362d63692e323032322e372e31342b636f6d6d69742e38303030383865330054\n}\n",
				"bytecode": {
					"linkReferences": {},
					"object": "6080604052600060025534801561001557600080fd5b5060405162000ef738038062000ef783398181016040528101906100399190610135565b336000806101000a81548173ffffffffffffffffffffffffffffffffffffffff021916908373ffffffffffffffffffffffffffffffffffffffff16021790555080600160006101000a81548173ffffffffffffffffffffffffffffffffffffffff021916908373ffffffffffffffffffffffffffffffffffffffff16021790555050610162565b600080fd5b600073ffffffffffffffffffffffffffffffffffffffff82169050919050565b60006100f0826100c5565b9050919050565b6000610102826100e5565b9050919050565b610112816100f7565b811461011d57600080fd5b50565b60008151905061012f81610109565b92915050565b60006020828403121561014b5761014a6100c0565b5b600061015984828501610120565b91505092915050565b610d8580620001726000396000f3fe608060405234801561001057600080fd5b506004361061007d5760003560e01c806363d9b4b11161005b57806363d9b4b1146100da5780639d76ea581461010a5780639e7a13ad14610128578063f8b2cb4f146101595761007d565b80630bf2ee8d14610082578063267c68e01461009e5780634273601c146100bc575b600080fd5b61009c60048036038101906100979190610600565b610189565b005b6100a66101e3565b6040516100b39190610662565b60405180910390f35b6100c46101e9565b6040516100d191906106be565b60405180910390f35b6100f460048036038101906100ef9190610731565b61020d565b604051610101919061078c565b60405180910390f35b610112610313565b60405161011f9190610806565b60405180910390f35b610142600480360381019061013d9190610821565b610339565b6040516101509291906108d6565b60405180910390f35b610173600480360381019061016e9190610906565b6103e5565b6040516101809190610662565b60405180910390f35b60405180604001604052806002548152602001828152506003600060025481526020019081526020016000206000820151816000015560208201518160010190816101d49190610b35565b509050506101e061048a565b50565b60025481565b60008054906101000a900473ffffffffffffffffffffffffffffffffffffffff1681565b60008060009054906101000a900473ffffffffffffffffffffffffffffffffffffffff1673ffffffffffffffffffffffffffffffffffffffff163373ffffffffffffffffffffffffffffffffffffffff161461026857600080fd5b600160009054906101000a900473ffffffffffffffffffffffffffffffffffffffff1673ffffffffffffffffffffffffffffffffffffffff1663a9059cbb84846040518363ffffffff1660e01b81526004016102c5929190610c07565b6020604051808303816000875af11580156102e4573d6000803e3d6000fd5b505050506040513d601f19601f820116820180604052508101906103089190610c5c565b506001905092915050565b600160009054906101000a900473ffffffffffffffffffffffffffffffffffffffff1681565b600360205280600052604060002060009150905080600001549080600101805461036290610962565b80601f016020809104026020016040519081016040528092919081815260200182805461038e90610962565b80156103db5780601f106103b0576101008083540402835291602001916103db565b820191906000526020600020905b8154815290600101906020018083116103be57829003601f168201915b5050505050905082565b6000600160009054906101000a900473ffffffffffffffffffffffffffffffffffffffff1673ffffffffffffffffffffffffffffffffffffffff166370a08231836040518263ffffffff1660e01b815260040161044291906106be565b602060405180830381865afa15801561045f573d6000803e3d6000fd5b505050506040513d601f19601f820116820180604052508101906104839190610c9e565b9050919050565b60016002600082825461049d9190610cfa565b92505081905550565b6000604051905090565b600080fd5b600080fd5b600080fd5b600080fd5b6000601f19601f8301169050919050565b7f4e487b7100000000000000000000000000000000000000000000000000000000600052604160045260246000fd5b61050d826104c4565b810181811067ffffffffffffffff8211171561052c5761052b6104d5565b5b80604052505050565b600061053f6104a6565b905061054b8282610504565b919050565b600067ffffffffffffffff82111561056b5761056a6104d5565b5b610574826104c4565b9050602081019050919050565b82818337600083830152505050565b60006105a361059e84610550565b610535565b9050828152602081018484840111156105bf576105be6104bf565b5b6105ca848285610581565b509392505050565b600082601f8301126105e7576105e66104ba565b5b81356105f7848260208601610590565b91505092915050565b600060208284031215610616576106156104b0565b5b600082013567ffffffffffffffff811115610634576106336104b5565b5b610640848285016105d2565b91505092915050565b6000819050919050565b61065c81610649565b82525050565b60006020820190506106776000830184610653565b92915050565b600073ffffffffffffffffffffffffffffffffffffffff82169050919050565b60006106a88261067d565b9050919050565b6106b88161069d565b82525050565b60006020820190506106d360008301846106af565b92915050565b6106e28161069d565b81146106ed57600080fd5b50565b6000813590506106ff816106d9565b92915050565b61070e81610649565b811461071957600080fd5b50565b60008135905061072b81610705565b92915050565b60008060408385031215610748576107476104b0565b5b6000610756858286016106f0565b92505060206107678582860161071c565b9150509250929050565b60008115159050919050565b61078681610771565b82525050565b60006020820190506107a1600083018461077d565b92915050565b6000819050919050565b60006107cc6107c76107c28461067d565b6107a7565b61067d565b9050919050565b60006107de826107b1565b9050919050565b60006107f0826107d3565b9050919050565b610800816107e5565b82525050565b600060208201905061081b60008301846107f7565b92915050565b600060208284031215610837576108366104b0565b5b60006108458482850161071c565b91505092915050565b600081519050919050565b600082825260208201905092915050565b60005b8381101561088857808201518184015260208101905061086d565b83811115610897576000848401525b50505050565b60006108a88261084e565b6108b28185610859565b93506108c281856020860161086a565b6108cb816104c4565b840191505092915050565b60006040820190506108eb6000830185610653565b81810360208301526108fd818461089d565b90509392505050565b60006020828403121561091c5761091b6104b0565b5b600061092a848285016106f0565b91505092915050565b7f4e487b7100000000000000000000000000000000000000000000000000000000600052602260045260246000fd5b6000600282049050600182168061097a57607f821691505b60208210810361098d5761098c610933565b5b50919050565b60008190508160005260206000209050919050565b60006020601f8301049050919050565b600082821b905092915050565b6000600883026109f57fffffffffffffffffffffffffffffffffffffffffffffffffffffffffffffffff826109b8565b6109ff86836109b8565b95508019841693508086168417925050509392505050565b6000610a32610a2d610a2884610649565b6107a7565b610649565b9050919050565b6000819050919050565b610a4c83610a17565b610a60610a5882610a39565b8484546109c5565b825550505050565b600090565b610a75610a68565b610a80818484610a43565b505050565b5b81811015610aa457610a99600082610a6d565b600181019050610a86565b5050565b601f821115610ae957610aba81610993565b610ac3846109a8565b81016020851015610ad2578190505b610ae6610ade856109a8565b830182610a85565b50505b505050565b600082821c905092915050565b6000610b0c60001984600802610aee565b1980831691505092915050565b6000610b258383610afb565b9150826002028217905092915050565b610b3e8261084e565b67ffffffffffffffff811115610b5757610b566104d5565b5b610b618254610962565b610b6c828285610aa8565b600060209050601f831160018114610b9f5760008415610b8d578287015190505b610b978582610b19565b865550610bff565b601f198416610bad86610993565b60005b82811015610bd557848901518255600182019150602085019450602081019050610bb0565b86831015610bf25784890151610bee601f891682610afb565b8355505b6001600288020188555050505b505050505050565b6000604082019050610c1c60008301856106af565b610c296020830184610653565b9392505050565b610c3981610771565b8114610c4457600080fd5b50565b600081519050610c5681610c30565b92915050565b600060208284031215610c7257610c716104b0565b5b6000610c8084828501610c47565b91505092915050565b600081519050610c9881610705565b92915050565b600060208284031215610cb457610cb36104b0565b5b6000610cc284828501610c89565b91505092915050565b7f4e487b7100000000000000000000000000000000000000000000000000000000600052601160045260246000fd5b6000610d0582610649565b9150610d1083610649565b9250828201905080821115610d2857610d27610ccb565b5b9291505056fea2646970667358221220511c339bdf8ac44a1407efa093871b4fae40d5c2c206d3df91ed5bf1c8eacaa264736f6c637823302e382e31362d63692e323032322e372e31342b636f6d6d69742e38303030383865330054",
					"opcodes": "PUSH1 0x80 PUSH1 0x40 MSTORE PUSH1 0x0 PUSH1 0x2 SSTORE CALLVALUE DUP1 ISZERO PUSH2 0x15 JUMPI PUSH1 0x0 DUP1 REVERT JUMPDEST POP PUSH1 0x40 MLOAD PUSH3 0xEF7 CODESIZE SUB DUP1 PUSH3 0xEF7 DUP4 CODECOPY DUP2 DUP2 ADD PUSH1 0x40 MSTORE DUP2 ADD SWAP1 PUSH2 0x39 SWAP2 SWAP1 PUSH2 0x135 JUMP JUMPDEST CALLER PUSH1 0x0 DUP1 PUSH2 0x100 EXP DUP2 SLOAD DUP2 PUSH20 0xFFFFFFFFFFFFFFFFFFFFFFFFFFFFFFFFFFFFFFFF MUL NOT AND SWAP1 DUP4 PUSH20 0xFFFFFFFFFFFFFFFFFFFFFFFFFFFFFFFFFFFFFFFF AND MUL OR SWAP1 SSTORE POP DUP1 PUSH1 0x1 PUSH1 0x0 PUSH2 0x100 EXP DUP2 SLOAD DUP2 PUSH20 0xFFFFFFFFFFFFFFFFFFFFFFFFFFFFFFFFFFFFFFFF MUL NOT AND SWAP1 DUP4 PUSH20 0xFFFFFFFFFFFFFFFFFFFFFFFFFFFFFFFFFFFFFFFF AND MUL OR SWAP1 SSTORE POP POP PUSH2 0x162 JUMP JUMPDEST PUSH1 0x0 DUP1 REVERT JUMPDEST PUSH1 0x0 PUSH20 0xFFFFFFFFFFFFFFFFFFFFFFFFFFFFFFFFFFFFFFFF DUP3 AND SWAP1 POP SWAP2 SWAP1 POP JUMP JUMPDEST PUSH1 0x0 PUSH2 0xF0 DUP3 PUSH2 0xC5 JUMP JUMPDEST SWAP1 POP SWAP2 SWAP1 POP JUMP JUMPDEST PUSH1 0x0 PUSH2 0x102 DUP3 PUSH2 0xE5 JUMP JUMPDEST SWAP1 POP SWAP2 SWAP1 POP JUMP JUMPDEST PUSH2 0x112 DUP2 PUSH2 0xF7 JUMP JUMPDEST DUP2 EQ PUSH2 0x11D JUMPI PUSH1 0x0 DUP1 REVERT JUMPDEST POP JUMP JUMPDEST PUSH1 0x0 DUP2 MLOAD SWAP1 POP PUSH2 0x12F DUP2 PUSH2 0x109 JUMP JUMPDEST SWAP3 SWAP2 POP POP JUMP JUMPDEST PUSH1 0x0 PUSH1 0x20 DUP3 DUP5 SUB SLT ISZERO PUSH2 0x14B JUMPI PUSH2 0x14A PUSH2 0xC0 JUMP JUMPDEST JUMPDEST PUSH1 0x0 PUSH2 0x159 DUP5 DUP3 DUP6 ADD PUSH2 0x120 JUMP JUMPDEST SWAP2 POP POP SWAP3 SWAP2 POP POP JUMP JUMPDEST PUSH2 0xD85 DUP1 PUSH3 0x172 PUSH1 0x0 CODECOPY PUSH1 0x0 RETURN INVALID PUSH1 0x80 PUSH1 0x40 MSTORE CALLVALUE DUP1 ISZERO PUSH2 0x10 JUMPI PUSH1 0x0 DUP1 REVERT JUMPDEST POP PUSH1 0x4 CALLDATASIZE LT PUSH2 0x7D JUMPI PUSH1 0x0 CALLDATALOAD PUSH1 0xE0 SHR DUP1 PUSH4 0x63D9B4B1 GT PUSH2 0x5B JUMPI DUP1 PUSH4 0x63D9B4B1 EQ PUSH2 0xDA JUMPI DUP1 PUSH4 0x9D76EA58 EQ PUSH2 0x10A JUMPI DUP1 PUSH4 0x9E7A13AD EQ PUSH2 0x128 JUMPI DUP1 PUSH4 0xF8B2CB4F EQ PUSH2 0x159 JUMPI PUSH2 0x7D JUMP JUMPDEST DUP1 PUSH4 0xBF2EE8D EQ PUSH2 0x82 JUMPI DUP1 PUSH4 0x267C68E0 EQ PUSH2 0x9E JUMPI DUP1 PUSH4 0x4273601C EQ PUSH2 0xBC JUMPI JUMPDEST PUSH1 0x0 DUP1 REVERT JUMPDEST PUSH2 0x9C PUSH1 0x4 DUP1 CALLDATASIZE SUB DUP2 ADD SWAP1 PUSH2 0x97 SWAP2 SWAP1 PUSH2 0x600 JUMP JUMPDEST PUSH2 0x189 JUMP JUMPDEST STOP JUMPDEST PUSH2 0xA6 PUSH2 0x1E3 JUMP JUMPDEST PUSH1 0x40 MLOAD PUSH2 0xB3 SWAP2 SWAP1 PUSH2 0x662 JUMP JUMPDEST PUSH1 0x40 MLOAD DUP1 SWAP2 SUB SWAP1 RETURN JUMPDEST PUSH2 0xC4 PUSH2 0x1E9 JUMP JUMPDEST PUSH1 0x40 MLOAD PUSH2 0xD1 SWAP2 SWAP1 PUSH2 0x6BE JUMP JUMPDEST PUSH1 0x40 MLOAD DUP1 SWAP2 SUB SWAP1 RETURN JUMPDEST PUSH2 0xF4 PUSH1 0x4 DUP1 CALLDATASIZE SUB DUP2 ADD SWAP1 PUSH2 0xEF SWAP2 SWAP1 PUSH2 0x731 JUMP JUMPDEST PUSH2 0x20D JUMP JUMPDEST PUSH1 0x40 MLOAD PUSH2 0x101 SWAP2 SWAP1 PUSH2 0x78C JUMP JUMPDEST PUSH1 0x40 MLOAD DUP1 SWAP2 SUB SWAP1 RETURN JUMPDEST PUSH2 0x112 PUSH2 0x313 JUMP JUMPDEST PUSH1 0x40 MLOAD PUSH2 0x11F SWAP2 SWAP1 PUSH2 0x806 JUMP JUMPDEST PUSH1 0x40 MLOAD DUP1 SWAP2 SUB SWAP1 RETURN JUMPDEST PUSH2 0x142 PUSH1 0x4 DUP1 CALLDATASIZE SUB DUP2 ADD SWAP1 PUSH2 0x13D SWAP2 SWAP1 PUSH2 0x821 JUMP JUMPDEST PUSH2 0x339 JUMP JUMPDEST PUSH1 0x40 MLOAD PUSH2 0x150 SWAP3 SWAP2 SWAP1 PUSH2 0x8D6 JUMP JUMPDEST PUSH1 0x40 MLOAD DUP1 SWAP2 SUB SWAP1 RETURN JUMPDEST PUSH2 0x173 PUSH1 0x4 DUP1 CALLDATASIZE SUB DUP2 ADD SWAP1 PUSH2 0x16E SWAP2 SWAP1 PUSH2 0x906 JUMP JUMPDEST PUSH2 0x3E5 JUMP JUMPDEST PUSH1 0x40 MLOAD PUSH2 0x180 SWAP2 SWAP1 PUSH2 0x662 JUMP JUMPDEST PUSH1 0x40 MLOAD DUP1 SWAP2 SUB SWAP1 RETURN JUMPDEST PUSH1 0x40 MLOAD DUP1 PUSH1 0x40 ADD PUSH1 0x40 MSTORE DUP1 PUSH1 0x2 SLOAD DUP2 MSTORE PUSH1 0x20 ADD DUP3 DUP2 MSTORE POP PUSH1 0x3 PUSH1 0x0 PUSH1 0x2 SLOAD DUP2 MSTORE PUSH1 0x20 ADD SWAP1 DUP2 MSTORE PUSH1 0x20 ADD PUSH1 0x0 KECCAK256 PUSH1 0x0 DUP3 ADD MLOAD DUP2 PUSH1 0x0 ADD SSTORE PUSH1 0x20 DUP3 ADD MLOAD DUP2 PUSH1 0x1 ADD SWAP1 DUP2 PUSH2 0x1D4 SWAP2 SWAP1 PUSH2 0xB35 JUMP JUMPDEST POP SWAP1 POP POP PUSH2 0x1E0 PUSH2 0x48A JUMP JUMPDEST POP JUMP JUMPDEST PUSH1 0x2 SLOAD DUP2 JUMP JUMPDEST PUSH1 0x0 DUP1 SLOAD SWAP1 PUSH2 0x100 EXP SWAP1 DIV PUSH20 0xFFFFFFFFFFFFFFFFFFFFFFFFFFFFFFFFFFFFFFFF AND DUP2 JUMP JUMPDEST PUSH1 0x0 DUP1 PUSH1 0x0 SWAP1 SLOAD SWAP1 PUSH2 0x100 EXP SWAP1 DIV PUSH20 0xFFFFFFFFFFFFFFFFFFFFFFFFFFFFFFFFFFFFFFFF AND PUSH20 0xFFFFFFFFFFFFFFFFFFFFFFFFFFFFFFFFFFFFFFFF AND CALLER PUSH20 0xFFFFFFFFFFFFFFFFFFFFFFFFFFFFFFFFFFFFFFFF AND EQ PUSH2 0x268 JUMPI PUSH1 0x0 DUP1 REVERT JUMPDEST PUSH1 0x1 PUSH1 0x0 SWAP1 SLOAD SWAP1 PUSH2 0x100 EXP SWAP1 DIV PUSH20 0xFFFFFFFFFFFFFFFFFFFFFFFFFFFFFFFFFFFFFFFF AND PUSH20 0xFFFFFFFFFFFFFFFFFFFFFFFFFFFFFFFFFFFFFFFF AND PUSH4 0xA9059CBB DUP5 DUP5 PUSH1 0x40 MLOAD DUP4 PUSH4 0xFFFFFFFF AND PUSH1 0xE0 SHL DUP2 MSTORE PUSH1 0x4 ADD PUSH2 0x2C5 SWAP3 SWAP2 SWAP1 PUSH2 0xC07 JUMP JUMPDEST PUSH1 0x20 PUSH1 0x40 MLOAD DUP1 DUP4 SUB DUP2 PUSH1 0x0 DUP8 GAS CALL ISZERO DUP1 ISZERO PUSH2 0x2E4 JUMPI RETURNDATASIZE PUSH1 0x0 DUP1 RETURNDATACOPY RETURNDATASIZE PUSH1 0x0 REVERT JUMPDEST POP POP POP POP PUSH1 0x40 MLOAD RETURNDATASIZE PUSH1 0x1F NOT PUSH1 0x1F DUP3 ADD AND DUP3 ADD DUP1 PUSH1 0x40 MSTORE POP DUP2 ADD SWAP1 PUSH2 0x308 SWAP2 SWAP1 PUSH2 0xC5C JUMP JUMPDEST POP PUSH1 0x1 SWAP1 POP SWAP3 SWAP2 POP POP JUMP JUMPDEST PUSH1 0x1 PUSH1 0x0 SWAP1 SLOAD SWAP1 PUSH2 0x100 EXP SWAP1 DIV PUSH20 0xFFFFFFFFFFFFFFFFFFFFFFFFFFFFFFFFFFFFFFFF AND DUP2 JUMP JUMPDEST PUSH1 0x3 PUSH1 0x20 MSTORE DUP1 PUSH1 0x0 MSTORE PUSH1 0x40 PUSH1 0x0 KECCAK256 PUSH1 0x0 SWAP2 POP SWAP1 POP DUP1 PUSH1 0x0 ADD SLOAD SWAP1 DUP1 PUSH1 0x1 ADD DUP1 SLOAD PUSH2 0x362 SWAP1 PUSH2 0x962 JUMP JUMPDEST DUP1 PUSH1 0x1F ADD PUSH1 0x20 DUP1 SWAP2 DIV MUL PUSH1 0x20 ADD PUSH1 0x40 MLOAD SWAP1 DUP2 ADD PUSH1 0x40 MSTORE DUP1 SWAP3 SWAP2 SWAP1 DUP2 DUP2 MSTORE PUSH1 0x20 ADD DUP3 DUP1 SLOAD PUSH2 0x38E SWAP1 PUSH2 0x962 JUMP JUMPDEST DUP1 ISZERO PUSH2 0x3DB JUMPI DUP1 PUSH1 0x1F LT PUSH2 0x3B0 JUMPI PUSH2 0x100 DUP1 DUP4 SLOAD DIV MUL DUP4 MSTORE SWAP2 PUSH1 0x20 ADD SWAP2 PUSH2 0x3DB JUMP JUMPDEST DUP3 ADD SWAP2 SWAP1 PUSH1 0x0 MSTORE PUSH1 0x20 PUSH1 0x0 KECCAK256 SWAP1 JUMPDEST DUP2 SLOAD DUP2 MSTORE SWAP1 PUSH1 0x1 ADD SWAP1 PUSH1 0x20 ADD DUP1 DUP4 GT PUSH2 0x3BE JUMPI DUP3 SWAP1 SUB PUSH1 0x1F AND DUP3 ADD SWAP2 JUMPDEST POP POP POP POP POP SWAP1 POP DUP3 JUMP JUMPDEST PUSH1 0x0 PUSH1 0x1 PUSH1 0x0 SWAP1 SLOAD SWAP1 PUSH2 0x100 EXP SWAP1 DIV PUSH20 0xFFFFFFFFFFFFFFFFFFFFFFFFFFFFFFFFFFFFFFFF AND PUSH20 0xFFFFFFFFFFFFFFFFFFFFFFFFFFFFFFFFFFFFFFFF AND PUSH4 0x70A08231 DUP4 PUSH1 0x40 MLOAD DUP3 PUSH4 0xFFFFFFFF AND PUSH1 0xE0 SHL DUP2 MSTORE PUSH1 0x4 ADD PUSH2 0x442 SWAP2 SWAP1 PUSH2 0x6BE JUMP JUMPDEST PUSH1 0x20 PUSH1 0x40 MLOAD DUP1 DUP4 SUB DUP2 DUP7 GAS STATICCALL ISZERO DUP1 ISZERO PUSH2 0x45F JUMPI RETURNDATASIZE PUSH1 0x0 DUP1 RETURNDATACOPY RETURNDATASIZE PUSH1 0x0 REVERT JUMPDEST POP POP POP POP PUSH1 0x40 MLOAD RETURNDATASIZE PUSH1 0x1F NOT PUSH1 0x1F DUP3 ADD AND DUP3 ADD DUP1 PUSH1 0x40 MSTORE POP DUP2 ADD SWAP1 PUSH2 0x483 SWAP2 SWAP1 PUSH2 0xC9E JUMP JUMPDEST SWAP1 POP SWAP2 SWAP1 POP JUMP JUMPDEST PUSH1 0x1 PUSH1 0x2 PUSH1 0x0 DUP3 DUP3 SLOAD PUSH2 0x49D SWAP2 SWAP1 PUSH2 0xCFA JUMP JUMPDEST SWAP3 POP POP DUP2 SWAP1 SSTORE POP JUMP JUMPDEST PUSH1 0x0 PUSH1 0x40 MLOAD SWAP1 POP SWAP1 JUMP JUMPDEST PUSH1 0x0 DUP1 REVERT JUMPDEST PUSH1 0x0 DUP1 REVERT JUMPDEST PUSH1 0x0 DUP1 REVERT JUMPDEST PUSH1 0x0 DUP1 REVERT JUMPDEST PUSH1 0x0 PUSH1 0x1F NOT PUSH1 0x1F DUP4 ADD AND SWAP1 POP SWAP2 SWAP1 POP JUMP JUMPDEST PUSH32 0x4E487B7100000000000000000000000000000000000000000000000000000000 PUSH1 0x0 MSTORE PUSH1 0x41 PUSH1 0x4 MSTORE PUSH1 0x24 PUSH1 0x0 REVERT JUMPDEST PUSH2 0x50D DUP3 PUSH2 0x4C4 JUMP JUMPDEST DUP2 ADD DUP2 DUP2 LT PUSH8 0xFFFFFFFFFFFFFFFF DUP3 GT OR ISZERO PUSH2 0x52C JUMPI PUSH2 0x52B PUSH2 0x4D5 JUMP JUMPDEST JUMPDEST DUP1 PUSH1 0x40 MSTORE POP POP POP JUMP JUMPDEST PUSH1 0x0 PUSH2 0x53F PUSH2 0x4A6 JUMP JUMPDEST SWAP1 POP PUSH2 0x54B DUP3 DUP3 PUSH2 0x504 JUMP JUMPDEST SWAP2 SWAP1 POP JUMP JUMPDEST PUSH1 0x0 PUSH8 0xFFFFFFFFFFFFFFFF DUP3 GT ISZERO PUSH2 0x56B JUMPI PUSH2 0x56A PUSH2 0x4D5 JUMP JUMPDEST JUMPDEST PUSH2 0x574 DUP3 PUSH2 0x4C4 JUMP JUMPDEST SWAP1 POP PUSH1 0x20 DUP2 ADD SWAP1 POP SWAP2 SWAP1 POP JUMP JUMPDEST DUP3 DUP2 DUP4 CALLDATACOPY PUSH1 0x0 DUP4 DUP4 ADD MSTORE POP POP POP JUMP JUMPDEST PUSH1 0x0 PUSH2 0x5A3 PUSH2 0x59E DUP5 PUSH2 0x550 JUMP JUMPDEST PUSH2 0x535 JUMP JUMPDEST SWAP1 POP DUP3 DUP2 MSTORE PUSH1 0x20 DUP2 ADD DUP5 DUP5 DUP5 ADD GT ISZERO PUSH2 0x5BF JUMPI PUSH2 0x5BE PUSH2 0x4BF JUMP JUMPDEST JUMPDEST PUSH2 0x5CA DUP5 DUP3 DUP6 PUSH2 0x581 JUMP JUMPDEST POP SWAP4 SWAP3 POP POP POP JUMP JUMPDEST PUSH1 0x0 DUP3 PUSH1 0x1F DUP4 ADD SLT PUSH2 0x5E7 JUMPI PUSH2 0x5E6 PUSH2 0x4BA JUMP JUMPDEST JUMPDEST DUP2 CALLDATALOAD PUSH2 0x5F7 DUP5 DUP3 PUSH1 0x20 DUP7 ADD PUSH2 0x590 JUMP JUMPDEST SWAP2 POP POP SWAP3 SWAP2 POP POP JUMP JUMPDEST PUSH1 0x0 PUSH1 0x20 DUP3 DUP5 SUB SLT ISZERO PUSH2 0x616 JUMPI PUSH2 0x615 PUSH2 0x4B0 JUMP JUMPDEST JUMPDEST PUSH1 0x0 DUP3 ADD CALLDATALOAD PUSH8 0xFFFFFFFFFFFFFFFF DUP2 GT ISZERO PUSH2 0x634 JUMPI PUSH2 0x633 PUSH2 0x4B5 JUMP JUMPDEST JUMPDEST PUSH2 0x640 DUP5 DUP3 DUP6 ADD PUSH2 0x5D2 JUMP JUMPDEST SWAP2 POP POP SWAP3 SWAP2 POP POP JUMP JUMPDEST PUSH1 0x0 DUP2 SWAP1 POP SWAP2 SWAP1 POP JUMP JUMPDEST PUSH2 0x65C DUP2 PUSH2 0x649 JUMP JUMPDEST DUP3 MSTORE POP POP JUMP JUMPDEST PUSH1 0x0 PUSH1 0x20 DUP3 ADD SWAP1 POP PUSH2 0x677 PUSH1 0x0 DUP4 ADD DUP5 PUSH2 0x653 JUMP JUMPDEST SWAP3 SWAP2 POP POP JUMP JUMPDEST PUSH1 0x0 PUSH20 0xFFFFFFFFFFFFFFFFFFFFFFFFFFFFFFFFFFFFFFFF DUP3 AND SWAP1 POP SWAP2 SWAP1 POP JUMP JUMPDEST PUSH1 0x0 PUSH2 0x6A8 DUP3 PUSH2 0x67D JUMP JUMPDEST SWAP1 POP SWAP2 SWAP1 POP JUMP JUMPDEST PUSH2 0x6B8 DUP2 PUSH2 0x69D JUMP JUMPDEST DUP3 MSTORE POP POP JUMP JUMPDEST PUSH1 0x0 PUSH1 0x20 DUP3 ADD SWAP1 POP PUSH2 0x6D3 PUSH1 0x0 DUP4 ADD DUP5 PUSH2 0x6AF JUMP JUMPDEST SWAP3 SWAP2 POP POP JUMP JUMPDEST PUSH2 0x6E2 DUP2 PUSH2 0x69D JUMP JUMPDEST DUP2 EQ PUSH2 0x6ED JUMPI PUSH1 0x0 DUP1 REVERT JUMPDEST POP JUMP JUMPDEST PUSH1 0x0 DUP2 CALLDATALOAD SWAP1 POP PUSH2 0x6FF DUP2 PUSH2 0x6D9 JUMP JUMPDEST SWAP3 SWAP2 POP POP JUMP JUMPDEST PUSH2 0x70E DUP2 PUSH2 0x649 JUMP JUMPDEST DUP2 EQ PUSH2 0x719 JUMPI PUSH1 0x0 DUP1 REVERT JUMPDEST POP JUMP JUMPDEST PUSH1 0x0 DUP2 CALLDATALOAD SWAP1 POP PUSH2 0x72B DUP2 PUSH2 0x705 JUMP JUMPDEST SWAP3 SWAP2 POP POP JUMP JUMPDEST PUSH1 0x0 DUP1 PUSH1 0x40 DUP4 DUP6 SUB SLT ISZERO PUSH2 0x748 JUMPI PUSH2 0x747 PUSH2 0x4B0 JUMP JUMPDEST JUMPDEST PUSH1 0x0 PUSH2 0x756 DUP6 DUP3 DUP7 ADD PUSH2 0x6F0 JUMP JUMPDEST SWAP3 POP POP PUSH1 0x20 PUSH2 0x767 DUP6 DUP3 DUP7 ADD PUSH2 0x71C JUMP JUMPDEST SWAP2 POP POP SWAP3 POP SWAP3 SWAP1 POP JUMP JUMPDEST PUSH1 0x0 DUP2 ISZERO ISZERO SWAP1 POP SWAP2 SWAP1 POP JUMP JUMPDEST PUSH2 0x786 DUP2 PUSH2 0x771 JUMP JUMPDEST DUP3 MSTORE POP POP JUMP JUMPDEST PUSH1 0x0 PUSH1 0x20 DUP3 ADD SWAP1 POP PUSH2 0x7A1 PUSH1 0x0 DUP4 ADD DUP5 PUSH2 0x77D JUMP JUMPDEST SWAP3 SWAP2 POP POP JUMP JUMPDEST PUSH1 0x0 DUP2 SWAP1 POP SWAP2 SWAP1 POP JUMP JUMPDEST PUSH1 0x0 PUSH2 0x7CC PUSH2 0x7C7 PUSH2 0x7C2 DUP5 PUSH2 0x67D JUMP JUMPDEST PUSH2 0x7A7 JUMP JUMPDEST PUSH2 0x67D JUMP JUMPDEST SWAP1 POP SWAP2 SWAP1 POP JUMP JUMPDEST PUSH1 0x0 PUSH2 0x7DE DUP3 PUSH2 0x7B1 JUMP JUMPDEST SWAP1 POP SWAP2 SWAP1 POP JUMP JUMPDEST PUSH1 0x0 PUSH2 0x7F0 DUP3 PUSH2 0x7D3 JUMP JUMPDEST SWAP1 POP SWAP2 SWAP1 POP JUMP JUMPDEST PUSH2 0x800 DUP2 PUSH2 0x7E5 JUMP JUMPDEST DUP3 MSTORE POP POP JUMP JUMPDEST PUSH1 0x0 PUSH1 0x20 DUP3 ADD SWAP1 POP PUSH2 0x81B PUSH1 0x0 DUP4 ADD DUP5 PUSH2 0x7F7 JUMP JUMPDEST SWAP3 SWAP2 POP POP JUMP JUMPDEST PUSH1 0x0 PUSH1 0x20 DUP3 DUP5 SUB SLT ISZERO PUSH2 0x837 JUMPI PUSH2 0x836 PUSH2 0x4B0 JUMP JUMPDEST JUMPDEST PUSH1 0x0 PUSH2 0x845 DUP5 DUP3 DUP6 ADD PUSH2 0x71C JUMP JUMPDEST SWAP2 POP POP SWAP3 SWAP2 POP POP JUMP JUMPDEST PUSH1 0x0 DUP2 MLOAD SWAP1 POP SWAP2 SWAP1 POP JUMP JUMPDEST PUSH1 0x0 DUP3 DUP3 MSTORE PUSH1 0x20 DUP3 ADD SWAP1 POP SWAP3 SWAP2 POP POP JUMP JUMPDEST PUSH1 0x0 JUMPDEST DUP4 DUP2 LT ISZERO PUSH2 0x888 JUMPI DUP1 DUP3 ADD MLOAD DUP2 DUP5 ADD MSTORE PUSH1 0x20 DUP2 ADD SWAP1 POP PUSH2 0x86D JUMP JUMPDEST DUP4 DUP2 GT ISZERO PUSH2 0x897 JUMPI PUSH1 0x0 DUP5 DUP5 ADD MSTORE JUMPDEST POP POP POP POP JUMP JUMPDEST PUSH1 0x0 PUSH2 0x8A8 DUP3 PUSH2 0x84E JUMP JUMPDEST PUSH2 0x8B2 DUP2 DUP6 PUSH2 0x859 JUMP JUMPDEST SWAP4 POP PUSH2 0x8C2 DUP2 DUP6 PUSH1 0x20 DUP7 ADD PUSH2 0x86A JUMP JUMPDEST PUSH2 0x8CB DUP2 PUSH2 0x4C4 JUMP JUMPDEST DUP5 ADD SWAP2 POP POP SWAP3 SWAP2 POP POP JUMP JUMPDEST PUSH1 0x0 PUSH1 0x40 DUP3 ADD SWAP1 POP PUSH2 0x8EB PUSH1 0x0 DUP4 ADD DUP6 PUSH2 0x653 JUMP JUMPDEST DUP2 DUP2 SUB PUSH1 0x20 DUP4 ADD MSTORE PUSH2 0x8FD DUP2 DUP5 PUSH2 0x89D JUMP JUMPDEST SWAP1 POP SWAP4 SWAP3 POP POP POP JUMP JUMPDEST PUSH1 0x0 PUSH1 0x20 DUP3 DUP5 SUB SLT ISZERO PUSH2 0x91C JUMPI PUSH2 0x91B PUSH2 0x4B0 JUMP JUMPDEST JUMPDEST PUSH1 0x0 PUSH2 0x92A DUP5 DUP3 DUP6 ADD PUSH2 0x6F0 JUMP JUMPDEST SWAP2 POP POP SWAP3 SWAP2 POP POP JUMP JUMPDEST PUSH32 0x4E487B7100000000000000000000000000000000000000000000000000000000 PUSH1 0x0 MSTORE PUSH1 0x22 PUSH1 0x4 MSTORE PUSH1 0x24 PUSH1 0x0 REVERT JUMPDEST PUSH1 0x0 PUSH1 0x2 DUP3 DIV SWAP1 POP PUSH1 0x1 DUP3 AND DUP1 PUSH2 0x97A JUMPI PUSH1 0x7F DUP3 AND SWAP2 POP JUMPDEST PUSH1 0x20 DUP3 LT DUP2 SUB PUSH2 0x98D JUMPI PUSH2 0x98C PUSH2 0x933 JUMP JUMPDEST JUMPDEST POP SWAP2 SWAP1 POP JUMP JUMPDEST PUSH1 0x0 DUP2 SWAP1 POP DUP2 PUSH1 0x0 MSTORE PUSH1 0x20 PUSH1 0x0 KECCAK256 SWAP1 POP SWAP2 SWAP1 POP JUMP JUMPDEST PUSH1 0x0 PUSH1 0x20 PUSH1 0x1F DUP4 ADD DIV SWAP1 POP SWAP2 SWAP1 POP JUMP JUMPDEST PUSH1 0x0 DUP3 DUP3 SHL SWAP1 POP SWAP3 SWAP2 POP POP JUMP JUMPDEST PUSH1 0x0 PUSH1 0x8 DUP4 MUL PUSH2 0x9F5 PUSH32 0xFFFFFFFFFFFFFFFFFFFFFFFFFFFFFFFFFFFFFFFFFFFFFFFFFFFFFFFFFFFFFFFF DUP3 PUSH2 0x9B8 JUMP JUMPDEST PUSH2 0x9FF DUP7 DUP4 PUSH2 0x9B8 JUMP JUMPDEST SWAP6 POP DUP1 NOT DUP5 AND SWAP4 POP DUP1 DUP7 AND DUP5 OR SWAP3 POP POP POP SWAP4 SWAP3 POP POP POP JUMP JUMPDEST PUSH1 0x0 PUSH2 0xA32 PUSH2 0xA2D PUSH2 0xA28 DUP5 PUSH2 0x649 JUMP JUMPDEST PUSH2 0x7A7 JUMP JUMPDEST PUSH2 0x649 JUMP JUMPDEST SWAP1 POP SWAP2 SWAP1 POP JUMP JUMPDEST PUSH1 0x0 DUP2 SWAP1 POP SWAP2 SWAP1 POP JUMP JUMPDEST PUSH2 0xA4C DUP4 PUSH2 0xA17 JUMP JUMPDEST PUSH2 0xA60 PUSH2 0xA58 DUP3 PUSH2 0xA39 JUMP JUMPDEST DUP5 DUP5 SLOAD PUSH2 0x9C5 JUMP JUMPDEST DUP3 SSTORE POP POP POP POP JUMP JUMPDEST PUSH1 0x0 SWAP1 JUMP JUMPDEST PUSH2 0xA75 PUSH2 0xA68 JUMP JUMPDEST PUSH2 0xA80 DUP2 DUP5 DUP5 PUSH2 0xA43 JUMP JUMPDEST POP POP POP JUMP JUMPDEST JUMPDEST DUP2 DUP2 LT ISZERO PUSH2 0xAA4 JUMPI PUSH2 0xA99 PUSH1 0x0 DUP3 PUSH2 0xA6D JUMP JUMPDEST PUSH1 0x1 DUP2 ADD SWAP1 POP PUSH2 0xA86 JUMP JUMPDEST POP POP JUMP JUMPDEST PUSH1 0x1F DUP3 GT ISZERO PUSH2 0xAE9 JUMPI PUSH2 0xABA DUP2 PUSH2 0x993 JUMP JUMPDEST PUSH2 0xAC3 DUP5 PUSH2 0x9A8 JUMP JUMPDEST DUP2 ADD PUSH1 0x20 DUP6 LT ISZERO PUSH2 0xAD2 JUMPI DUP2 SWAP1 POP JUMPDEST PUSH2 0xAE6 PUSH2 0xADE DUP6 PUSH2 0x9A8 JUMP JUMPDEST DUP4 ADD DUP3 PUSH2 0xA85 JUMP JUMPDEST POP POP JUMPDEST POP POP POP JUMP JUMPDEST PUSH1 0x0 DUP3 DUP3 SHR SWAP1 POP SWAP3 SWAP2 POP POP JUMP JUMPDEST PUSH1 0x0 PUSH2 0xB0C PUSH1 0x0 NOT DUP5 PUSH1 0x8 MUL PUSH2 0xAEE JUMP JUMPDEST NOT DUP1 DUP4 AND SWAP2 POP POP SWAP3 SWAP2 POP POP JUMP JUMPDEST PUSH1 0x0 PUSH2 0xB25 DUP4 DUP4 PUSH2 0xAFB JUMP JUMPDEST SWAP2 POP DUP3 PUSH1 0x2 MUL DUP3 OR SWAP1 POP SWAP3 SWAP2 POP POP JUMP JUMPDEST PUSH2 0xB3E DUP3 PUSH2 0x84E JUMP JUMPDEST PUSH8 0xFFFFFFFFFFFFFFFF DUP2 GT ISZERO PUSH2 0xB57 JUMPI PUSH2 0xB56 PUSH2 0x4D5 JUMP JUMPDEST JUMPDEST PUSH2 0xB61 DUP3 SLOAD PUSH2 0x962 JUMP JUMPDEST PUSH2 0xB6C DUP3 DUP3 DUP6 PUSH2 0xAA8 JUMP JUMPDEST PUSH1 0x0 PUSH1 0x20 SWAP1 POP PUSH1 0x1F DUP4 GT PUSH1 0x1 DUP2 EQ PUSH2 0xB9F JUMPI PUSH1 0x0 DUP5 ISZERO PUSH2 0xB8D JUMPI DUP3 DUP8 ADD MLOAD SWAP1 POP JUMPDEST PUSH2 0xB97 DUP6 DUP3 PUSH2 0xB19 JUMP JUMPDEST DUP7 SSTORE POP PUSH2 0xBFF JUMP JUMPDEST PUSH1 0x1F NOT DUP5 AND PUSH2 0xBAD DUP7 PUSH2 0x993 JUMP JUMPDEST PUSH1 0x0 JUMPDEST DUP3 DUP2 LT ISZERO PUSH2 0xBD5 JUMPI DUP5 DUP10 ADD MLOAD DUP3 SSTORE PUSH1 0x1 DUP3 ADD SWAP2 POP PUSH1 0x20 DUP6 ADD SWAP5 POP PUSH1 0x20 DUP2 ADD SWAP1 POP PUSH2 0xBB0 JUMP JUMPDEST DUP7 DUP4 LT ISZERO PUSH2 0xBF2 JUMPI DUP5 DUP10 ADD MLOAD PUSH2 0xBEE PUSH1 0x1F DUP10 AND DUP3 PUSH2 0xAFB JUMP JUMPDEST DUP4 SSTORE POP JUMPDEST PUSH1 0x1 PUSH1 0x2 DUP9 MUL ADD DUP9 SSTORE POP POP POP JUMPDEST POP POP POP POP POP POP JUMP JUMPDEST PUSH1 0x0 PUSH1 0x40 DUP3 ADD SWAP1 POP PUSH2 0xC1C PUSH1 0x0 DUP4 ADD DUP6 PUSH2 0x6AF JUMP JUMPDEST PUSH2 0xC29 PUSH1 0x20 DUP4 ADD DUP5 PUSH2 0x653 JUMP JUMPDEST SWAP4 SWAP3 POP POP POP JUMP JUMPDEST PUSH2 0xC39 DUP2 PUSH2 0x771 JUMP JUMPDEST DUP2 EQ PUSH2 0xC44 JUMPI PUSH1 0x0 DUP1 REVERT JUMPDEST POP JUMP JUMPDEST PUSH1 0x0 DUP2 MLOAD SWAP1 POP PUSH2 0xC56 DUP2 PUSH2 0xC30 JUMP JUMPDEST SWAP3 SWAP2 POP POP JUMP JUMPDEST PUSH1 0x0 PUSH1 0x20 DUP3 DUP5 SUB SLT ISZERO PUSH2 0xC72 JUMPI PUSH2 0xC71 PUSH2 0x4B0 JUMP JUMPDEST JUMPDEST PUSH1 0x0 PUSH2 0xC80 DUP5 DUP3 DUP6 ADD PUSH2 0xC47 JUMP JUMPDEST SWAP2 POP POP SWAP3 SWAP2 POP POP JUMP JUMPDEST PUSH1 0x0 DUP2 MLOAD SWAP1 POP PUSH2 0xC98 DUP2 PUSH2 0x705 JUMP JUMPDEST SWAP3 SWAP2 POP POP JUMP JUMPDEST PUSH1 0x0 PUSH1 0x20 DUP3 DUP5 SUB SLT ISZERO PUSH2 0xCB4 JUMPI PUSH2 0xCB3 PUSH2 0x4B0 JUMP JUMPDEST JUMPDEST PUSH1 0x0 PUSH2 0xCC2 DUP5 DUP3 DUP6 ADD PUSH2 0xC89 JUMP JUMPDEST SWAP2 POP POP SWAP3 SWAP2 POP POP JUMP JUMPDEST PUSH32 0x4E487B7100000000000000000000000000000000000000000000000000000000 PUSH1 0x0 MSTORE PUSH1 0x11 PUSH1 0x4 MSTORE PUSH1 0x24 PUSH1 0x0 REVERT JUMPDEST PUSH1 0x0 PUSH2 0xD05 DUP3 PUSH2 0x649 JUMP JUMPDEST SWAP2 POP PUSH2 0xD10 DUP4 PUSH2 0x649 JUMP JUMPDEST SWAP3 POP DUP3 DUP3 ADD SWAP1 POP DUP1 DUP3 GT ISZERO PUSH2 0xD28 JUMPI PUSH2 0xD27 PUSH2 0xCCB JUMP JUMPDEST JUMPDEST SWAP3 SWAP2 POP POP JUMP INVALID LOG2 PUSH5 0x6970667358 0x22 SLT KECCAK256 MLOAD SHR CALLER SWAP12 0xDF DUP11 0xC4 0x4A EQ SMOD 0xEF LOG0 SWAP4 DUP8 SHL 0x4F 0xAE BLOCKHASH 0xD5 0xC2 0xC2 MOD 0xD3 0xDF SWAP2 0xED JUMPDEST CALL 0xC8 0xEA 0xCA LOG2 PUSH5 0x736F6C6378 0x23 ADDRESS 0x2E CODESIZE 0x2E BALANCE CALLDATASIZE 0x2D PUSH4 0x692E3230 ORIGIN ORIGIN 0x2E CALLDATACOPY 0x2E BALANCE CALLVALUE 0x2B PUSH4 0x6F6D6D69 PUSH21 0x2E3830303038386533005400000000000000000000 "
				},
				"gasEstimates": {
					"creation": {
						"codeDepositCost": "692200",
						"executionCost": "infinite",
						"totalCost": "infinite"
					},
					"external": {
						"addPerson(string)": "infinite",
						"factoryOwner()": "2556",
						"getBalance(address)": "infinite",
						"people(uint256)": "infinite",
						"peopleCount()": "2452",
						"sendGift(address,uint256)": "infinite",
						"tokenAddress()": "infinite"
					},
					"internal": {
						"incrementCount()": "infinite"
					}
				},
				"methodIdentifiers": {
					"addPerson(string)": "0bf2ee8d",
					"factoryOwner()": "4273601c",
					"getBalance(address)": "f8b2cb4f",
					"people(uint256)": "9e7a13ad",
					"peopleCount()": "267c68e0",
					"sendGift(address,uint256)": "63d9b4b1",
					"tokenAddress()": "9d76ea58"
				}
			},
			"storageLayout": {
				"storage": [
					{
						"astId": 715,
						"contract": "EparsFactory.sol:indexPeopleWithMapping",
						"label": "factoryOwner",
						"offset": 0,
						"slot": "0",
						"type": "t_address"
					},
					{
						"astId": 718,
						"contract": "EparsFactory.sol:indexPeopleWithMapping",
						"label": "tokenAddress",
						"offset": 0,
						"slot": "1",
						"type": "t_contract(IERC20)663"
					},
					{
						"astId": 721,
						"contract": "EparsFactory.sol:indexPeopleWithMapping",
						"label": "peopleCount",
						"offset": 0,
						"slot": "2",
						"type": "t_uint256"
					},
					{
						"astId": 726,
						"contract": "EparsFactory.sol:indexPeopleWithMapping",
						"label": "people",
						"offset": 0,
						"slot": "3",
						"type": "t_mapping(t_uint256,t_struct(Person)747_storage)"
					}
				],
				"types": {
					"t_address": {
						"encoding": "inplace",
						"label": "address",
						"numberOfBytes": "20"
					},
					"t_contract(IERC20)663": {
						"encoding": "inplace",
						"label": "contract IERC20",
						"numberOfBytes": "20"
					},
					"t_mapping(t_uint256,t_struct(Person)747_storage)": {
						"encoding": "mapping",
						"key": "t_uint256",
						"label": "mapping(uint256 => struct indexPeopleWithMapping.Person)",
						"numberOfBytes": "32",
						"value": "t_struct(Person)747_storage"
					},
					"t_string_storage": {
						"encoding": "bytes",
						"label": "string",
						"numberOfBytes": "32"
					},
					"t_struct(Person)747_storage": {
						"encoding": "inplace",
						"label": "struct indexPeopleWithMapping.Person",
						"members": [
							{
								"astId": 744,
								"contract": "EparsFactory.sol:indexPeopleWithMapping",
								"label": "_id",
								"offset": 0,
								"slot": "0",
								"type": "t_uint256"
							},
							{
								"astId": 746,
								"contract": "EparsFactory.sol:indexPeopleWithMapping",
								"label": "pic",
								"offset": 0,
								"slot": "1",
								"type": "t_string_storage"
							}
						],
						"numberOfBytes": "64"
					},
					"t_uint256": {
						"encoding": "inplace",
						"label": "uint256",
						"numberOfBytes": "32"
					}
				}
			},
			"userdoc": {
				"kind": "user",
				"methods": {},
				"version": 1
			}
		}
	}
}