{
	"EparsFactory.sol": {
		"indexPeopleWithMapping": {
			"abi": [
				{
					"inputs": [
						{
							"internalType": "contract IERC20",
							"name": "_tokenAddress",
							"type": "address"
						}
					],
					"stateMutability": "nonpayable",
					"type": "constructor"
				},
				{
					"inputs": [
						{
							"internalType": "string",
							"name": "_firstName",
							"type": "string"
						},
						{
							"internalType": "string",
							"name": "_lastName",
							"type": "string"
						}
					],
					"name": "addPerson",
					"outputs": [],
					"stateMutability": "nonpayable",
					"type": "function"
				},
				{
					"inputs": [],
					"name": "factoryOwner",
					"outputs": [
						{
							"internalType": "address",
							"name": "",
							"type": "address"
						}
					],
					"stateMutability": "view",
					"type": "function"
				},
				{
					"inputs": [
						{
							"internalType": "uint256",
							"name": "",
							"type": "uint256"
						}
					],
					"name": "people",
					"outputs": [
						{
							"internalType": "uint256",
							"name": "_id",
							"type": "uint256"
						},
						{
							"internalType": "string",
							"name": "_firstName",
							"type": "string"
						},
						{
							"internalType": "string",
							"name": "_lastName",
							"type": "string"
						}
					],
					"stateMutability": "view",
					"type": "function"
				},
				{
					"inputs": [],
					"name": "peopleCount",
					"outputs": [
						{
							"internalType": "uint256",
							"name": "",
							"type": "uint256"
						}
					],
					"stateMutability": "view",
					"type": "function"
				},
				{
					"inputs": [
						{
							"internalType": "address",
							"name": "_to",
							"type": "address"
						},
						{
							"internalType": "uint256",
							"name": "_amount",
							"type": "uint256"
						}
					],
					"name": "sendGift",
					"outputs": [
						{
							"internalType": "bool",
							"name": "success",
							"type": "bool"
						}
					],
					"stateMutability": "nonpayable",
					"type": "function"
				},
				{
					"inputs": [],
					"name": "tokenAddress",
					"outputs": [
						{
							"internalType": "contract IERC20",
							"name": "",
							"type": "address"
						}
					],
					"stateMutability": "view",
					"type": "function"
				}
			],
			"devdoc": {
				"kind": "dev",
				"methods": {},
				"version": 1
			},
			"evm": {
				"assembly": "    /* \"EparsFactory.sol\":1746:2772  contract indexPeopleWithMapping {... */\n  mstore(0x40, 0x80)\n    /* \"EparsFactory.sol\":1881:1882  0 */\n  0x00\n    /* \"EparsFactory.sol\":1852:1882  uint256 public peopleCount = 0 */\n  0x02\n  sstore\n    /* \"EparsFactory.sol\":1943:2060  constructor(IERC20 _tokenAddress) {... */\n  callvalue\n  dup1\n  iszero\n  tag_1\n  jumpi\n  0x00\n  dup1\n  revert\ntag_1:\n  pop\n  mload(0x40)\n  sub(codesize, bytecodeSize)\n  dup1\n  bytecodeSize\n  dup4\n  codecopy\n  dup2\n  dup2\n  add\n  0x40\n  mstore\n  dup2\n  add\n  swap1\n  tag_2\n  swap2\n  swap1\n  tag_3\n  jump\t// in\ntag_2:\n    /* \"EparsFactory.sol\":2003:2013  msg.sender */\n  caller\n    /* \"EparsFactory.sol\":1988:2000  factoryOwner */\n  0x00\n  dup1\n    /* \"EparsFactory.sol\":1988:2013  factoryOwner = msg.sender */\n  0x0100\n  exp\n  dup2\n  sload\n  dup2\n  0xffffffffffffffffffffffffffffffffffffffff\n  mul\n  not\n  and\n  swap1\n  dup4\n  0xffffffffffffffffffffffffffffffffffffffff\n  and\n  mul\n  or\n  swap1\n  sstore\n  pop\n    /* \"EparsFactory.sol\":2039:2052  _tokenAddress */\n  dup1\n    /* \"EparsFactory.sol\":2024:2036  tokenAddress */\n  0x01\n  0x00\n    /* \"EparsFactory.sol\":2024:2052  tokenAddress = _tokenAddress */\n  0x0100\n  exp\n  dup2\n  sload\n  dup2\n  0xffffffffffffffffffffffffffffffffffffffff\n  mul\n  not\n  and\n  swap1\n  dup4\n  0xffffffffffffffffffffffffffffffffffffffff\n  and\n  mul\n  or\n  swap1\n  sstore\n  pop\n    /* \"EparsFactory.sol\":1943:2060  constructor(IERC20 _tokenAddress) {... */\n  pop\n    /* \"EparsFactory.sol\":1746:2772  contract indexPeopleWithMapping {... */\n  jump(tag_6)\n    /* \"#utility.yul\":88:205   */\ntag_8:\n    /* \"#utility.yul\":197:198   */\n  0x00\n    /* \"#utility.yul\":194:195   */\n  dup1\n    /* \"#utility.yul\":187:199   */\n  revert\n    /* \"#utility.yul\":334:460   */\ntag_10:\n    /* \"#utility.yul\":371:378   */\n  0x00\n    /* \"#utility.yul\":411:453   */\n  0xffffffffffffffffffffffffffffffffffffffff\n    /* \"#utility.yul\":404:409   */\n  dup3\n    /* \"#utility.yul\":400:454   */\n  and\n    /* \"#utility.yul\":389:454   */\n  swap1\n  pop\n    /* \"#utility.yul\":334:460   */\n  swap2\n  swap1\n  pop\n  jump\t// out\n    /* \"#utility.yul\":466:562   */\ntag_11:\n    /* \"#utility.yul\":503:510   */\n  0x00\n    /* \"#utility.yul\":532:556   */\n  tag_21\n    /* \"#utility.yul\":550:555   */\n  dup3\n    /* \"#utility.yul\":532:556   */\n  tag_10\n  jump\t// in\ntag_21:\n    /* \"#utility.yul\":521:556   */\n  swap1\n  pop\n    /* \"#utility.yul\":466:562   */\n  swap2\n  swap1\n  pop\n  jump\t// out\n    /* \"#utility.yul\":568:678   */\ntag_12:\n    /* \"#utility.yul\":619:626   */\n  0x00\n    /* \"#utility.yul\":648:672   */\n  tag_23\n    /* \"#utility.yul\":666:671   */\n  dup3\n    /* \"#utility.yul\":648:672   */\n  tag_11\n  jump\t// in\ntag_23:\n    /* \"#utility.yul\":637:672   */\n  swap1\n  pop\n    /* \"#utility.yul\":568:678   */\n  swap2\n  swap1\n  pop\n  jump\t// out\n    /* \"#utility.yul\":684:834   */\ntag_13:\n    /* \"#utility.yul\":771:809   */\n  tag_25\n    /* \"#utility.yul\":803:808   */\n  dup2\n    /* \"#utility.yul\":771:809   */\n  tag_12\n  jump\t// in\ntag_25:\n    /* \"#utility.yul\":764:769   */\n  dup2\n    /* \"#utility.yul\":761:810   */\n  eq\n    /* \"#utility.yul\":751:828   */\n  tag_26\n  jumpi\n    /* \"#utility.yul\":824:825   */\n  0x00\n    /* \"#utility.yul\":821:822   */\n  dup1\n    /* \"#utility.yul\":814:826   */\n  revert\n    /* \"#utility.yul\":751:828   */\ntag_26:\n    /* \"#utility.yul\":684:834   */\n  pop\n  jump\t// out\n    /* \"#utility.yul\":840:1011   */\ntag_14:\n    /* \"#utility.yul\":911:916   */\n  0x00\n    /* \"#utility.yul\":942:948   */\n  dup2\n    /* \"#utility.yul\":936:949   */\n  mload\n    /* \"#utility.yul\":927:949   */\n  swap1\n  pop\n    /* \"#utility.yul\":958:1005   */\n  tag_28\n    /* \"#utility.yul\":999:1004   */\n  dup2\n    /* \"#utility.yul\":958:1005   */\n  tag_13\n  jump\t// in\ntag_28:\n    /* \"#utility.yul\":840:1011   */\n  swap3\n  swap2\n  pop\n  pop\n  jump\t// out\n    /* \"#utility.yul\":1017:1396   */\ntag_3:\n    /* \"#utility.yul\":1101:1107   */\n  0x00\n    /* \"#utility.yul\":1150:1152   */\n  0x20\n    /* \"#utility.yul\":1138:1147   */\n  dup3\n    /* \"#utility.yul\":1129:1136   */\n  dup5\n    /* \"#utility.yul\":1125:1148   */\n  sub\n    /* \"#utility.yul\":1121:1153   */\n  slt\n    /* \"#utility.yul\":1118:1237   */\n  iszero\n  tag_30\n  jumpi\n    /* \"#utility.yul\":1156:1235   */\n  tag_31\n  tag_8\n  jump\t// in\ntag_31:\n    /* \"#utility.yul\":1118:1237   */\ntag_30:\n    /* \"#utility.yul\":1276:1277   */\n  0x00\n    /* \"#utility.yul\":1301:1379   */\n  tag_32\n    /* \"#utility.yul\":1371:1378   */\n  dup5\n    /* \"#utility.yul\":1362:1368   */\n  dup3\n    /* \"#utility.yul\":1351:1360   */\n  dup6\n    /* \"#utility.yul\":1347:1369   */\n  add\n    /* \"#utility.yul\":1301:1379   */\n  tag_14\n  jump\t// in\ntag_32:\n    /* \"#utility.yul\":1291:1379   */\n  swap2\n  pop\n    /* \"#utility.yul\":1247:1389   */\n  pop\n    /* \"#utility.yul\":1017:1396   */\n  swap3\n  swap2\n  pop\n  pop\n  jump\t// out\n    /* \"EparsFactory.sol\":1746:2772  contract indexPeopleWithMapping {... */\ntag_6:\n  dataSize(sub_0)\n  dup1\n  dataOffset(sub_0)\n  0x00\n  codecopy\n  0x00\n  return\nstop\n\nsub_0: assembly {\n        /* \"EparsFactory.sol\":1746:2772  contract indexPeopleWithMapping {... */\n      mstore(0x40, 0x80)\n      callvalue\n      dup1\n      iszero\n      tag_1\n      jumpi\n      0x00\n      dup1\n      revert\n    tag_1:\n      pop\n      jumpi(tag_2, lt(calldatasize, 0x04))\n      shr(0xe0, calldataload(0x00))\n      dup1\n      0x22f5b58d\n      eq\n      tag_3\n      jumpi\n      dup1\n      0x267c68e0\n      eq\n      tag_4\n      jumpi\n      dup1\n      0x4273601c\n      eq\n      tag_5\n      jumpi\n      dup1\n      0x63d9b4b1\n      eq\n      tag_6\n      jumpi\n      dup1\n      0x9d76ea58\n      eq\n      tag_7\n      jumpi\n      dup1\n      0x9e7a13ad\n      eq\n      tag_8\n      jumpi\n    tag_2:\n      0x00\n      dup1\n      revert\n        /* \"EparsFactory.sol\":2175:2376  function addPerson(string memory _firstName, string memory _lastName)... */\n    tag_3:\n      tag_9\n      0x04\n      dup1\n      calldatasize\n      sub\n      dup2\n      add\n      swap1\n      tag_10\n      swap2\n      swap1\n      tag_11\n      jump\t// in\n    tag_10:\n      tag_12\n      jump\t// in\n    tag_9:\n      stop\n        /* \"EparsFactory.sol\":1852:1882  uint256 public peopleCount = 0 */\n    tag_4:\n      tag_13\n      tag_14\n      jump\t// in\n    tag_13:\n      mload(0x40)\n      tag_15\n      swap2\n      swap1\n      tag_16\n      jump\t// in\n    tag_15:\n      mload(0x40)\n      dup1\n      swap2\n      sub\n      swap1\n      return\n        /* \"EparsFactory.sol\":1785:1812  address public factoryOwner */\n    tag_5:\n      tag_17\n      tag_18\n      jump\t// in\n    tag_17:\n      mload(0x40)\n      tag_19\n      swap2\n      swap1\n      tag_20\n      jump\t// in\n    tag_19:\n      mload(0x40)\n      dup1\n      swap2\n      sub\n      swap1\n      return\n        /* \"EparsFactory.sol\":2564:2769  function sendGift(address _to, uint256 _amount)... */\n    tag_6:\n      tag_21\n      0x04\n      dup1\n      calldatasize\n      sub\n      dup2\n      add\n      swap1\n      tag_22\n      swap2\n      swap1\n      tag_23\n      jump\t// in\n    tag_22:\n      tag_24\n      jump\t// in\n    tag_21:\n      mload(0x40)\n      tag_25\n      swap2\n      swap1\n      tag_26\n      jump\t// in\n    tag_25:\n      mload(0x40)\n      dup1\n      swap2\n      sub\n      swap1\n      return\n        /* \"EparsFactory.sol\":1819:1845  IERC20 public tokenAddress */\n    tag_7:\n      tag_27\n      tag_28\n      jump\t// in\n    tag_27:\n      mload(0x40)\n      tag_29\n      swap2\n      swap1\n      tag_30\n      jump\t// in\n    tag_29:\n      mload(0x40)\n      dup1\n      swap2\n      sub\n      swap1\n      return\n        /* \"EparsFactory.sol\":1891:1931  mapping(uint256 => Person) public people */\n    tag_8:\n      tag_31\n      0x04\n      dup1\n      calldatasize\n      sub\n      dup2\n      add\n      swap1\n      tag_32\n      swap2\n      swap1\n      tag_33\n      jump\t// in\n    tag_32:\n      tag_34\n      jump\t// in\n    tag_31:\n      mload(0x40)\n      tag_35\n      swap4\n      swap3\n      swap2\n      swap1\n      tag_36\n      jump\t// in\n    tag_35:\n      mload(0x40)\n      dup1\n      swap2\n      sub\n      swap1\n      return\n        /* \"EparsFactory.sol\":2175:2376  function addPerson(string memory _firstName, string memory _lastName)... */\n    tag_12:\n        /* \"EparsFactory.sol\":2299:2341  Person(peopleCount, _firstName, _lastName) */\n      mload(0x40)\n      dup1\n      0x60\n      add\n      0x40\n      mstore\n      dup1\n        /* \"EparsFactory.sol\":2306:2317  peopleCount */\n      sload(0x02)\n        /* \"EparsFactory.sol\":2299:2341  Person(peopleCount, _firstName, _lastName) */\n      dup2\n      mstore\n      0x20\n      add\n        /* \"EparsFactory.sol\":2319:2329  _firstName */\n      dup4\n        /* \"EparsFactory.sol\":2299:2341  Person(peopleCount, _firstName, _lastName) */\n      dup2\n      mstore\n      0x20\n      add\n        /* \"EparsFactory.sol\":2331:2340  _lastName */\n      dup3\n        /* \"EparsFactory.sol\":2299:2341  Person(peopleCount, _firstName, _lastName) */\n      dup2\n      mstore\n      pop\n        /* \"EparsFactory.sol\":2277:2283  people */\n      0x03\n        /* \"EparsFactory.sol\":2277:2296  people[peopleCount] */\n      0x00\n        /* \"EparsFactory.sol\":2284:2295  peopleCount */\n      sload(0x02)\n        /* \"EparsFactory.sol\":2277:2296  people[peopleCount] */\n      dup2\n      mstore\n      0x20\n      add\n      swap1\n      dup2\n      mstore\n      0x20\n      add\n      0x00\n      keccak256\n        /* \"EparsFactory.sol\":2277:2341  people[peopleCount] = Person(peopleCount, _firstName, _lastName) */\n      0x00\n      dup3\n      add\n      mload\n      dup2\n      0x00\n      add\n      sstore\n      0x20\n      dup3\n      add\n      mload\n      dup2\n      0x01\n      add\n      swap1\n      dup2\n      tag_38\n      swap2\n      swap1\n      tag_39\n      jump\t// in\n    tag_38:\n      pop\n      0x40\n      dup3\n      add\n      mload\n      dup2\n      0x02\n      add\n      swap1\n      dup2\n      tag_40\n      swap2\n      swap1\n      tag_39\n      jump\t// in\n    tag_40:\n      pop\n      swap1\n      pop\n      pop\n        /* \"EparsFactory.sol\":2352:2368  incrementCount() */\n      tag_41\n        /* \"EparsFactory.sol\":2352:2366  incrementCount */\n      tag_42\n        /* \"EparsFactory.sol\":2352:2368  incrementCount() */\n      jump\t// in\n    tag_41:\n        /* \"EparsFactory.sol\":2175:2376  function addPerson(string memory _firstName, string memory _lastName)... */\n      pop\n      pop\n      jump\t// out\n        /* \"EparsFactory.sol\":1852:1882  uint256 public peopleCount = 0 */\n    tag_14:\n      sload(0x02)\n      dup2\n      jump\t// out\n        /* \"EparsFactory.sol\":1785:1812  address public factoryOwner */\n    tag_18:\n      0x00\n      dup1\n      sload\n      swap1\n      0x0100\n      exp\n      swap1\n      div\n      0xffffffffffffffffffffffffffffffffffffffff\n      and\n      dup2\n      jump\t// out\n        /* \"EparsFactory.sol\":2564:2769  function sendGift(address _to, uint256 _amount)... */\n    tag_24:\n        /* \"EparsFactory.sol\":2674:2686  bool success */\n      0x00\n        /* \"EparsFactory.sol\":2523:2535  factoryOwner */\n      dup1\n      0x00\n      swap1\n      sload\n      swap1\n      0x0100\n      exp\n      swap1\n      div\n      0xffffffffffffffffffffffffffffffffffffffff\n      and\n        /* \"EparsFactory.sol\":2509:2535  msg.sender == factoryOwner */\n      0xffffffffffffffffffffffffffffffffffffffff\n      and\n        /* \"EparsFactory.sol\":2509:2519  msg.sender */\n      caller\n        /* \"EparsFactory.sol\":2509:2535  msg.sender == factoryOwner */\n      0xffffffffffffffffffffffffffffffffffffffff\n      and\n      eq\n        /* \"EparsFactory.sol\":2501:2536  require(msg.sender == factoryOwner) */\n      tag_44\n      jumpi\n      0x00\n      dup1\n      revert\n    tag_44:\n        /* \"EparsFactory.sol\":2704:2716  tokenAddress */\n      0x01\n      0x00\n      swap1\n      sload\n      swap1\n      0x0100\n      exp\n      swap1\n      div\n      0xffffffffffffffffffffffffffffffffffffffff\n      and\n        /* \"EparsFactory.sol\":2704:2725  tokenAddress.transfer */\n      0xffffffffffffffffffffffffffffffffffffffff\n      and\n      0xa9059cbb\n        /* \"EparsFactory.sol\":2726:2729  _to */\n      dup5\n        /* \"EparsFactory.sol\":2731:2738  _amount */\n      dup5\n        /* \"EparsFactory.sol\":2704:2739  tokenAddress.transfer(_to, _amount) */\n      mload(0x40)\n      dup4\n      0xffffffff\n      and\n      0xe0\n      shl\n      dup2\n      mstore\n      0x04\n      add\n      tag_46\n      swap3\n      swap2\n      swap1\n      tag_47\n      jump\t// in\n    tag_46:\n      0x20\n      mload(0x40)\n      dup1\n      dup4\n      sub\n      dup2\n      0x00\n      dup8\n      gas\n      call\n      iszero\n      dup1\n      iszero\n      tag_49\n      jumpi\n      returndatasize\n      0x00\n      dup1\n      returndatacopy\n      revert(0x00, returndatasize)\n    tag_49:\n      pop\n      pop\n      pop\n      pop\n      mload(0x40)\n      returndatasize\n      not(0x1f)\n      0x1f\n      dup3\n      add\n      and\n      dup3\n      add\n      dup1\n      0x40\n      mstore\n      pop\n      dup2\n      add\n      swap1\n      tag_50\n      swap2\n      swap1\n      tag_51\n      jump\t// in\n    tag_50:\n      pop\n        /* \"EparsFactory.sol\":2757:2761  true */\n      0x01\n        /* \"EparsFactory.sol\":2750:2761  return true */\n      swap1\n      pop\n        /* \"EparsFactory.sol\":2564:2769  function sendGift(address _to, uint256 _amount)... */\n      swap3\n      swap2\n      pop\n      pop\n      jump\t// out\n        /* \"EparsFactory.sol\":1819:1845  IERC20 public tokenAddress */\n    tag_28:\n      0x01\n      0x00\n      swap1\n      sload\n      swap1\n      0x0100\n      exp\n      swap1\n      div\n      0xffffffffffffffffffffffffffffffffffffffff\n      and\n      dup2\n      jump\t// out\n        /* \"EparsFactory.sol\":1891:1931  mapping(uint256 => Person) public people */\n    tag_34:\n      mstore(0x20, 0x03)\n      dup1\n      0x00\n      mstore\n      keccak256(0x00, 0x40)\n      0x00\n      swap2\n      pop\n      swap1\n      pop\n      dup1\n      0x00\n      add\n      sload\n      swap1\n      dup1\n      0x01\n      add\n      dup1\n      sload\n      tag_52\n      swap1\n      tag_53\n      jump\t// in\n    tag_52:\n      dup1\n      0x1f\n      add\n      0x20\n      dup1\n      swap2\n      div\n      mul\n      0x20\n      add\n      mload(0x40)\n      swap1\n      dup2\n      add\n      0x40\n      mstore\n      dup1\n      swap3\n      swap2\n      swap1\n      dup2\n      dup2\n      mstore\n      0x20\n      add\n      dup3\n      dup1\n      sload\n      tag_54\n      swap1\n      tag_53\n      jump\t// in\n    tag_54:\n      dup1\n      iszero\n      tag_55\n      jumpi\n      dup1\n      0x1f\n      lt\n      tag_56\n      jumpi\n      0x0100\n      dup1\n      dup4\n      sload\n      div\n      mul\n      dup4\n      mstore\n      swap2\n      0x20\n      add\n      swap2\n      jump(tag_55)\n    tag_56:\n      dup3\n      add\n      swap2\n      swap1\n      0x00\n      mstore\n      keccak256(0x00, 0x20)\n      swap1\n    tag_57:\n      dup2\n      sload\n      dup2\n      mstore\n      swap1\n      0x01\n      add\n      swap1\n      0x20\n      add\n      dup1\n      dup4\n      gt\n      tag_57\n      jumpi\n      dup3\n      swap1\n      sub\n      0x1f\n      and\n      dup3\n      add\n      swap2\n    tag_55:\n      pop\n      pop\n      pop\n      pop\n      pop\n      swap1\n      dup1\n      0x02\n      add\n      dup1\n      sload\n      tag_58\n      swap1\n      tag_53\n      jump\t// in\n    tag_58:\n      dup1\n      0x1f\n      add\n      0x20\n      dup1\n      swap2\n      div\n      mul\n      0x20\n      add\n      mload(0x40)\n      swap1\n      dup2\n      add\n      0x40\n      mstore\n      dup1\n      swap3\n      swap2\n      swap1\n      dup2\n      dup2\n      mstore\n      0x20\n      add\n      dup3\n      dup1\n      sload\n      tag_59\n      swap1\n      tag_53\n      jump\t// in\n    tag_59:\n      dup1\n      iszero\n      tag_60\n      jumpi\n      dup1\n      0x1f\n      lt\n      tag_61\n      jumpi\n      0x0100\n      dup1\n      dup4\n      sload\n      div\n      mul\n      dup4\n      mstore\n      swap2\n      0x20\n      add\n      swap2\n      jump(tag_60)\n    tag_61:\n      dup3\n      add\n      swap2\n      swap1\n      0x00\n      mstore\n      keccak256(0x00, 0x20)\n      swap1\n    tag_62:\n      dup2\n      sload\n      dup2\n      mstore\n      swap1\n      0x01\n      add\n      swap1\n      0x20\n      add\n      dup1\n      dup4\n      gt\n      tag_62\n      jumpi\n      dup3\n      swap1\n      sub\n      0x1f\n      and\n      dup3\n      add\n      swap2\n    tag_60:\n      pop\n      pop\n      pop\n      pop\n      pop\n      swap1\n      pop\n      dup4\n      jump\t// out\n        /* \"EparsFactory.sol\":2384:2454  function incrementCount() internal {... */\n    tag_42:\n        /* \"EparsFactory.sol\":2445:2446  1 */\n      0x01\n        /* \"EparsFactory.sol\":2430:2441  peopleCount */\n      0x02\n      0x00\n        /* \"EparsFactory.sol\":2430:2446  peopleCount += 1 */\n      dup3\n      dup3\n      sload\n      tag_64\n      swap2\n      swap1\n      tag_65\n      jump\t// in\n    tag_64:\n      swap3\n      pop\n      pop\n      dup2\n      swap1\n      sstore\n      pop\n        /* \"EparsFactory.sol\":2384:2454  function incrementCount() internal {... */\n      jump\t// out\n        /* \"#utility.yul\":7:82   */\n    tag_66:\n        /* \"#utility.yul\":40:46   */\n      0x00\n        /* \"#utility.yul\":73:75   */\n      0x40\n        /* \"#utility.yul\":67:76   */\n      mload\n        /* \"#utility.yul\":57:76   */\n      swap1\n      pop\n        /* \"#utility.yul\":7:82   */\n      swap1\n      jump\t// out\n        /* \"#utility.yul\":88:205   */\n    tag_67:\n        /* \"#utility.yul\":197:198   */\n      0x00\n        /* \"#utility.yul\":194:195   */\n      dup1\n        /* \"#utility.yul\":187:199   */\n      revert\n        /* \"#utility.yul\":211:328   */\n    tag_68:\n        /* \"#utility.yul\":320:321   */\n      0x00\n        /* \"#utility.yul\":317:318   */\n      dup1\n        /* \"#utility.yul\":310:322   */\n      revert\n        /* \"#utility.yul\":334:451   */\n    tag_69:\n        /* \"#utility.yul\":443:444   */\n      0x00\n        /* \"#utility.yul\":440:441   */\n      dup1\n        /* \"#utility.yul\":433:445   */\n      revert\n        /* \"#utility.yul\":457:574   */\n    tag_70:\n        /* \"#utility.yul\":566:567   */\n      0x00\n        /* \"#utility.yul\":563:564   */\n      dup1\n        /* \"#utility.yul\":556:568   */\n      revert\n        /* \"#utility.yul\":580:682   */\n    tag_71:\n        /* \"#utility.yul\":621:627   */\n      0x00\n        /* \"#utility.yul\":672:674   */\n      0x1f\n        /* \"#utility.yul\":668:675   */\n      not\n        /* \"#utility.yul\":663:665   */\n      0x1f\n        /* \"#utility.yul\":656:661   */\n      dup4\n        /* \"#utility.yul\":652:666   */\n      add\n        /* \"#utility.yul\":648:676   */\n      and\n        /* \"#utility.yul\":638:676   */\n      swap1\n      pop\n        /* \"#utility.yul\":580:682   */\n      swap2\n      swap1\n      pop\n      jump\t// out\n        /* \"#utility.yul\":688:868   */\n    tag_72:\n        /* \"#utility.yul\":736:813   */\n      0x4e487b7100000000000000000000000000000000000000000000000000000000\n        /* \"#utility.yul\":733:734   */\n      0x00\n        /* \"#utility.yul\":726:814   */\n      mstore\n        /* \"#utility.yul\":833:837   */\n      0x41\n        /* \"#utility.yul\":830:831   */\n      0x04\n        /* \"#utility.yul\":823:838   */\n      mstore\n        /* \"#utility.yul\":857:861   */\n      0x24\n        /* \"#utility.yul\":854:855   */\n      0x00\n        /* \"#utility.yul\":847:862   */\n      revert\n        /* \"#utility.yul\":874:1155   */\n    tag_73:\n        /* \"#utility.yul\":957:984   */\n      tag_126\n        /* \"#utility.yul\":979:983   */\n      dup3\n        /* \"#utility.yul\":957:984   */\n      tag_71\n      jump\t// in\n    tag_126:\n        /* \"#utility.yul\":949:955   */\n      dup2\n        /* \"#utility.yul\":945:985   */\n      add\n        /* \"#utility.yul\":1087:1093   */\n      dup2\n        /* \"#utility.yul\":1075:1085   */\n      dup2\n        /* \"#utility.yul\":1072:1094   */\n      lt\n        /* \"#utility.yul\":1051:1069   */\n      0xffffffffffffffff\n        /* \"#utility.yul\":1039:1049   */\n      dup3\n        /* \"#utility.yul\":1036:1070   */\n      gt\n        /* \"#utility.yul\":1033:1095   */\n      or\n        /* \"#utility.yul\":1030:1118   */\n      iszero\n      tag_127\n      jumpi\n        /* \"#utility.yul\":1098:1116   */\n      tag_128\n      tag_72\n      jump\t// in\n    tag_128:\n        /* \"#utility.yul\":1030:1118   */\n    tag_127:\n        /* \"#utility.yul\":1138:1148   */\n      dup1\n        /* \"#utility.yul\":1134:1136   */\n      0x40\n        /* \"#utility.yul\":1127:1149   */\n      mstore\n        /* \"#utility.yul\":917:1155   */\n      pop\n        /* \"#utility.yul\":874:1155   */\n      pop\n      pop\n      jump\t// out\n        /* \"#utility.yul\":1161:1290   */\n    tag_74:\n        /* \"#utility.yul\":1195:1201   */\n      0x00\n        /* \"#utility.yul\":1222:1242   */\n      tag_130\n      tag_66\n      jump\t// in\n    tag_130:\n        /* \"#utility.yul\":1212:1242   */\n      swap1\n      pop\n        /* \"#utility.yul\":1251:1284   */\n      tag_131\n        /* \"#utility.yul\":1279:1283   */\n      dup3\n        /* \"#utility.yul\":1271:1277   */\n      dup3\n        /* \"#utility.yul\":1251:1284   */\n      tag_73\n      jump\t// in\n    tag_131:\n        /* \"#utility.yul\":1161:1290   */\n      swap2\n      swap1\n      pop\n      jump\t// out\n        /* \"#utility.yul\":1296:1604   */\n    tag_75:\n        /* \"#utility.yul\":1358:1362   */\n      0x00\n        /* \"#utility.yul\":1448:1466   */\n      0xffffffffffffffff\n        /* \"#utility.yul\":1440:1446   */\n      dup3\n        /* \"#utility.yul\":1437:1467   */\n      gt\n        /* \"#utility.yul\":1434:1490   */\n      iszero\n      tag_133\n      jumpi\n        /* \"#utility.yul\":1470:1488   */\n      tag_134\n      tag_72\n      jump\t// in\n    tag_134:\n        /* \"#utility.yul\":1434:1490   */\n    tag_133:\n        /* \"#utility.yul\":1508:1537   */\n      tag_135\n        /* \"#utility.yul\":1530:1536   */\n      dup3\n        /* \"#utility.yul\":1508:1537   */\n      tag_71\n      jump\t// in\n    tag_135:\n        /* \"#utility.yul\":1500:1537   */\n      swap1\n      pop\n        /* \"#utility.yul\":1592:1596   */\n      0x20\n        /* \"#utility.yul\":1586:1590   */\n      dup2\n        /* \"#utility.yul\":1582:1597   */\n      add\n        /* \"#utility.yul\":1574:1597   */\n      swap1\n      pop\n        /* \"#utility.yul\":1296:1604   */\n      swap2\n      swap1\n      pop\n      jump\t// out\n        /* \"#utility.yul\":1610:1764   */\n    tag_76:\n        /* \"#utility.yul\":1694:1700   */\n      dup3\n        /* \"#utility.yul\":1689:1692   */\n      dup2\n        /* \"#utility.yul\":1684:1687   */\n      dup4\n        /* \"#utility.yul\":1671:1701   */\n      calldatacopy\n        /* \"#utility.yul\":1756:1757   */\n      0x00\n        /* \"#utility.yul\":1747:1753   */\n      dup4\n        /* \"#utility.yul\":1742:1745   */\n      dup4\n        /* \"#utility.yul\":1738:1754   */\n      add\n        /* \"#utility.yul\":1731:1758   */\n      mstore\n        /* \"#utility.yul\":1610:1764   */\n      pop\n      pop\n      pop\n      jump\t// out\n        /* \"#utility.yul\":1770:2182   */\n    tag_77:\n        /* \"#utility.yul\":1848:1853   */\n      0x00\n        /* \"#utility.yul\":1873:1939   */\n      tag_138\n        /* \"#utility.yul\":1889:1938   */\n      tag_139\n        /* \"#utility.yul\":1931:1937   */\n      dup5\n        /* \"#utility.yul\":1889:1938   */\n      tag_75\n      jump\t// in\n    tag_139:\n        /* \"#utility.yul\":1873:1939   */\n      tag_74\n      jump\t// in\n    tag_138:\n        /* \"#utility.yul\":1864:1939   */\n      swap1\n      pop\n        /* \"#utility.yul\":1962:1968   */\n      dup3\n        /* \"#utility.yul\":1955:1960   */\n      dup2\n        /* \"#utility.yul\":1948:1969   */\n      mstore\n        /* \"#utility.yul\":2000:2004   */\n      0x20\n        /* \"#utility.yul\":1993:1998   */\n      dup2\n        /* \"#utility.yul\":1989:2005   */\n      add\n        /* \"#utility.yul\":2038:2041   */\n      dup5\n        /* \"#utility.yul\":2029:2035   */\n      dup5\n        /* \"#utility.yul\":2024:2027   */\n      dup5\n        /* \"#utility.yul\":2020:2036   */\n      add\n        /* \"#utility.yul\":2017:2042   */\n      gt\n        /* \"#utility.yul\":2014:2126   */\n      iszero\n      tag_140\n      jumpi\n        /* \"#utility.yul\":2045:2124   */\n      tag_141\n      tag_70\n      jump\t// in\n    tag_141:\n        /* \"#utility.yul\":2014:2126   */\n    tag_140:\n        /* \"#utility.yul\":2135:2176   */\n      tag_142\n        /* \"#utility.yul\":2169:2175   */\n      dup5\n        /* \"#utility.yul\":2164:2167   */\n      dup3\n        /* \"#utility.yul\":2159:2162   */\n      dup6\n        /* \"#utility.yul\":2135:2176   */\n      tag_76\n      jump\t// in\n    tag_142:\n        /* \"#utility.yul\":1854:2182   */\n      pop\n        /* \"#utility.yul\":1770:2182   */\n      swap4\n      swap3\n      pop\n      pop\n      pop\n      jump\t// out\n        /* \"#utility.yul\":2202:2542   */\n    tag_78:\n        /* \"#utility.yul\":2258:2263   */\n      0x00\n        /* \"#utility.yul\":2307:2310   */\n      dup3\n        /* \"#utility.yul\":2300:2304   */\n      0x1f\n        /* \"#utility.yul\":2292:2298   */\n      dup4\n        /* \"#utility.yul\":2288:2305   */\n      add\n        /* \"#utility.yul\":2284:2311   */\n      slt\n        /* \"#utility.yul\":2274:2396   */\n      tag_144\n      jumpi\n        /* \"#utility.yul\":2315:2394   */\n      tag_145\n      tag_69\n      jump\t// in\n    tag_145:\n        /* \"#utility.yul\":2274:2396   */\n    tag_144:\n        /* \"#utility.yul\":2432:2438   */\n      dup2\n        /* \"#utility.yul\":2419:2439   */\n      calldataload\n        /* \"#utility.yul\":2457:2536   */\n      tag_146\n        /* \"#utility.yul\":2532:2535   */\n      dup5\n        /* \"#utility.yul\":2524:2530   */\n      dup3\n        /* \"#utility.yul\":2517:2521   */\n      0x20\n        /* \"#utility.yul\":2509:2515   */\n      dup7\n        /* \"#utility.yul\":2505:2522   */\n      add\n        /* \"#utility.yul\":2457:2536   */\n      tag_77\n      jump\t// in\n    tag_146:\n        /* \"#utility.yul\":2448:2536   */\n      swap2\n      pop\n        /* \"#utility.yul\":2264:2542   */\n      pop\n        /* \"#utility.yul\":2202:2542   */\n      swap3\n      swap2\n      pop\n      pop\n      jump\t// out\n        /* \"#utility.yul\":2548:3382   */\n    tag_11:\n        /* \"#utility.yul\":2636:2642   */\n      0x00\n        /* \"#utility.yul\":2644:2650   */\n      dup1\n        /* \"#utility.yul\":2693:2695   */\n      0x40\n        /* \"#utility.yul\":2681:2690   */\n      dup4\n        /* \"#utility.yul\":2672:2679   */\n      dup6\n        /* \"#utility.yul\":2668:2691   */\n      sub\n        /* \"#utility.yul\":2664:2696   */\n      slt\n        /* \"#utility.yul\":2661:2780   */\n      iszero\n      tag_148\n      jumpi\n        /* \"#utility.yul\":2699:2778   */\n      tag_149\n      tag_67\n      jump\t// in\n    tag_149:\n        /* \"#utility.yul\":2661:2780   */\n    tag_148:\n        /* \"#utility.yul\":2847:2848   */\n      0x00\n        /* \"#utility.yul\":2836:2845   */\n      dup4\n        /* \"#utility.yul\":2832:2849   */\n      add\n        /* \"#utility.yul\":2819:2850   */\n      calldataload\n        /* \"#utility.yul\":2877:2895   */\n      0xffffffffffffffff\n        /* \"#utility.yul\":2869:2875   */\n      dup2\n        /* \"#utility.yul\":2866:2896   */\n      gt\n        /* \"#utility.yul\":2863:2980   */\n      iszero\n      tag_150\n      jumpi\n        /* \"#utility.yul\":2899:2978   */\n      tag_151\n      tag_68\n      jump\t// in\n    tag_151:\n        /* \"#utility.yul\":2863:2980   */\n    tag_150:\n        /* \"#utility.yul\":3004:3067   */\n      tag_152\n        /* \"#utility.yul\":3059:3066   */\n      dup6\n        /* \"#utility.yul\":3050:3056   */\n      dup3\n        /* \"#utility.yul\":3039:3048   */\n      dup7\n        /* \"#utility.yul\":3035:3057   */\n      add\n        /* \"#utility.yul\":3004:3067   */\n      tag_78\n      jump\t// in\n    tag_152:\n        /* \"#utility.yul\":2994:3067   */\n      swap3\n      pop\n        /* \"#utility.yul\":2790:3077   */\n      pop\n        /* \"#utility.yul\":3144:3146   */\n      0x20\n        /* \"#utility.yul\":3133:3142   */\n      dup4\n        /* \"#utility.yul\":3129:3147   */\n      add\n        /* \"#utility.yul\":3116:3148   */\n      calldataload\n        /* \"#utility.yul\":3175:3193   */\n      0xffffffffffffffff\n        /* \"#utility.yul\":3167:3173   */\n      dup2\n        /* \"#utility.yul\":3164:3194   */\n      gt\n        /* \"#utility.yul\":3161:3278   */\n      iszero\n      tag_153\n      jumpi\n        /* \"#utility.yul\":3197:3276   */\n      tag_154\n      tag_68\n      jump\t// in\n    tag_154:\n        /* \"#utility.yul\":3161:3278   */\n    tag_153:\n        /* \"#utility.yul\":3302:3365   */\n      tag_155\n        /* \"#utility.yul\":3357:3364   */\n      dup6\n        /* \"#utility.yul\":3348:3354   */\n      dup3\n        /* \"#utility.yul\":3337:3346   */\n      dup7\n        /* \"#utility.yul\":3333:3355   */\n      add\n        /* \"#utility.yul\":3302:3365   */\n      tag_78\n      jump\t// in\n    tag_155:\n        /* \"#utility.yul\":3292:3365   */\n      swap2\n      pop\n        /* \"#utility.yul\":3087:3375   */\n      pop\n        /* \"#utility.yul\":2548:3382   */\n      swap3\n      pop\n      swap3\n      swap1\n      pop\n      jump\t// out\n        /* \"#utility.yul\":3388:3465   */\n    tag_79:\n        /* \"#utility.yul\":3425:3432   */\n      0x00\n        /* \"#utility.yul\":3454:3459   */\n      dup2\n        /* \"#utility.yul\":3443:3459   */\n      swap1\n      pop\n        /* \"#utility.yul\":3388:3465   */\n      swap2\n      swap1\n      pop\n      jump\t// out\n        /* \"#utility.yul\":3471:3589   */\n    tag_80:\n        /* \"#utility.yul\":3558:3582   */\n      tag_158\n        /* \"#utility.yul\":3576:3581   */\n      dup2\n        /* \"#utility.yul\":3558:3582   */\n      tag_79\n      jump\t// in\n    tag_158:\n        /* \"#utility.yul\":3553:3556   */\n      dup3\n        /* \"#utility.yul\":3546:3583   */\n      mstore\n        /* \"#utility.yul\":3471:3589   */\n      pop\n      pop\n      jump\t// out\n        /* \"#utility.yul\":3595:3817   */\n    tag_16:\n        /* \"#utility.yul\":3688:3692   */\n      0x00\n        /* \"#utility.yul\":3726:3728   */\n      0x20\n        /* \"#utility.yul\":3715:3724   */\n      dup3\n        /* \"#utility.yul\":3711:3729   */\n      add\n        /* \"#utility.yul\":3703:3729   */\n      swap1\n      pop\n        /* \"#utility.yul\":3739:3810   */\n      tag_160\n        /* \"#utility.yul\":3807:3808   */\n      0x00\n        /* \"#utility.yul\":3796:3805   */\n      dup4\n        /* \"#utility.yul\":3792:3809   */\n      add\n        /* \"#utility.yul\":3783:3789   */\n      dup5\n        /* \"#utility.yul\":3739:3810   */\n      tag_80\n      jump\t// in\n    tag_160:\n        /* \"#utility.yul\":3595:3817   */\n      swap3\n      swap2\n      pop\n      pop\n      jump\t// out\n        /* \"#utility.yul\":3823:3949   */\n    tag_81:\n        /* \"#utility.yul\":3860:3867   */\n      0x00\n        /* \"#utility.yul\":3900:3942   */\n      0xffffffffffffffffffffffffffffffffffffffff\n        /* \"#utility.yul\":3893:3898   */\n      dup3\n        /* \"#utility.yul\":3889:3943   */\n      and\n        /* \"#utility.yul\":3878:3943   */\n      swap1\n      pop\n        /* \"#utility.yul\":3823:3949   */\n      swap2\n      swap1\n      pop\n      jump\t// out\n        /* \"#utility.yul\":3955:4051   */\n    tag_82:\n        /* \"#utility.yul\":3992:3999   */\n      0x00\n        /* \"#utility.yul\":4021:4045   */\n      tag_163\n        /* \"#utility.yul\":4039:4044   */\n      dup3\n        /* \"#utility.yul\":4021:4045   */\n      tag_81\n      jump\t// in\n    tag_163:\n        /* \"#utility.yul\":4010:4045   */\n      swap1\n      pop\n        /* \"#utility.yul\":3955:4051   */\n      swap2\n      swap1\n      pop\n      jump\t// out\n        /* \"#utility.yul\":4057:4175   */\n    tag_83:\n        /* \"#utility.yul\":4144:4168   */\n      tag_165\n        /* \"#utility.yul\":4162:4167   */\n      dup2\n        /* \"#utility.yul\":4144:4168   */\n      tag_82\n      jump\t// in\n    tag_165:\n        /* \"#utility.yul\":4139:4142   */\n      dup3\n        /* \"#utility.yul\":4132:4169   */\n      mstore\n        /* \"#utility.yul\":4057:4175   */\n      pop\n      pop\n      jump\t// out\n        /* \"#utility.yul\":4181:4403   */\n    tag_20:\n        /* \"#utility.yul\":4274:4278   */\n      0x00\n        /* \"#utility.yul\":4312:4314   */\n      0x20\n        /* \"#utility.yul\":4301:4310   */\n      dup3\n        /* \"#utility.yul\":4297:4315   */\n      add\n        /* \"#utility.yul\":4289:4315   */\n      swap1\n      pop\n        /* \"#utility.yul\":4325:4396   */\n      tag_167\n        /* \"#utility.yul\":4393:4394   */\n      0x00\n        /* \"#utility.yul\":4382:4391   */\n      dup4\n        /* \"#utility.yul\":4378:4395   */\n      add\n        /* \"#utility.yul\":4369:4375   */\n      dup5\n        /* \"#utility.yul\":4325:4396   */\n      tag_83\n      jump\t// in\n    tag_167:\n        /* \"#utility.yul\":4181:4403   */\n      swap3\n      swap2\n      pop\n      pop\n      jump\t// out\n        /* \"#utility.yul\":4409:4531   */\n    tag_84:\n        /* \"#utility.yul\":4482:4506   */\n      tag_169\n        /* \"#utility.yul\":4500:4505   */\n      dup2\n        /* \"#utility.yul\":4482:4506   */\n      tag_82\n      jump\t// in\n    tag_169:\n        /* \"#utility.yul\":4475:4480   */\n      dup2\n        /* \"#utility.yul\":4472:4507   */\n      eq\n        /* \"#utility.yul\":4462:4525   */\n      tag_170\n      jumpi\n        /* \"#utility.yul\":4521:4522   */\n      0x00\n        /* \"#utility.yul\":4518:4519   */\n      dup1\n        /* \"#utility.yul\":4511:4523   */\n      revert\n        /* \"#utility.yul\":4462:4525   */\n    tag_170:\n        /* \"#utility.yul\":4409:4531   */\n      pop\n      jump\t// out\n        /* \"#utility.yul\":4537:4676   */\n    tag_85:\n        /* \"#utility.yul\":4583:4588   */\n      0x00\n        /* \"#utility.yul\":4621:4627   */\n      dup2\n        /* \"#utility.yul\":4608:4628   */\n      calldataload\n        /* \"#utility.yul\":4599:4628   */\n      swap1\n      pop\n        /* \"#utility.yul\":4637:4670   */\n      tag_172\n        /* \"#utility.yul\":4664:4669   */\n      dup2\n        /* \"#utility.yul\":4637:4670   */\n      tag_84\n      jump\t// in\n    tag_172:\n        /* \"#utility.yul\":4537:4676   */\n      swap3\n      swap2\n      pop\n      pop\n      jump\t// out\n        /* \"#utility.yul\":4682:4804   */\n    tag_86:\n        /* \"#utility.yul\":4755:4779   */\n      tag_174\n        /* \"#utility.yul\":4773:4778   */\n      dup2\n        /* \"#utility.yul\":4755:4779   */\n      tag_79\n      jump\t// in\n    tag_174:\n        /* \"#utility.yul\":4748:4753   */\n      dup2\n        /* \"#utility.yul\":4745:4780   */\n      eq\n        /* \"#utility.yul\":4735:4798   */\n      tag_175\n      jumpi\n        /* \"#utility.yul\":4794:4795   */\n      0x00\n        /* \"#utility.yul\":4791:4792   */\n      dup1\n        /* \"#utility.yul\":4784:4796   */\n      revert\n        /* \"#utility.yul\":4735:4798   */\n    tag_175:\n        /* \"#utility.yul\":4682:4804   */\n      pop\n      jump\t// out\n        /* \"#utility.yul\":4810:4949   */\n    tag_87:\n        /* \"#utility.yul\":4856:4861   */\n      0x00\n        /* \"#utility.yul\":4894:4900   */\n      dup2\n        /* \"#utility.yul\":4881:4901   */\n      calldataload\n        /* \"#utility.yul\":4872:4901   */\n      swap1\n      pop\n        /* \"#utility.yul\":4910:4943   */\n      tag_177\n        /* \"#utility.yul\":4937:4942   */\n      dup2\n        /* \"#utility.yul\":4910:4943   */\n      tag_86\n      jump\t// in\n    tag_177:\n        /* \"#utility.yul\":4810:4949   */\n      swap3\n      swap2\n      pop\n      pop\n      jump\t// out\n        /* \"#utility.yul\":4955:5429   */\n    tag_23:\n        /* \"#utility.yul\":5023:5029   */\n      0x00\n        /* \"#utility.yul\":5031:5037   */\n      dup1\n        /* \"#utility.yul\":5080:5082   */\n      0x40\n        /* \"#utility.yul\":5068:5077   */\n      dup4\n        /* \"#utility.yul\":5059:5066   */\n      dup6\n        /* \"#utility.yul\":5055:5078   */\n      sub\n        /* \"#utility.yul\":5051:5083   */\n      slt\n        /* \"#utility.yul\":5048:5167   */\n      iszero\n      tag_179\n      jumpi\n        /* \"#utility.yul\":5086:5165   */\n      tag_180\n      tag_67\n      jump\t// in\n    tag_180:\n        /* \"#utility.yul\":5048:5167   */\n    tag_179:\n        /* \"#utility.yul\":5206:5207   */\n      0x00\n        /* \"#utility.yul\":5231:5284   */\n      tag_181\n        /* \"#utility.yul\":5276:5283   */\n      dup6\n        /* \"#utility.yul\":5267:5273   */\n      dup3\n        /* \"#utility.yul\":5256:5265   */\n      dup7\n        /* \"#utility.yul\":5252:5274   */\n      add\n        /* \"#utility.yul\":5231:5284   */\n      tag_85\n      jump\t// in\n    tag_181:\n        /* \"#utility.yul\":5221:5284   */\n      swap3\n      pop\n        /* \"#utility.yul\":5177:5294   */\n      pop\n        /* \"#utility.yul\":5333:5335   */\n      0x20\n        /* \"#utility.yul\":5359:5412   */\n      tag_182\n        /* \"#utility.yul\":5404:5411   */\n      dup6\n        /* \"#utility.yul\":5395:5401   */\n      dup3\n        /* \"#utility.yul\":5384:5393   */\n      dup7\n        /* \"#utility.yul\":5380:5402   */\n      add\n        /* \"#utility.yul\":5359:5412   */\n      tag_87\n      jump\t// in\n    tag_182:\n        /* \"#utility.yul\":5349:5412   */\n      swap2\n      pop\n        /* \"#utility.yul\":5304:5422   */\n      pop\n        /* \"#utility.yul\":4955:5429   */\n      swap3\n      pop\n      swap3\n      swap1\n      pop\n      jump\t// out\n        /* \"#utility.yul\":5435:5525   */\n    tag_88:\n        /* \"#utility.yul\":5469:5476   */\n      0x00\n        /* \"#utility.yul\":5512:5517   */\n      dup2\n        /* \"#utility.yul\":5505:5518   */\n      iszero\n        /* \"#utility.yul\":5498:5519   */\n      iszero\n        /* \"#utility.yul\":5487:5519   */\n      swap1\n      pop\n        /* \"#utility.yul\":5435:5525   */\n      swap2\n      swap1\n      pop\n      jump\t// out\n        /* \"#utility.yul\":5531:5640   */\n    tag_89:\n        /* \"#utility.yul\":5612:5633   */\n      tag_185\n        /* \"#utility.yul\":5627:5632   */\n      dup2\n        /* \"#utility.yul\":5612:5633   */\n      tag_88\n      jump\t// in\n    tag_185:\n        /* \"#utility.yul\":5607:5610   */\n      dup3\n        /* \"#utility.yul\":5600:5634   */\n      mstore\n        /* \"#utility.yul\":5531:5640   */\n      pop\n      pop\n      jump\t// out\n        /* \"#utility.yul\":5646:5856   */\n    tag_26:\n        /* \"#utility.yul\":5733:5737   */\n      0x00\n        /* \"#utility.yul\":5771:5773   */\n      0x20\n        /* \"#utility.yul\":5760:5769   */\n      dup3\n        /* \"#utility.yul\":5756:5774   */\n      add\n        /* \"#utility.yul\":5748:5774   */\n      swap1\n      pop\n        /* \"#utility.yul\":5784:5849   */\n      tag_187\n        /* \"#utility.yul\":5846:5847   */\n      0x00\n        /* \"#utility.yul\":5835:5844   */\n      dup4\n        /* \"#utility.yul\":5831:5848   */\n      add\n        /* \"#utility.yul\":5822:5828   */\n      dup5\n        /* \"#utility.yul\":5784:5849   */\n      tag_89\n      jump\t// in\n    tag_187:\n        /* \"#utility.yul\":5646:5856   */\n      swap3\n      swap2\n      pop\n      pop\n      jump\t// out\n        /* \"#utility.yul\":5862:5922   */\n    tag_90:\n        /* \"#utility.yul\":5890:5893   */\n      0x00\n        /* \"#utility.yul\":5911:5916   */\n      dup2\n        /* \"#utility.yul\":5904:5916   */\n      swap1\n      pop\n        /* \"#utility.yul\":5862:5922   */\n      swap2\n      swap1\n      pop\n      jump\t// out\n        /* \"#utility.yul\":5928:6070   */\n    tag_91:\n        /* \"#utility.yul\":5978:5987   */\n      0x00\n        /* \"#utility.yul\":6011:6064   */\n      tag_190\n        /* \"#utility.yul\":6029:6063   */\n      tag_191\n        /* \"#utility.yul\":6038:6062   */\n      tag_192\n        /* \"#utility.yul\":6056:6061   */\n      dup5\n        /* \"#utility.yul\":6038:6062   */\n      tag_81\n      jump\t// in\n    tag_192:\n        /* \"#utility.yul\":6029:6063   */\n      tag_90\n      jump\t// in\n    tag_191:\n        /* \"#utility.yul\":6011:6064   */\n      tag_81\n      jump\t// in\n    tag_190:\n        /* \"#utility.yul\":5998:6064   */\n      swap1\n      pop\n        /* \"#utility.yul\":5928:6070   */\n      swap2\n      swap1\n      pop\n      jump\t// out\n        /* \"#utility.yul\":6076:6202   */\n    tag_92:\n        /* \"#utility.yul\":6126:6135   */\n      0x00\n        /* \"#utility.yul\":6159:6196   */\n      tag_194\n        /* \"#utility.yul\":6190:6195   */\n      dup3\n        /* \"#utility.yul\":6159:6196   */\n      tag_91\n      jump\t// in\n    tag_194:\n        /* \"#utility.yul\":6146:6196   */\n      swap1\n      pop\n        /* \"#utility.yul\":6076:6202   */\n      swap2\n      swap1\n      pop\n      jump\t// out\n        /* \"#utility.yul\":6208:6348   */\n    tag_93:\n        /* \"#utility.yul\":6272:6281   */\n      0x00\n        /* \"#utility.yul\":6305:6342   */\n      tag_196\n        /* \"#utility.yul\":6336:6341   */\n      dup3\n        /* \"#utility.yul\":6305:6342   */\n      tag_92\n      jump\t// in\n    tag_196:\n        /* \"#utility.yul\":6292:6342   */\n      swap1\n      pop\n        /* \"#utility.yul\":6208:6348   */\n      swap2\n      swap1\n      pop\n      jump\t// out\n        /* \"#utility.yul\":6354:6513   */\n    tag_94:\n        /* \"#utility.yul\":6455:6506   */\n      tag_198\n        /* \"#utility.yul\":6500:6505   */\n      dup2\n        /* \"#utility.yul\":6455:6506   */\n      tag_93\n      jump\t// in\n    tag_198:\n        /* \"#utility.yul\":6450:6453   */\n      dup3\n        /* \"#utility.yul\":6443:6507   */\n      mstore\n        /* \"#utility.yul\":6354:6513   */\n      pop\n      pop\n      jump\t// out\n        /* \"#utility.yul\":6519:6769   */\n    tag_30:\n        /* \"#utility.yul\":6626:6630   */\n      0x00\n        /* \"#utility.yul\":6664:6666   */\n      0x20\n        /* \"#utility.yul\":6653:6662   */\n      dup3\n        /* \"#utility.yul\":6649:6667   */\n      add\n        /* \"#utility.yul\":6641:6667   */\n      swap1\n      pop\n        /* \"#utility.yul\":6677:6762   */\n      tag_200\n        /* \"#utility.yul\":6759:6760   */\n      0x00\n        /* \"#utility.yul\":6748:6757   */\n      dup4\n        /* \"#utility.yul\":6744:6761   */\n      add\n        /* \"#utility.yul\":6735:6741   */\n      dup5\n        /* \"#utility.yul\":6677:6762   */\n      tag_94\n      jump\t// in\n    tag_200:\n        /* \"#utility.yul\":6519:6769   */\n      swap3\n      swap2\n      pop\n      pop\n      jump\t// out\n        /* \"#utility.yul\":6775:7104   */\n    tag_33:\n        /* \"#utility.yul\":6834:6840   */\n      0x00\n        /* \"#utility.yul\":6883:6885   */\n      0x20\n        /* \"#utility.yul\":6871:6880   */\n      dup3\n        /* \"#utility.yul\":6862:6869   */\n      dup5\n        /* \"#utility.yul\":6858:6881   */\n      sub\n        /* \"#utility.yul\":6854:6886   */\n      slt\n        /* \"#utility.yul\":6851:6970   */\n      iszero\n      tag_202\n      jumpi\n        /* \"#utility.yul\":6889:6968   */\n      tag_203\n      tag_67\n      jump\t// in\n    tag_203:\n        /* \"#utility.yul\":6851:6970   */\n    tag_202:\n        /* \"#utility.yul\":7009:7010   */\n      0x00\n        /* \"#utility.yul\":7034:7087   */\n      tag_204\n        /* \"#utility.yul\":7079:7086   */\n      dup5\n        /* \"#utility.yul\":7070:7076   */\n      dup3\n        /* \"#utility.yul\":7059:7068   */\n      dup6\n        /* \"#utility.yul\":7055:7077   */\n      add\n        /* \"#utility.yul\":7034:7087   */\n      tag_87\n      jump\t// in\n    tag_204:\n        /* \"#utility.yul\":7024:7087   */\n      swap2\n      pop\n        /* \"#utility.yul\":6980:7097   */\n      pop\n        /* \"#utility.yul\":6775:7104   */\n      swap3\n      swap2\n      pop\n      pop\n      jump\t// out\n        /* \"#utility.yul\":7110:7209   */\n    tag_95:\n        /* \"#utility.yul\":7162:7168   */\n      0x00\n        /* \"#utility.yul\":7196:7201   */\n      dup2\n        /* \"#utility.yul\":7190:7202   */\n      mload\n        /* \"#utility.yul\":7180:7202   */\n      swap1\n      pop\n        /* \"#utility.yul\":7110:7209   */\n      swap2\n      swap1\n      pop\n      jump\t// out\n        /* \"#utility.yul\":7215:7384   */\n    tag_96:\n        /* \"#utility.yul\":7299:7310   */\n      0x00\n        /* \"#utility.yul\":7333:7339   */\n      dup3\n        /* \"#utility.yul\":7328:7331   */\n      dup3\n        /* \"#utility.yul\":7321:7340   */\n      mstore\n        /* \"#utility.yul\":7373:7377   */\n      0x20\n        /* \"#utility.yul\":7368:7371   */\n      dup3\n        /* \"#utility.yul\":7364:7378   */\n      add\n        /* \"#utility.yul\":7349:7378   */\n      swap1\n      pop\n        /* \"#utility.yul\":7215:7384   */\n      swap3\n      swap2\n      pop\n      pop\n      jump\t// out\n        /* \"#utility.yul\":7390:7697   */\n    tag_97:\n        /* \"#utility.yul\":7458:7459   */\n      0x00\n        /* \"#utility.yul\":7468:7581   */\n    tag_208:\n        /* \"#utility.yul\":7482:7488   */\n      dup4\n        /* \"#utility.yul\":7479:7480   */\n      dup2\n        /* \"#utility.yul\":7476:7489   */\n      lt\n        /* \"#utility.yul\":7468:7581   */\n      iszero\n      tag_210\n      jumpi\n        /* \"#utility.yul\":7567:7568   */\n      dup1\n        /* \"#utility.yul\":7562:7565   */\n      dup3\n        /* \"#utility.yul\":7558:7569   */\n      add\n        /* \"#utility.yul\":7552:7570   */\n      mload\n        /* \"#utility.yul\":7548:7549   */\n      dup2\n        /* \"#utility.yul\":7543:7546   */\n      dup5\n        /* \"#utility.yul\":7539:7550   */\n      add\n        /* \"#utility.yul\":7532:7571   */\n      mstore\n        /* \"#utility.yul\":7504:7506   */\n      0x20\n        /* \"#utility.yul\":7501:7502   */\n      dup2\n        /* \"#utility.yul\":7497:7507   */\n      add\n        /* \"#utility.yul\":7492:7507   */\n      swap1\n      pop\n        /* \"#utility.yul\":7468:7581   */\n      jump(tag_208)\n    tag_210:\n        /* \"#utility.yul\":7599:7605   */\n      dup4\n        /* \"#utility.yul\":7596:7597   */\n      dup2\n        /* \"#utility.yul\":7593:7606   */\n      gt\n        /* \"#utility.yul\":7590:7691   */\n      iszero\n      tag_211\n      jumpi\n        /* \"#utility.yul\":7679:7680   */\n      0x00\n        /* \"#utility.yul\":7670:7676   */\n      dup5\n        /* \"#utility.yul\":7665:7668   */\n      dup5\n        /* \"#utility.yul\":7661:7677   */\n      add\n        /* \"#utility.yul\":7654:7681   */\n      mstore\n        /* \"#utility.yul\":7590:7691   */\n    tag_211:\n        /* \"#utility.yul\":7439:7697   */\n      pop\n        /* \"#utility.yul\":7390:7697   */\n      pop\n      pop\n      pop\n      jump\t// out\n        /* \"#utility.yul\":7703:8067   */\n    tag_98:\n        /* \"#utility.yul\":7791:7794   */\n      0x00\n        /* \"#utility.yul\":7819:7858   */\n      tag_213\n        /* \"#utility.yul\":7852:7857   */\n      dup3\n        /* \"#utility.yul\":7819:7858   */\n      tag_95\n      jump\t// in\n    tag_213:\n        /* \"#utility.yul\":7874:7945   */\n      tag_214\n        /* \"#utility.yul\":7938:7944   */\n      dup2\n        /* \"#utility.yul\":7933:7936   */\n      dup6\n        /* \"#utility.yul\":7874:7945   */\n      tag_96\n      jump\t// in\n    tag_214:\n        /* \"#utility.yul\":7867:7945   */\n      swap4\n      pop\n        /* \"#utility.yul\":7954:8006   */\n      tag_215\n        /* \"#utility.yul\":7999:8005   */\n      dup2\n        /* \"#utility.yul\":7994:7997   */\n      dup6\n        /* \"#utility.yul\":7987:7991   */\n      0x20\n        /* \"#utility.yul\":7980:7985   */\n      dup7\n        /* \"#utility.yul\":7976:7992   */\n      add\n        /* \"#utility.yul\":7954:8006   */\n      tag_97\n      jump\t// in\n    tag_215:\n        /* \"#utility.yul\":8031:8060   */\n      tag_216\n        /* \"#utility.yul\":8053:8059   */\n      dup2\n        /* \"#utility.yul\":8031:8060   */\n      tag_71\n      jump\t// in\n    tag_216:\n        /* \"#utility.yul\":8026:8029   */\n      dup5\n        /* \"#utility.yul\":8022:8061   */\n      add\n        /* \"#utility.yul\":8015:8061   */\n      swap2\n      pop\n        /* \"#utility.yul\":7795:8067   */\n      pop\n        /* \"#utility.yul\":7703:8067   */\n      swap3\n      swap2\n      pop\n      pop\n      jump\t// out\n        /* \"#utility.yul\":8073:8697   */\n    tag_36:\n        /* \"#utility.yul\":8262:8266   */\n      0x00\n        /* \"#utility.yul\":8300:8302   */\n      0x60\n        /* \"#utility.yul\":8289:8298   */\n      dup3\n        /* \"#utility.yul\":8285:8303   */\n      add\n        /* \"#utility.yul\":8277:8303   */\n      swap1\n      pop\n        /* \"#utility.yul\":8313:8384   */\n      tag_218\n        /* \"#utility.yul\":8381:8382   */\n      0x00\n        /* \"#utility.yul\":8370:8379   */\n      dup4\n        /* \"#utility.yul\":8366:8383   */\n      add\n        /* \"#utility.yul\":8357:8363   */\n      dup7\n        /* \"#utility.yul\":8313:8384   */\n      tag_80\n      jump\t// in\n    tag_218:\n        /* \"#utility.yul\":8431:8440   */\n      dup2\n        /* \"#utility.yul\":8425:8429   */\n      dup2\n        /* \"#utility.yul\":8421:8441   */\n      sub\n        /* \"#utility.yul\":8416:8418   */\n      0x20\n        /* \"#utility.yul\":8405:8414   */\n      dup4\n        /* \"#utility.yul\":8401:8419   */\n      add\n        /* \"#utility.yul\":8394:8442   */\n      mstore\n        /* \"#utility.yul\":8459:8537   */\n      tag_219\n        /* \"#utility.yul\":8532:8536   */\n      dup2\n        /* \"#utility.yul\":8523:8529   */\n      dup6\n        /* \"#utility.yul\":8459:8537   */\n      tag_98\n      jump\t// in\n    tag_219:\n        /* \"#utility.yul\":8451:8537   */\n      swap1\n      pop\n        /* \"#utility.yul\":8584:8593   */\n      dup2\n        /* \"#utility.yul\":8578:8582   */\n      dup2\n        /* \"#utility.yul\":8574:8594   */\n      sub\n        /* \"#utility.yul\":8569:8571   */\n      0x40\n        /* \"#utility.yul\":8558:8567   */\n      dup4\n        /* \"#utility.yul\":8554:8572   */\n      add\n        /* \"#utility.yul\":8547:8595   */\n      mstore\n        /* \"#utility.yul\":8612:8690   */\n      tag_220\n        /* \"#utility.yul\":8685:8689   */\n      dup2\n        /* \"#utility.yul\":8676:8682   */\n      dup5\n        /* \"#utility.yul\":8612:8690   */\n      tag_98\n      jump\t// in\n    tag_220:\n        /* \"#utility.yul\":8604:8690   */\n      swap1\n      pop\n        /* \"#utility.yul\":8073:8697   */\n      swap5\n      swap4\n      pop\n      pop\n      pop\n      pop\n      jump\t// out\n        /* \"#utility.yul\":8703:8883   */\n    tag_99:\n        /* \"#utility.yul\":8751:8828   */\n      0x4e487b7100000000000000000000000000000000000000000000000000000000\n        /* \"#utility.yul\":8748:8749   */\n      0x00\n        /* \"#utility.yul\":8741:8829   */\n      mstore\n        /* \"#utility.yul\":8848:8852   */\n      0x22\n        /* \"#utility.yul\":8845:8846   */\n      0x04\n        /* \"#utility.yul\":8838:8853   */\n      mstore\n        /* \"#utility.yul\":8872:8876   */\n      0x24\n        /* \"#utility.yul\":8869:8870   */\n      0x00\n        /* \"#utility.yul\":8862:8877   */\n      revert\n        /* \"#utility.yul\":8889:9209   */\n    tag_53:\n        /* \"#utility.yul\":8933:8939   */\n      0x00\n        /* \"#utility.yul\":8970:8971   */\n      0x02\n        /* \"#utility.yul\":8964:8968   */\n      dup3\n        /* \"#utility.yul\":8960:8972   */\n      div\n        /* \"#utility.yul\":8950:8972   */\n      swap1\n      pop\n        /* \"#utility.yul\":9017:9018   */\n      0x01\n        /* \"#utility.yul\":9011:9015   */\n      dup3\n        /* \"#utility.yul\":9007:9019   */\n      and\n        /* \"#utility.yul\":9038:9056   */\n      dup1\n        /* \"#utility.yul\":9028:9109   */\n      tag_223\n      jumpi\n        /* \"#utility.yul\":9094:9098   */\n      0x7f\n        /* \"#utility.yul\":9086:9092   */\n      dup3\n        /* \"#utility.yul\":9082:9099   */\n      and\n        /* \"#utility.yul\":9072:9099   */\n      swap2\n      pop\n        /* \"#utility.yul\":9028:9109   */\n    tag_223:\n        /* \"#utility.yul\":9156:9158   */\n      0x20\n        /* \"#utility.yul\":9148:9154   */\n      dup3\n        /* \"#utility.yul\":9145:9159   */\n      lt\n        /* \"#utility.yul\":9125:9143   */\n      dup2\n        /* \"#utility.yul\":9122:9160   */\n      sub\n        /* \"#utility.yul\":9119:9203   */\n      tag_224\n      jumpi\n        /* \"#utility.yul\":9175:9193   */\n      tag_225\n      tag_99\n      jump\t// in\n    tag_225:\n        /* \"#utility.yul\":9119:9203   */\n    tag_224:\n        /* \"#utility.yul\":8940:9209   */\n      pop\n        /* \"#utility.yul\":8889:9209   */\n      swap2\n      swap1\n      pop\n      jump\t// out\n        /* \"#utility.yul\":9215:9356   */\n    tag_100:\n        /* \"#utility.yul\":9264:9268   */\n      0x00\n        /* \"#utility.yul\":9287:9290   */\n      dup2\n        /* \"#utility.yul\":9279:9290   */\n      swap1\n      pop\n        /* \"#utility.yul\":9310:9313   */\n      dup2\n        /* \"#utility.yul\":9307:9308   */\n      0x00\n        /* \"#utility.yul\":9300:9314   */\n      mstore\n        /* \"#utility.yul\":9344:9348   */\n      0x20\n        /* \"#utility.yul\":9341:9342   */\n      0x00\n        /* \"#utility.yul\":9331:9349   */\n      keccak256\n        /* \"#utility.yul\":9323:9349   */\n      swap1\n      pop\n        /* \"#utility.yul\":9215:9356   */\n      swap2\n      swap1\n      pop\n      jump\t// out\n        /* \"#utility.yul\":9362:9455   */\n    tag_101:\n        /* \"#utility.yul\":9399:9405   */\n      0x00\n        /* \"#utility.yul\":9446:9448   */\n      0x20\n        /* \"#utility.yul\":9441:9443   */\n      0x1f\n        /* \"#utility.yul\":9434:9439   */\n      dup4\n        /* \"#utility.yul\":9430:9444   */\n      add\n        /* \"#utility.yul\":9426:9449   */\n      div\n        /* \"#utility.yul\":9416:9449   */\n      swap1\n      pop\n        /* \"#utility.yul\":9362:9455   */\n      swap2\n      swap1\n      pop\n      jump\t// out\n        /* \"#utility.yul\":9461:9568   */\n    tag_102:\n        /* \"#utility.yul\":9505:9513   */\n      0x00\n        /* \"#utility.yul\":9555:9560   */\n      dup3\n        /* \"#utility.yul\":9549:9553   */\n      dup3\n        /* \"#utility.yul\":9545:9561   */\n      shl\n        /* \"#utility.yul\":9524:9561   */\n      swap1\n      pop\n        /* \"#utility.yul\":9461:9568   */\n      swap3\n      swap2\n      pop\n      pop\n      jump\t// out\n        /* \"#utility.yul\":9574:9967   */\n    tag_103:\n        /* \"#utility.yul\":9643:9649   */\n      0x00\n        /* \"#utility.yul\":9693:9694   */\n      0x08\n        /* \"#utility.yul\":9681:9691   */\n      dup4\n        /* \"#utility.yul\":9677:9695   */\n      mul\n        /* \"#utility.yul\":9716:9813   */\n      tag_230\n        /* \"#utility.yul\":9746:9812   */\n      0xffffffffffffffffffffffffffffffffffffffffffffffffffffffffffffffff\n        /* \"#utility.yul\":9735:9744   */\n      dup3\n        /* \"#utility.yul\":9716:9813   */\n      tag_102\n      jump\t// in\n    tag_230:\n        /* \"#utility.yul\":9834:9873   */\n      tag_231\n        /* \"#utility.yul\":9864:9872   */\n      dup7\n        /* \"#utility.yul\":9853:9862   */\n      dup4\n        /* \"#utility.yul\":9834:9873   */\n      tag_102\n      jump\t// in\n    tag_231:\n        /* \"#utility.yul\":9822:9873   */\n      swap6\n      pop\n        /* \"#utility.yul\":9906:9910   */\n      dup1\n        /* \"#utility.yul\":9902:9911   */\n      not\n        /* \"#utility.yul\":9895:9900   */\n      dup5\n        /* \"#utility.yul\":9891:9912   */\n      and\n        /* \"#utility.yul\":9882:9912   */\n      swap4\n      pop\n        /* \"#utility.yul\":9955:9959   */\n      dup1\n        /* \"#utility.yul\":9945:9953   */\n      dup7\n        /* \"#utility.yul\":9941:9960   */\n      and\n        /* \"#utility.yul\":9934:9939   */\n      dup5\n        /* \"#utility.yul\":9931:9961   */\n      or\n        /* \"#utility.yul\":9921:9961   */\n      swap3\n      pop\n        /* \"#utility.yul\":9650:9967   */\n      pop\n      pop\n        /* \"#utility.yul\":9574:9967   */\n      swap4\n      swap3\n      pop\n      pop\n      pop\n      jump\t// out\n        /* \"#utility.yul\":9973:10115   */\n    tag_104:\n        /* \"#utility.yul\":10023:10032   */\n      0x00\n        /* \"#utility.yul\":10056:10109   */\n      tag_233\n        /* \"#utility.yul\":10074:10108   */\n      tag_234\n        /* \"#utility.yul\":10083:10107   */\n      tag_235\n        /* \"#utility.yul\":10101:10106   */\n      dup5\n        /* \"#utility.yul\":10083:10107   */\n      tag_79\n      jump\t// in\n    tag_235:\n        /* \"#utility.yul\":10074:10108   */\n      tag_90\n      jump\t// in\n    tag_234:\n        /* \"#utility.yul\":10056:10109   */\n      tag_79\n      jump\t// in\n    tag_233:\n        /* \"#utility.yul\":10043:10109   */\n      swap1\n      pop\n        /* \"#utility.yul\":9973:10115   */\n      swap2\n      swap1\n      pop\n      jump\t// out\n        /* \"#utility.yul\":10121:10196   */\n    tag_105:\n        /* \"#utility.yul\":10164:10167   */\n      0x00\n        /* \"#utility.yul\":10185:10190   */\n      dup2\n        /* \"#utility.yul\":10178:10190   */\n      swap1\n      pop\n        /* \"#utility.yul\":10121:10196   */\n      swap2\n      swap1\n      pop\n      jump\t// out\n        /* \"#utility.yul\":10202:10471   */\n    tag_106:\n        /* \"#utility.yul\":10312:10351   */\n      tag_238\n        /* \"#utility.yul\":10343:10350   */\n      dup4\n        /* \"#utility.yul\":10312:10351   */\n      tag_104\n      jump\t// in\n    tag_238:\n        /* \"#utility.yul\":10373:10464   */\n      tag_239\n        /* \"#utility.yul\":10422:10463   */\n      tag_240\n        /* \"#utility.yul\":10446:10462   */\n      dup3\n        /* \"#utility.yul\":10422:10463   */\n      tag_105\n      jump\t// in\n    tag_240:\n        /* \"#utility.yul\":10414:10420   */\n      dup5\n        /* \"#utility.yul\":10407:10411   */\n      dup5\n        /* \"#utility.yul\":10401:10412   */\n      sload\n        /* \"#utility.yul\":10373:10464   */\n      tag_103\n      jump\t// in\n    tag_239:\n        /* \"#utility.yul\":10367:10371   */\n      dup3\n        /* \"#utility.yul\":10360:10465   */\n      sstore\n        /* \"#utility.yul\":10278:10471   */\n      pop\n        /* \"#utility.yul\":10202:10471   */\n      pop\n      pop\n      pop\n      jump\t// out\n        /* \"#utility.yul\":10477:10550   */\n    tag_107:\n        /* \"#utility.yul\":10522:10525   */\n      0x00\n        /* \"#utility.yul\":10477:10550   */\n      swap1\n      jump\t// out\n        /* \"#utility.yul\":10556:10745   */\n    tag_108:\n        /* \"#utility.yul\":10633:10665   */\n      tag_243\n      tag_107\n      jump\t// in\n    tag_243:\n        /* \"#utility.yul\":10674:10739   */\n      tag_244\n        /* \"#utility.yul\":10732:10738   */\n      dup2\n        /* \"#utility.yul\":10724:10730   */\n      dup5\n        /* \"#utility.yul\":10718:10722   */\n      dup5\n        /* \"#utility.yul\":10674:10739   */\n      tag_106\n      jump\t// in\n    tag_244:\n        /* \"#utility.yul\":10609:10745   */\n      pop\n        /* \"#utility.yul\":10556:10745   */\n      pop\n      pop\n      jump\t// out\n        /* \"#utility.yul\":10751:10937   */\n    tag_109:\n        /* \"#utility.yul\":10811:10931   */\n    tag_246:\n        /* \"#utility.yul\":10828:10831   */\n      dup2\n        /* \"#utility.yul\":10821:10826   */\n      dup2\n        /* \"#utility.yul\":10818:10832   */\n      lt\n        /* \"#utility.yul\":10811:10931   */\n      iszero\n      tag_248\n      jumpi\n        /* \"#utility.yul\":10882:10921   */\n      tag_249\n        /* \"#utility.yul\":10919:10920   */\n      0x00\n        /* \"#utility.yul\":10912:10917   */\n      dup3\n        /* \"#utility.yul\":10882:10921   */\n      tag_108\n      jump\t// in\n    tag_249:\n        /* \"#utility.yul\":10855:10856   */\n      0x01\n        /* \"#utility.yul\":10848:10853   */\n      dup2\n        /* \"#utility.yul\":10844:10857   */\n      add\n        /* \"#utility.yul\":10835:10857   */\n      swap1\n      pop\n        /* \"#utility.yul\":10811:10931   */\n      jump(tag_246)\n    tag_248:\n        /* \"#utility.yul\":10751:10937   */\n      pop\n      pop\n      jump\t// out\n        /* \"#utility.yul\":10943:11486   */\n    tag_110:\n        /* \"#utility.yul\":11044:11046   */\n      0x1f\n        /* \"#utility.yul\":11039:11042   */\n      dup3\n        /* \"#utility.yul\":11036:11047   */\n      gt\n        /* \"#utility.yul\":11033:11479   */\n      iszero\n      tag_251\n      jumpi\n        /* \"#utility.yul\":11078:11116   */\n      tag_252\n        /* \"#utility.yul\":11110:11115   */\n      dup2\n        /* \"#utility.yul\":11078:11116   */\n      tag_100\n      jump\t// in\n    tag_252:\n        /* \"#utility.yul\":11162:11191   */\n      tag_253\n        /* \"#utility.yul\":11180:11190   */\n      dup5\n        /* \"#utility.yul\":11162:11191   */\n      tag_101\n      jump\t// in\n    tag_253:\n        /* \"#utility.yul\":11152:11160   */\n      dup2\n        /* \"#utility.yul\":11148:11192   */\n      add\n        /* \"#utility.yul\":11345:11347   */\n      0x20\n        /* \"#utility.yul\":11333:11343   */\n      dup6\n        /* \"#utility.yul\":11330:11348   */\n      lt\n        /* \"#utility.yul\":11327:11376   */\n      iszero\n      tag_254\n      jumpi\n        /* \"#utility.yul\":11366:11374   */\n      dup2\n        /* \"#utility.yul\":11351:11374   */\n      swap1\n      pop\n        /* \"#utility.yul\":11327:11376   */\n    tag_254:\n        /* \"#utility.yul\":11389:11469   */\n      tag_255\n        /* \"#utility.yul\":11445:11467   */\n      tag_256\n        /* \"#utility.yul\":11463:11466   */\n      dup6\n        /* \"#utility.yul\":11445:11467   */\n      tag_101\n      jump\t// in\n    tag_256:\n        /* \"#utility.yul\":11435:11443   */\n      dup4\n        /* \"#utility.yul\":11431:11468   */\n      add\n        /* \"#utility.yul\":11418:11429   */\n      dup3\n        /* \"#utility.yul\":11389:11469   */\n      tag_109\n      jump\t// in\n    tag_255:\n        /* \"#utility.yul\":11048:11479   */\n      pop\n      pop\n        /* \"#utility.yul\":11033:11479   */\n    tag_251:\n        /* \"#utility.yul\":10943:11486   */\n      pop\n      pop\n      pop\n      jump\t// out\n        /* \"#utility.yul\":11492:11609   */\n    tag_111:\n        /* \"#utility.yul\":11546:11554   */\n      0x00\n        /* \"#utility.yul\":11596:11601   */\n      dup3\n        /* \"#utility.yul\":11590:11594   */\n      dup3\n        /* \"#utility.yul\":11586:11602   */\n      shr\n        /* \"#utility.yul\":11565:11602   */\n      swap1\n      pop\n        /* \"#utility.yul\":11492:11609   */\n      swap3\n      swap2\n      pop\n      pop\n      jump\t// out\n        /* \"#utility.yul\":11615:11784   */\n    tag_112:\n        /* \"#utility.yul\":11659:11665   */\n      0x00\n        /* \"#utility.yul\":11692:11743   */\n      tag_259\n        /* \"#utility.yul\":11740:11741   */\n      0x00\n        /* \"#utility.yul\":11736:11742   */\n      not\n        /* \"#utility.yul\":11728:11733   */\n      dup5\n        /* \"#utility.yul\":11725:11726   */\n      0x08\n        /* \"#utility.yul\":11721:11734   */\n      mul\n        /* \"#utility.yul\":11692:11743   */\n      tag_111\n      jump\t// in\n    tag_259:\n        /* \"#utility.yul\":11688:11744   */\n      not\n        /* \"#utility.yul\":11773:11777   */\n      dup1\n        /* \"#utility.yul\":11767:11771   */\n      dup4\n        /* \"#utility.yul\":11763:11778   */\n      and\n        /* \"#utility.yul\":11753:11778   */\n      swap2\n      pop\n        /* \"#utility.yul\":11666:11784   */\n      pop\n        /* \"#utility.yul\":11615:11784   */\n      swap3\n      swap2\n      pop\n      pop\n      jump\t// out\n        /* \"#utility.yul\":11789:12084   */\n    tag_113:\n        /* \"#utility.yul\":11865:11869   */\n      0x00\n        /* \"#utility.yul\":12011:12040   */\n      tag_261\n        /* \"#utility.yul\":12036:12039   */\n      dup4\n        /* \"#utility.yul\":12030:12034   */\n      dup4\n        /* \"#utility.yul\":12011:12040   */\n      tag_112\n      jump\t// in\n    tag_261:\n        /* \"#utility.yul\":12003:12040   */\n      swap2\n      pop\n        /* \"#utility.yul\":12073:12076   */\n      dup3\n        /* \"#utility.yul\":12070:12071   */\n      0x02\n        /* \"#utility.yul\":12066:12077   */\n      mul\n        /* \"#utility.yul\":12060:12064   */\n      dup3\n        /* \"#utility.yul\":12057:12078   */\n      or\n        /* \"#utility.yul\":12049:12078   */\n      swap1\n      pop\n        /* \"#utility.yul\":11789:12084   */\n      swap3\n      swap2\n      pop\n      pop\n      jump\t// out\n        /* \"#utility.yul\":12089:13484   */\n    tag_39:\n        /* \"#utility.yul\":12206:12243   */\n      tag_263\n        /* \"#utility.yul\":12239:12242   */\n      dup3\n        /* \"#utility.yul\":12206:12243   */\n      tag_95\n      jump\t// in\n    tag_263:\n        /* \"#utility.yul\":12308:12326   */\n      0xffffffffffffffff\n        /* \"#utility.yul\":12300:12306   */\n      dup2\n        /* \"#utility.yul\":12297:12327   */\n      gt\n        /* \"#utility.yul\":12294:12350   */\n      iszero\n      tag_264\n      jumpi\n        /* \"#utility.yul\":12330:12348   */\n      tag_265\n      tag_72\n      jump\t// in\n    tag_265:\n        /* \"#utility.yul\":12294:12350   */\n    tag_264:\n        /* \"#utility.yul\":12374:12412   */\n      tag_266\n        /* \"#utility.yul\":12406:12410   */\n      dup3\n        /* \"#utility.yul\":12400:12411   */\n      sload\n        /* \"#utility.yul\":12374:12412   */\n      tag_53\n      jump\t// in\n    tag_266:\n        /* \"#utility.yul\":12459:12526   */\n      tag_267\n        /* \"#utility.yul\":12519:12525   */\n      dup3\n        /* \"#utility.yul\":12511:12517   */\n      dup3\n        /* \"#utility.yul\":12505:12509   */\n      dup6\n        /* \"#utility.yul\":12459:12526   */\n      tag_110\n      jump\t// in\n    tag_267:\n        /* \"#utility.yul\":12553:12554   */\n      0x00\n        /* \"#utility.yul\":12577:12581   */\n      0x20\n        /* \"#utility.yul\":12564:12581   */\n      swap1\n      pop\n        /* \"#utility.yul\":12609:12611   */\n      0x1f\n        /* \"#utility.yul\":12601:12607   */\n      dup4\n        /* \"#utility.yul\":12598:12612   */\n      gt\n        /* \"#utility.yul\":12626:12627   */\n      0x01\n        /* \"#utility.yul\":12621:13239   */\n      dup2\n      eq\n      tag_269\n      jumpi\n        /* \"#utility.yul\":13283:13284   */\n      0x00\n        /* \"#utility.yul\":13300:13306   */\n      dup5\n        /* \"#utility.yul\":13297:13374   */\n      iszero\n      tag_270\n      jumpi\n        /* \"#utility.yul\":13349:13358   */\n      dup3\n        /* \"#utility.yul\":13344:13347   */\n      dup8\n        /* \"#utility.yul\":13340:13359   */\n      add\n        /* \"#utility.yul\":13334:13360   */\n      mload\n        /* \"#utility.yul\":13325:13360   */\n      swap1\n      pop\n        /* \"#utility.yul\":13297:13374   */\n    tag_270:\n        /* \"#utility.yul\":13400:13467   */\n      tag_271\n        /* \"#utility.yul\":13460:13466   */\n      dup6\n        /* \"#utility.yul\":13453:13458   */\n      dup3\n        /* \"#utility.yul\":13400:13467   */\n      tag_113\n      jump\t// in\n    tag_271:\n        /* \"#utility.yul\":13394:13398   */\n      dup7\n        /* \"#utility.yul\":13387:13468   */\n      sstore\n        /* \"#utility.yul\":13256:13478   */\n      pop\n        /* \"#utility.yul\":12591:13478   */\n      jump(tag_268)\n        /* \"#utility.yul\":12621:13239   */\n    tag_269:\n        /* \"#utility.yul\":12673:12677   */\n      0x1f\n        /* \"#utility.yul\":12669:12678   */\n      not\n        /* \"#utility.yul\":12661:12667   */\n      dup5\n        /* \"#utility.yul\":12657:12679   */\n      and\n        /* \"#utility.yul\":12707:12744   */\n      tag_272\n        /* \"#utility.yul\":12739:12743   */\n      dup7\n        /* \"#utility.yul\":12707:12744   */\n      tag_100\n      jump\t// in\n    tag_272:\n        /* \"#utility.yul\":12766:12767   */\n      0x00\n        /* \"#utility.yul\":12780:12988   */\n    tag_273:\n        /* \"#utility.yul\":12794:12801   */\n      dup3\n        /* \"#utility.yul\":12791:12792   */\n      dup2\n        /* \"#utility.yul\":12788:12802   */\n      lt\n        /* \"#utility.yul\":12780:12988   */\n      iszero\n      tag_275\n      jumpi\n        /* \"#utility.yul\":12873:12882   */\n      dup5\n        /* \"#utility.yul\":12868:12871   */\n      dup10\n        /* \"#utility.yul\":12864:12883   */\n      add\n        /* \"#utility.yul\":12858:12884   */\n      mload\n        /* \"#utility.yul\":12850:12856   */\n      dup3\n        /* \"#utility.yul\":12843:12885   */\n      sstore\n        /* \"#utility.yul\":12924:12925   */\n      0x01\n        /* \"#utility.yul\":12916:12922   */\n      dup3\n        /* \"#utility.yul\":12912:12926   */\n      add\n        /* \"#utility.yul\":12902:12926   */\n      swap2\n      pop\n        /* \"#utility.yul\":12971:12973   */\n      0x20\n        /* \"#utility.yul\":12960:12969   */\n      dup6\n        /* \"#utility.yul\":12956:12974   */\n      add\n        /* \"#utility.yul\":12943:12974   */\n      swap5\n      pop\n        /* \"#utility.yul\":12817:12821   */\n      0x20\n        /* \"#utility.yul\":12814:12815   */\n      dup2\n        /* \"#utility.yul\":12810:12822   */\n      add\n        /* \"#utility.yul\":12805:12822   */\n      swap1\n      pop\n        /* \"#utility.yul\":12780:12988   */\n      jump(tag_273)\n    tag_275:\n        /* \"#utility.yul\":13016:13022   */\n      dup7\n        /* \"#utility.yul\":13007:13014   */\n      dup4\n        /* \"#utility.yul\":13004:13023   */\n      lt\n        /* \"#utility.yul\":13001:13180   */\n      iszero\n      tag_276\n      jumpi\n        /* \"#utility.yul\":13074:13083   */\n      dup5\n        /* \"#utility.yul\":13069:13072   */\n      dup10\n        /* \"#utility.yul\":13065:13084   */\n      add\n        /* \"#utility.yul\":13059:13085   */\n      mload\n        /* \"#utility.yul\":13117:13165   */\n      tag_277\n        /* \"#utility.yul\":13159:13163   */\n      0x1f\n        /* \"#utility.yul\":13151:13157   */\n      dup10\n        /* \"#utility.yul\":13147:13164   */\n      and\n        /* \"#utility.yul\":13136:13145   */\n      dup3\n        /* \"#utility.yul\":13117:13165   */\n      tag_112\n      jump\t// in\n    tag_277:\n        /* \"#utility.yul\":13109:13115   */\n      dup4\n        /* \"#utility.yul\":13102:13166   */\n      sstore\n        /* \"#utility.yul\":13024:13180   */\n      pop\n        /* \"#utility.yul\":13001:13180   */\n    tag_276:\n        /* \"#utility.yul\":13226:13227   */\n      0x01\n        /* \"#utility.yul\":13222:13223   */\n      0x02\n        /* \"#utility.yul\":13214:13220   */\n      dup9\n        /* \"#utility.yul\":13210:13224   */\n      mul\n        /* \"#utility.yul\":13206:13228   */\n      add\n        /* \"#utility.yul\":13200:13204   */\n      dup9\n        /* \"#utility.yul\":13193:13229   */\n      sstore\n        /* \"#utility.yul\":12628:13239   */\n      pop\n      pop\n      pop\n        /* \"#utility.yul\":12591:13478   */\n    tag_268:\n      pop\n        /* \"#utility.yul\":12181:13484   */\n      pop\n      pop\n      pop\n        /* \"#utility.yul\":12089:13484   */\n      pop\n      pop\n      jump\t// out\n        /* \"#utility.yul\":13490:13822   */\n    tag_47:\n        /* \"#utility.yul\":13611:13615   */\n      0x00\n        /* \"#utility.yul\":13649:13651   */\n      0x40\n        /* \"#utility.yul\":13638:13647   */\n      dup3\n        /* \"#utility.yul\":13634:13652   */\n      add\n        /* \"#utility.yul\":13626:13652   */\n      swap1\n      pop\n        /* \"#utility.yul\":13662:13733   */\n      tag_279\n        /* \"#utility.yul\":13730:13731   */\n      0x00\n        /* \"#utility.yul\":13719:13728   */\n      dup4\n        /* \"#utility.yul\":13715:13732   */\n      add\n        /* \"#utility.yul\":13706:13712   */\n      dup6\n        /* \"#utility.yul\":13662:13733   */\n      tag_83\n      jump\t// in\n    tag_279:\n        /* \"#utility.yul\":13743:13815   */\n      tag_280\n        /* \"#utility.yul\":13811:13813   */\n      0x20\n        /* \"#utility.yul\":13800:13809   */\n      dup4\n        /* \"#utility.yul\":13796:13814   */\n      add\n        /* \"#utility.yul\":13787:13793   */\n      dup5\n        /* \"#utility.yul\":13743:13815   */\n      tag_80\n      jump\t// in\n    tag_280:\n        /* \"#utility.yul\":13490:13822   */\n      swap4\n      swap3\n      pop\n      pop\n      pop\n      jump\t// out\n        /* \"#utility.yul\":13828:13944   */\n    tag_114:\n        /* \"#utility.yul\":13898:13919   */\n      tag_282\n        /* \"#utility.yul\":13913:13918   */\n      dup2\n        /* \"#utility.yul\":13898:13919   */\n      tag_88\n      jump\t// in\n    tag_282:\n        /* \"#utility.yul\":13891:13896   */\n      dup2\n        /* \"#utility.yul\":13888:13920   */\n      eq\n        /* \"#utility.yul\":13878:13938   */\n      tag_283\n      jumpi\n        /* \"#utility.yul\":13934:13935   */\n      0x00\n        /* \"#utility.yul\":13931:13932   */\n      dup1\n        /* \"#utility.yul\":13924:13936   */\n      revert\n        /* \"#utility.yul\":13878:13938   */\n    tag_283:\n        /* \"#utility.yul\":13828:13944   */\n      pop\n      jump\t// out\n        /* \"#utility.yul\":13950:14087   */\n    tag_115:\n        /* \"#utility.yul\":14004:14009   */\n      0x00\n        /* \"#utility.yul\":14035:14041   */\n      dup2\n        /* \"#utility.yul\":14029:14042   */\n      mload\n        /* \"#utility.yul\":14020:14042   */\n      swap1\n      pop\n        /* \"#utility.yul\":14051:14081   */\n      tag_285\n        /* \"#utility.yul\":14075:14080   */\n      dup2\n        /* \"#utility.yul\":14051:14081   */\n      tag_114\n      jump\t// in\n    tag_285:\n        /* \"#utility.yul\":13950:14087   */\n      swap3\n      swap2\n      pop\n      pop\n      jump\t// out\n        /* \"#utility.yul\":14093:14438   */\n    tag_51:\n        /* \"#utility.yul\":14160:14166   */\n      0x00\n        /* \"#utility.yul\":14209:14211   */\n      0x20\n        /* \"#utility.yul\":14197:14206   */\n      dup3\n        /* \"#utility.yul\":14188:14195   */\n      dup5\n        /* \"#utility.yul\":14184:14207   */\n      sub\n        /* \"#utility.yul\":14180:14212   */\n      slt\n        /* \"#utility.yul\":14177:14296   */\n      iszero\n      tag_287\n      jumpi\n        /* \"#utility.yul\":14215:14294   */\n      tag_288\n      tag_67\n      jump\t// in\n    tag_288:\n        /* \"#utility.yul\":14177:14296   */\n    tag_287:\n        /* \"#utility.yul\":14335:14336   */\n      0x00\n        /* \"#utility.yul\":14360:14421   */\n      tag_289\n        /* \"#utility.yul\":14413:14420   */\n      dup5\n        /* \"#utility.yul\":14404:14410   */\n      dup3\n        /* \"#utility.yul\":14393:14402   */\n      dup6\n        /* \"#utility.yul\":14389:14411   */\n      add\n        /* \"#utility.yul\":14360:14421   */\n      tag_115\n      jump\t// in\n    tag_289:\n        /* \"#utility.yul\":14350:14421   */\n      swap2\n      pop\n        /* \"#utility.yul\":14306:14431   */\n      pop\n        /* \"#utility.yul\":14093:14438   */\n      swap3\n      swap2\n      pop\n      pop\n      jump\t// out\n        /* \"#utility.yul\":14444:14624   */\n    tag_116:\n        /* \"#utility.yul\":14492:14569   */\n      0x4e487b7100000000000000000000000000000000000000000000000000000000\n        /* \"#utility.yul\":14489:14490   */\n      0x00\n        /* \"#utility.yul\":14482:14570   */\n      mstore\n        /* \"#utility.yul\":14589:14593   */\n      0x11\n        /* \"#utility.yul\":14586:14587   */\n      0x04\n        /* \"#utility.yul\":14579:14594   */\n      mstore\n        /* \"#utility.yul\":14613:14617   */\n      0x24\n        /* \"#utility.yul\":14610:14611   */\n      0x00\n        /* \"#utility.yul\":14603:14618   */\n      revert\n        /* \"#utility.yul\":14630:14821   */\n    tag_65:\n        /* \"#utility.yul\":14670:14673   */\n      0x00\n        /* \"#utility.yul\":14689:14709   */\n      tag_292\n        /* \"#utility.yul\":14707:14708   */\n      dup3\n        /* \"#utility.yul\":14689:14709   */\n      tag_79\n      jump\t// in\n    tag_292:\n        /* \"#utility.yul\":14684:14709   */\n      swap2\n      pop\n        /* \"#utility.yul\":14723:14743   */\n      tag_293\n        /* \"#utility.yul\":14741:14742   */\n      dup4\n        /* \"#utility.yul\":14723:14743   */\n      tag_79\n      jump\t// in\n    tag_293:\n        /* \"#utility.yul\":14718:14743   */\n      swap3\n      pop\n        /* \"#utility.yul\":14766:14767   */\n      dup3\n        /* \"#utility.yul\":14763:14764   */\n      dup3\n        /* \"#utility.yul\":14759:14768   */\n      add\n        /* \"#utility.yul\":14752:14768   */\n      swap1\n      pop\n        /* \"#utility.yul\":14787:14790   */\n      dup1\n        /* \"#utility.yul\":14784:14785   */\n      dup3\n        /* \"#utility.yul\":14781:14791   */\n      gt\n        /* \"#utility.yul\":14778:14814   */\n      iszero\n      tag_294\n      jumpi\n        /* \"#utility.yul\":14794:14812   */\n      tag_295\n      tag_116\n      jump\t// in\n    tag_295:\n        /* \"#utility.yul\":14778:14814   */\n    tag_294:\n        /* \"#utility.yul\":14630:14821   */\n      swap3\n      swap2\n      pop\n      pop\n      jump\t// out\n\n    auxdata: 0xa2646970667358221220f9b1376b3eb9ccc0fe15d0e4be7ae68e0f87a2b0d5fb9678f42684c9aba75f1564736f6c637823302e382e31362d63692e323032322e372e31342b636f6d6d69742e38303030383865330054\n}\n",
				"bytecode": {
					"linkReferences": {},
					"object": "6080604052600060025534801561001557600080fd5b5060405162000e8838038062000e8883398181016040528101906100399190610135565b336000806101000a81548173ffffffffffffffffffffffffffffffffffffffff021916908373ffffffffffffffffffffffffffffffffffffffff16021790555080600160006101000a81548173ffffffffffffffffffffffffffffffffffffffff021916908373ffffffffffffffffffffffffffffffffffffffff16021790555050610162565b600080fd5b600073ffffffffffffffffffffffffffffffffffffffff82169050919050565b60006100f0826100c5565b9050919050565b6000610102826100e5565b9050919050565b610112816100f7565b811461011d57600080fd5b50565b60008151905061012f81610109565b92915050565b60006020828403121561014b5761014a6100c0565b5b600061015984828501610120565b91505092915050565b610d1680620001726000396000f3fe608060405234801561001057600080fd5b50600436106100625760003560e01c806322f5b58d14610067578063267c68e0146100835780634273601c146100a157806363d9b4b1146100bf5780639d76ea58146100ef5780639e7a13ad1461010d575b600080fd5b610081600480360381019061007c91906105bc565b61013f565b005b61008b6101b6565b604051610098919061064d565b60405180910390f35b6100a96101bc565b6040516100b691906106a9565b60405180910390f35b6100d960048036038101906100d4919061071c565b6101e0565b6040516100e69190610777565b60405180910390f35b6100f76102e6565b60405161010491906107f1565b60405180910390f35b6101276004803603810190610122919061080c565b61030c565b604051610136939291906108c1565b60405180910390f35b60405180606001604052806002548152602001838152602001828152506003600060025481526020019081526020016000206000820151816000015560208201518160010190816101909190610b08565b5060408201518160020190816101a69190610b08565b509050506101b2610446565b5050565b60025481565b60008054906101000a900473ffffffffffffffffffffffffffffffffffffffff1681565b60008060009054906101000a900473ffffffffffffffffffffffffffffffffffffffff1673ffffffffffffffffffffffffffffffffffffffff163373ffffffffffffffffffffffffffffffffffffffff161461023b57600080fd5b600160009054906101000a900473ffffffffffffffffffffffffffffffffffffffff1673ffffffffffffffffffffffffffffffffffffffff1663a9059cbb84846040518363ffffffff1660e01b8152600401610298929190610bda565b6020604051808303816000875af11580156102b7573d6000803e3d6000fd5b505050506040513d601f19601f820116820180604052508101906102db9190610c2f565b506001905092915050565b600160009054906101000a900473ffffffffffffffffffffffffffffffffffffffff1681565b600360205280600052604060002060009150905080600001549080600101805461033590610935565b80601f016020809104026020016040519081016040528092919081815260200182805461036190610935565b80156103ae5780601f10610383576101008083540402835291602001916103ae565b820191906000526020600020905b81548152906001019060200180831161039157829003601f168201915b5050505050908060020180546103c390610935565b80601f01602080910402602001604051908101604052809291908181526020018280546103ef90610935565b801561043c5780601f106104115761010080835404028352916020019161043c565b820191906000526020600020905b81548152906001019060200180831161041f57829003601f168201915b5050505050905083565b6001600260008282546104599190610c8b565b92505081905550565b6000604051905090565b600080fd5b600080fd5b600080fd5b600080fd5b6000601f19601f8301169050919050565b7f4e487b7100000000000000000000000000000000000000000000000000000000600052604160045260246000fd5b6104c982610480565b810181811067ffffffffffffffff821117156104e8576104e7610491565b5b80604052505050565b60006104fb610462565b905061050782826104c0565b919050565b600067ffffffffffffffff82111561052757610526610491565b5b61053082610480565b9050602081019050919050565b82818337600083830152505050565b600061055f61055a8461050c565b6104f1565b90508281526020810184848401111561057b5761057a61047b565b5b61058684828561053d565b509392505050565b600082601f8301126105a3576105a2610476565b5b81356105b384826020860161054c565b91505092915050565b600080604083850312156105d3576105d261046c565b5b600083013567ffffffffffffffff8111156105f1576105f0610471565b5b6105fd8582860161058e565b925050602083013567ffffffffffffffff81111561061e5761061d610471565b5b61062a8582860161058e565b9150509250929050565b6000819050919050565b61064781610634565b82525050565b6000602082019050610662600083018461063e565b92915050565b600073ffffffffffffffffffffffffffffffffffffffff82169050919050565b600061069382610668565b9050919050565b6106a381610688565b82525050565b60006020820190506106be600083018461069a565b92915050565b6106cd81610688565b81146106d857600080fd5b50565b6000813590506106ea816106c4565b92915050565b6106f981610634565b811461070457600080fd5b50565b600081359050610716816106f0565b92915050565b600080604083850312156107335761073261046c565b5b6000610741858286016106db565b925050602061075285828601610707565b9150509250929050565b60008115159050919050565b6107718161075c565b82525050565b600060208201905061078c6000830184610768565b92915050565b6000819050919050565b60006107b76107b26107ad84610668565b610792565b610668565b9050919050565b60006107c98261079c565b9050919050565b60006107db826107be565b9050919050565b6107eb816107d0565b82525050565b600060208201905061080660008301846107e2565b92915050565b6000602082840312156108225761082161046c565b5b600061083084828501610707565b91505092915050565b600081519050919050565b600082825260208201905092915050565b60005b83811015610873578082015181840152602081019050610858565b83811115610882576000848401525b50505050565b600061089382610839565b61089d8185610844565b93506108ad818560208601610855565b6108b681610480565b840191505092915050565b60006060820190506108d6600083018661063e565b81810360208301526108e88185610888565b905081810360408301526108fc8184610888565b9050949350505050565b7f4e487b7100000000000000000000000000000000000000000000000000000000600052602260045260246000fd5b6000600282049050600182168061094d57607f821691505b6020821081036109605761095f610906565b5b50919050565b60008190508160005260206000209050919050565b60006020601f8301049050919050565b600082821b905092915050565b6000600883026109c87fffffffffffffffffffffffffffffffffffffffffffffffffffffffffffffffff8261098b565b6109d2868361098b565b95508019841693508086168417925050509392505050565b6000610a05610a006109fb84610634565b610792565b610634565b9050919050565b6000819050919050565b610a1f836109ea565b610a33610a2b82610a0c565b848454610998565b825550505050565b600090565b610a48610a3b565b610a53818484610a16565b505050565b5b81811015610a7757610a6c600082610a40565b600181019050610a59565b5050565b601f821115610abc57610a8d81610966565b610a968461097b565b81016020851015610aa5578190505b610ab9610ab18561097b565b830182610a58565b50505b505050565b600082821c905092915050565b6000610adf60001984600802610ac1565b1980831691505092915050565b6000610af88383610ace565b9150826002028217905092915050565b610b1182610839565b67ffffffffffffffff811115610b2a57610b29610491565b5b610b348254610935565b610b3f828285610a7b565b600060209050601f831160018114610b725760008415610b60578287015190505b610b6a8582610aec565b865550610bd2565b601f198416610b8086610966565b60005b82811015610ba857848901518255600182019150602085019450602081019050610b83565b86831015610bc55784890151610bc1601f891682610ace565b8355505b6001600288020188555050505b505050505050565b6000604082019050610bef600083018561069a565b610bfc602083018461063e565b9392505050565b610c0c8161075c565b8114610c1757600080fd5b50565b600081519050610c2981610c03565b92915050565b600060208284031215610c4557610c4461046c565b5b6000610c5384828501610c1a565b91505092915050565b7f4e487b7100000000000000000000000000000000000000000000000000000000600052601160045260246000fd5b6000610c9682610634565b9150610ca183610634565b9250828201905080821115610cb957610cb8610c5c565b5b9291505056fea2646970667358221220f9b1376b3eb9ccc0fe15d0e4be7ae68e0f87a2b0d5fb9678f42684c9aba75f1564736f6c637823302e382e31362d63692e323032322e372e31342b636f6d6d69742e38303030383865330054",
					"opcodes": "PUSH1 0x80 PUSH1 0x40 MSTORE PUSH1 0x0 PUSH1 0x2 SSTORE CALLVALUE DUP1 ISZERO PUSH2 0x15 JUMPI PUSH1 0x0 DUP1 REVERT JUMPDEST POP PUSH1 0x40 MLOAD PUSH3 0xE88 CODESIZE SUB DUP1 PUSH3 0xE88 DUP4 CODECOPY DUP2 DUP2 ADD PUSH1 0x40 MSTORE DUP2 ADD SWAP1 PUSH2 0x39 SWAP2 SWAP1 PUSH2 0x135 JUMP JUMPDEST CALLER PUSH1 0x0 DUP1 PUSH2 0x100 EXP DUP2 SLOAD DUP2 PUSH20 0xFFFFFFFFFFFFFFFFFFFFFFFFFFFFFFFFFFFFFFFF MUL NOT AND SWAP1 DUP4 PUSH20 0xFFFFFFFFFFFFFFFFFFFFFFFFFFFFFFFFFFFFFFFF AND MUL OR SWAP1 SSTORE POP DUP1 PUSH1 0x1 PUSH1 0x0 PUSH2 0x100 EXP DUP2 SLOAD DUP2 PUSH20 0xFFFFFFFFFFFFFFFFFFFFFFFFFFFFFFFFFFFFFFFF MUL NOT AND SWAP1 DUP4 PUSH20 0xFFFFFFFFFFFFFFFFFFFFFFFFFFFFFFFFFFFFFFFF AND MUL OR SWAP1 SSTORE POP POP PUSH2 0x162 JUMP JUMPDEST PUSH1 0x0 DUP1 REVERT JUMPDEST PUSH1 0x0 PUSH20 0xFFFFFFFFFFFFFFFFFFFFFFFFFFFFFFFFFFFFFFFF DUP3 AND SWAP1 POP SWAP2 SWAP1 POP JUMP JUMPDEST PUSH1 0x0 PUSH2 0xF0 DUP3 PUSH2 0xC5 JUMP JUMPDEST SWAP1 POP SWAP2 SWAP1 POP JUMP JUMPDEST PUSH1 0x0 PUSH2 0x102 DUP3 PUSH2 0xE5 JUMP JUMPDEST SWAP1 POP SWAP2 SWAP1 POP JUMP JUMPDEST PUSH2 0x112 DUP2 PUSH2 0xF7 JUMP JUMPDEST DUP2 EQ PUSH2 0x11D JUMPI PUSH1 0x0 DUP1 REVERT JUMPDEST POP JUMP JUMPDEST PUSH1 0x0 DUP2 MLOAD SWAP1 POP PUSH2 0x12F DUP2 PUSH2 0x109 JUMP JUMPDEST SWAP3 SWAP2 POP POP JUMP JUMPDEST PUSH1 0x0 PUSH1 0x20 DUP3 DUP5 SUB SLT ISZERO PUSH2 0x14B JUMPI PUSH2 0x14A PUSH2 0xC0 JUMP JUMPDEST JUMPDEST PUSH1 0x0 PUSH2 0x159 DUP5 DUP3 DUP6 ADD PUSH2 0x120 JUMP JUMPDEST SWAP2 POP POP SWAP3 SWAP2 POP POP JUMP JUMPDEST PUSH2 0xD16 DUP1 PUSH3 0x172 PUSH1 0x0 CODECOPY PUSH1 0x0 RETURN INVALID PUSH1 0x80 PUSH1 0x40 MSTORE CALLVALUE DUP1 ISZERO PUSH2 0x10 JUMPI PUSH1 0x0 DUP1 REVERT JUMPDEST POP PUSH1 0x4 CALLDATASIZE LT PUSH2 0x62 JUMPI PUSH1 0x0 CALLDATALOAD PUSH1 0xE0 SHR DUP1 PUSH4 0x22F5B58D EQ PUSH2 0x67 JUMPI DUP1 PUSH4 0x267C68E0 EQ PUSH2 0x83 JUMPI DUP1 PUSH4 0x4273601C EQ PUSH2 0xA1 JUMPI DUP1 PUSH4 0x63D9B4B1 EQ PUSH2 0xBF JUMPI DUP1 PUSH4 0x9D76EA58 EQ PUSH2 0xEF JUMPI DUP1 PUSH4 0x9E7A13AD EQ PUSH2 0x10D JUMPI JUMPDEST PUSH1 0x0 DUP1 REVERT JUMPDEST PUSH2 0x81 PUSH1 0x4 DUP1 CALLDATASIZE SUB DUP2 ADD SWAP1 PUSH2 0x7C SWAP2 SWAP1 PUSH2 0x5BC JUMP JUMPDEST PUSH2 0x13F JUMP JUMPDEST STOP JUMPDEST PUSH2 0x8B PUSH2 0x1B6 JUMP JUMPDEST PUSH1 0x40 MLOAD PUSH2 0x98 SWAP2 SWAP1 PUSH2 0x64D JUMP JUMPDEST PUSH1 0x40 MLOAD DUP1 SWAP2 SUB SWAP1 RETURN JUMPDEST PUSH2 0xA9 PUSH2 0x1BC JUMP JUMPDEST PUSH1 0x40 MLOAD PUSH2 0xB6 SWAP2 SWAP1 PUSH2 0x6A9 JUMP JUMPDEST PUSH1 0x40 MLOAD DUP1 SWAP2 SUB SWAP1 RETURN JUMPDEST PUSH2 0xD9 PUSH1 0x4 DUP1 CALLDATASIZE SUB DUP2 ADD SWAP1 PUSH2 0xD4 SWAP2 SWAP1 PUSH2 0x71C JUMP JUMPDEST PUSH2 0x1E0 JUMP JUMPDEST PUSH1 0x40 MLOAD PUSH2 0xE6 SWAP2 SWAP1 PUSH2 0x777 JUMP JUMPDEST PUSH1 0x40 MLOAD DUP1 SWAP2 SUB SWAP1 RETURN JUMPDEST PUSH2 0xF7 PUSH2 0x2E6 JUMP JUMPDEST PUSH1 0x40 MLOAD PUSH2 0x104 SWAP2 SWAP1 PUSH2 0x7F1 JUMP JUMPDEST PUSH1 0x40 MLOAD DUP1 SWAP2 SUB SWAP1 RETURN JUMPDEST PUSH2 0x127 PUSH1 0x4 DUP1 CALLDATASIZE SUB DUP2 ADD SWAP1 PUSH2 0x122 SWAP2 SWAP1 PUSH2 0x80C JUMP JUMPDEST PUSH2 0x30C JUMP JUMPDEST PUSH1 0x40 MLOAD PUSH2 0x136 SWAP4 SWAP3 SWAP2 SWAP1 PUSH2 0x8C1 JUMP JUMPDEST PUSH1 0x40 MLOAD DUP1 SWAP2 SUB SWAP1 RETURN JUMPDEST PUSH1 0x40 MLOAD DUP1 PUSH1 0x60 ADD PUSH1 0x40 MSTORE DUP1 PUSH1 0x2 SLOAD DUP2 MSTORE PUSH1 0x20 ADD DUP4 DUP2 MSTORE PUSH1 0x20 ADD DUP3 DUP2 MSTORE POP PUSH1 0x3 PUSH1 0x0 PUSH1 0x2 SLOAD DUP2 MSTORE PUSH1 0x20 ADD SWAP1 DUP2 MSTORE PUSH1 0x20 ADD PUSH1 0x0 KECCAK256 PUSH1 0x0 DUP3 ADD MLOAD DUP2 PUSH1 0x0 ADD SSTORE PUSH1 0x20 DUP3 ADD MLOAD DUP2 PUSH1 0x1 ADD SWAP1 DUP2 PUSH2 0x190 SWAP2 SWAP1 PUSH2 0xB08 JUMP JUMPDEST POP PUSH1 0x40 DUP3 ADD MLOAD DUP2 PUSH1 0x2 ADD SWAP1 DUP2 PUSH2 0x1A6 SWAP2 SWAP1 PUSH2 0xB08 JUMP JUMPDEST POP SWAP1 POP POP PUSH2 0x1B2 PUSH2 0x446 JUMP JUMPDEST POP POP JUMP JUMPDEST PUSH1 0x2 SLOAD DUP2 JUMP JUMPDEST PUSH1 0x0 DUP1 SLOAD SWAP1 PUSH2 0x100 EXP SWAP1 DIV PUSH20 0xFFFFFFFFFFFFFFFFFFFFFFFFFFFFFFFFFFFFFFFF AND DUP2 JUMP JUMPDEST PUSH1 0x0 DUP1 PUSH1 0x0 SWAP1 SLOAD SWAP1 PUSH2 0x100 EXP SWAP1 DIV PUSH20 0xFFFFFFFFFFFFFFFFFFFFFFFFFFFFFFFFFFFFFFFF AND PUSH20 0xFFFFFFFFFFFFFFFFFFFFFFFFFFFFFFFFFFFFFFFF AND CALLER PUSH20 0xFFFFFFFFFFFFFFFFFFFFFFFFFFFFFFFFFFFFFFFF AND EQ PUSH2 0x23B JUMPI PUSH1 0x0 DUP1 REVERT JUMPDEST PUSH1 0x1 PUSH1 0x0 SWAP1 SLOAD SWAP1 PUSH2 0x100 EXP SWAP1 DIV PUSH20 0xFFFFFFFFFFFFFFFFFFFFFFFFFFFFFFFFFFFFFFFF AND PUSH20 0xFFFFFFFFFFFFFFFFFFFFFFFFFFFFFFFFFFFFFFFF AND PUSH4 0xA9059CBB DUP5 DUP5 PUSH1 0x40 MLOAD DUP4 PUSH4 0xFFFFFFFF AND PUSH1 0xE0 SHL DUP2 MSTORE PUSH1 0x4 ADD PUSH2 0x298 SWAP3 SWAP2 SWAP1 PUSH2 0xBDA JUMP JUMPDEST PUSH1 0x20 PUSH1 0x40 MLOAD DUP1 DUP4 SUB DUP2 PUSH1 0x0 DUP8 GAS CALL ISZERO DUP1 ISZERO PUSH2 0x2B7 JUMPI RETURNDATASIZE PUSH1 0x0 DUP1 RETURNDATACOPY RETURNDATASIZE PUSH1 0x0 REVERT JUMPDEST POP POP POP POP PUSH1 0x40 MLOAD RETURNDATASIZE PUSH1 0x1F NOT PUSH1 0x1F DUP3 ADD AND DUP3 ADD DUP1 PUSH1 0x40 MSTORE POP DUP2 ADD SWAP1 PUSH2 0x2DB SWAP2 SWAP1 PUSH2 0xC2F JUMP JUMPDEST POP PUSH1 0x1 SWAP1 POP SWAP3 SWAP2 POP POP JUMP JUMPDEST PUSH1 0x1 PUSH1 0x0 SWAP1 SLOAD SWAP1 PUSH2 0x100 EXP SWAP1 DIV PUSH20 0xFFFFFFFFFFFFFFFFFFFFFFFFFFFFFFFFFFFFFFFF AND DUP2 JUMP JUMPDEST PUSH1 0x3 PUSH1 0x20 MSTORE DUP1 PUSH1 0x0 MSTORE PUSH1 0x40 PUSH1 0x0 KECCAK256 PUSH1 0x0 SWAP2 POP SWAP1 POP DUP1 PUSH1 0x0 ADD SLOAD SWAP1 DUP1 PUSH1 0x1 ADD DUP1 SLOAD PUSH2 0x335 SWAP1 PUSH2 0x935 JUMP JUMPDEST DUP1 PUSH1 0x1F ADD PUSH1 0x20 DUP1 SWAP2 DIV MUL PUSH1 0x20 ADD PUSH1 0x40 MLOAD SWAP1 DUP2 ADD PUSH1 0x40 MSTORE DUP1 SWAP3 SWAP2 SWAP1 DUP2 DUP2 MSTORE PUSH1 0x20 ADD DUP3 DUP1 SLOAD PUSH2 0x361 SWAP1 PUSH2 0x935 JUMP JUMPDEST DUP1 ISZERO PUSH2 0x3AE JUMPI DUP1 PUSH1 0x1F LT PUSH2 0x383 JUMPI PUSH2 0x100 DUP1 DUP4 SLOAD DIV MUL DUP4 MSTORE SWAP2 PUSH1 0x20 ADD SWAP2 PUSH2 0x3AE JUMP JUMPDEST DUP3 ADD SWAP2 SWAP1 PUSH1 0x0 MSTORE PUSH1 0x20 PUSH1 0x0 KECCAK256 SWAP1 JUMPDEST DUP2 SLOAD DUP2 MSTORE SWAP1 PUSH1 0x1 ADD SWAP1 PUSH1 0x20 ADD DUP1 DUP4 GT PUSH2 0x391 JUMPI DUP3 SWAP1 SUB PUSH1 0x1F AND DUP3 ADD SWAP2 JUMPDEST POP POP POP POP POP SWAP1 DUP1 PUSH1 0x2 ADD DUP1 SLOAD PUSH2 0x3C3 SWAP1 PUSH2 0x935 JUMP JUMPDEST DUP1 PUSH1 0x1F ADD PUSH1 0x20 DUP1 SWAP2 DIV MUL PUSH1 0x20 ADD PUSH1 0x40 MLOAD SWAP1 DUP2 ADD PUSH1 0x40 MSTORE DUP1 SWAP3 SWAP2 SWAP1 DUP2 DUP2 MSTORE PUSH1 0x20 ADD DUP3 DUP1 SLOAD PUSH2 0x3EF SWAP1 PUSH2 0x935 JUMP JUMPDEST DUP1 ISZERO PUSH2 0x43C JUMPI DUP1 PUSH1 0x1F LT PUSH2 0x411 JUMPI PUSH2 0x100 DUP1 DUP4 SLOAD DIV MUL DUP4 MSTORE SWAP2 PUSH1 0x20 ADD SWAP2 PUSH2 0x43C JUMP JUMPDEST DUP3 ADD SWAP2 SWAP1 PUSH1 0x0 MSTORE PUSH1 0x20 PUSH1 0x0 KECCAK256 SWAP1 JUMPDEST DUP2 SLOAD DUP2 MSTORE SWAP1 PUSH1 0x1 ADD SWAP1 PUSH1 0x20 ADD DUP1 DUP4 GT PUSH2 0x41F JUMPI DUP3 SWAP1 SUB PUSH1 0x1F AND DUP3 ADD SWAP2 JUMPDEST POP POP POP POP POP SWAP1 POP DUP4 JUMP JUMPDEST PUSH1 0x1 PUSH1 0x2 PUSH1 0x0 DUP3 DUP3 SLOAD PUSH2 0x459 SWAP2 SWAP1 PUSH2 0xC8B JUMP JUMPDEST SWAP3 POP POP DUP2 SWAP1 SSTORE POP JUMP JUMPDEST PUSH1 0x0 PUSH1 0x40 MLOAD SWAP1 POP SWAP1 JUMP JUMPDEST PUSH1 0x0 DUP1 REVERT JUMPDEST PUSH1 0x0 DUP1 REVERT JUMPDEST PUSH1 0x0 DUP1 REVERT JUMPDEST PUSH1 0x0 DUP1 REVERT JUMPDEST PUSH1 0x0 PUSH1 0x1F NOT PUSH1 0x1F DUP4 ADD AND SWAP1 POP SWAP2 SWAP1 POP JUMP JUMPDEST PUSH32 0x4E487B7100000000000000000000000000000000000000000000000000000000 PUSH1 0x0 MSTORE PUSH1 0x41 PUSH1 0x4 MSTORE PUSH1 0x24 PUSH1 0x0 REVERT JUMPDEST PUSH2 0x4C9 DUP3 PUSH2 0x480 JUMP JUMPDEST DUP2 ADD DUP2 DUP2 LT PUSH8 0xFFFFFFFFFFFFFFFF DUP3 GT OR ISZERO PUSH2 0x4E8 JUMPI PUSH2 0x4E7 PUSH2 0x491 JUMP JUMPDEST JUMPDEST DUP1 PUSH1 0x40 MSTORE POP POP POP JUMP JUMPDEST PUSH1 0x0 PUSH2 0x4FB PUSH2 0x462 JUMP JUMPDEST SWAP1 POP PUSH2 0x507 DUP3 DUP3 PUSH2 0x4C0 JUMP JUMPDEST SWAP2 SWAP1 POP JUMP JUMPDEST PUSH1 0x0 PUSH8 0xFFFFFFFFFFFFFFFF DUP3 GT ISZERO PUSH2 0x527 JUMPI PUSH2 0x526 PUSH2 0x491 JUMP JUMPDEST JUMPDEST PUSH2 0x530 DUP3 PUSH2 0x480 JUMP JUMPDEST SWAP1 POP PUSH1 0x20 DUP2 ADD SWAP1 POP SWAP2 SWAP1 POP JUMP JUMPDEST DUP3 DUP2 DUP4 CALLDATACOPY PUSH1 0x0 DUP4 DUP4 ADD MSTORE POP POP POP JUMP JUMPDEST PUSH1 0x0 PUSH2 0x55F PUSH2 0x55A DUP5 PUSH2 0x50C JUMP JUMPDEST PUSH2 0x4F1 JUMP JUMPDEST SWAP1 POP DUP3 DUP2 MSTORE PUSH1 0x20 DUP2 ADD DUP5 DUP5 DUP5 ADD GT ISZERO PUSH2 0x57B JUMPI PUSH2 0x57A PUSH2 0x47B JUMP JUMPDEST JUMPDEST PUSH2 0x586 DUP5 DUP3 DUP6 PUSH2 0x53D JUMP JUMPDEST POP SWAP4 SWAP3 POP POP POP JUMP JUMPDEST PUSH1 0x0 DUP3 PUSH1 0x1F DUP4 ADD SLT PUSH2 0x5A3 JUMPI PUSH2 0x5A2 PUSH2 0x476 JUMP JUMPDEST JUMPDEST DUP2 CALLDATALOAD PUSH2 0x5B3 DUP5 DUP3 PUSH1 0x20 DUP7 ADD PUSH2 0x54C JUMP JUMPDEST SWAP2 POP POP SWAP3 SWAP2 POP POP JUMP JUMPDEST PUSH1 0x0 DUP1 PUSH1 0x40 DUP4 DUP6 SUB SLT ISZERO PUSH2 0x5D3 JUMPI PUSH2 0x5D2 PUSH2 0x46C JUMP JUMPDEST JUMPDEST PUSH1 0x0 DUP4 ADD CALLDATALOAD PUSH8 0xFFFFFFFFFFFFFFFF DUP2 GT ISZERO PUSH2 0x5F1 JUMPI PUSH2 0x5F0 PUSH2 0x471 JUMP JUMPDEST JUMPDEST PUSH2 0x5FD DUP6 DUP3 DUP7 ADD PUSH2 0x58E JUMP JUMPDEST SWAP3 POP POP PUSH1 0x20 DUP4 ADD CALLDATALOAD PUSH8 0xFFFFFFFFFFFFFFFF DUP2 GT ISZERO PUSH2 0x61E JUMPI PUSH2 0x61D PUSH2 0x471 JUMP JUMPDEST JUMPDEST PUSH2 0x62A DUP6 DUP3 DUP7 ADD PUSH2 0x58E JUMP JUMPDEST SWAP2 POP POP SWAP3 POP SWAP3 SWAP1 POP JUMP JUMPDEST PUSH1 0x0 DUP2 SWAP1 POP SWAP2 SWAP1 POP JUMP JUMPDEST PUSH2 0x647 DUP2 PUSH2 0x634 JUMP JUMPDEST DUP3 MSTORE POP POP JUMP JUMPDEST PUSH1 0x0 PUSH1 0x20 DUP3 ADD SWAP1 POP PUSH2 0x662 PUSH1 0x0 DUP4 ADD DUP5 PUSH2 0x63E JUMP JUMPDEST SWAP3 SWAP2 POP POP JUMP JUMPDEST PUSH1 0x0 PUSH20 0xFFFFFFFFFFFFFFFFFFFFFFFFFFFFFFFFFFFFFFFF DUP3 AND SWAP1 POP SWAP2 SWAP1 POP JUMP JUMPDEST PUSH1 0x0 PUSH2 0x693 DUP3 PUSH2 0x668 JUMP JUMPDEST SWAP1 POP SWAP2 SWAP1 POP JUMP JUMPDEST PUSH2 0x6A3 DUP2 PUSH2 0x688 JUMP JUMPDEST DUP3 MSTORE POP POP JUMP JUMPDEST PUSH1 0x0 PUSH1 0x20 DUP3 ADD SWAP1 POP PUSH2 0x6BE PUSH1 0x0 DUP4 ADD DUP5 PUSH2 0x69A JUMP JUMPDEST SWAP3 SWAP2 POP POP JUMP JUMPDEST PUSH2 0x6CD DUP2 PUSH2 0x688 JUMP JUMPDEST DUP2 EQ PUSH2 0x6D8 JUMPI PUSH1 0x0 DUP1 REVERT JUMPDEST POP JUMP JUMPDEST PUSH1 0x0 DUP2 CALLDATALOAD SWAP1 POP PUSH2 0x6EA DUP2 PUSH2 0x6C4 JUMP JUMPDEST SWAP3 SWAP2 POP POP JUMP JUMPDEST PUSH2 0x6F9 DUP2 PUSH2 0x634 JUMP JUMPDEST DUP2 EQ PUSH2 0x704 JUMPI PUSH1 0x0 DUP1 REVERT JUMPDEST POP JUMP JUMPDEST PUSH1 0x0 DUP2 CALLDATALOAD SWAP1 POP PUSH2 0x716 DUP2 PUSH2 0x6F0 JUMP JUMPDEST SWAP3 SWAP2 POP POP JUMP JUMPDEST PUSH1 0x0 DUP1 PUSH1 0x40 DUP4 DUP6 SUB SLT ISZERO PUSH2 0x733 JUMPI PUSH2 0x732 PUSH2 0x46C JUMP JUMPDEST JUMPDEST PUSH1 0x0 PUSH2 0x741 DUP6 DUP3 DUP7 ADD PUSH2 0x6DB JUMP JUMPDEST SWAP3 POP POP PUSH1 0x20 PUSH2 0x752 DUP6 DUP3 DUP7 ADD PUSH2 0x707 JUMP JUMPDEST SWAP2 POP POP SWAP3 POP SWAP3 SWAP1 POP JUMP JUMPDEST PUSH1 0x0 DUP2 ISZERO ISZERO SWAP1 POP SWAP2 SWAP1 POP JUMP JUMPDEST PUSH2 0x771 DUP2 PUSH2 0x75C JUMP JUMPDEST DUP3 MSTORE POP POP JUMP JUMPDEST PUSH1 0x0 PUSH1 0x20 DUP3 ADD SWAP1 POP PUSH2 0x78C PUSH1 0x0 DUP4 ADD DUP5 PUSH2 0x768 JUMP JUMPDEST SWAP3 SWAP2 POP POP JUMP JUMPDEST PUSH1 0x0 DUP2 SWAP1 POP SWAP2 SWAP1 POP JUMP JUMPDEST PUSH1 0x0 PUSH2 0x7B7 PUSH2 0x7B2 PUSH2 0x7AD DUP5 PUSH2 0x668 JUMP JUMPDEST PUSH2 0x792 JUMP JUMPDEST PUSH2 0x668 JUMP JUMPDEST SWAP1 POP SWAP2 SWAP1 POP JUMP JUMPDEST PUSH1 0x0 PUSH2 0x7C9 DUP3 PUSH2 0x79C JUMP JUMPDEST SWAP1 POP SWAP2 SWAP1 POP JUMP JUMPDEST PUSH1 0x0 PUSH2 0x7DB DUP3 PUSH2 0x7BE JUMP JUMPDEST SWAP1 POP SWAP2 SWAP1 POP JUMP JUMPDEST PUSH2 0x7EB DUP2 PUSH2 0x7D0 JUMP JUMPDEST DUP3 MSTORE POP POP JUMP JUMPDEST PUSH1 0x0 PUSH1 0x20 DUP3 ADD SWAP1 POP PUSH2 0x806 PUSH1 0x0 DUP4 ADD DUP5 PUSH2 0x7E2 JUMP JUMPDEST SWAP3 SWAP2 POP POP JUMP JUMPDEST PUSH1 0x0 PUSH1 0x20 DUP3 DUP5 SUB SLT ISZERO PUSH2 0x822 JUMPI PUSH2 0x821 PUSH2 0x46C JUMP JUMPDEST JUMPDEST PUSH1 0x0 PUSH2 0x830 DUP5 DUP3 DUP6 ADD PUSH2 0x707 JUMP JUMPDEST SWAP2 POP POP SWAP3 SWAP2 POP POP JUMP JUMPDEST PUSH1 0x0 DUP2 MLOAD SWAP1 POP SWAP2 SWAP1 POP JUMP JUMPDEST PUSH1 0x0 DUP3 DUP3 MSTORE PUSH1 0x20 DUP3 ADD SWAP1 POP SWAP3 SWAP2 POP POP JUMP JUMPDEST PUSH1 0x0 JUMPDEST DUP4 DUP2 LT ISZERO PUSH2 0x873 JUMPI DUP1 DUP3 ADD MLOAD DUP2 DUP5 ADD MSTORE PUSH1 0x20 DUP2 ADD SWAP1 POP PUSH2 0x858 JUMP JUMPDEST DUP4 DUP2 GT ISZERO PUSH2 0x882 JUMPI PUSH1 0x0 DUP5 DUP5 ADD MSTORE JUMPDEST POP POP POP POP JUMP JUMPDEST PUSH1 0x0 PUSH2 0x893 DUP3 PUSH2 0x839 JUMP JUMPDEST PUSH2 0x89D DUP2 DUP6 PUSH2 0x844 JUMP JUMPDEST SWAP4 POP PUSH2 0x8AD DUP2 DUP6 PUSH1 0x20 DUP7 ADD PUSH2 0x855 JUMP JUMPDEST PUSH2 0x8B6 DUP2 PUSH2 0x480 JUMP JUMPDEST DUP5 ADD SWAP2 POP POP SWAP3 SWAP2 POP POP JUMP JUMPDEST PUSH1 0x0 PUSH1 0x60 DUP3 ADD SWAP1 POP PUSH2 0x8D6 PUSH1 0x0 DUP4 ADD DUP7 PUSH2 0x63E JUMP JUMPDEST DUP2 DUP2 SUB PUSH1 0x20 DUP4 ADD MSTORE PUSH2 0x8E8 DUP2 DUP6 PUSH2 0x888 JUMP JUMPDEST SWAP1 POP DUP2 DUP2 SUB PUSH1 0x40 DUP4 ADD MSTORE PUSH2 0x8FC DUP2 DUP5 PUSH2 0x888 JUMP JUMPDEST SWAP1 POP SWAP5 SWAP4 POP POP POP POP JUMP JUMPDEST PUSH32 0x4E487B7100000000000000000000000000000000000000000000000000000000 PUSH1 0x0 MSTORE PUSH1 0x22 PUSH1 0x4 MSTORE PUSH1 0x24 PUSH1 0x0 REVERT JUMPDEST PUSH1 0x0 PUSH1 0x2 DUP3 DIV SWAP1 POP PUSH1 0x1 DUP3 AND DUP1 PUSH2 0x94D JUMPI PUSH1 0x7F DUP3 AND SWAP2 POP JUMPDEST PUSH1 0x20 DUP3 LT DUP2 SUB PUSH2 0x960 JUMPI PUSH2 0x95F PUSH2 0x906 JUMP JUMPDEST JUMPDEST POP SWAP2 SWAP1 POP JUMP JUMPDEST PUSH1 0x0 DUP2 SWAP1 POP DUP2 PUSH1 0x0 MSTORE PUSH1 0x20 PUSH1 0x0 KECCAK256 SWAP1 POP SWAP2 SWAP1 POP JUMP JUMPDEST PUSH1 0x0 PUSH1 0x20 PUSH1 0x1F DUP4 ADD DIV SWAP1 POP SWAP2 SWAP1 POP JUMP JUMPDEST PUSH1 0x0 DUP3 DUP3 SHL SWAP1 POP SWAP3 SWAP2 POP POP JUMP JUMPDEST PUSH1 0x0 PUSH1 0x8 DUP4 MUL PUSH2 0x9C8 PUSH32 0xFFFFFFFFFFFFFFFFFFFFFFFFFFFFFFFFFFFFFFFFFFFFFFFFFFFFFFFFFFFFFFFF DUP3 PUSH2 0x98B JUMP JUMPDEST PUSH2 0x9D2 DUP7 DUP4 PUSH2 0x98B JUMP JUMPDEST SWAP6 POP DUP1 NOT DUP5 AND SWAP4 POP DUP1 DUP7 AND DUP5 OR SWAP3 POP POP POP SWAP4 SWAP3 POP POP POP JUMP JUMPDEST PUSH1 0x0 PUSH2 0xA05 PUSH2 0xA00 PUSH2 0x9FB DUP5 PUSH2 0x634 JUMP JUMPDEST PUSH2 0x792 JUMP JUMPDEST PUSH2 0x634 JUMP JUMPDEST SWAP1 POP SWAP2 SWAP1 POP JUMP JUMPDEST PUSH1 0x0 DUP2 SWAP1 POP SWAP2 SWAP1 POP JUMP JUMPDEST PUSH2 0xA1F DUP4 PUSH2 0x9EA JUMP JUMPDEST PUSH2 0xA33 PUSH2 0xA2B DUP3 PUSH2 0xA0C JUMP JUMPDEST DUP5 DUP5 SLOAD PUSH2 0x998 JUMP JUMPDEST DUP3 SSTORE POP POP POP POP JUMP JUMPDEST PUSH1 0x0 SWAP1 JUMP JUMPDEST PUSH2 0xA48 PUSH2 0xA3B JUMP JUMPDEST PUSH2 0xA53 DUP2 DUP5 DUP5 PUSH2 0xA16 JUMP JUMPDEST POP POP POP JUMP JUMPDEST JUMPDEST DUP2 DUP2 LT ISZERO PUSH2 0xA77 JUMPI PUSH2 0xA6C PUSH1 0x0 DUP3 PUSH2 0xA40 JUMP JUMPDEST PUSH1 0x1 DUP2 ADD SWAP1 POP PUSH2 0xA59 JUMP JUMPDEST POP POP JUMP JUMPDEST PUSH1 0x1F DUP3 GT ISZERO PUSH2 0xABC JUMPI PUSH2 0xA8D DUP2 PUSH2 0x966 JUMP JUMPDEST PUSH2 0xA96 DUP5 PUSH2 0x97B JUMP JUMPDEST DUP2 ADD PUSH1 0x20 DUP6 LT ISZERO PUSH2 0xAA5 JUMPI DUP2 SWAP1 POP JUMPDEST PUSH2 0xAB9 PUSH2 0xAB1 DUP6 PUSH2 0x97B JUMP JUMPDEST DUP4 ADD DUP3 PUSH2 0xA58 JUMP JUMPDEST POP POP JUMPDEST POP POP POP JUMP JUMPDEST PUSH1 0x0 DUP3 DUP3 SHR SWAP1 POP SWAP3 SWAP2 POP POP JUMP JUMPDEST PUSH1 0x0 PUSH2 0xADF PUSH1 0x0 NOT DUP5 PUSH1 0x8 MUL PUSH2 0xAC1 JUMP JUMPDEST NOT DUP1 DUP4 AND SWAP2 POP POP SWAP3 SWAP2 POP POP JUMP JUMPDEST PUSH1 0x0 PUSH2 0xAF8 DUP4 DUP4 PUSH2 0xACE JUMP JUMPDEST SWAP2 POP DUP3 PUSH1 0x2 MUL DUP3 OR SWAP1 POP SWAP3 SWAP2 POP POP JUMP JUMPDEST PUSH2 0xB11 DUP3 PUSH2 0x839 JUMP JUMPDEST PUSH8 0xFFFFFFFFFFFFFFFF DUP2 GT ISZERO PUSH2 0xB2A JUMPI PUSH2 0xB29 PUSH2 0x491 JUMP JUMPDEST JUMPDEST PUSH2 0xB34 DUP3 SLOAD PUSH2 0x935 JUMP JUMPDEST PUSH2 0xB3F DUP3 DUP3 DUP6 PUSH2 0xA7B JUMP JUMPDEST PUSH1 0x0 PUSH1 0x20 SWAP1 POP PUSH1 0x1F DUP4 GT PUSH1 0x1 DUP2 EQ PUSH2 0xB72 JUMPI PUSH1 0x0 DUP5 ISZERO PUSH2 0xB60 JUMPI DUP3 DUP8 ADD MLOAD SWAP1 POP JUMPDEST PUSH2 0xB6A DUP6 DUP3 PUSH2 0xAEC JUMP JUMPDEST DUP7 SSTORE POP PUSH2 0xBD2 JUMP JUMPDEST PUSH1 0x1F NOT DUP5 AND PUSH2 0xB80 DUP7 PUSH2 0x966 JUMP JUMPDEST PUSH1 0x0 JUMPDEST DUP3 DUP2 LT ISZERO PUSH2 0xBA8 JUMPI DUP5 DUP10 ADD MLOAD DUP3 SSTORE PUSH1 0x1 DUP3 ADD SWAP2 POP PUSH1 0x20 DUP6 ADD SWAP5 POP PUSH1 0x20 DUP2 ADD SWAP1 POP PUSH2 0xB83 JUMP JUMPDEST DUP7 DUP4 LT ISZERO PUSH2 0xBC5 JUMPI DUP5 DUP10 ADD MLOAD PUSH2 0xBC1 PUSH1 0x1F DUP10 AND DUP3 PUSH2 0xACE JUMP JUMPDEST DUP4 SSTORE POP JUMPDEST PUSH1 0x1 PUSH1 0x2 DUP9 MUL ADD DUP9 SSTORE POP POP POP JUMPDEST POP POP POP POP POP POP JUMP JUMPDEST PUSH1 0x0 PUSH1 0x40 DUP3 ADD SWAP1 POP PUSH2 0xBEF PUSH1 0x0 DUP4 ADD DUP6 PUSH2 0x69A JUMP JUMPDEST PUSH2 0xBFC PUSH1 0x20 DUP4 ADD DUP5 PUSH2 0x63E JUMP JUMPDEST SWAP4 SWAP3 POP POP POP JUMP JUMPDEST PUSH2 0xC0C DUP2 PUSH2 0x75C JUMP JUMPDEST DUP2 EQ PUSH2 0xC17 JUMPI PUSH1 0x0 DUP1 REVERT JUMPDEST POP JUMP JUMPDEST PUSH1 0x0 DUP2 MLOAD SWAP1 POP PUSH2 0xC29 DUP2 PUSH2 0xC03 JUMP JUMPDEST SWAP3 SWAP2 POP POP JUMP JUMPDEST PUSH1 0x0 PUSH1 0x20 DUP3 DUP5 SUB SLT ISZERO PUSH2 0xC45 JUMPI PUSH2 0xC44 PUSH2 0x46C JUMP JUMPDEST JUMPDEST PUSH1 0x0 PUSH2 0xC53 DUP5 DUP3 DUP6 ADD PUSH2 0xC1A JUMP JUMPDEST SWAP2 POP POP SWAP3 SWAP2 POP POP JUMP JUMPDEST PUSH32 0x4E487B7100000000000000000000000000000000000000000000000000000000 PUSH1 0x0 MSTORE PUSH1 0x11 PUSH1 0x4 MSTORE PUSH1 0x24 PUSH1 0x0 REVERT JUMPDEST PUSH1 0x0 PUSH2 0xC96 DUP3 PUSH2 0x634 JUMP JUMPDEST SWAP2 POP PUSH2 0xCA1 DUP4 PUSH2 0x634 JUMP JUMPDEST SWAP3 POP DUP3 DUP3 ADD SWAP1 POP DUP1 DUP3 GT ISZERO PUSH2 0xCB9 JUMPI PUSH2 0xCB8 PUSH2 0xC5C JUMP JUMPDEST JUMPDEST SWAP3 SWAP2 POP POP JUMP INVALID LOG2 PUSH5 0x6970667358 0x22 SLT KECCAK256 0xF9 0xB1 CALLDATACOPY PUSH12 0x3EB9CCC0FE15D0E4BE7AE68E 0xF DUP8 LOG2 0xB0 0xD5 0xFB SWAP7 PUSH25 0xF42684C9ABA75F1564736F6C637823302E382E31362D63692E ORIGIN ADDRESS ORIGIN ORIGIN 0x2E CALLDATACOPY 0x2E BALANCE CALLVALUE 0x2B PUSH4 0x6F6D6D69 PUSH21 0x2E3830303038386533005400000000000000000000 "
				},
				"gasEstimates": {
					"creation": {
						"codeDepositCost": "670000",
						"executionCost": "infinite",
						"totalCost": "infinite"
					},
					"external": {
						"addPerson(string,string)": "infinite",
						"factoryOwner()": "2533",
						"people(uint256)": "infinite",
						"peopleCount()": "2429",
						"sendGift(address,uint256)": "infinite",
						"tokenAddress()": "infinite"
					},
					"internal": {
						"incrementCount()": "infinite"
					}
				},
				"methodIdentifiers": {
					"addPerson(string,string)": "22f5b58d",
					"factoryOwner()": "4273601c",
					"people(uint256)": "9e7a13ad",
					"peopleCount()": "267c68e0",
					"sendGift(address,uint256)": "63d9b4b1",
					"tokenAddress()": "9d76ea58"
				}
			},
			"storageLayout": {
				"storage": [
					{
						"astId": 715,
						"contract": "EparsFactory.sol:indexPeopleWithMapping",
						"label": "factoryOwner",
						"offset": 0,
						"slot": "0",
						"type": "t_address"
					},
					{
						"astId": 718,
						"contract": "EparsFactory.sol:indexPeopleWithMapping",
						"label": "tokenAddress",
						"offset": 0,
						"slot": "1",
						"type": "t_contract(IERC20)663"
					},
					{
						"astId": 721,
						"contract": "EparsFactory.sol:indexPeopleWithMapping",
						"label": "peopleCount",
						"offset": 0,
						"slot": "2",
						"type": "t_uint256"
					},
					{
						"astId": 726,
						"contract": "EparsFactory.sol:indexPeopleWithMapping",
						"label": "people",
						"offset": 0,
						"slot": "3",
						"type": "t_mapping(t_uint256,t_struct(Person)749_storage)"
					}
				],
				"types": {
					"t_address": {
						"encoding": "inplace",
						"label": "address",
						"numberOfBytes": "20"
					},
					"t_contract(IERC20)663": {
						"encoding": "inplace",
						"label": "contract IERC20",
						"numberOfBytes": "20"
					},
					"t_mapping(t_uint256,t_struct(Person)749_storage)": {
						"encoding": "mapping",
						"key": "t_uint256",
						"label": "mapping(uint256 => struct indexPeopleWithMapping.Person)",
						"numberOfBytes": "32",
						"value": "t_struct(Person)749_storage"
					},
					"t_string_storage": {
						"encoding": "bytes",
						"label": "string",
						"numberOfBytes": "32"
					},
					"t_struct(Person)749_storage": {
						"encoding": "inplace",
						"label": "struct indexPeopleWithMapping.Person",
						"members": [
							{
								"astId": 744,
								"contract": "EparsFactory.sol:indexPeopleWithMapping",
								"label": "_id",
								"offset": 0,
								"slot": "0",
								"type": "t_uint256"
							},
							{
								"astId": 746,
								"contract": "EparsFactory.sol:indexPeopleWithMapping",
								"label": "_firstName",
								"offset": 0,
								"slot": "1",
								"type": "t_string_storage"
							},
							{
								"astId": 748,
								"contract": "EparsFactory.sol:indexPeopleWithMapping",
								"label": "_lastName",
								"offset": 0,
								"slot": "2",
								"type": "t_string_storage"
							}
						],
						"numberOfBytes": "96"
					},
					"t_uint256": {
						"encoding": "inplace",
						"label": "uint256",
						"numberOfBytes": "32"
					}
				}
			},
			"userdoc": {
				"kind": "user",
				"methods": {},
				"version": 1
			}
		}
	}
}