{
	"EPARS.sol": {
		"EPARS": {
			"abi": [
				{
					"inputs": [],
					"stateMutability": "nonpayable",
					"type": "constructor"
				},
				{
					"anonymous": false,
					"inputs": [
						{
							"indexed": true,
							"internalType": "address",
							"name": "owner",
							"type": "address"
						},
						{
							"indexed": true,
							"internalType": "address",
							"name": "spender",
							"type": "address"
						},
						{
							"indexed": false,
							"internalType": "uint256",
							"name": "value",
							"type": "uint256"
						}
					],
					"name": "Approval",
					"type": "event"
				},
				{
					"anonymous": false,
					"inputs": [
						{
							"indexed": true,
							"internalType": "address",
							"name": "from",
							"type": "address"
						},
						{
							"indexed": true,
							"internalType": "address",
							"name": "to",
							"type": "address"
						},
						{
							"indexed": false,
							"internalType": "uint256",
							"name": "value",
							"type": "uint256"
						}
					],
					"name": "Transfer",
					"type": "event"
				},
				{
					"inputs": [
						{
							"internalType": "address",
							"name": "owner",
							"type": "address"
						},
						{
							"internalType": "address",
							"name": "spender",
							"type": "address"
						}
					],
					"name": "allowance",
					"outputs": [
						{
							"internalType": "uint256",
							"name": "",
							"type": "uint256"
						}
					],
					"stateMutability": "view",
					"type": "function"
				},
				{
					"inputs": [
						{
							"internalType": "address",
							"name": "spender",
							"type": "address"
						},
						{
							"internalType": "uint256",
							"name": "amount",
							"type": "uint256"
						}
					],
					"name": "approve",
					"outputs": [
						{
							"internalType": "bool",
							"name": "",
							"type": "bool"
						}
					],
					"stateMutability": "nonpayable",
					"type": "function"
				},
				{
					"inputs": [
						{
							"internalType": "address",
							"name": "account",
							"type": "address"
						}
					],
					"name": "balanceOf",
					"outputs": [
						{
							"internalType": "uint256",
							"name": "",
							"type": "uint256"
						}
					],
					"stateMutability": "view",
					"type": "function"
				},
				{
					"inputs": [
						{
							"internalType": "uint256",
							"name": "amount",
							"type": "uint256"
						}
					],
					"name": "burn",
					"outputs": [],
					"stateMutability": "nonpayable",
					"type": "function"
				},
				{
					"inputs": [],
					"name": "decimals",
					"outputs": [
						{
							"internalType": "uint8",
							"name": "",
							"type": "uint8"
						}
					],
					"stateMutability": "view",
					"type": "function"
				},
				{
					"inputs": [
						{
							"internalType": "address",
							"name": "spender",
							"type": "address"
						},
						{
							"internalType": "uint256",
							"name": "subtractedValue",
							"type": "uint256"
						}
					],
					"name": "decreaseAllowance",
					"outputs": [
						{
							"internalType": "bool",
							"name": "",
							"type": "bool"
						}
					],
					"stateMutability": "nonpayable",
					"type": "function"
				},
				{
					"inputs": [
						{
							"internalType": "address",
							"name": "spender",
							"type": "address"
						},
						{
							"internalType": "uint256",
							"name": "addedValue",
							"type": "uint256"
						}
					],
					"name": "increaseAllowance",
					"outputs": [
						{
							"internalType": "bool",
							"name": "",
							"type": "bool"
						}
					],
					"stateMutability": "nonpayable",
					"type": "function"
				},
				{
					"inputs": [
						{
							"internalType": "address",
							"name": "to",
							"type": "address"
						},
						{
							"internalType": "uint256",
							"name": "amount",
							"type": "uint256"
						}
					],
					"name": "mint",
					"outputs": [],
					"stateMutability": "nonpayable",
					"type": "function"
				},
				{
					"inputs": [],
					"name": "name",
					"outputs": [
						{
							"internalType": "string",
							"name": "",
							"type": "string"
						}
					],
					"stateMutability": "view",
					"type": "function"
				},
				{
					"inputs": [],
					"name": "owner",
					"outputs": [
						{
							"internalType": "address",
							"name": "",
							"type": "address"
						}
					],
					"stateMutability": "view",
					"type": "function"
				},
				{
					"inputs": [],
					"name": "symbol",
					"outputs": [
						{
							"internalType": "string",
							"name": "",
							"type": "string"
						}
					],
					"stateMutability": "view",
					"type": "function"
				},
				{
					"inputs": [],
					"name": "totalSupply",
					"outputs": [
						{
							"internalType": "uint256",
							"name": "",
							"type": "uint256"
						}
					],
					"stateMutability": "view",
					"type": "function"
				},
				{
					"inputs": [
						{
							"internalType": "address",
							"name": "_to",
							"type": "address"
						},
						{
							"internalType": "uint256",
							"name": "_amount",
							"type": "uint256"
						}
					],
					"name": "transfer",
					"outputs": [
						{
							"internalType": "bool",
							"name": "success",
							"type": "bool"
						}
					],
					"stateMutability": "nonpayable",
					"type": "function"
				},
				{
					"inputs": [
						{
							"internalType": "address",
							"name": "sender",
							"type": "address"
						},
						{
							"internalType": "address",
							"name": "recipient",
							"type": "address"
						},
						{
							"internalType": "uint256",
							"name": "amount",
							"type": "uint256"
						}
					],
					"name": "transferFrom",
					"outputs": [
						{
							"internalType": "bool",
							"name": "",
							"type": "bool"
						}
					],
					"stateMutability": "nonpayable",
					"type": "function"
				}
			],
			"devdoc": {
				"kind": "dev",
				"methods": {
					"allowance(address,address)": {
						"details": "See {IERC20-allowance}."
					},
					"approve(address,uint256)": {
						"details": "See {IERC20-approve}. Requirements: - `spender` cannot be the zero address."
					},
					"balanceOf(address)": {
						"details": "See {IERC20-balanceOf}."
					},
					"decimals()": {
						"details": "Returns the number of decimals used to get its user representation. For example, if `decimals` equals `2`, a balance of `505` tokens should be displayed to a user as `5.05` (`505 / 10 ** 2`). Tokens usually opt for a value of 18, imitating the relationship between Ether and Wei. This is the value {ERC20} uses, unless this function is overridden; NOTE: This information is only used for _display_ purposes: it in no way affects any of the arithmetic of the contract, including {IERC20-balanceOf} and {IERC20-transfer}."
					},
					"decreaseAllowance(address,uint256)": {
						"details": "Atomically decreases the allowance granted to `spender` by the caller. This is an alternative to {approve} that can be used as a mitigation for problems described in {IERC20-approve}. Emits an {Approval} event indicating the updated allowance. Requirements: - `spender` cannot be the zero address. - `spender` must have allowance for the caller of at least `subtractedValue`."
					},
					"increaseAllowance(address,uint256)": {
						"details": "Atomically increases the allowance granted to `spender` by the caller. This is an alternative to {approve} that can be used as a mitigation for problems described in {IERC20-approve}. Emits an {Approval} event indicating the updated allowance. Requirements: - `spender` cannot be the zero address."
					},
					"name()": {
						"details": "Returns the name of the token."
					},
					"symbol()": {
						"details": "Returns the symbol of the token, usually a shorter version of the name."
					},
					"totalSupply()": {
						"details": "See {IERC20-totalSupply}."
					},
					"transferFrom(address,address,uint256)": {
						"details": "See {IERC20-transferFrom}. Emits an {Approval} event indicating the updated allowance. This is not required by the EIP. See the note at the beginning of {ERC20}. Requirements: - `sender` and `recipient` cannot be the zero address. - `sender` must have a balance of at least `amount`. - the caller must have allowance for ``sender``'s tokens of at least `amount`."
					}
				},
				"version": 1
			},
			"evm": {
				"assembly": "    /* \"EPARS.sol\":91:724  contract EPARS is ERC20 {... */\n  mstore(0x40, 0x80)\n    /* \"EPARS.sol\":151:273  constructor() ERC20(\"epars\", \"EPARS\") {... */\n  callvalue\n  dup1\n  iszero\n  tag_1\n  jumpi\n  0x00\n  dup1\n  revert\ntag_1:\n  pop\n    /* \"ERC20.sol\":1995:2111  constructor(string memory name_, string memory symbol_) {... */\n  mload(0x40)\n  dup1\n  0x40\n  add\n  0x40\n  mstore\n  dup1\n  0x05\n  dup2\n  mstore\n  0x20\n  add\n  0x6570617273000000000000000000000000000000000000000000000000000000\n  dup2\n  mstore\n  pop\n  mload(0x40)\n  dup1\n  0x40\n  add\n  0x40\n  mstore\n  dup1\n  0x05\n  dup2\n  mstore\n  0x20\n  add\n  0x4550415253000000000000000000000000000000000000000000000000000000\n  dup2\n  mstore\n  pop\n    /* \"ERC20.sol\":2070:2075  name_ */\n  dup2\n    /* \"ERC20.sol\":2062:2067  _name */\n  0x03\n    /* \"ERC20.sol\":2062:2075  _name = name_ */\n  swap1\n  dup2\n  tag_5\n  swap2\n  swap1\n  tag_6\n  jump\t// in\ntag_5:\n  pop\n    /* \"ERC20.sol\":2096:2103  symbol_ */\n  dup1\n    /* \"ERC20.sol\":2086:2093  _symbol */\n  0x04\n    /* \"ERC20.sol\":2086:2103  _symbol = symbol_ */\n  swap1\n  dup2\n  tag_7\n  swap2\n  swap1\n  tag_6\n  jump\t// in\ntag_7:\n  pop\n    /* \"ERC20.sol\":1995:2111  constructor(string memory name_, string memory symbol_) {... */\n  pop\n  pop\n    /* \"EPARS.sol\":200:236  _mint(msg.sender, 69000000 * 10**18) */\n  tag_9\n    /* \"EPARS.sol\":206:216  msg.sender */\n  caller\n    /* \"EPARS.sol\":218:235  69000000 * 10**18 */\n  0x3913517ebd3c0c65000000\n    /* \"EPARS.sol\":200:205  _mint */\n  shl(0x20, tag_10)\n    /* \"EPARS.sol\":200:236  _mint(msg.sender, 69000000 * 10**18) */\n  0x20\n  shr\n  jump\t// in\ntag_9:\n    /* \"EPARS.sol\":255:265  msg.sender */\n  caller\n    /* \"EPARS.sol\":247:252  owner */\n  0x05\n  0x00\n    /* \"EPARS.sol\":247:265  owner = msg.sender */\n  0x0100\n  exp\n  dup2\n  sload\n  dup2\n  0xffffffffffffffffffffffffffffffffffffffff\n  mul\n  not\n  and\n  swap1\n  dup4\n  0xffffffffffffffffffffffffffffffffffffffff\n  and\n  mul\n  or\n  swap1\n  sstore\n  pop\n    /* \"EPARS.sol\":91:724  contract EPARS is ERC20 {... */\n  jump(tag_11)\n    /* \"ERC20.sol\":8541:8940  function _mint(address account, uint256 amount) internal virtual {... */\ntag_10:\n    /* \"ERC20.sol\":8644:8645  0 */\n  0x00\n    /* \"ERC20.sol\":8625:8646  account != address(0) */\n  0xffffffffffffffffffffffffffffffffffffffff\n  and\n    /* \"ERC20.sol\":8625:8632  account */\n  dup3\n    /* \"ERC20.sol\":8625:8646  account != address(0) */\n  0xffffffffffffffffffffffffffffffffffffffff\n  and\n  sub\n    /* \"ERC20.sol\":8617:8682  require(account != address(0), \"ERC20: mint to the zero address\") */\n  tag_13\n  jumpi\n  mload(0x40)\n  0x08c379a000000000000000000000000000000000000000000000000000000000\n  dup2\n  mstore\n  0x04\n  add\n  tag_14\n  swap1\n  tag_15\n  jump\t// in\ntag_14:\n  mload(0x40)\n  dup1\n  swap2\n  sub\n  swap1\n  revert\ntag_13:\n    /* \"ERC20.sol\":8695:8744  _beforeTokenTransfer(address(0), account, amount) */\n  tag_16\n    /* \"ERC20.sol\":8724:8725  0 */\n  0x00\n    /* \"ERC20.sol\":8728:8735  account */\n  dup4\n    /* \"ERC20.sol\":8737:8743  amount */\n  dup4\n    /* \"ERC20.sol\":8695:8715  _beforeTokenTransfer */\n  shl(0x20, tag_17)\n    /* \"ERC20.sol\":8695:8744  _beforeTokenTransfer(address(0), account, amount) */\n  0x20\n  shr\n  jump\t// in\ntag_16:\n    /* \"ERC20.sol\":8773:8779  amount */\n  dup1\n    /* \"ERC20.sol\":8757:8769  _totalSupply */\n  0x02\n  0x00\n    /* \"ERC20.sol\":8757:8779  _totalSupply += amount */\n  dup3\n  dup3\n  sload\n  tag_18\n  swap2\n  swap1\n  tag_19\n  jump\t// in\ntag_18:\n  swap3\n  pop\n  pop\n  dup2\n  swap1\n  sstore\n  pop\n    /* \"ERC20.sol\":8812:8818  amount */\n  dup1\n    /* \"ERC20.sol\":8790:8799  _balances */\n  0x00\n    /* \"ERC20.sol\":8790:8808  _balances[account] */\n  dup1\n    /* \"ERC20.sol\":8800:8807  account */\n  dup5\n    /* \"ERC20.sol\":8790:8808  _balances[account] */\n  0xffffffffffffffffffffffffffffffffffffffff\n  and\n  0xffffffffffffffffffffffffffffffffffffffff\n  and\n  dup2\n  mstore\n  0x20\n  add\n  swap1\n  dup2\n  mstore\n  0x20\n  add\n  0x00\n  keccak256\n  0x00\n    /* \"ERC20.sol\":8790:8818  _balances[account] += amount */\n  dup3\n  dup3\n  sload\n  tag_20\n  swap2\n  swap1\n  tag_19\n  jump\t// in\ntag_20:\n  swap3\n  pop\n  pop\n  dup2\n  swap1\n  sstore\n  pop\n    /* \"ERC20.sol\":8855:8862  account */\n  dup2\n    /* \"ERC20.sol\":8834:8871  Transfer(address(0), account, amount) */\n  0xffffffffffffffffffffffffffffffffffffffff\n  and\n    /* \"ERC20.sol\":8851:8852  0 */\n  0x00\n    /* \"ERC20.sol\":8834:8871  Transfer(address(0), account, amount) */\n  0xffffffffffffffffffffffffffffffffffffffff\n  and\n  0xddf252ad1be2c89b69c2b068fc378daa952ba7f163c4a11628f55a4df523b3ef\n    /* \"ERC20.sol\":8864:8870  amount */\n  dup4\n    /* \"ERC20.sol\":8834:8871  Transfer(address(0), account, amount) */\n  mload(0x40)\n  tag_21\n  swap2\n  swap1\n  tag_22\n  jump\t// in\ntag_21:\n  mload(0x40)\n  dup1\n  swap2\n  sub\n  swap1\n  log3\n    /* \"ERC20.sol\":8884:8932  _afterTokenTransfer(address(0), account, amount) */\n  tag_23\n    /* \"ERC20.sol\":8912:8913  0 */\n  0x00\n    /* \"ERC20.sol\":8916:8923  account */\n  dup4\n    /* \"ERC20.sol\":8925:8931  amount */\n  dup4\n    /* \"ERC20.sol\":8884:8903  _afterTokenTransfer */\n  shl(0x20, tag_24)\n    /* \"ERC20.sol\":8884:8932  _afterTokenTransfer(address(0), account, amount) */\n  0x20\n  shr\n  jump\t// in\ntag_23:\n    /* \"ERC20.sol\":8541:8940  function _mint(address account, uint256 amount) internal virtual {... */\n  pop\n  pop\n  jump\t// out\n    /* \"ERC20.sol\":11282:11407  function _beforeTokenTransfer(... */\ntag_17:\n  pop\n  pop\n  pop\n  jump\t// out\n    /* \"ERC20.sol\":12011:12135  function _afterTokenTransfer(... */\ntag_24:\n  pop\n  pop\n  pop\n  jump\t// out\n    /* \"#utility.yul\":7:106   */\ntag_27:\n    /* \"#utility.yul\":59:65   */\n  0x00\n    /* \"#utility.yul\":93:98   */\n  dup2\n    /* \"#utility.yul\":87:99   */\n  mload\n    /* \"#utility.yul\":77:99   */\n  swap1\n  pop\n    /* \"#utility.yul\":7:106   */\n  swap2\n  swap1\n  pop\n  jump\t// out\n    /* \"#utility.yul\":112:292   */\ntag_28:\n    /* \"#utility.yul\":160:237   */\n  0x4e487b7100000000000000000000000000000000000000000000000000000000\n    /* \"#utility.yul\":157:158   */\n  0x00\n    /* \"#utility.yul\":150:238   */\n  mstore\n    /* \"#utility.yul\":257:261   */\n  0x41\n    /* \"#utility.yul\":254:255   */\n  0x04\n    /* \"#utility.yul\":247:262   */\n  mstore\n    /* \"#utility.yul\":281:285   */\n  0x24\n    /* \"#utility.yul\":278:279   */\n  0x00\n    /* \"#utility.yul\":271:286   */\n  revert\n    /* \"#utility.yul\":298:478   */\ntag_29:\n    /* \"#utility.yul\":346:423   */\n  0x4e487b7100000000000000000000000000000000000000000000000000000000\n    /* \"#utility.yul\":343:344   */\n  0x00\n    /* \"#utility.yul\":336:424   */\n  mstore\n    /* \"#utility.yul\":443:447   */\n  0x22\n    /* \"#utility.yul\":440:441   */\n  0x04\n    /* \"#utility.yul\":433:448   */\n  mstore\n    /* \"#utility.yul\":467:471   */\n  0x24\n    /* \"#utility.yul\":464:465   */\n  0x00\n    /* \"#utility.yul\":457:472   */\n  revert\n    /* \"#utility.yul\":484:804   */\ntag_30:\n    /* \"#utility.yul\":528:534   */\n  0x00\n    /* \"#utility.yul\":565:566   */\n  0x02\n    /* \"#utility.yul\":559:563   */\n  dup3\n    /* \"#utility.yul\":555:567   */\n  div\n    /* \"#utility.yul\":545:567   */\n  swap1\n  pop\n    /* \"#utility.yul\":612:613   */\n  0x01\n    /* \"#utility.yul\":606:610   */\n  dup3\n    /* \"#utility.yul\":602:614   */\n  and\n    /* \"#utility.yul\":633:651   */\n  dup1\n    /* \"#utility.yul\":623:704   */\n  tag_57\n  jumpi\n    /* \"#utility.yul\":689:693   */\n  0x7f\n    /* \"#utility.yul\":681:687   */\n  dup3\n    /* \"#utility.yul\":677:694   */\n  and\n    /* \"#utility.yul\":667:694   */\n  swap2\n  pop\n    /* \"#utility.yul\":623:704   */\ntag_57:\n    /* \"#utility.yul\":751:753   */\n  0x20\n    /* \"#utility.yul\":743:749   */\n  dup3\n    /* \"#utility.yul\":740:754   */\n  lt\n    /* \"#utility.yul\":720:738   */\n  dup2\n    /* \"#utility.yul\":717:755   */\n  sub\n    /* \"#utility.yul\":714:798   */\n  tag_58\n  jumpi\n    /* \"#utility.yul\":770:788   */\n  tag_59\n  tag_29\n  jump\t// in\ntag_59:\n    /* \"#utility.yul\":714:798   */\ntag_58:\n    /* \"#utility.yul\":535:804   */\n  pop\n    /* \"#utility.yul\":484:804   */\n  swap2\n  swap1\n  pop\n  jump\t// out\n    /* \"#utility.yul\":810:951   */\ntag_31:\n    /* \"#utility.yul\":859:863   */\n  0x00\n    /* \"#utility.yul\":882:885   */\n  dup2\n    /* \"#utility.yul\":874:885   */\n  swap1\n  pop\n    /* \"#utility.yul\":905:908   */\n  dup2\n    /* \"#utility.yul\":902:903   */\n  0x00\n    /* \"#utility.yul\":895:909   */\n  mstore\n    /* \"#utility.yul\":939:943   */\n  0x20\n    /* \"#utility.yul\":936:937   */\n  0x00\n    /* \"#utility.yul\":926:944   */\n  keccak256\n    /* \"#utility.yul\":918:944   */\n  swap1\n  pop\n    /* \"#utility.yul\":810:951   */\n  swap2\n  swap1\n  pop\n  jump\t// out\n    /* \"#utility.yul\":957:1050   */\ntag_32:\n    /* \"#utility.yul\":994:1000   */\n  0x00\n    /* \"#utility.yul\":1041:1043   */\n  0x20\n    /* \"#utility.yul\":1036:1038   */\n  0x1f\n    /* \"#utility.yul\":1029:1034   */\n  dup4\n    /* \"#utility.yul\":1025:1039   */\n  add\n    /* \"#utility.yul\":1021:1044   */\n  div\n    /* \"#utility.yul\":1011:1044   */\n  swap1\n  pop\n    /* \"#utility.yul\":957:1050   */\n  swap2\n  swap1\n  pop\n  jump\t// out\n    /* \"#utility.yul\":1056:1163   */\ntag_33:\n    /* \"#utility.yul\":1100:1108   */\n  0x00\n    /* \"#utility.yul\":1150:1155   */\n  dup3\n    /* \"#utility.yul\":1144:1148   */\n  dup3\n    /* \"#utility.yul\":1140:1156   */\n  shl\n    /* \"#utility.yul\":1119:1156   */\n  swap1\n  pop\n    /* \"#utility.yul\":1056:1163   */\n  swap3\n  swap2\n  pop\n  pop\n  jump\t// out\n    /* \"#utility.yul\":1169:1562   */\ntag_34:\n    /* \"#utility.yul\":1238:1244   */\n  0x00\n    /* \"#utility.yul\":1288:1289   */\n  0x08\n    /* \"#utility.yul\":1276:1286   */\n  dup4\n    /* \"#utility.yul\":1272:1290   */\n  mul\n    /* \"#utility.yul\":1311:1408   */\n  tag_64\n    /* \"#utility.yul\":1341:1407   */\n  0xffffffffffffffffffffffffffffffffffffffffffffffffffffffffffffffff\n    /* \"#utility.yul\":1330:1339   */\n  dup3\n    /* \"#utility.yul\":1311:1408   */\n  tag_33\n  jump\t// in\ntag_64:\n    /* \"#utility.yul\":1429:1468   */\n  tag_65\n    /* \"#utility.yul\":1459:1467   */\n  dup7\n    /* \"#utility.yul\":1448:1457   */\n  dup4\n    /* \"#utility.yul\":1429:1468   */\n  tag_33\n  jump\t// in\ntag_65:\n    /* \"#utility.yul\":1417:1468   */\n  swap6\n  pop\n    /* \"#utility.yul\":1501:1505   */\n  dup1\n    /* \"#utility.yul\":1497:1506   */\n  not\n    /* \"#utility.yul\":1490:1495   */\n  dup5\n    /* \"#utility.yul\":1486:1507   */\n  and\n    /* \"#utility.yul\":1477:1507   */\n  swap4\n  pop\n    /* \"#utility.yul\":1550:1554   */\n  dup1\n    /* \"#utility.yul\":1540:1548   */\n  dup7\n    /* \"#utility.yul\":1536:1555   */\n  and\n    /* \"#utility.yul\":1529:1534   */\n  dup5\n    /* \"#utility.yul\":1526:1556   */\n  or\n    /* \"#utility.yul\":1516:1556   */\n  swap3\n  pop\n    /* \"#utility.yul\":1245:1562   */\n  pop\n  pop\n    /* \"#utility.yul\":1169:1562   */\n  swap4\n  swap3\n  pop\n  pop\n  pop\n  jump\t// out\n    /* \"#utility.yul\":1568:1645   */\ntag_35:\n    /* \"#utility.yul\":1605:1612   */\n  0x00\n    /* \"#utility.yul\":1634:1639   */\n  dup2\n    /* \"#utility.yul\":1623:1639   */\n  swap1\n  pop\n    /* \"#utility.yul\":1568:1645   */\n  swap2\n  swap1\n  pop\n  jump\t// out\n    /* \"#utility.yul\":1651:1711   */\ntag_36:\n    /* \"#utility.yul\":1679:1682   */\n  0x00\n    /* \"#utility.yul\":1700:1705   */\n  dup2\n    /* \"#utility.yul\":1693:1705   */\n  swap1\n  pop\n    /* \"#utility.yul\":1651:1711   */\n  swap2\n  swap1\n  pop\n  jump\t// out\n    /* \"#utility.yul\":1717:1859   */\ntag_37:\n    /* \"#utility.yul\":1767:1776   */\n  0x00\n    /* \"#utility.yul\":1800:1853   */\n  tag_69\n    /* \"#utility.yul\":1818:1852   */\n  tag_70\n    /* \"#utility.yul\":1827:1851   */\n  tag_71\n    /* \"#utility.yul\":1845:1850   */\n  dup5\n    /* \"#utility.yul\":1827:1851   */\n  tag_35\n  jump\t// in\ntag_71:\n    /* \"#utility.yul\":1818:1852   */\n  tag_36\n  jump\t// in\ntag_70:\n    /* \"#utility.yul\":1800:1853   */\n  tag_35\n  jump\t// in\ntag_69:\n    /* \"#utility.yul\":1787:1853   */\n  swap1\n  pop\n    /* \"#utility.yul\":1717:1859   */\n  swap2\n  swap1\n  pop\n  jump\t// out\n    /* \"#utility.yul\":1865:1940   */\ntag_38:\n    /* \"#utility.yul\":1908:1911   */\n  0x00\n    /* \"#utility.yul\":1929:1934   */\n  dup2\n    /* \"#utility.yul\":1922:1934   */\n  swap1\n  pop\n    /* \"#utility.yul\":1865:1940   */\n  swap2\n  swap1\n  pop\n  jump\t// out\n    /* \"#utility.yul\":1946:2215   */\ntag_39:\n    /* \"#utility.yul\":2056:2095   */\n  tag_74\n    /* \"#utility.yul\":2087:2094   */\n  dup4\n    /* \"#utility.yul\":2056:2095   */\n  tag_37\n  jump\t// in\ntag_74:\n    /* \"#utility.yul\":2117:2208   */\n  tag_75\n    /* \"#utility.yul\":2166:2207   */\n  tag_76\n    /* \"#utility.yul\":2190:2206   */\n  dup3\n    /* \"#utility.yul\":2166:2207   */\n  tag_38\n  jump\t// in\ntag_76:\n    /* \"#utility.yul\":2158:2164   */\n  dup5\n    /* \"#utility.yul\":2151:2155   */\n  dup5\n    /* \"#utility.yul\":2145:2156   */\n  sload\n    /* \"#utility.yul\":2117:2208   */\n  tag_34\n  jump\t// in\ntag_75:\n    /* \"#utility.yul\":2111:2115   */\n  dup3\n    /* \"#utility.yul\":2104:2209   */\n  sstore\n    /* \"#utility.yul\":2022:2215   */\n  pop\n    /* \"#utility.yul\":1946:2215   */\n  pop\n  pop\n  pop\n  jump\t// out\n    /* \"#utility.yul\":2221:2294   */\ntag_40:\n    /* \"#utility.yul\":2266:2269   */\n  0x00\n    /* \"#utility.yul\":2221:2294   */\n  swap1\n  jump\t// out\n    /* \"#utility.yul\":2300:2489   */\ntag_41:\n    /* \"#utility.yul\":2377:2409   */\n  tag_79\n  tag_40\n  jump\t// in\ntag_79:\n    /* \"#utility.yul\":2418:2483   */\n  tag_80\n    /* \"#utility.yul\":2476:2482   */\n  dup2\n    /* \"#utility.yul\":2468:2474   */\n  dup5\n    /* \"#utility.yul\":2462:2466   */\n  dup5\n    /* \"#utility.yul\":2418:2483   */\n  tag_39\n  jump\t// in\ntag_80:\n    /* \"#utility.yul\":2353:2489   */\n  pop\n    /* \"#utility.yul\":2300:2489   */\n  pop\n  pop\n  jump\t// out\n    /* \"#utility.yul\":2495:2681   */\ntag_42:\n    /* \"#utility.yul\":2555:2675   */\ntag_82:\n    /* \"#utility.yul\":2572:2575   */\n  dup2\n    /* \"#utility.yul\":2565:2570   */\n  dup2\n    /* \"#utility.yul\":2562:2576   */\n  lt\n    /* \"#utility.yul\":2555:2675   */\n  iszero\n  tag_84\n  jumpi\n    /* \"#utility.yul\":2626:2665   */\n  tag_85\n    /* \"#utility.yul\":2663:2664   */\n  0x00\n    /* \"#utility.yul\":2656:2661   */\n  dup3\n    /* \"#utility.yul\":2626:2665   */\n  tag_41\n  jump\t// in\ntag_85:\n    /* \"#utility.yul\":2599:2600   */\n  0x01\n    /* \"#utility.yul\":2592:2597   */\n  dup2\n    /* \"#utility.yul\":2588:2601   */\n  add\n    /* \"#utility.yul\":2579:2601   */\n  swap1\n  pop\n    /* \"#utility.yul\":2555:2675   */\n  jump(tag_82)\ntag_84:\n    /* \"#utility.yul\":2495:2681   */\n  pop\n  pop\n  jump\t// out\n    /* \"#utility.yul\":2687:3230   */\ntag_43:\n    /* \"#utility.yul\":2788:2790   */\n  0x1f\n    /* \"#utility.yul\":2783:2786   */\n  dup3\n    /* \"#utility.yul\":2780:2791   */\n  gt\n    /* \"#utility.yul\":2777:3223   */\n  iszero\n  tag_87\n  jumpi\n    /* \"#utility.yul\":2822:2860   */\n  tag_88\n    /* \"#utility.yul\":2854:2859   */\n  dup2\n    /* \"#utility.yul\":2822:2860   */\n  tag_31\n  jump\t// in\ntag_88:\n    /* \"#utility.yul\":2906:2935   */\n  tag_89\n    /* \"#utility.yul\":2924:2934   */\n  dup5\n    /* \"#utility.yul\":2906:2935   */\n  tag_32\n  jump\t// in\ntag_89:\n    /* \"#utility.yul\":2896:2904   */\n  dup2\n    /* \"#utility.yul\":2892:2936   */\n  add\n    /* \"#utility.yul\":3089:3091   */\n  0x20\n    /* \"#utility.yul\":3077:3087   */\n  dup6\n    /* \"#utility.yul\":3074:3092   */\n  lt\n    /* \"#utility.yul\":3071:3120   */\n  iszero\n  tag_90\n  jumpi\n    /* \"#utility.yul\":3110:3118   */\n  dup2\n    /* \"#utility.yul\":3095:3118   */\n  swap1\n  pop\n    /* \"#utility.yul\":3071:3120   */\ntag_90:\n    /* \"#utility.yul\":3133:3213   */\n  tag_91\n    /* \"#utility.yul\":3189:3211   */\n  tag_92\n    /* \"#utility.yul\":3207:3210   */\n  dup6\n    /* \"#utility.yul\":3189:3211   */\n  tag_32\n  jump\t// in\ntag_92:\n    /* \"#utility.yul\":3179:3187   */\n  dup4\n    /* \"#utility.yul\":3175:3212   */\n  add\n    /* \"#utility.yul\":3162:3173   */\n  dup3\n    /* \"#utility.yul\":3133:3213   */\n  tag_42\n  jump\t// in\ntag_91:\n    /* \"#utility.yul\":2792:3223   */\n  pop\n  pop\n    /* \"#utility.yul\":2777:3223   */\ntag_87:\n    /* \"#utility.yul\":2687:3230   */\n  pop\n  pop\n  pop\n  jump\t// out\n    /* \"#utility.yul\":3236:3353   */\ntag_44:\n    /* \"#utility.yul\":3290:3298   */\n  0x00\n    /* \"#utility.yul\":3340:3345   */\n  dup3\n    /* \"#utility.yul\":3334:3338   */\n  dup3\n    /* \"#utility.yul\":3330:3346   */\n  shr\n    /* \"#utility.yul\":3309:3346   */\n  swap1\n  pop\n    /* \"#utility.yul\":3236:3353   */\n  swap3\n  swap2\n  pop\n  pop\n  jump\t// out\n    /* \"#utility.yul\":3359:3528   */\ntag_45:\n    /* \"#utility.yul\":3403:3409   */\n  0x00\n    /* \"#utility.yul\":3436:3487   */\n  tag_95\n    /* \"#utility.yul\":3484:3485   */\n  0x00\n    /* \"#utility.yul\":3480:3486   */\n  not\n    /* \"#utility.yul\":3472:3477   */\n  dup5\n    /* \"#utility.yul\":3469:3470   */\n  0x08\n    /* \"#utility.yul\":3465:3478   */\n  mul\n    /* \"#utility.yul\":3436:3487   */\n  tag_44\n  jump\t// in\ntag_95:\n    /* \"#utility.yul\":3432:3488   */\n  not\n    /* \"#utility.yul\":3517:3521   */\n  dup1\n    /* \"#utility.yul\":3511:3515   */\n  dup4\n    /* \"#utility.yul\":3507:3522   */\n  and\n    /* \"#utility.yul\":3497:3522   */\n  swap2\n  pop\n    /* \"#utility.yul\":3410:3528   */\n  pop\n    /* \"#utility.yul\":3359:3528   */\n  swap3\n  swap2\n  pop\n  pop\n  jump\t// out\n    /* \"#utility.yul\":3533:3828   */\ntag_46:\n    /* \"#utility.yul\":3609:3613   */\n  0x00\n    /* \"#utility.yul\":3755:3784   */\n  tag_97\n    /* \"#utility.yul\":3780:3783   */\n  dup4\n    /* \"#utility.yul\":3774:3778   */\n  dup4\n    /* \"#utility.yul\":3755:3784   */\n  tag_45\n  jump\t// in\ntag_97:\n    /* \"#utility.yul\":3747:3784   */\n  swap2\n  pop\n    /* \"#utility.yul\":3817:3820   */\n  dup3\n    /* \"#utility.yul\":3814:3815   */\n  0x02\n    /* \"#utility.yul\":3810:3821   */\n  mul\n    /* \"#utility.yul\":3804:3808   */\n  dup3\n    /* \"#utility.yul\":3801:3822   */\n  or\n    /* \"#utility.yul\":3793:3822   */\n  swap1\n  pop\n    /* \"#utility.yul\":3533:3828   */\n  swap3\n  swap2\n  pop\n  pop\n  jump\t// out\n    /* \"#utility.yul\":3833:5228   */\ntag_6:\n    /* \"#utility.yul\":3950:3987   */\n  tag_99\n    /* \"#utility.yul\":3983:3986   */\n  dup3\n    /* \"#utility.yul\":3950:3987   */\n  tag_27\n  jump\t// in\ntag_99:\n    /* \"#utility.yul\":4052:4070   */\n  0xffffffffffffffff\n    /* \"#utility.yul\":4044:4050   */\n  dup2\n    /* \"#utility.yul\":4041:4071   */\n  gt\n    /* \"#utility.yul\":4038:4094   */\n  iszero\n  tag_100\n  jumpi\n    /* \"#utility.yul\":4074:4092   */\n  tag_101\n  tag_28\n  jump\t// in\ntag_101:\n    /* \"#utility.yul\":4038:4094   */\ntag_100:\n    /* \"#utility.yul\":4118:4156   */\n  tag_102\n    /* \"#utility.yul\":4150:4154   */\n  dup3\n    /* \"#utility.yul\":4144:4155   */\n  sload\n    /* \"#utility.yul\":4118:4156   */\n  tag_30\n  jump\t// in\ntag_102:\n    /* \"#utility.yul\":4203:4270   */\n  tag_103\n    /* \"#utility.yul\":4263:4269   */\n  dup3\n    /* \"#utility.yul\":4255:4261   */\n  dup3\n    /* \"#utility.yul\":4249:4253   */\n  dup6\n    /* \"#utility.yul\":4203:4270   */\n  tag_43\n  jump\t// in\ntag_103:\n    /* \"#utility.yul\":4297:4298   */\n  0x00\n    /* \"#utility.yul\":4321:4325   */\n  0x20\n    /* \"#utility.yul\":4308:4325   */\n  swap1\n  pop\n    /* \"#utility.yul\":4353:4355   */\n  0x1f\n    /* \"#utility.yul\":4345:4351   */\n  dup4\n    /* \"#utility.yul\":4342:4356   */\n  gt\n    /* \"#utility.yul\":4370:4371   */\n  0x01\n    /* \"#utility.yul\":4365:4983   */\n  dup2\n  eq\n  tag_105\n  jumpi\n    /* \"#utility.yul\":5027:5028   */\n  0x00\n    /* \"#utility.yul\":5044:5050   */\n  dup5\n    /* \"#utility.yul\":5041:5118   */\n  iszero\n  tag_106\n  jumpi\n    /* \"#utility.yul\":5093:5102   */\n  dup3\n    /* \"#utility.yul\":5088:5091   */\n  dup8\n    /* \"#utility.yul\":5084:5103   */\n  add\n    /* \"#utility.yul\":5078:5104   */\n  mload\n    /* \"#utility.yul\":5069:5104   */\n  swap1\n  pop\n    /* \"#utility.yul\":5041:5118   */\ntag_106:\n    /* \"#utility.yul\":5144:5211   */\n  tag_107\n    /* \"#utility.yul\":5204:5210   */\n  dup6\n    /* \"#utility.yul\":5197:5202   */\n  dup3\n    /* \"#utility.yul\":5144:5211   */\n  tag_46\n  jump\t// in\ntag_107:\n    /* \"#utility.yul\":5138:5142   */\n  dup7\n    /* \"#utility.yul\":5131:5212   */\n  sstore\n    /* \"#utility.yul\":5000:5222   */\n  pop\n    /* \"#utility.yul\":4335:5222   */\n  jump(tag_104)\n    /* \"#utility.yul\":4365:4983   */\ntag_105:\n    /* \"#utility.yul\":4417:4421   */\n  0x1f\n    /* \"#utility.yul\":4413:4422   */\n  not\n    /* \"#utility.yul\":4405:4411   */\n  dup5\n    /* \"#utility.yul\":4401:4423   */\n  and\n    /* \"#utility.yul\":4451:4488   */\n  tag_108\n    /* \"#utility.yul\":4483:4487   */\n  dup7\n    /* \"#utility.yul\":4451:4488   */\n  tag_31\n  jump\t// in\ntag_108:\n    /* \"#utility.yul\":4510:4511   */\n  0x00\n    /* \"#utility.yul\":4524:4732   */\ntag_109:\n    /* \"#utility.yul\":4538:4545   */\n  dup3\n    /* \"#utility.yul\":4535:4536   */\n  dup2\n    /* \"#utility.yul\":4532:4546   */\n  lt\n    /* \"#utility.yul\":4524:4732   */\n  iszero\n  tag_111\n  jumpi\n    /* \"#utility.yul\":4617:4626   */\n  dup5\n    /* \"#utility.yul\":4612:4615   */\n  dup10\n    /* \"#utility.yul\":4608:4627   */\n  add\n    /* \"#utility.yul\":4602:4628   */\n  mload\n    /* \"#utility.yul\":4594:4600   */\n  dup3\n    /* \"#utility.yul\":4587:4629   */\n  sstore\n    /* \"#utility.yul\":4668:4669   */\n  0x01\n    /* \"#utility.yul\":4660:4666   */\n  dup3\n    /* \"#utility.yul\":4656:4670   */\n  add\n    /* \"#utility.yul\":4646:4670   */\n  swap2\n  pop\n    /* \"#utility.yul\":4715:4717   */\n  0x20\n    /* \"#utility.yul\":4704:4713   */\n  dup6\n    /* \"#utility.yul\":4700:4718   */\n  add\n    /* \"#utility.yul\":4687:4718   */\n  swap5\n  pop\n    /* \"#utility.yul\":4561:4565   */\n  0x20\n    /* \"#utility.yul\":4558:4559   */\n  dup2\n    /* \"#utility.yul\":4554:4566   */\n  add\n    /* \"#utility.yul\":4549:4566   */\n  swap1\n  pop\n    /* \"#utility.yul\":4524:4732   */\n  jump(tag_109)\ntag_111:\n    /* \"#utility.yul\":4760:4766   */\n  dup7\n    /* \"#utility.yul\":4751:4758   */\n  dup4\n    /* \"#utility.yul\":4748:4767   */\n  lt\n    /* \"#utility.yul\":4745:4924   */\n  iszero\n  tag_112\n  jumpi\n    /* \"#utility.yul\":4818:4827   */\n  dup5\n    /* \"#utility.yul\":4813:4816   */\n  dup10\n    /* \"#utility.yul\":4809:4828   */\n  add\n    /* \"#utility.yul\":4803:4829   */\n  mload\n    /* \"#utility.yul\":4861:4909   */\n  tag_113\n    /* \"#utility.yul\":4903:4907   */\n  0x1f\n    /* \"#utility.yul\":4895:4901   */\n  dup10\n    /* \"#utility.yul\":4891:4908   */\n  and\n    /* \"#utility.yul\":4880:4889   */\n  dup3\n    /* \"#utility.yul\":4861:4909   */\n  tag_45\n  jump\t// in\ntag_113:\n    /* \"#utility.yul\":4853:4859   */\n  dup4\n    /* \"#utility.yul\":4846:4910   */\n  sstore\n    /* \"#utility.yul\":4768:4924   */\n  pop\n    /* \"#utility.yul\":4745:4924   */\ntag_112:\n    /* \"#utility.yul\":4970:4971   */\n  0x01\n    /* \"#utility.yul\":4966:4967   */\n  0x02\n    /* \"#utility.yul\":4958:4964   */\n  dup9\n    /* \"#utility.yul\":4954:4968   */\n  mul\n    /* \"#utility.yul\":4950:4972   */\n  add\n    /* \"#utility.yul\":4944:4948   */\n  dup9\n    /* \"#utility.yul\":4937:4973   */\n  sstore\n    /* \"#utility.yul\":4372:4983   */\n  pop\n  pop\n  pop\n    /* \"#utility.yul\":4335:5222   */\ntag_104:\n  pop\n    /* \"#utility.yul\":3925:5228   */\n  pop\n  pop\n  pop\n    /* \"#utility.yul\":3833:5228   */\n  pop\n  pop\n  jump\t// out\n    /* \"#utility.yul\":5234:5403   */\ntag_47:\n    /* \"#utility.yul\":5318:5329   */\n  0x00\n    /* \"#utility.yul\":5352:5358   */\n  dup3\n    /* \"#utility.yul\":5347:5350   */\n  dup3\n    /* \"#utility.yul\":5340:5359   */\n  mstore\n    /* \"#utility.yul\":5392:5396   */\n  0x20\n    /* \"#utility.yul\":5387:5390   */\n  dup3\n    /* \"#utility.yul\":5383:5397   */\n  add\n    /* \"#utility.yul\":5368:5397   */\n  swap1\n  pop\n    /* \"#utility.yul\":5234:5403   */\n  swap3\n  swap2\n  pop\n  pop\n  jump\t// out\n    /* \"#utility.yul\":5409:5590   */\ntag_48:\n    /* \"#utility.yul\":5549:5582   */\n  0x45524332303a206d696e7420746f20746865207a65726f206164647265737300\n    /* \"#utility.yul\":5545:5546   */\n  0x00\n    /* \"#utility.yul\":5537:5543   */\n  dup3\n    /* \"#utility.yul\":5533:5547   */\n  add\n    /* \"#utility.yul\":5526:5583   */\n  mstore\n    /* \"#utility.yul\":5409:5590   */\n  pop\n  jump\t// out\n    /* \"#utility.yul\":5596:5962   */\ntag_49:\n    /* \"#utility.yul\":5738:5741   */\n  0x00\n    /* \"#utility.yul\":5759:5826   */\n  tag_117\n    /* \"#utility.yul\":5823:5825   */\n  0x1f\n    /* \"#utility.yul\":5818:5821   */\n  dup4\n    /* \"#utility.yul\":5759:5826   */\n  tag_47\n  jump\t// in\ntag_117:\n    /* \"#utility.yul\":5752:5826   */\n  swap2\n  pop\n    /* \"#utility.yul\":5835:5928   */\n  tag_118\n    /* \"#utility.yul\":5924:5927   */\n  dup3\n    /* \"#utility.yul\":5835:5928   */\n  tag_48\n  jump\t// in\ntag_118:\n    /* \"#utility.yul\":5953:5955   */\n  0x20\n    /* \"#utility.yul\":5948:5951   */\n  dup3\n    /* \"#utility.yul\":5944:5956   */\n  add\n    /* \"#utility.yul\":5937:5956   */\n  swap1\n  pop\n    /* \"#utility.yul\":5596:5962   */\n  swap2\n  swap1\n  pop\n  jump\t// out\n    /* \"#utility.yul\":5968:6387   */\ntag_15:\n    /* \"#utility.yul\":6134:6138   */\n  0x00\n    /* \"#utility.yul\":6172:6174   */\n  0x20\n    /* \"#utility.yul\":6161:6170   */\n  dup3\n    /* \"#utility.yul\":6157:6175   */\n  add\n    /* \"#utility.yul\":6149:6175   */\n  swap1\n  pop\n    /* \"#utility.yul\":6221:6230   */\n  dup2\n    /* \"#utility.yul\":6215:6219   */\n  dup2\n    /* \"#utility.yul\":6211:6231   */\n  sub\n    /* \"#utility.yul\":6207:6208   */\n  0x00\n    /* \"#utility.yul\":6196:6205   */\n  dup4\n    /* \"#utility.yul\":6192:6209   */\n  add\n    /* \"#utility.yul\":6185:6232   */\n  mstore\n    /* \"#utility.yul\":6249:6380   */\n  tag_120\n    /* \"#utility.yul\":6375:6379   */\n  dup2\n    /* \"#utility.yul\":6249:6380   */\n  tag_49\n  jump\t// in\ntag_120:\n    /* \"#utility.yul\":6241:6380   */\n  swap1\n  pop\n    /* \"#utility.yul\":5968:6387   */\n  swap2\n  swap1\n  pop\n  jump\t// out\n    /* \"#utility.yul\":6393:6573   */\ntag_50:\n    /* \"#utility.yul\":6441:6518   */\n  0x4e487b7100000000000000000000000000000000000000000000000000000000\n    /* \"#utility.yul\":6438:6439   */\n  0x00\n    /* \"#utility.yul\":6431:6519   */\n  mstore\n    /* \"#utility.yul\":6538:6542   */\n  0x11\n    /* \"#utility.yul\":6535:6536   */\n  0x04\n    /* \"#utility.yul\":6528:6543   */\n  mstore\n    /* \"#utility.yul\":6562:6566   */\n  0x24\n    /* \"#utility.yul\":6559:6560   */\n  0x00\n    /* \"#utility.yul\":6552:6567   */\n  revert\n    /* \"#utility.yul\":6579:6770   */\ntag_19:\n    /* \"#utility.yul\":6619:6622   */\n  0x00\n    /* \"#utility.yul\":6638:6658   */\n  tag_123\n    /* \"#utility.yul\":6656:6657   */\n  dup3\n    /* \"#utility.yul\":6638:6658   */\n  tag_35\n  jump\t// in\ntag_123:\n    /* \"#utility.yul\":6633:6658   */\n  swap2\n  pop\n    /* \"#utility.yul\":6672:6692   */\n  tag_124\n    /* \"#utility.yul\":6690:6691   */\n  dup4\n    /* \"#utility.yul\":6672:6692   */\n  tag_35\n  jump\t// in\ntag_124:\n    /* \"#utility.yul\":6667:6692   */\n  swap3\n  pop\n    /* \"#utility.yul\":6715:6716   */\n  dup3\n    /* \"#utility.yul\":6712:6713   */\n  dup3\n    /* \"#utility.yul\":6708:6717   */\n  add\n    /* \"#utility.yul\":6701:6717   */\n  swap1\n  pop\n    /* \"#utility.yul\":6736:6739   */\n  dup1\n    /* \"#utility.yul\":6733:6734   */\n  dup3\n    /* \"#utility.yul\":6730:6740   */\n  gt\n    /* \"#utility.yul\":6727:6763   */\n  iszero\n  tag_125\n  jumpi\n    /* \"#utility.yul\":6743:6761   */\n  tag_126\n  tag_50\n  jump\t// in\ntag_126:\n    /* \"#utility.yul\":6727:6763   */\ntag_125:\n    /* \"#utility.yul\":6579:6770   */\n  swap3\n  swap2\n  pop\n  pop\n  jump\t// out\n    /* \"#utility.yul\":6776:6894   */\ntag_51:\n    /* \"#utility.yul\":6863:6887   */\n  tag_128\n    /* \"#utility.yul\":6881:6886   */\n  dup2\n    /* \"#utility.yul\":6863:6887   */\n  tag_35\n  jump\t// in\ntag_128:\n    /* \"#utility.yul\":6858:6861   */\n  dup3\n    /* \"#utility.yul\":6851:6888   */\n  mstore\n    /* \"#utility.yul\":6776:6894   */\n  pop\n  pop\n  jump\t// out\n    /* \"#utility.yul\":6900:7122   */\ntag_22:\n    /* \"#utility.yul\":6993:6997   */\n  0x00\n    /* \"#utility.yul\":7031:7033   */\n  0x20\n    /* \"#utility.yul\":7020:7029   */\n  dup3\n    /* \"#utility.yul\":7016:7034   */\n  add\n    /* \"#utility.yul\":7008:7034   */\n  swap1\n  pop\n    /* \"#utility.yul\":7044:7115   */\n  tag_130\n    /* \"#utility.yul\":7112:7113   */\n  0x00\n    /* \"#utility.yul\":7101:7110   */\n  dup4\n    /* \"#utility.yul\":7097:7114   */\n  add\n    /* \"#utility.yul\":7088:7094   */\n  dup5\n    /* \"#utility.yul\":7044:7115   */\n  tag_51\n  jump\t// in\ntag_130:\n    /* \"#utility.yul\":6900:7122   */\n  swap3\n  swap2\n  pop\n  pop\n  jump\t// out\n    /* \"EPARS.sol\":91:724  contract EPARS is ERC20 {... */\ntag_11:\n  dataSize(sub_0)\n  dup1\n  dataOffset(sub_0)\n  0x00\n  codecopy\n  0x00\n  return\nstop\n\nsub_0: assembly {\n        /* \"EPARS.sol\":91:724  contract EPARS is ERC20 {... */\n      mstore(0x40, 0x80)\n      callvalue\n      dup1\n      iszero\n      tag_1\n      jumpi\n      0x00\n      dup1\n      revert\n    tag_1:\n      pop\n      jumpi(tag_2, lt(calldatasize, 0x04))\n      shr(0xe0, calldataload(0x00))\n      dup1\n      0x42966c68\n      gt\n      tag_17\n      jumpi\n      dup1\n      0x95d89b41\n      gt\n      tag_18\n      jumpi\n      dup1\n      0x95d89b41\n      eq\n      tag_13\n      jumpi\n      dup1\n      0xa457c2d7\n      eq\n      tag_14\n      jumpi\n      dup1\n      0xa9059cbb\n      eq\n      tag_15\n      jumpi\n      dup1\n      0xdd62ed3e\n      eq\n      tag_16\n      jumpi\n      jump(tag_2)\n    tag_18:\n      dup1\n      0x42966c68\n      eq\n      tag_10\n      jumpi\n      dup1\n      0x70a08231\n      eq\n      tag_11\n      jumpi\n      dup1\n      0x8da5cb5b\n      eq\n      tag_12\n      jumpi\n      jump(tag_2)\n    tag_17:\n      dup1\n      0x23b872dd\n      gt\n      tag_19\n      jumpi\n      dup1\n      0x23b872dd\n      eq\n      tag_6\n      jumpi\n      dup1\n      0x313ce567\n      eq\n      tag_7\n      jumpi\n      dup1\n      0x39509351\n      eq\n      tag_8\n      jumpi\n      dup1\n      0x40c10f19\n      eq\n      tag_9\n      jumpi\n      jump(tag_2)\n    tag_19:\n      dup1\n      0x06fdde03\n      eq\n      tag_3\n      jumpi\n      dup1\n      0x095ea7b3\n      eq\n      tag_4\n      jumpi\n      dup1\n      0x18160ddd\n      eq\n      tag_5\n      jumpi\n    tag_2:\n      0x00\n      dup1\n      revert\n        /* \"ERC20.sol\":2181:2281  function name() public view virtual override returns (string memory) {... */\n    tag_3:\n      tag_20\n      tag_21\n      jump\t// in\n    tag_20:\n      mload(0x40)\n      tag_22\n      swap2\n      swap1\n      tag_23\n      jump\t// in\n    tag_22:\n      mload(0x40)\n      dup1\n      swap2\n      sub\n      swap1\n      return\n        /* \"ERC20.sol\":4348:4517  function approve(address spender, uint256 amount) public virtual override returns (bool) {... */\n    tag_4:\n      tag_24\n      0x04\n      dup1\n      calldatasize\n      sub\n      dup2\n      add\n      swap1\n      tag_25\n      swap2\n      swap1\n      tag_26\n      jump\t// in\n    tag_25:\n      tag_27\n      jump\t// in\n    tag_24:\n      mload(0x40)\n      tag_28\n      swap2\n      swap1\n      tag_29\n      jump\t// in\n    tag_28:\n      mload(0x40)\n      dup1\n      swap2\n      sub\n      swap1\n      return\n        /* \"ERC20.sol\":3301:3409  function totalSupply() public view virtual override returns (uint256) {... */\n    tag_5:\n      tag_30\n      tag_31\n      jump\t// in\n    tag_30:\n      mload(0x40)\n      tag_32\n      swap2\n      swap1\n      tag_33\n      jump\t// in\n    tag_32:\n      mload(0x40)\n      dup1\n      swap2\n      sub\n      swap1\n      return\n        /* \"ERC20.sol\":4999:5491  function transferFrom(... */\n    tag_6:\n      tag_34\n      0x04\n      dup1\n      calldatasize\n      sub\n      dup2\n      add\n      swap1\n      tag_35\n      swap2\n      swap1\n      tag_36\n      jump\t// in\n    tag_35:\n      tag_37\n      jump\t// in\n    tag_34:\n      mload(0x40)\n      tag_38\n      swap2\n      swap1\n      tag_29\n      jump\t// in\n    tag_38:\n      mload(0x40)\n      dup1\n      swap2\n      sub\n      swap1\n      return\n        /* \"ERC20.sol\":3143:3236  function decimals() public view virtual override returns (uint8) {... */\n    tag_7:\n      tag_39\n      tag_40\n      jump\t// in\n    tag_39:\n      mload(0x40)\n      tag_41\n      swap2\n      swap1\n      tag_42\n      jump\t// in\n    tag_41:\n      mload(0x40)\n      dup1\n      swap2\n      sub\n      swap1\n      return\n        /* \"ERC20.sol\":5900:6115  function increaseAllowance(address spender, uint256 addedValue) public virtual returns (bool) {... */\n    tag_8:\n      tag_43\n      0x04\n      dup1\n      calldatasize\n      sub\n      dup2\n      add\n      swap1\n      tag_44\n      swap2\n      swap1\n      tag_26\n      jump\t// in\n    tag_44:\n      tag_45\n      jump\t// in\n    tag_43:\n      mload(0x40)\n      tag_46\n      swap2\n      swap1\n      tag_29\n      jump\t// in\n    tag_46:\n      mload(0x40)\n      dup1\n      swap2\n      sub\n      swap1\n      return\n        /* \"EPARS.sol\":281:432  function mint(address to, uint256 amount) external {... */\n    tag_9:\n      tag_47\n      0x04\n      dup1\n      calldatasize\n      sub\n      dup2\n      add\n      swap1\n      tag_48\n      swap2\n      swap1\n      tag_26\n      jump\t// in\n    tag_48:\n      tag_49\n      jump\t// in\n    tag_47:\n      stop\n        /* \"EPARS.sol\":440:523  function burn(uint256 amount) external {... */\n    tag_10:\n      tag_50\n      0x04\n      dup1\n      calldatasize\n      sub\n      dup2\n      add\n      swap1\n      tag_51\n      swap2\n      swap1\n      tag_52\n      jump\t// in\n    tag_51:\n      tag_53\n      jump\t// in\n    tag_50:\n      stop\n        /* \"ERC20.sol\":3472:3599  function balanceOf(address account) public view virtual override returns (uint256) {... */\n    tag_11:\n      tag_54\n      0x04\n      dup1\n      calldatasize\n      sub\n      dup2\n      add\n      swap1\n      tag_55\n      swap2\n      swap1\n      tag_56\n      jump\t// in\n    tag_55:\n      tag_57\n      jump\t// in\n    tag_54:\n      mload(0x40)\n      tag_58\n      swap2\n      swap1\n      tag_33\n      jump\t// in\n    tag_58:\n      mload(0x40)\n      dup1\n      swap2\n      sub\n      swap1\n      return\n        /* \"EPARS.sol\":122:142  address public owner */\n    tag_12:\n      tag_59\n      tag_60\n      jump\t// in\n    tag_59:\n      mload(0x40)\n      tag_61\n      swap2\n      swap1\n      tag_62\n      jump\t// in\n    tag_61:\n      mload(0x40)\n      dup1\n      swap2\n      sub\n      swap1\n      return\n        /* \"ERC20.sol\":2400:2504  function symbol() public view virtual override returns (string memory) {... */\n    tag_13:\n      tag_63\n      tag_64\n      jump\t// in\n    tag_63:\n      mload(0x40)\n      tag_65\n      swap2\n      swap1\n      tag_23\n      jump\t// in\n    tag_65:\n      mload(0x40)\n      dup1\n      swap2\n      sub\n      swap1\n      return\n        /* \"ERC20.sol\":6618:7031  function decreaseAllowance(address spender, uint256 subtractedValue) public virtual returns (bool) {... */\n    tag_14:\n      tag_66\n      0x04\n      dup1\n      calldatasize\n      sub\n      dup2\n      add\n      swap1\n      tag_67\n      swap2\n      swap1\n      tag_26\n      jump\t// in\n    tag_67:\n      tag_68\n      jump\t// in\n    tag_66:\n      mload(0x40)\n      tag_69\n      swap2\n      swap1\n      tag_29\n      jump\t// in\n    tag_69:\n      mload(0x40)\n      dup1\n      swap2\n      sub\n      swap1\n      return\n        /* \"EPARS.sol\":531:721  function transfer(address _to, uint256 _amount)... */\n    tag_15:\n      tag_70\n      0x04\n      dup1\n      calldatasize\n      sub\n      dup2\n      add\n      swap1\n      tag_71\n      swap2\n      swap1\n      tag_26\n      jump\t// in\n    tag_71:\n      tag_72\n      jump\t// in\n    tag_70:\n      mload(0x40)\n      tag_73\n      swap2\n      swap1\n      tag_29\n      jump\t// in\n    tag_73:\n      mload(0x40)\n      dup1\n      swap2\n      sub\n      swap1\n      return\n        /* \"ERC20.sol\":4050:4201  function allowance(address owner, address spender) public view virtual override returns (uint256) {... */\n    tag_16:\n      tag_74\n      0x04\n      dup1\n      calldatasize\n      sub\n      dup2\n      add\n      swap1\n      tag_75\n      swap2\n      swap1\n      tag_76\n      jump\t// in\n    tag_75:\n      tag_77\n      jump\t// in\n    tag_74:\n      mload(0x40)\n      tag_78\n      swap2\n      swap1\n      tag_33\n      jump\t// in\n    tag_78:\n      mload(0x40)\n      dup1\n      swap2\n      sub\n      swap1\n      return\n        /* \"ERC20.sol\":2181:2281  function name() public view virtual override returns (string memory) {... */\n    tag_21:\n        /* \"ERC20.sol\":2235:2248  string memory */\n      0x60\n        /* \"ERC20.sol\":2268:2273  _name */\n      0x03\n        /* \"ERC20.sol\":2261:2273  return _name */\n      dup1\n      sload\n      tag_80\n      swap1\n      tag_81\n      jump\t// in\n    tag_80:\n      dup1\n      0x1f\n      add\n      0x20\n      dup1\n      swap2\n      div\n      mul\n      0x20\n      add\n      mload(0x40)\n      swap1\n      dup2\n      add\n      0x40\n      mstore\n      dup1\n      swap3\n      swap2\n      swap1\n      dup2\n      dup2\n      mstore\n      0x20\n      add\n      dup3\n      dup1\n      sload\n      tag_82\n      swap1\n      tag_81\n      jump\t// in\n    tag_82:\n      dup1\n      iszero\n      tag_83\n      jumpi\n      dup1\n      0x1f\n      lt\n      tag_84\n      jumpi\n      0x0100\n      dup1\n      dup4\n      sload\n      div\n      mul\n      dup4\n      mstore\n      swap2\n      0x20\n      add\n      swap2\n      jump(tag_83)\n    tag_84:\n      dup3\n      add\n      swap2\n      swap1\n      0x00\n      mstore\n      keccak256(0x00, 0x20)\n      swap1\n    tag_85:\n      dup2\n      sload\n      dup2\n      mstore\n      swap1\n      0x01\n      add\n      swap1\n      0x20\n      add\n      dup1\n      dup4\n      gt\n      tag_85\n      jumpi\n      dup3\n      swap1\n      sub\n      0x1f\n      and\n      dup3\n      add\n      swap2\n    tag_83:\n      pop\n      pop\n      pop\n      pop\n      pop\n      swap1\n      pop\n        /* \"ERC20.sol\":2181:2281  function name() public view virtual override returns (string memory) {... */\n      swap1\n      jump\t// out\n        /* \"ERC20.sol\":4348:4517  function approve(address spender, uint256 amount) public virtual override returns (bool) {... */\n    tag_27:\n        /* \"ERC20.sol\":4431:4435  bool */\n      0x00\n        /* \"ERC20.sol\":4448:4487  _approve(_msgSender(), spender, amount) */\n      tag_87\n        /* \"ERC20.sol\":4457:4469  _msgSender() */\n      tag_88\n        /* \"ERC20.sol\":4457:4467  _msgSender */\n      tag_89\n        /* \"ERC20.sol\":4457:4469  _msgSender() */\n      jump\t// in\n    tag_88:\n        /* \"ERC20.sol\":4471:4478  spender */\n      dup5\n        /* \"ERC20.sol\":4480:4486  amount */\n      dup5\n        /* \"ERC20.sol\":4448:4456  _approve */\n      tag_90\n        /* \"ERC20.sol\":4448:4487  _approve(_msgSender(), spender, amount) */\n      jump\t// in\n    tag_87:\n        /* \"ERC20.sol\":4505:4509  true */\n      0x01\n        /* \"ERC20.sol\":4498:4509  return true */\n      swap1\n      pop\n        /* \"ERC20.sol\":4348:4517  function approve(address spender, uint256 amount) public virtual override returns (bool) {... */\n      swap3\n      swap2\n      pop\n      pop\n      jump\t// out\n        /* \"ERC20.sol\":3301:3409  function totalSupply() public view virtual override returns (uint256) {... */\n    tag_31:\n        /* \"ERC20.sol\":3362:3369  uint256 */\n      0x00\n        /* \"ERC20.sol\":3389:3401  _totalSupply */\n      sload(0x02)\n        /* \"ERC20.sol\":3382:3401  return _totalSupply */\n      swap1\n      pop\n        /* \"ERC20.sol\":3301:3409  function totalSupply() public view virtual override returns (uint256) {... */\n      swap1\n      jump\t// out\n        /* \"ERC20.sol\":4999:5491  function transferFrom(... */\n    tag_37:\n        /* \"ERC20.sol\":5139:5143  bool */\n      0x00\n        /* \"ERC20.sol\":5156:5192  _transfer(sender, recipient, amount) */\n      tag_93\n        /* \"ERC20.sol\":5166:5172  sender */\n      dup5\n        /* \"ERC20.sol\":5174:5183  recipient */\n      dup5\n        /* \"ERC20.sol\":5185:5191  amount */\n      dup5\n        /* \"ERC20.sol\":5156:5165  _transfer */\n      tag_94\n        /* \"ERC20.sol\":5156:5192  _transfer(sender, recipient, amount) */\n      jump\t// in\n    tag_93:\n        /* \"ERC20.sol\":5205:5229  uint256 currentAllowance */\n      0x00\n        /* \"ERC20.sol\":5232:5243  _allowances */\n      0x01\n        /* \"ERC20.sol\":5232:5251  _allowances[sender] */\n      0x00\n        /* \"ERC20.sol\":5244:5250  sender */\n      dup7\n        /* \"ERC20.sol\":5232:5251  _allowances[sender] */\n      0xffffffffffffffffffffffffffffffffffffffff\n      and\n      0xffffffffffffffffffffffffffffffffffffffff\n      and\n      dup2\n      mstore\n      0x20\n      add\n      swap1\n      dup2\n      mstore\n      0x20\n      add\n      0x00\n      keccak256\n        /* \"ERC20.sol\":5232:5265  _allowances[sender][_msgSender()] */\n      0x00\n        /* \"ERC20.sol\":5252:5264  _msgSender() */\n      tag_95\n        /* \"ERC20.sol\":5252:5262  _msgSender */\n      tag_89\n        /* \"ERC20.sol\":5252:5264  _msgSender() */\n      jump\t// in\n    tag_95:\n        /* \"ERC20.sol\":5232:5265  _allowances[sender][_msgSender()] */\n      0xffffffffffffffffffffffffffffffffffffffff\n      and\n      0xffffffffffffffffffffffffffffffffffffffff\n      and\n      dup2\n      mstore\n      0x20\n      add\n      swap1\n      dup2\n      mstore\n      0x20\n      add\n      0x00\n      keccak256\n      sload\n        /* \"ERC20.sol\":5205:5265  uint256 currentAllowance = _allowances[sender][_msgSender()] */\n      swap1\n      pop\n        /* \"ERC20.sol\":5304:5310  amount */\n      dup3\n        /* \"ERC20.sol\":5284:5300  currentAllowance */\n      dup2\n        /* \"ERC20.sol\":5284:5310  currentAllowance >= amount */\n      lt\n      iszero\n        /* \"ERC20.sol\":5276:5355  require(currentAllowance >= amount, \"ERC20: transfer amount exceeds allowance\") */\n      tag_96\n      jumpi\n      mload(0x40)\n      0x08c379a000000000000000000000000000000000000000000000000000000000\n      dup2\n      mstore\n      0x04\n      add\n      tag_97\n      swap1\n      tag_98\n      jump\t// in\n    tag_97:\n      mload(0x40)\n      dup1\n      swap2\n      sub\n      swap1\n      revert\n    tag_96:\n        /* \"ERC20.sol\":5391:5448  _approve(sender, _msgSender(), currentAllowance - amount) */\n      tag_99\n        /* \"ERC20.sol\":5400:5406  sender */\n      dup6\n        /* \"ERC20.sol\":5408:5420  _msgSender() */\n      tag_100\n        /* \"ERC20.sol\":5408:5418  _msgSender */\n      tag_89\n        /* \"ERC20.sol\":5408:5420  _msgSender() */\n      jump\t// in\n    tag_100:\n        /* \"ERC20.sol\":5441:5447  amount */\n      dup6\n        /* \"ERC20.sol\":5422:5438  currentAllowance */\n      dup5\n        /* \"ERC20.sol\":5422:5447  currentAllowance - amount */\n      sub\n        /* \"ERC20.sol\":5391:5399  _approve */\n      tag_90\n        /* \"ERC20.sol\":5391:5448  _approve(sender, _msgSender(), currentAllowance - amount) */\n      jump\t// in\n    tag_99:\n        /* \"ERC20.sol\":5479:5483  true */\n      0x01\n        /* \"ERC20.sol\":5472:5483  return true */\n      swap2\n      pop\n      pop\n        /* \"ERC20.sol\":4999:5491  function transferFrom(... */\n      swap4\n      swap3\n      pop\n      pop\n      pop\n      jump\t// out\n        /* \"ERC20.sol\":3143:3236  function decimals() public view virtual override returns (uint8) {... */\n    tag_40:\n        /* \"ERC20.sol\":3201:3206  uint8 */\n      0x00\n        /* \"ERC20.sol\":3226:3228  18 */\n      0x12\n        /* \"ERC20.sol\":3219:3228  return 18 */\n      swap1\n      pop\n        /* \"ERC20.sol\":3143:3236  function decimals() public view virtual override returns (uint8) {... */\n      swap1\n      jump\t// out\n        /* \"ERC20.sol\":5900:6115  function increaseAllowance(address spender, uint256 addedValue) public virtual returns (bool) {... */\n    tag_45:\n        /* \"ERC20.sol\":5988:5992  bool */\n      0x00\n        /* \"ERC20.sol\":6005:6085  _approve(_msgSender(), spender, _allowances[_msgSender()][spender] + addedValue) */\n      tag_103\n        /* \"ERC20.sol\":6014:6026  _msgSender() */\n      tag_104\n        /* \"ERC20.sol\":6014:6024  _msgSender */\n      tag_89\n        /* \"ERC20.sol\":6014:6026  _msgSender() */\n      jump\t// in\n    tag_104:\n        /* \"ERC20.sol\":6028:6035  spender */\n      dup5\n        /* \"ERC20.sol\":6074:6084  addedValue */\n      dup5\n        /* \"ERC20.sol\":6037:6048  _allowances */\n      0x01\n        /* \"ERC20.sol\":6037:6062  _allowances[_msgSender()] */\n      0x00\n        /* \"ERC20.sol\":6049:6061  _msgSender() */\n      tag_105\n        /* \"ERC20.sol\":6049:6059  _msgSender */\n      tag_89\n        /* \"ERC20.sol\":6049:6061  _msgSender() */\n      jump\t// in\n    tag_105:\n        /* \"ERC20.sol\":6037:6062  _allowances[_msgSender()] */\n      0xffffffffffffffffffffffffffffffffffffffff\n      and\n      0xffffffffffffffffffffffffffffffffffffffff\n      and\n      dup2\n      mstore\n      0x20\n      add\n      swap1\n      dup2\n      mstore\n      0x20\n      add\n      0x00\n      keccak256\n        /* \"ERC20.sol\":6037:6071  _allowances[_msgSender()][spender] */\n      0x00\n        /* \"ERC20.sol\":6063:6070  spender */\n      dup9\n        /* \"ERC20.sol\":6037:6071  _allowances[_msgSender()][spender] */\n      0xffffffffffffffffffffffffffffffffffffffff\n      and\n      0xffffffffffffffffffffffffffffffffffffffff\n      and\n      dup2\n      mstore\n      0x20\n      add\n      swap1\n      dup2\n      mstore\n      0x20\n      add\n      0x00\n      keccak256\n      sload\n        /* \"ERC20.sol\":6037:6084  _allowances[_msgSender()][spender] + addedValue */\n      tag_106\n      swap2\n      swap1\n      tag_107\n      jump\t// in\n    tag_106:\n        /* \"ERC20.sol\":6005:6013  _approve */\n      tag_90\n        /* \"ERC20.sol\":6005:6085  _approve(_msgSender(), spender, _allowances[_msgSender()][spender] + addedValue) */\n      jump\t// in\n    tag_103:\n        /* \"ERC20.sol\":6103:6107  true */\n      0x01\n        /* \"ERC20.sol\":6096:6107  return true */\n      swap1\n      pop\n        /* \"ERC20.sol\":5900:6115  function increaseAllowance(address spender, uint256 addedValue) public virtual returns (bool) {... */\n      swap3\n      swap2\n      pop\n      pop\n      jump\t// out\n        /* \"EPARS.sol\":281:432  function mint(address to, uint256 amount) external {... */\n    tag_49:\n        /* \"EPARS.sol\":365:370  owner */\n      0x05\n      0x00\n      swap1\n      sload\n      swap1\n      0x0100\n      exp\n      swap1\n      div\n      0xffffffffffffffffffffffffffffffffffffffff\n      and\n        /* \"EPARS.sol\":351:370  msg.sender == owner */\n      0xffffffffffffffffffffffffffffffffffffffff\n      and\n        /* \"EPARS.sol\":351:361  msg.sender */\n      caller\n        /* \"EPARS.sol\":351:370  msg.sender == owner */\n      0xffffffffffffffffffffffffffffffffffffffff\n      and\n      eq\n        /* \"EPARS.sol\":343:396  require(msg.sender == owner, \"Only owner can mint !\") */\n      tag_109\n      jumpi\n      mload(0x40)\n      0x08c379a000000000000000000000000000000000000000000000000000000000\n      dup2\n      mstore\n      0x04\n      add\n      tag_110\n      swap1\n      tag_111\n      jump\t// in\n    tag_110:\n      mload(0x40)\n      dup1\n      swap2\n      sub\n      swap1\n      revert\n    tag_109:\n        /* \"EPARS.sol\":407:424  _mint(to, amount) */\n      tag_112\n        /* \"EPARS.sol\":413:415  to */\n      dup3\n        /* \"EPARS.sol\":417:423  amount */\n      dup3\n        /* \"EPARS.sol\":407:412  _mint */\n      tag_113\n        /* \"EPARS.sol\":407:424  _mint(to, amount) */\n      jump\t// in\n    tag_112:\n        /* \"EPARS.sol\":281:432  function mint(address to, uint256 amount) external {... */\n      pop\n      pop\n      jump\t// out\n        /* \"EPARS.sol\":440:523  function burn(uint256 amount) external {... */\n    tag_53:\n        /* \"EPARS.sol\":490:515  _burn(msg.sender, amount) */\n      tag_115\n        /* \"EPARS.sol\":496:506  msg.sender */\n      caller\n        /* \"EPARS.sol\":508:514  amount */\n      dup3\n        /* \"EPARS.sol\":490:495  _burn */\n      tag_116\n        /* \"EPARS.sol\":490:515  _burn(msg.sender, amount) */\n      jump\t// in\n    tag_115:\n        /* \"EPARS.sol\":440:523  function burn(uint256 amount) external {... */\n      pop\n      jump\t// out\n        /* \"ERC20.sol\":3472:3599  function balanceOf(address account) public view virtual override returns (uint256) {... */\n    tag_57:\n        /* \"ERC20.sol\":3546:3553  uint256 */\n      0x00\n        /* \"ERC20.sol\":3573:3582  _balances */\n      dup1\n        /* \"ERC20.sol\":3573:3591  _balances[account] */\n      0x00\n        /* \"ERC20.sol\":3583:3590  account */\n      dup4\n        /* \"ERC20.sol\":3573:3591  _balances[account] */\n      0xffffffffffffffffffffffffffffffffffffffff\n      and\n      0xffffffffffffffffffffffffffffffffffffffff\n      and\n      dup2\n      mstore\n      0x20\n      add\n      swap1\n      dup2\n      mstore\n      0x20\n      add\n      0x00\n      keccak256\n      sload\n        /* \"ERC20.sol\":3566:3591  return _balances[account] */\n      swap1\n      pop\n        /* \"ERC20.sol\":3472:3599  function balanceOf(address account) public view virtual override returns (uint256) {... */\n      swap2\n      swap1\n      pop\n      jump\t// out\n        /* \"EPARS.sol\":122:142  address public owner */\n    tag_60:\n      0x05\n      0x00\n      swap1\n      sload\n      swap1\n      0x0100\n      exp\n      swap1\n      div\n      0xffffffffffffffffffffffffffffffffffffffff\n      and\n      dup2\n      jump\t// out\n        /* \"ERC20.sol\":2400:2504  function symbol() public view virtual override returns (string memory) {... */\n    tag_64:\n        /* \"ERC20.sol\":2456:2469  string memory */\n      0x60\n        /* \"ERC20.sol\":2489:2496  _symbol */\n      0x04\n        /* \"ERC20.sol\":2482:2496  return _symbol */\n      dup1\n      sload\n      tag_119\n      swap1\n      tag_81\n      jump\t// in\n    tag_119:\n      dup1\n      0x1f\n      add\n      0x20\n      dup1\n      swap2\n      div\n      mul\n      0x20\n      add\n      mload(0x40)\n      swap1\n      dup2\n      add\n      0x40\n      mstore\n      dup1\n      swap3\n      swap2\n      swap1\n      dup2\n      dup2\n      mstore\n      0x20\n      add\n      dup3\n      dup1\n      sload\n      tag_120\n      swap1\n      tag_81\n      jump\t// in\n    tag_120:\n      dup1\n      iszero\n      tag_121\n      jumpi\n      dup1\n      0x1f\n      lt\n      tag_122\n      jumpi\n      0x0100\n      dup1\n      dup4\n      sload\n      div\n      mul\n      dup4\n      mstore\n      swap2\n      0x20\n      add\n      swap2\n      jump(tag_121)\n    tag_122:\n      dup3\n      add\n      swap2\n      swap1\n      0x00\n      mstore\n      keccak256(0x00, 0x20)\n      swap1\n    tag_123:\n      dup2\n      sload\n      dup2\n      mstore\n      swap1\n      0x01\n      add\n      swap1\n      0x20\n      add\n      dup1\n      dup4\n      gt\n      tag_123\n      jumpi\n      dup3\n      swap1\n      sub\n      0x1f\n      and\n      dup3\n      add\n      swap2\n    tag_121:\n      pop\n      pop\n      pop\n      pop\n      pop\n      swap1\n      pop\n        /* \"ERC20.sol\":2400:2504  function symbol() public view virtual override returns (string memory) {... */\n      swap1\n      jump\t// out\n        /* \"ERC20.sol\":6618:7031  function decreaseAllowance(address spender, uint256 subtractedValue) public virtual returns (bool) {... */\n    tag_68:\n        /* \"ERC20.sol\":6711:6715  bool */\n      0x00\n        /* \"ERC20.sol\":6728:6752  uint256 currentAllowance */\n      dup1\n        /* \"ERC20.sol\":6755:6766  _allowances */\n      0x01\n        /* \"ERC20.sol\":6755:6780  _allowances[_msgSender()] */\n      0x00\n        /* \"ERC20.sol\":6767:6779  _msgSender() */\n      tag_125\n        /* \"ERC20.sol\":6767:6777  _msgSender */\n      tag_89\n        /* \"ERC20.sol\":6767:6779  _msgSender() */\n      jump\t// in\n    tag_125:\n        /* \"ERC20.sol\":6755:6780  _allowances[_msgSender()] */\n      0xffffffffffffffffffffffffffffffffffffffff\n      and\n      0xffffffffffffffffffffffffffffffffffffffff\n      and\n      dup2\n      mstore\n      0x20\n      add\n      swap1\n      dup2\n      mstore\n      0x20\n      add\n      0x00\n      keccak256\n        /* \"ERC20.sol\":6755:6789  _allowances[_msgSender()][spender] */\n      0x00\n        /* \"ERC20.sol\":6781:6788  spender */\n      dup6\n        /* \"ERC20.sol\":6755:6789  _allowances[_msgSender()][spender] */\n      0xffffffffffffffffffffffffffffffffffffffff\n      and\n      0xffffffffffffffffffffffffffffffffffffffff\n      and\n      dup2\n      mstore\n      0x20\n      add\n      swap1\n      dup2\n      mstore\n      0x20\n      add\n      0x00\n      keccak256\n      sload\n        /* \"ERC20.sol\":6728:6789  uint256 currentAllowance = _allowances[_msgSender()][spender] */\n      swap1\n      pop\n        /* \"ERC20.sol\":6828:6843  subtractedValue */\n      dup3\n        /* \"ERC20.sol\":6808:6824  currentAllowance */\n      dup2\n        /* \"ERC20.sol\":6808:6843  currentAllowance >= subtractedValue */\n      lt\n      iszero\n        /* \"ERC20.sol\":6800:6885  require(currentAllowance >= subtractedValue, \"ERC20: decreased allowance below zero\") */\n      tag_126\n      jumpi\n      mload(0x40)\n      0x08c379a000000000000000000000000000000000000000000000000000000000\n      dup2\n      mstore\n      0x04\n      add\n      tag_127\n      swap1\n      tag_128\n      jump\t// in\n    tag_127:\n      mload(0x40)\n      dup1\n      swap2\n      sub\n      swap1\n      revert\n    tag_126:\n        /* \"ERC20.sol\":6921:6988  _approve(_msgSender(), spender, currentAllowance - subtractedValue) */\n      tag_129\n        /* \"ERC20.sol\":6930:6942  _msgSender() */\n      tag_130\n        /* \"ERC20.sol\":6930:6940  _msgSender */\n      tag_89\n        /* \"ERC20.sol\":6930:6942  _msgSender() */\n      jump\t// in\n    tag_130:\n        /* \"ERC20.sol\":6944:6951  spender */\n      dup6\n        /* \"ERC20.sol\":6972:6987  subtractedValue */\n      dup6\n        /* \"ERC20.sol\":6953:6969  currentAllowance */\n      dup5\n        /* \"ERC20.sol\":6953:6987  currentAllowance - subtractedValue */\n      sub\n        /* \"ERC20.sol\":6921:6929  _approve */\n      tag_90\n        /* \"ERC20.sol\":6921:6988  _approve(_msgSender(), spender, currentAllowance - subtractedValue) */\n      jump\t// in\n    tag_129:\n        /* \"ERC20.sol\":7019:7023  true */\n      0x01\n        /* \"ERC20.sol\":7012:7023  return true */\n      swap2\n      pop\n      pop\n        /* \"ERC20.sol\":6618:7031  function decreaseAllowance(address spender, uint256 subtractedValue) public virtual returns (bool) {... */\n      swap3\n      swap2\n      pop\n      pop\n      jump\t// out\n        /* \"EPARS.sol\":531:721  function transfer(address _to, uint256 _amount)... */\n    tag_72:\n        /* \"EPARS.sol\":631:643  bool success */\n      0x00\n        /* \"EPARS.sol\":661:691  _transfer(owner, _to, _amount) */\n      tag_132\n        /* \"EPARS.sol\":671:676  owner */\n      0x05\n      0x00\n      swap1\n      sload\n      swap1\n      0x0100\n      exp\n      swap1\n      div\n      0xffffffffffffffffffffffffffffffffffffffff\n      and\n        /* \"EPARS.sol\":678:681  _to */\n      dup5\n        /* \"EPARS.sol\":683:690  _amount */\n      dup5\n        /* \"EPARS.sol\":661:670  _transfer */\n      tag_94\n        /* \"EPARS.sol\":661:691  _transfer(owner, _to, _amount) */\n      jump\t// in\n    tag_132:\n        /* \"EPARS.sol\":709:713  true */\n      0x01\n        /* \"EPARS.sol\":702:713  return true */\n      swap1\n      pop\n        /* \"EPARS.sol\":531:721  function transfer(address _to, uint256 _amount)... */\n      swap3\n      swap2\n      pop\n      pop\n      jump\t// out\n        /* \"ERC20.sol\":4050:4201  function allowance(address owner, address spender) public view virtual override returns (uint256) {... */\n    tag_77:\n        /* \"ERC20.sol\":4139:4146  uint256 */\n      0x00\n        /* \"ERC20.sol\":4166:4177  _allowances */\n      0x01\n        /* \"ERC20.sol\":4166:4184  _allowances[owner] */\n      0x00\n        /* \"ERC20.sol\":4178:4183  owner */\n      dup5\n        /* \"ERC20.sol\":4166:4184  _allowances[owner] */\n      0xffffffffffffffffffffffffffffffffffffffff\n      and\n      0xffffffffffffffffffffffffffffffffffffffff\n      and\n      dup2\n      mstore\n      0x20\n      add\n      swap1\n      dup2\n      mstore\n      0x20\n      add\n      0x00\n      keccak256\n        /* \"ERC20.sol\":4166:4193  _allowances[owner][spender] */\n      0x00\n        /* \"ERC20.sol\":4185:4192  spender */\n      dup4\n        /* \"ERC20.sol\":4166:4193  _allowances[owner][spender] */\n      0xffffffffffffffffffffffffffffffffffffffff\n      and\n      0xffffffffffffffffffffffffffffffffffffffff\n      and\n      dup2\n      mstore\n      0x20\n      add\n      swap1\n      dup2\n      mstore\n      0x20\n      add\n      0x00\n      keccak256\n      sload\n        /* \"ERC20.sol\":4159:4193  return _allowances[owner][spender] */\n      swap1\n      pop\n        /* \"ERC20.sol\":4050:4201  function allowance(address owner, address spender) public view virtual override returns (uint256) {... */\n      swap3\n      swap2\n      pop\n      pop\n      jump\t// out\n        /* \"Context.sol\":95:193  function _msgSender() internal view virtual returns (address) {... */\n    tag_89:\n        /* \"Context.sol\":148:155  address */\n      0x00\n        /* \"Context.sol\":175:185  msg.sender */\n      caller\n        /* \"Context.sol\":168:185  return msg.sender */\n      swap1\n      pop\n        /* \"Context.sol\":95:193  function _msgSender() internal view virtual returns (address) {... */\n      swap1\n      jump\t// out\n        /* \"ERC20.sol\":10302:10682  function _approve(... */\n    tag_90:\n        /* \"ERC20.sol\":10455:10456  0 */\n      0x00\n        /* \"ERC20.sol\":10438:10457  owner != address(0) */\n      0xffffffffffffffffffffffffffffffffffffffff\n      and\n        /* \"ERC20.sol\":10438:10443  owner */\n      dup4\n        /* \"ERC20.sol\":10438:10457  owner != address(0) */\n      0xffffffffffffffffffffffffffffffffffffffff\n      and\n      sub\n        /* \"ERC20.sol\":10430:10498  require(owner != address(0), \"ERC20: approve from the zero address\") */\n      tag_136\n      jumpi\n      mload(0x40)\n      0x08c379a000000000000000000000000000000000000000000000000000000000\n      dup2\n      mstore\n      0x04\n      add\n      tag_137\n      swap1\n      tag_138\n      jump\t// in\n    tag_137:\n      mload(0x40)\n      dup1\n      swap2\n      sub\n      swap1\n      revert\n    tag_136:\n        /* \"ERC20.sol\":10536:10537  0 */\n      0x00\n        /* \"ERC20.sol\":10517:10538  spender != address(0) */\n      0xffffffffffffffffffffffffffffffffffffffff\n      and\n        /* \"ERC20.sol\":10517:10524  spender */\n      dup3\n        /* \"ERC20.sol\":10517:10538  spender != address(0) */\n      0xffffffffffffffffffffffffffffffffffffffff\n      and\n      sub\n        /* \"ERC20.sol\":10509:10577  require(spender != address(0), \"ERC20: approve to the zero address\") */\n      tag_139\n      jumpi\n      mload(0x40)\n      0x08c379a000000000000000000000000000000000000000000000000000000000\n      dup2\n      mstore\n      0x04\n      add\n      tag_140\n      swap1\n      tag_141\n      jump\t// in\n    tag_140:\n      mload(0x40)\n      dup1\n      swap2\n      sub\n      swap1\n      revert\n    tag_139:\n        /* \"ERC20.sol\":10620:10626  amount */\n      dup1\n        /* \"ERC20.sol\":10590:10601  _allowances */\n      0x01\n        /* \"ERC20.sol\":10590:10608  _allowances[owner] */\n      0x00\n        /* \"ERC20.sol\":10602:10607  owner */\n      dup6\n        /* \"ERC20.sol\":10590:10608  _allowances[owner] */\n      0xffffffffffffffffffffffffffffffffffffffff\n      and\n      0xffffffffffffffffffffffffffffffffffffffff\n      and\n      dup2\n      mstore\n      0x20\n      add\n      swap1\n      dup2\n      mstore\n      0x20\n      add\n      0x00\n      keccak256\n        /* \"ERC20.sol\":10590:10617  _allowances[owner][spender] */\n      0x00\n        /* \"ERC20.sol\":10609:10616  spender */\n      dup5\n        /* \"ERC20.sol\":10590:10617  _allowances[owner][spender] */\n      0xffffffffffffffffffffffffffffffffffffffff\n      and\n      0xffffffffffffffffffffffffffffffffffffffff\n      and\n      dup2\n      mstore\n      0x20\n      add\n      swap1\n      dup2\n      mstore\n      0x20\n      add\n      0x00\n      keccak256\n        /* \"ERC20.sol\":10590:10626  _allowances[owner][spender] = amount */\n      dup2\n      swap1\n      sstore\n      pop\n        /* \"ERC20.sol\":10658:10665  spender */\n      dup2\n        /* \"ERC20.sol\":10642:10674  Approval(owner, spender, amount) */\n      0xffffffffffffffffffffffffffffffffffffffff\n      and\n        /* \"ERC20.sol\":10651:10656  owner */\n      dup4\n        /* \"ERC20.sol\":10642:10674  Approval(owner, spender, amount) */\n      0xffffffffffffffffffffffffffffffffffffffff\n      and\n      0x8c5be1e5ebec7d5bd14f71427d1e84f3dd0314c0f7b2291e5b200ac8c7c3b925\n        /* \"ERC20.sol\":10667:10673  amount */\n      dup4\n        /* \"ERC20.sol\":10642:10674  Approval(owner, spender, amount) */\n      mload(0x40)\n      tag_142\n      swap2\n      swap1\n      tag_33\n      jump\t// in\n    tag_142:\n      mload(0x40)\n      dup1\n      swap2\n      sub\n      swap1\n      log3\n        /* \"ERC20.sol\":10302:10682  function _approve(... */\n      pop\n      pop\n      pop\n      jump\t// out\n        /* \"ERC20.sol\":7521:8254  function _transfer(... */\n    tag_94:\n        /* \"ERC20.sol\":7679:7680  0 */\n      0x00\n        /* \"ERC20.sol\":7661:7681  sender != address(0) */\n      0xffffffffffffffffffffffffffffffffffffffff\n      and\n        /* \"ERC20.sol\":7661:7667  sender */\n      dup4\n        /* \"ERC20.sol\":7661:7681  sender != address(0) */\n      0xffffffffffffffffffffffffffffffffffffffff\n      and\n      sub\n        /* \"ERC20.sol\":7653:7723  require(sender != address(0), \"ERC20: transfer from the zero address\") */\n      tag_144\n      jumpi\n      mload(0x40)\n      0x08c379a000000000000000000000000000000000000000000000000000000000\n      dup2\n      mstore\n      0x04\n      add\n      tag_145\n      swap1\n      tag_146\n      jump\t// in\n    tag_145:\n      mload(0x40)\n      dup1\n      swap2\n      sub\n      swap1\n      revert\n    tag_144:\n        /* \"ERC20.sol\":7763:7764  0 */\n      0x00\n        /* \"ERC20.sol\":7742:7765  recipient != address(0) */\n      0xffffffffffffffffffffffffffffffffffffffff\n      and\n        /* \"ERC20.sol\":7742:7751  recipient */\n      dup3\n        /* \"ERC20.sol\":7742:7765  recipient != address(0) */\n      0xffffffffffffffffffffffffffffffffffffffff\n      and\n      sub\n        /* \"ERC20.sol\":7734:7805  require(recipient != address(0), \"ERC20: transfer to the zero address\") */\n      tag_147\n      jumpi\n      mload(0x40)\n      0x08c379a000000000000000000000000000000000000000000000000000000000\n      dup2\n      mstore\n      0x04\n      add\n      tag_148\n      swap1\n      tag_149\n      jump\t// in\n    tag_148:\n      mload(0x40)\n      dup1\n      swap2\n      sub\n      swap1\n      revert\n    tag_147:\n        /* \"ERC20.sol\":7818:7865  _beforeTokenTransfer(sender, recipient, amount) */\n      tag_150\n        /* \"ERC20.sol\":7839:7845  sender */\n      dup4\n        /* \"ERC20.sol\":7847:7856  recipient */\n      dup4\n        /* \"ERC20.sol\":7858:7864  amount */\n      dup4\n        /* \"ERC20.sol\":7818:7838  _beforeTokenTransfer */\n      tag_151\n        /* \"ERC20.sol\":7818:7865  _beforeTokenTransfer(sender, recipient, amount) */\n      jump\t// in\n    tag_150:\n        /* \"ERC20.sol\":7878:7899  uint256 senderBalance */\n      0x00\n        /* \"ERC20.sol\":7902:7911  _balances */\n      dup1\n        /* \"ERC20.sol\":7902:7919  _balances[sender] */\n      0x00\n        /* \"ERC20.sol\":7912:7918  sender */\n      dup6\n        /* \"ERC20.sol\":7902:7919  _balances[sender] */\n      0xffffffffffffffffffffffffffffffffffffffff\n      and\n      0xffffffffffffffffffffffffffffffffffffffff\n      and\n      dup2\n      mstore\n      0x20\n      add\n      swap1\n      dup2\n      mstore\n      0x20\n      add\n      0x00\n      keccak256\n      sload\n        /* \"ERC20.sol\":7878:7919  uint256 senderBalance = _balances[sender] */\n      swap1\n      pop\n        /* \"ERC20.sol\":7955:7961  amount */\n      dup2\n        /* \"ERC20.sol\":7938:7951  senderBalance */\n      dup2\n        /* \"ERC20.sol\":7938:7961  senderBalance >= amount */\n      lt\n      iszero\n        /* \"ERC20.sol\":7930:8004  require(senderBalance >= amount, \"ERC20: transfer amount exceeds balance\") */\n      tag_152\n      jumpi\n      mload(0x40)\n      0x08c379a000000000000000000000000000000000000000000000000000000000\n      dup2\n      mstore\n      0x04\n      add\n      tag_153\n      swap1\n      tag_154\n      jump\t// in\n    tag_153:\n      mload(0x40)\n      dup1\n      swap2\n      sub\n      swap1\n      revert\n    tag_152:\n        /* \"ERC20.sol\":8076:8082  amount */\n      dup2\n        /* \"ERC20.sol\":8060:8073  senderBalance */\n      dup2\n        /* \"ERC20.sol\":8060:8082  senderBalance - amount */\n      sub\n        /* \"ERC20.sol\":8040:8049  _balances */\n      0x00\n        /* \"ERC20.sol\":8040:8057  _balances[sender] */\n      dup1\n        /* \"ERC20.sol\":8050:8056  sender */\n      dup7\n        /* \"ERC20.sol\":8040:8057  _balances[sender] */\n      0xffffffffffffffffffffffffffffffffffffffff\n      and\n      0xffffffffffffffffffffffffffffffffffffffff\n      and\n      dup2\n      mstore\n      0x20\n      add\n      swap1\n      dup2\n      mstore\n      0x20\n      add\n      0x00\n      keccak256\n        /* \"ERC20.sol\":8040:8082  _balances[sender] = senderBalance - amount */\n      dup2\n      swap1\n      sstore\n      pop\n        /* \"ERC20.sol\":8128:8134  amount */\n      dup2\n        /* \"ERC20.sol\":8104:8113  _balances */\n      0x00\n        /* \"ERC20.sol\":8104:8124  _balances[recipient] */\n      dup1\n        /* \"ERC20.sol\":8114:8123  recipient */\n      dup6\n        /* \"ERC20.sol\":8104:8124  _balances[recipient] */\n      0xffffffffffffffffffffffffffffffffffffffff\n      and\n      0xffffffffffffffffffffffffffffffffffffffff\n      and\n      dup2\n      mstore\n      0x20\n      add\n      swap1\n      dup2\n      mstore\n      0x20\n      add\n      0x00\n      keccak256\n      0x00\n        /* \"ERC20.sol\":8104:8134  _balances[recipient] += amount */\n      dup3\n      dup3\n      sload\n      tag_155\n      swap2\n      swap1\n      tag_107\n      jump\t// in\n    tag_155:\n      swap3\n      pop\n      pop\n      dup2\n      swap1\n      sstore\n      pop\n        /* \"ERC20.sol\":8169:8178  recipient */\n      dup3\n        /* \"ERC20.sol\":8152:8187  Transfer(sender, recipient, amount) */\n      0xffffffffffffffffffffffffffffffffffffffff\n      and\n        /* \"ERC20.sol\":8161:8167  sender */\n      dup5\n        /* \"ERC20.sol\":8152:8187  Transfer(sender, recipient, amount) */\n      0xffffffffffffffffffffffffffffffffffffffff\n      and\n      0xddf252ad1be2c89b69c2b068fc378daa952ba7f163c4a11628f55a4df523b3ef\n        /* \"ERC20.sol\":8180:8186  amount */\n      dup5\n        /* \"ERC20.sol\":8152:8187  Transfer(sender, recipient, amount) */\n      mload(0x40)\n      tag_156\n      swap2\n      swap1\n      tag_33\n      jump\t// in\n    tag_156:\n      mload(0x40)\n      dup1\n      swap2\n      sub\n      swap1\n      log3\n        /* \"ERC20.sol\":8200:8246  _afterTokenTransfer(sender, recipient, amount) */\n      tag_157\n        /* \"ERC20.sol\":8220:8226  sender */\n      dup5\n        /* \"ERC20.sol\":8228:8237  recipient */\n      dup5\n        /* \"ERC20.sol\":8239:8245  amount */\n      dup5\n        /* \"ERC20.sol\":8200:8219  _afterTokenTransfer */\n      tag_158\n        /* \"ERC20.sol\":8200:8246  _afterTokenTransfer(sender, recipient, amount) */\n      jump\t// in\n    tag_157:\n        /* \"ERC20.sol\":7642:8254  {... */\n      pop\n        /* \"ERC20.sol\":7521:8254  function _transfer(... */\n      pop\n      pop\n      pop\n      jump\t// out\n        /* \"ERC20.sol\":8541:8940  function _mint(address account, uint256 amount) internal virtual {... */\n    tag_113:\n        /* \"ERC20.sol\":8644:8645  0 */\n      0x00\n        /* \"ERC20.sol\":8625:8646  account != address(0) */\n      0xffffffffffffffffffffffffffffffffffffffff\n      and\n        /* \"ERC20.sol\":8625:8632  account */\n      dup3\n        /* \"ERC20.sol\":8625:8646  account != address(0) */\n      0xffffffffffffffffffffffffffffffffffffffff\n      and\n      sub\n        /* \"ERC20.sol\":8617:8682  require(account != address(0), \"ERC20: mint to the zero address\") */\n      tag_160\n      jumpi\n      mload(0x40)\n      0x08c379a000000000000000000000000000000000000000000000000000000000\n      dup2\n      mstore\n      0x04\n      add\n      tag_161\n      swap1\n      tag_162\n      jump\t// in\n    tag_161:\n      mload(0x40)\n      dup1\n      swap2\n      sub\n      swap1\n      revert\n    tag_160:\n        /* \"ERC20.sol\":8695:8744  _beforeTokenTransfer(address(0), account, amount) */\n      tag_163\n        /* \"ERC20.sol\":8724:8725  0 */\n      0x00\n        /* \"ERC20.sol\":8728:8735  account */\n      dup4\n        /* \"ERC20.sol\":8737:8743  amount */\n      dup4\n        /* \"ERC20.sol\":8695:8715  _beforeTokenTransfer */\n      tag_151\n        /* \"ERC20.sol\":8695:8744  _beforeTokenTransfer(address(0), account, amount) */\n      jump\t// in\n    tag_163:\n        /* \"ERC20.sol\":8773:8779  amount */\n      dup1\n        /* \"ERC20.sol\":8757:8769  _totalSupply */\n      0x02\n      0x00\n        /* \"ERC20.sol\":8757:8779  _totalSupply += amount */\n      dup3\n      dup3\n      sload\n      tag_164\n      swap2\n      swap1\n      tag_107\n      jump\t// in\n    tag_164:\n      swap3\n      pop\n      pop\n      dup2\n      swap1\n      sstore\n      pop\n        /* \"ERC20.sol\":8812:8818  amount */\n      dup1\n        /* \"ERC20.sol\":8790:8799  _balances */\n      0x00\n        /* \"ERC20.sol\":8790:8808  _balances[account] */\n      dup1\n        /* \"ERC20.sol\":8800:8807  account */\n      dup5\n        /* \"ERC20.sol\":8790:8808  _balances[account] */\n      0xffffffffffffffffffffffffffffffffffffffff\n      and\n      0xffffffffffffffffffffffffffffffffffffffff\n      and\n      dup2\n      mstore\n      0x20\n      add\n      swap1\n      dup2\n      mstore\n      0x20\n      add\n      0x00\n      keccak256\n      0x00\n        /* \"ERC20.sol\":8790:8818  _balances[account] += amount */\n      dup3\n      dup3\n      sload\n      tag_165\n      swap2\n      swap1\n      tag_107\n      jump\t// in\n    tag_165:\n      swap3\n      pop\n      pop\n      dup2\n      swap1\n      sstore\n      pop\n        /* \"ERC20.sol\":8855:8862  account */\n      dup2\n        /* \"ERC20.sol\":8834:8871  Transfer(address(0), account, amount) */\n      0xffffffffffffffffffffffffffffffffffffffff\n      and\n        /* \"ERC20.sol\":8851:8852  0 */\n      0x00\n        /* \"ERC20.sol\":8834:8871  Transfer(address(0), account, amount) */\n      0xffffffffffffffffffffffffffffffffffffffff\n      and\n      0xddf252ad1be2c89b69c2b068fc378daa952ba7f163c4a11628f55a4df523b3ef\n        /* \"ERC20.sol\":8864:8870  amount */\n      dup4\n        /* \"ERC20.sol\":8834:8871  Transfer(address(0), account, amount) */\n      mload(0x40)\n      tag_166\n      swap2\n      swap1\n      tag_33\n      jump\t// in\n    tag_166:\n      mload(0x40)\n      dup1\n      swap2\n      sub\n      swap1\n      log3\n        /* \"ERC20.sol\":8884:8932  _afterTokenTransfer(address(0), account, amount) */\n      tag_167\n        /* \"ERC20.sol\":8912:8913  0 */\n      0x00\n        /* \"ERC20.sol\":8916:8923  account */\n      dup4\n        /* \"ERC20.sol\":8925:8931  amount */\n      dup4\n        /* \"ERC20.sol\":8884:8903  _afterTokenTransfer */\n      tag_158\n        /* \"ERC20.sol\":8884:8932  _afterTokenTransfer(address(0), account, amount) */\n      jump\t// in\n    tag_167:\n        /* \"ERC20.sol\":8541:8940  function _mint(address account, uint256 amount) internal virtual {... */\n      pop\n      pop\n      jump\t// out\n        /* \"ERC20.sol\":9273:9864  function _burn(address account, uint256 amount) internal virtual {... */\n    tag_116:\n        /* \"ERC20.sol\":9376:9377  0 */\n      0x00\n        /* \"ERC20.sol\":9357:9378  account != address(0) */\n      0xffffffffffffffffffffffffffffffffffffffff\n      and\n        /* \"ERC20.sol\":9357:9364  account */\n      dup3\n        /* \"ERC20.sol\":9357:9378  account != address(0) */\n      0xffffffffffffffffffffffffffffffffffffffff\n      and\n      sub\n        /* \"ERC20.sol\":9349:9416  require(account != address(0), \"ERC20: burn from the zero address\") */\n      tag_169\n      jumpi\n      mload(0x40)\n      0x08c379a000000000000000000000000000000000000000000000000000000000\n      dup2\n      mstore\n      0x04\n      add\n      tag_170\n      swap1\n      tag_171\n      jump\t// in\n    tag_170:\n      mload(0x40)\n      dup1\n      swap2\n      sub\n      swap1\n      revert\n    tag_169:\n        /* \"ERC20.sol\":9429:9478  _beforeTokenTransfer(account, address(0), amount) */\n      tag_172\n        /* \"ERC20.sol\":9450:9457  account */\n      dup3\n        /* \"ERC20.sol\":9467:9468  0 */\n      0x00\n        /* \"ERC20.sol\":9471:9477  amount */\n      dup4\n        /* \"ERC20.sol\":9429:9449  _beforeTokenTransfer */\n      tag_151\n        /* \"ERC20.sol\":9429:9478  _beforeTokenTransfer(account, address(0), amount) */\n      jump\t// in\n    tag_172:\n        /* \"ERC20.sol\":9491:9513  uint256 accountBalance */\n      0x00\n        /* \"ERC20.sol\":9516:9525  _balances */\n      dup1\n        /* \"ERC20.sol\":9516:9534  _balances[account] */\n      0x00\n        /* \"ERC20.sol\":9526:9533  account */\n      dup5\n        /* \"ERC20.sol\":9516:9534  _balances[account] */\n      0xffffffffffffffffffffffffffffffffffffffff\n      and\n      0xffffffffffffffffffffffffffffffffffffffff\n      and\n      dup2\n      mstore\n      0x20\n      add\n      swap1\n      dup2\n      mstore\n      0x20\n      add\n      0x00\n      keccak256\n      sload\n        /* \"ERC20.sol\":9491:9534  uint256 accountBalance = _balances[account] */\n      swap1\n      pop\n        /* \"ERC20.sol\":9571:9577  amount */\n      dup2\n        /* \"ERC20.sol\":9553:9567  accountBalance */\n      dup2\n        /* \"ERC20.sol\":9553:9577  accountBalance >= amount */\n      lt\n      iszero\n        /* \"ERC20.sol\":9545:9616  require(accountBalance >= amount, \"ERC20: burn amount exceeds balance\") */\n      tag_173\n      jumpi\n      mload(0x40)\n      0x08c379a000000000000000000000000000000000000000000000000000000000\n      dup2\n      mstore\n      0x04\n      add\n      tag_174\n      swap1\n      tag_175\n      jump\t// in\n    tag_174:\n      mload(0x40)\n      dup1\n      swap2\n      sub\n      swap1\n      revert\n    tag_173:\n        /* \"ERC20.sol\":9690:9696  amount */\n      dup2\n        /* \"ERC20.sol\":9673:9687  accountBalance */\n      dup2\n        /* \"ERC20.sol\":9673:9696  accountBalance - amount */\n      sub\n        /* \"ERC20.sol\":9652:9661  _balances */\n      0x00\n        /* \"ERC20.sol\":9652:9670  _balances[account] */\n      dup1\n        /* \"ERC20.sol\":9662:9669  account */\n      dup6\n        /* \"ERC20.sol\":9652:9670  _balances[account] */\n      0xffffffffffffffffffffffffffffffffffffffff\n      and\n      0xffffffffffffffffffffffffffffffffffffffff\n      and\n      dup2\n      mstore\n      0x20\n      add\n      swap1\n      dup2\n      mstore\n      0x20\n      add\n      0x00\n      keccak256\n        /* \"ERC20.sol\":9652:9696  _balances[account] = accountBalance - amount */\n      dup2\n      swap1\n      sstore\n      pop\n        /* \"ERC20.sol\":9734:9740  amount */\n      dup2\n        /* \"ERC20.sol\":9718:9730  _totalSupply */\n      0x02\n      0x00\n        /* \"ERC20.sol\":9718:9740  _totalSupply -= amount */\n      dup3\n      dup3\n      sload\n      tag_176\n      swap2\n      swap1\n      tag_177\n      jump\t// in\n    tag_176:\n      swap3\n      pop\n      pop\n      dup2\n      swap1\n      sstore\n      pop\n        /* \"ERC20.sol\":9784:9785  0 */\n      0x00\n        /* \"ERC20.sol\":9758:9795  Transfer(account, address(0), amount) */\n      0xffffffffffffffffffffffffffffffffffffffff\n      and\n        /* \"ERC20.sol\":9767:9774  account */\n      dup4\n        /* \"ERC20.sol\":9758:9795  Transfer(account, address(0), amount) */\n      0xffffffffffffffffffffffffffffffffffffffff\n      and\n      0xddf252ad1be2c89b69c2b068fc378daa952ba7f163c4a11628f55a4df523b3ef\n        /* \"ERC20.sol\":9788:9794  amount */\n      dup5\n        /* \"ERC20.sol\":9758:9795  Transfer(account, address(0), amount) */\n      mload(0x40)\n      tag_178\n      swap2\n      swap1\n      tag_33\n      jump\t// in\n    tag_178:\n      mload(0x40)\n      dup1\n      swap2\n      sub\n      swap1\n      log3\n        /* \"ERC20.sol\":9808:9856  _afterTokenTransfer(account, address(0), amount) */\n      tag_179\n        /* \"ERC20.sol\":9828:9835  account */\n      dup4\n        /* \"ERC20.sol\":9845:9846  0 */\n      0x00\n        /* \"ERC20.sol\":9849:9855  amount */\n      dup5\n        /* \"ERC20.sol\":9808:9827  _afterTokenTransfer */\n      tag_158\n        /* \"ERC20.sol\":9808:9856  _afterTokenTransfer(account, address(0), amount) */\n      jump\t// in\n    tag_179:\n        /* \"ERC20.sol\":9338:9864  {... */\n      pop\n        /* \"ERC20.sol\":9273:9864  function _burn(address account, uint256 amount) internal virtual {... */\n      pop\n      pop\n      jump\t// out\n        /* \"ERC20.sol\":11282:11407  function _beforeTokenTransfer(... */\n    tag_151:\n      pop\n      pop\n      pop\n      jump\t// out\n        /* \"ERC20.sol\":12011:12135  function _afterTokenTransfer(... */\n    tag_158:\n      pop\n      pop\n      pop\n      jump\t// out\n        /* \"#utility.yul\":7:106   */\n    tag_182:\n        /* \"#utility.yul\":59:65   */\n      0x00\n        /* \"#utility.yul\":93:98   */\n      dup2\n        /* \"#utility.yul\":87:99   */\n      mload\n        /* \"#utility.yul\":77:99   */\n      swap1\n      pop\n        /* \"#utility.yul\":7:106   */\n      swap2\n      swap1\n      pop\n      jump\t// out\n        /* \"#utility.yul\":112:281   */\n    tag_183:\n        /* \"#utility.yul\":196:207   */\n      0x00\n        /* \"#utility.yul\":230:236   */\n      dup3\n        /* \"#utility.yul\":225:228   */\n      dup3\n        /* \"#utility.yul\":218:237   */\n      mstore\n        /* \"#utility.yul\":270:274   */\n      0x20\n        /* \"#utility.yul\":265:268   */\n      dup3\n        /* \"#utility.yul\":261:275   */\n      add\n        /* \"#utility.yul\":246:275   */\n      swap1\n      pop\n        /* \"#utility.yul\":112:281   */\n      swap3\n      swap2\n      pop\n      pop\n      jump\t// out\n        /* \"#utility.yul\":287:594   */\n    tag_184:\n        /* \"#utility.yul\":355:356   */\n      0x00\n        /* \"#utility.yul\":365:478   */\n    tag_231:\n        /* \"#utility.yul\":379:385   */\n      dup4\n        /* \"#utility.yul\":376:377   */\n      dup2\n        /* \"#utility.yul\":373:386   */\n      lt\n        /* \"#utility.yul\":365:478   */\n      iszero\n      tag_233\n      jumpi\n        /* \"#utility.yul\":464:465   */\n      dup1\n        /* \"#utility.yul\":459:462   */\n      dup3\n        /* \"#utility.yul\":455:466   */\n      add\n        /* \"#utility.yul\":449:467   */\n      mload\n        /* \"#utility.yul\":445:446   */\n      dup2\n        /* \"#utility.yul\":440:443   */\n      dup5\n        /* \"#utility.yul\":436:447   */\n      add\n        /* \"#utility.yul\":429:468   */\n      mstore\n        /* \"#utility.yul\":401:403   */\n      0x20\n        /* \"#utility.yul\":398:399   */\n      dup2\n        /* \"#utility.yul\":394:404   */\n      add\n        /* \"#utility.yul\":389:404   */\n      swap1\n      pop\n        /* \"#utility.yul\":365:478   */\n      jump(tag_231)\n    tag_233:\n        /* \"#utility.yul\":496:502   */\n      dup4\n        /* \"#utility.yul\":493:494   */\n      dup2\n        /* \"#utility.yul\":490:503   */\n      gt\n        /* \"#utility.yul\":487:588   */\n      iszero\n      tag_234\n      jumpi\n        /* \"#utility.yul\":576:577   */\n      0x00\n        /* \"#utility.yul\":567:573   */\n      dup5\n        /* \"#utility.yul\":562:565   */\n      dup5\n        /* \"#utility.yul\":558:574   */\n      add\n        /* \"#utility.yul\":551:578   */\n      mstore\n        /* \"#utility.yul\":487:588   */\n    tag_234:\n        /* \"#utility.yul\":336:594   */\n      pop\n        /* \"#utility.yul\":287:594   */\n      pop\n      pop\n      pop\n      jump\t// out\n        /* \"#utility.yul\":600:702   */\n    tag_185:\n        /* \"#utility.yul\":641:647   */\n      0x00\n        /* \"#utility.yul\":692:694   */\n      0x1f\n        /* \"#utility.yul\":688:695   */\n      not\n        /* \"#utility.yul\":683:685   */\n      0x1f\n        /* \"#utility.yul\":676:681   */\n      dup4\n        /* \"#utility.yul\":672:686   */\n      add\n        /* \"#utility.yul\":668:696   */\n      and\n        /* \"#utility.yul\":658:696   */\n      swap1\n      pop\n        /* \"#utility.yul\":600:702   */\n      swap2\n      swap1\n      pop\n      jump\t// out\n        /* \"#utility.yul\":708:1072   */\n    tag_186:\n        /* \"#utility.yul\":796:799   */\n      0x00\n        /* \"#utility.yul\":824:863   */\n      tag_237\n        /* \"#utility.yul\":857:862   */\n      dup3\n        /* \"#utility.yul\":824:863   */\n      tag_182\n      jump\t// in\n    tag_237:\n        /* \"#utility.yul\":879:950   */\n      tag_238\n        /* \"#utility.yul\":943:949   */\n      dup2\n        /* \"#utility.yul\":938:941   */\n      dup6\n        /* \"#utility.yul\":879:950   */\n      tag_183\n      jump\t// in\n    tag_238:\n        /* \"#utility.yul\":872:950   */\n      swap4\n      pop\n        /* \"#utility.yul\":959:1011   */\n      tag_239\n        /* \"#utility.yul\":1004:1010   */\n      dup2\n        /* \"#utility.yul\":999:1002   */\n      dup6\n        /* \"#utility.yul\":992:996   */\n      0x20\n        /* \"#utility.yul\":985:990   */\n      dup7\n        /* \"#utility.yul\":981:997   */\n      add\n        /* \"#utility.yul\":959:1011   */\n      tag_184\n      jump\t// in\n    tag_239:\n        /* \"#utility.yul\":1036:1065   */\n      tag_240\n        /* \"#utility.yul\":1058:1064   */\n      dup2\n        /* \"#utility.yul\":1036:1065   */\n      tag_185\n      jump\t// in\n    tag_240:\n        /* \"#utility.yul\":1031:1034   */\n      dup5\n        /* \"#utility.yul\":1027:1066   */\n      add\n        /* \"#utility.yul\":1020:1066   */\n      swap2\n      pop\n        /* \"#utility.yul\":800:1072   */\n      pop\n        /* \"#utility.yul\":708:1072   */\n      swap3\n      swap2\n      pop\n      pop\n      jump\t// out\n        /* \"#utility.yul\":1078:1391   */\n    tag_23:\n        /* \"#utility.yul\":1191:1195   */\n      0x00\n        /* \"#utility.yul\":1229:1231   */\n      0x20\n        /* \"#utility.yul\":1218:1227   */\n      dup3\n        /* \"#utility.yul\":1214:1232   */\n      add\n        /* \"#utility.yul\":1206:1232   */\n      swap1\n      pop\n        /* \"#utility.yul\":1278:1287   */\n      dup2\n        /* \"#utility.yul\":1272:1276   */\n      dup2\n        /* \"#utility.yul\":1268:1288   */\n      sub\n        /* \"#utility.yul\":1264:1265   */\n      0x00\n        /* \"#utility.yul\":1253:1262   */\n      dup4\n        /* \"#utility.yul\":1249:1266   */\n      add\n        /* \"#utility.yul\":1242:1289   */\n      mstore\n        /* \"#utility.yul\":1306:1384   */\n      tag_242\n        /* \"#utility.yul\":1379:1383   */\n      dup2\n        /* \"#utility.yul\":1370:1376   */\n      dup5\n        /* \"#utility.yul\":1306:1384   */\n      tag_186\n      jump\t// in\n    tag_242:\n        /* \"#utility.yul\":1298:1384   */\n      swap1\n      pop\n        /* \"#utility.yul\":1078:1391   */\n      swap3\n      swap2\n      pop\n      pop\n      jump\t// out\n        /* \"#utility.yul\":1478:1595   */\n    tag_188:\n        /* \"#utility.yul\":1587:1588   */\n      0x00\n        /* \"#utility.yul\":1584:1585   */\n      dup1\n        /* \"#utility.yul\":1577:1589   */\n      revert\n        /* \"#utility.yul\":1724:1850   */\n    tag_190:\n        /* \"#utility.yul\":1761:1768   */\n      0x00\n        /* \"#utility.yul\":1801:1843   */\n      0xffffffffffffffffffffffffffffffffffffffff\n        /* \"#utility.yul\":1794:1799   */\n      dup3\n        /* \"#utility.yul\":1790:1844   */\n      and\n        /* \"#utility.yul\":1779:1844   */\n      swap1\n      pop\n        /* \"#utility.yul\":1724:1850   */\n      swap2\n      swap1\n      pop\n      jump\t// out\n        /* \"#utility.yul\":1856:1952   */\n    tag_191:\n        /* \"#utility.yul\":1893:1900   */\n      0x00\n        /* \"#utility.yul\":1922:1946   */\n      tag_248\n        /* \"#utility.yul\":1940:1945   */\n      dup3\n        /* \"#utility.yul\":1922:1946   */\n      tag_190\n      jump\t// in\n    tag_248:\n        /* \"#utility.yul\":1911:1946   */\n      swap1\n      pop\n        /* \"#utility.yul\":1856:1952   */\n      swap2\n      swap1\n      pop\n      jump\t// out\n        /* \"#utility.yul\":1958:2080   */\n    tag_192:\n        /* \"#utility.yul\":2031:2055   */\n      tag_250\n        /* \"#utility.yul\":2049:2054   */\n      dup2\n        /* \"#utility.yul\":2031:2055   */\n      tag_191\n      jump\t// in\n    tag_250:\n        /* \"#utility.yul\":2024:2029   */\n      dup2\n        /* \"#utility.yul\":2021:2056   */\n      eq\n        /* \"#utility.yul\":2011:2074   */\n      tag_251\n      jumpi\n        /* \"#utility.yul\":2070:2071   */\n      0x00\n        /* \"#utility.yul\":2067:2068   */\n      dup1\n        /* \"#utility.yul\":2060:2072   */\n      revert\n        /* \"#utility.yul\":2011:2074   */\n    tag_251:\n        /* \"#utility.yul\":1958:2080   */\n      pop\n      jump\t// out\n        /* \"#utility.yul\":2086:2225   */\n    tag_193:\n        /* \"#utility.yul\":2132:2137   */\n      0x00\n        /* \"#utility.yul\":2170:2176   */\n      dup2\n        /* \"#utility.yul\":2157:2177   */\n      calldataload\n        /* \"#utility.yul\":2148:2177   */\n      swap1\n      pop\n        /* \"#utility.yul\":2186:2219   */\n      tag_253\n        /* \"#utility.yul\":2213:2218   */\n      dup2\n        /* \"#utility.yul\":2186:2219   */\n      tag_192\n      jump\t// in\n    tag_253:\n        /* \"#utility.yul\":2086:2225   */\n      swap3\n      swap2\n      pop\n      pop\n      jump\t// out\n        /* \"#utility.yul\":2231:2308   */\n    tag_194:\n        /* \"#utility.yul\":2268:2275   */\n      0x00\n        /* \"#utility.yul\":2297:2302   */\n      dup2\n        /* \"#utility.yul\":2286:2302   */\n      swap1\n      pop\n        /* \"#utility.yul\":2231:2308   */\n      swap2\n      swap1\n      pop\n      jump\t// out\n        /* \"#utility.yul\":2314:2436   */\n    tag_195:\n        /* \"#utility.yul\":2387:2411   */\n      tag_256\n        /* \"#utility.yul\":2405:2410   */\n      dup2\n        /* \"#utility.yul\":2387:2411   */\n      tag_194\n      jump\t// in\n    tag_256:\n        /* \"#utility.yul\":2380:2385   */\n      dup2\n        /* \"#utility.yul\":2377:2412   */\n      eq\n        /* \"#utility.yul\":2367:2430   */\n      tag_257\n      jumpi\n        /* \"#utility.yul\":2426:2427   */\n      0x00\n        /* \"#utility.yul\":2423:2424   */\n      dup1\n        /* \"#utility.yul\":2416:2428   */\n      revert\n        /* \"#utility.yul\":2367:2430   */\n    tag_257:\n        /* \"#utility.yul\":2314:2436   */\n      pop\n      jump\t// out\n        /* \"#utility.yul\":2442:2581   */\n    tag_196:\n        /* \"#utility.yul\":2488:2493   */\n      0x00\n        /* \"#utility.yul\":2526:2532   */\n      dup2\n        /* \"#utility.yul\":2513:2533   */\n      calldataload\n        /* \"#utility.yul\":2504:2533   */\n      swap1\n      pop\n        /* \"#utility.yul\":2542:2575   */\n      tag_259\n        /* \"#utility.yul\":2569:2574   */\n      dup2\n        /* \"#utility.yul\":2542:2575   */\n      tag_195\n      jump\t// in\n    tag_259:\n        /* \"#utility.yul\":2442:2581   */\n      swap3\n      swap2\n      pop\n      pop\n      jump\t// out\n        /* \"#utility.yul\":2587:3061   */\n    tag_26:\n        /* \"#utility.yul\":2655:2661   */\n      0x00\n        /* \"#utility.yul\":2663:2669   */\n      dup1\n        /* \"#utility.yul\":2712:2714   */\n      0x40\n        /* \"#utility.yul\":2700:2709   */\n      dup4\n        /* \"#utility.yul\":2691:2698   */\n      dup6\n        /* \"#utility.yul\":2687:2710   */\n      sub\n        /* \"#utility.yul\":2683:2715   */\n      slt\n        /* \"#utility.yul\":2680:2799   */\n      iszero\n      tag_261\n      jumpi\n        /* \"#utility.yul\":2718:2797   */\n      tag_262\n      tag_188\n      jump\t// in\n    tag_262:\n        /* \"#utility.yul\":2680:2799   */\n    tag_261:\n        /* \"#utility.yul\":2838:2839   */\n      0x00\n        /* \"#utility.yul\":2863:2916   */\n      tag_263\n        /* \"#utility.yul\":2908:2915   */\n      dup6\n        /* \"#utility.yul\":2899:2905   */\n      dup3\n        /* \"#utility.yul\":2888:2897   */\n      dup7\n        /* \"#utility.yul\":2884:2906   */\n      add\n        /* \"#utility.yul\":2863:2916   */\n      tag_193\n      jump\t// in\n    tag_263:\n        /* \"#utility.yul\":2853:2916   */\n      swap3\n      pop\n        /* \"#utility.yul\":2809:2926   */\n      pop\n        /* \"#utility.yul\":2965:2967   */\n      0x20\n        /* \"#utility.yul\":2991:3044   */\n      tag_264\n        /* \"#utility.yul\":3036:3043   */\n      dup6\n        /* \"#utility.yul\":3027:3033   */\n      dup3\n        /* \"#utility.yul\":3016:3025   */\n      dup7\n        /* \"#utility.yul\":3012:3034   */\n      add\n        /* \"#utility.yul\":2991:3044   */\n      tag_196\n      jump\t// in\n    tag_264:\n        /* \"#utility.yul\":2981:3044   */\n      swap2\n      pop\n        /* \"#utility.yul\":2936:3054   */\n      pop\n        /* \"#utility.yul\":2587:3061   */\n      swap3\n      pop\n      swap3\n      swap1\n      pop\n      jump\t// out\n        /* \"#utility.yul\":3067:3157   */\n    tag_197:\n        /* \"#utility.yul\":3101:3108   */\n      0x00\n        /* \"#utility.yul\":3144:3149   */\n      dup2\n        /* \"#utility.yul\":3137:3150   */\n      iszero\n        /* \"#utility.yul\":3130:3151   */\n      iszero\n        /* \"#utility.yul\":3119:3151   */\n      swap1\n      pop\n        /* \"#utility.yul\":3067:3157   */\n      swap2\n      swap1\n      pop\n      jump\t// out\n        /* \"#utility.yul\":3163:3272   */\n    tag_198:\n        /* \"#utility.yul\":3244:3265   */\n      tag_267\n        /* \"#utility.yul\":3259:3264   */\n      dup2\n        /* \"#utility.yul\":3244:3265   */\n      tag_197\n      jump\t// in\n    tag_267:\n        /* \"#utility.yul\":3239:3242   */\n      dup3\n        /* \"#utility.yul\":3232:3266   */\n      mstore\n        /* \"#utility.yul\":3163:3272   */\n      pop\n      pop\n      jump\t// out\n        /* \"#utility.yul\":3278:3488   */\n    tag_29:\n        /* \"#utility.yul\":3365:3369   */\n      0x00\n        /* \"#utility.yul\":3403:3405   */\n      0x20\n        /* \"#utility.yul\":3392:3401   */\n      dup3\n        /* \"#utility.yul\":3388:3406   */\n      add\n        /* \"#utility.yul\":3380:3406   */\n      swap1\n      pop\n        /* \"#utility.yul\":3416:3481   */\n      tag_269\n        /* \"#utility.yul\":3478:3479   */\n      0x00\n        /* \"#utility.yul\":3467:3476   */\n      dup4\n        /* \"#utility.yul\":3463:3480   */\n      add\n        /* \"#utility.yul\":3454:3460   */\n      dup5\n        /* \"#utility.yul\":3416:3481   */\n      tag_198\n      jump\t// in\n    tag_269:\n        /* \"#utility.yul\":3278:3488   */\n      swap3\n      swap2\n      pop\n      pop\n      jump\t// out\n        /* \"#utility.yul\":3494:3612   */\n    tag_199:\n        /* \"#utility.yul\":3581:3605   */\n      tag_271\n        /* \"#utility.yul\":3599:3604   */\n      dup2\n        /* \"#utility.yul\":3581:3605   */\n      tag_194\n      jump\t// in\n    tag_271:\n        /* \"#utility.yul\":3576:3579   */\n      dup3\n        /* \"#utility.yul\":3569:3606   */\n      mstore\n        /* \"#utility.yul\":3494:3612   */\n      pop\n      pop\n      jump\t// out\n        /* \"#utility.yul\":3618:3840   */\n    tag_33:\n        /* \"#utility.yul\":3711:3715   */\n      0x00\n        /* \"#utility.yul\":3749:3751   */\n      0x20\n        /* \"#utility.yul\":3738:3747   */\n      dup3\n        /* \"#utility.yul\":3734:3752   */\n      add\n        /* \"#utility.yul\":3726:3752   */\n      swap1\n      pop\n        /* \"#utility.yul\":3762:3833   */\n      tag_273\n        /* \"#utility.yul\":3830:3831   */\n      0x00\n        /* \"#utility.yul\":3819:3828   */\n      dup4\n        /* \"#utility.yul\":3815:3832   */\n      add\n        /* \"#utility.yul\":3806:3812   */\n      dup5\n        /* \"#utility.yul\":3762:3833   */\n      tag_199\n      jump\t// in\n    tag_273:\n        /* \"#utility.yul\":3618:3840   */\n      swap3\n      swap2\n      pop\n      pop\n      jump\t// out\n        /* \"#utility.yul\":3846:4465   */\n    tag_36:\n        /* \"#utility.yul\":3923:3929   */\n      0x00\n        /* \"#utility.yul\":3931:3937   */\n      dup1\n        /* \"#utility.yul\":3939:3945   */\n      0x00\n        /* \"#utility.yul\":3988:3990   */\n      0x60\n        /* \"#utility.yul\":3976:3985   */\n      dup5\n        /* \"#utility.yul\":3967:3974   */\n      dup7\n        /* \"#utility.yul\":3963:3986   */\n      sub\n        /* \"#utility.yul\":3959:3991   */\n      slt\n        /* \"#utility.yul\":3956:4075   */\n      iszero\n      tag_275\n      jumpi\n        /* \"#utility.yul\":3994:4073   */\n      tag_276\n      tag_188\n      jump\t// in\n    tag_276:\n        /* \"#utility.yul\":3956:4075   */\n    tag_275:\n        /* \"#utility.yul\":4114:4115   */\n      0x00\n        /* \"#utility.yul\":4139:4192   */\n      tag_277\n        /* \"#utility.yul\":4184:4191   */\n      dup7\n        /* \"#utility.yul\":4175:4181   */\n      dup3\n        /* \"#utility.yul\":4164:4173   */\n      dup8\n        /* \"#utility.yul\":4160:4182   */\n      add\n        /* \"#utility.yul\":4139:4192   */\n      tag_193\n      jump\t// in\n    tag_277:\n        /* \"#utility.yul\":4129:4192   */\n      swap4\n      pop\n        /* \"#utility.yul\":4085:4202   */\n      pop\n        /* \"#utility.yul\":4241:4243   */\n      0x20\n        /* \"#utility.yul\":4267:4320   */\n      tag_278\n        /* \"#utility.yul\":4312:4319   */\n      dup7\n        /* \"#utility.yul\":4303:4309   */\n      dup3\n        /* \"#utility.yul\":4292:4301   */\n      dup8\n        /* \"#utility.yul\":4288:4310   */\n      add\n        /* \"#utility.yul\":4267:4320   */\n      tag_193\n      jump\t// in\n    tag_278:\n        /* \"#utility.yul\":4257:4320   */\n      swap3\n      pop\n        /* \"#utility.yul\":4212:4330   */\n      pop\n        /* \"#utility.yul\":4369:4371   */\n      0x40\n        /* \"#utility.yul\":4395:4448   */\n      tag_279\n        /* \"#utility.yul\":4440:4447   */\n      dup7\n        /* \"#utility.yul\":4431:4437   */\n      dup3\n        /* \"#utility.yul\":4420:4429   */\n      dup8\n        /* \"#utility.yul\":4416:4438   */\n      add\n        /* \"#utility.yul\":4395:4448   */\n      tag_196\n      jump\t// in\n    tag_279:\n        /* \"#utility.yul\":4385:4448   */\n      swap2\n      pop\n        /* \"#utility.yul\":4340:4458   */\n      pop\n        /* \"#utility.yul\":3846:4465   */\n      swap3\n      pop\n      swap3\n      pop\n      swap3\n      jump\t// out\n        /* \"#utility.yul\":4471:4557   */\n    tag_200:\n        /* \"#utility.yul\":4506:4513   */\n      0x00\n        /* \"#utility.yul\":4546:4550   */\n      0xff\n        /* \"#utility.yul\":4539:4544   */\n      dup3\n        /* \"#utility.yul\":4535:4551   */\n      and\n        /* \"#utility.yul\":4524:4551   */\n      swap1\n      pop\n        /* \"#utility.yul\":4471:4557   */\n      swap2\n      swap1\n      pop\n      jump\t// out\n        /* \"#utility.yul\":4563:4675   */\n    tag_201:\n        /* \"#utility.yul\":4646:4668   */\n      tag_282\n        /* \"#utility.yul\":4662:4667   */\n      dup2\n        /* \"#utility.yul\":4646:4668   */\n      tag_200\n      jump\t// in\n    tag_282:\n        /* \"#utility.yul\":4641:4644   */\n      dup3\n        /* \"#utility.yul\":4634:4669   */\n      mstore\n        /* \"#utility.yul\":4563:4675   */\n      pop\n      pop\n      jump\t// out\n        /* \"#utility.yul\":4681:4895   */\n    tag_42:\n        /* \"#utility.yul\":4770:4774   */\n      0x00\n        /* \"#utility.yul\":4808:4810   */\n      0x20\n        /* \"#utility.yul\":4797:4806   */\n      dup3\n        /* \"#utility.yul\":4793:4811   */\n      add\n        /* \"#utility.yul\":4785:4811   */\n      swap1\n      pop\n        /* \"#utility.yul\":4821:4888   */\n      tag_284\n        /* \"#utility.yul\":4885:4886   */\n      0x00\n        /* \"#utility.yul\":4874:4883   */\n      dup4\n        /* \"#utility.yul\":4870:4887   */\n      add\n        /* \"#utility.yul\":4861:4867   */\n      dup5\n        /* \"#utility.yul\":4821:4888   */\n      tag_201\n      jump\t// in\n    tag_284:\n        /* \"#utility.yul\":4681:4895   */\n      swap3\n      swap2\n      pop\n      pop\n      jump\t// out\n        /* \"#utility.yul\":4901:5230   */\n    tag_52:\n        /* \"#utility.yul\":4960:4966   */\n      0x00\n        /* \"#utility.yul\":5009:5011   */\n      0x20\n        /* \"#utility.yul\":4997:5006   */\n      dup3\n        /* \"#utility.yul\":4988:4995   */\n      dup5\n        /* \"#utility.yul\":4984:5007   */\n      sub\n        /* \"#utility.yul\":4980:5012   */\n      slt\n        /* \"#utility.yul\":4977:5096   */\n      iszero\n      tag_286\n      jumpi\n        /* \"#utility.yul\":5015:5094   */\n      tag_287\n      tag_188\n      jump\t// in\n    tag_287:\n        /* \"#utility.yul\":4977:5096   */\n    tag_286:\n        /* \"#utility.yul\":5135:5136   */\n      0x00\n        /* \"#utility.yul\":5160:5213   */\n      tag_288\n        /* \"#utility.yul\":5205:5212   */\n      dup5\n        /* \"#utility.yul\":5196:5202   */\n      dup3\n        /* \"#utility.yul\":5185:5194   */\n      dup6\n        /* \"#utility.yul\":5181:5203   */\n      add\n        /* \"#utility.yul\":5160:5213   */\n      tag_196\n      jump\t// in\n    tag_288:\n        /* \"#utility.yul\":5150:5213   */\n      swap2\n      pop\n        /* \"#utility.yul\":5106:5223   */\n      pop\n        /* \"#utility.yul\":4901:5230   */\n      swap3\n      swap2\n      pop\n      pop\n      jump\t// out\n        /* \"#utility.yul\":5236:5565   */\n    tag_56:\n        /* \"#utility.yul\":5295:5301   */\n      0x00\n        /* \"#utility.yul\":5344:5346   */\n      0x20\n        /* \"#utility.yul\":5332:5341   */\n      dup3\n        /* \"#utility.yul\":5323:5330   */\n      dup5\n        /* \"#utility.yul\":5319:5342   */\n      sub\n        /* \"#utility.yul\":5315:5347   */\n      slt\n        /* \"#utility.yul\":5312:5431   */\n      iszero\n      tag_290\n      jumpi\n        /* \"#utility.yul\":5350:5429   */\n      tag_291\n      tag_188\n      jump\t// in\n    tag_291:\n        /* \"#utility.yul\":5312:5431   */\n    tag_290:\n        /* \"#utility.yul\":5470:5471   */\n      0x00\n        /* \"#utility.yul\":5495:5548   */\n      tag_292\n        /* \"#utility.yul\":5540:5547   */\n      dup5\n        /* \"#utility.yul\":5531:5537   */\n      dup3\n        /* \"#utility.yul\":5520:5529   */\n      dup6\n        /* \"#utility.yul\":5516:5538   */\n      add\n        /* \"#utility.yul\":5495:5548   */\n      tag_193\n      jump\t// in\n    tag_292:\n        /* \"#utility.yul\":5485:5548   */\n      swap2\n      pop\n        /* \"#utility.yul\":5441:5558   */\n      pop\n        /* \"#utility.yul\":5236:5565   */\n      swap3\n      swap2\n      pop\n      pop\n      jump\t// out\n        /* \"#utility.yul\":5571:5689   */\n    tag_202:\n        /* \"#utility.yul\":5658:5682   */\n      tag_294\n        /* \"#utility.yul\":5676:5681   */\n      dup2\n        /* \"#utility.yul\":5658:5682   */\n      tag_191\n      jump\t// in\n    tag_294:\n        /* \"#utility.yul\":5653:5656   */\n      dup3\n        /* \"#utility.yul\":5646:5683   */\n      mstore\n        /* \"#utility.yul\":5571:5689   */\n      pop\n      pop\n      jump\t// out\n        /* \"#utility.yul\":5695:5917   */\n    tag_62:\n        /* \"#utility.yul\":5788:5792   */\n      0x00\n        /* \"#utility.yul\":5826:5828   */\n      0x20\n        /* \"#utility.yul\":5815:5824   */\n      dup3\n        /* \"#utility.yul\":5811:5829   */\n      add\n        /* \"#utility.yul\":5803:5829   */\n      swap1\n      pop\n        /* \"#utility.yul\":5839:5910   */\n      tag_296\n        /* \"#utility.yul\":5907:5908   */\n      0x00\n        /* \"#utility.yul\":5896:5905   */\n      dup4\n        /* \"#utility.yul\":5892:5909   */\n      add\n        /* \"#utility.yul\":5883:5889   */\n      dup5\n        /* \"#utility.yul\":5839:5910   */\n      tag_202\n      jump\t// in\n    tag_296:\n        /* \"#utility.yul\":5695:5917   */\n      swap3\n      swap2\n      pop\n      pop\n      jump\t// out\n        /* \"#utility.yul\":5923:6397   */\n    tag_76:\n        /* \"#utility.yul\":5991:5997   */\n      0x00\n        /* \"#utility.yul\":5999:6005   */\n      dup1\n        /* \"#utility.yul\":6048:6050   */\n      0x40\n        /* \"#utility.yul\":6036:6045   */\n      dup4\n        /* \"#utility.yul\":6027:6034   */\n      dup6\n        /* \"#utility.yul\":6023:6046   */\n      sub\n        /* \"#utility.yul\":6019:6051   */\n      slt\n        /* \"#utility.yul\":6016:6135   */\n      iszero\n      tag_298\n      jumpi\n        /* \"#utility.yul\":6054:6133   */\n      tag_299\n      tag_188\n      jump\t// in\n    tag_299:\n        /* \"#utility.yul\":6016:6135   */\n    tag_298:\n        /* \"#utility.yul\":6174:6175   */\n      0x00\n        /* \"#utility.yul\":6199:6252   */\n      tag_300\n        /* \"#utility.yul\":6244:6251   */\n      dup6\n        /* \"#utility.yul\":6235:6241   */\n      dup3\n        /* \"#utility.yul\":6224:6233   */\n      dup7\n        /* \"#utility.yul\":6220:6242   */\n      add\n        /* \"#utility.yul\":6199:6252   */\n      tag_193\n      jump\t// in\n    tag_300:\n        /* \"#utility.yul\":6189:6252   */\n      swap3\n      pop\n        /* \"#utility.yul\":6145:6262   */\n      pop\n        /* \"#utility.yul\":6301:6303   */\n      0x20\n        /* \"#utility.yul\":6327:6380   */\n      tag_301\n        /* \"#utility.yul\":6372:6379   */\n      dup6\n        /* \"#utility.yul\":6363:6369   */\n      dup3\n        /* \"#utility.yul\":6352:6361   */\n      dup7\n        /* \"#utility.yul\":6348:6370   */\n      add\n        /* \"#utility.yul\":6327:6380   */\n      tag_193\n      jump\t// in\n    tag_301:\n        /* \"#utility.yul\":6317:6380   */\n      swap2\n      pop\n        /* \"#utility.yul\":6272:6390   */\n      pop\n        /* \"#utility.yul\":5923:6397   */\n      swap3\n      pop\n      swap3\n      swap1\n      pop\n      jump\t// out\n        /* \"#utility.yul\":6403:6583   */\n    tag_203:\n        /* \"#utility.yul\":6451:6528   */\n      0x4e487b7100000000000000000000000000000000000000000000000000000000\n        /* \"#utility.yul\":6448:6449   */\n      0x00\n        /* \"#utility.yul\":6441:6529   */\n      mstore\n        /* \"#utility.yul\":6548:6552   */\n      0x22\n        /* \"#utility.yul\":6545:6546   */\n      0x04\n        /* \"#utility.yul\":6538:6553   */\n      mstore\n        /* \"#utility.yul\":6572:6576   */\n      0x24\n        /* \"#utility.yul\":6569:6570   */\n      0x00\n        /* \"#utility.yul\":6562:6577   */\n      revert\n        /* \"#utility.yul\":6589:6909   */\n    tag_81:\n        /* \"#utility.yul\":6633:6639   */\n      0x00\n        /* \"#utility.yul\":6670:6671   */\n      0x02\n        /* \"#utility.yul\":6664:6668   */\n      dup3\n        /* \"#utility.yul\":6660:6672   */\n      div\n        /* \"#utility.yul\":6650:6672   */\n      swap1\n      pop\n        /* \"#utility.yul\":6717:6718   */\n      0x01\n        /* \"#utility.yul\":6711:6715   */\n      dup3\n        /* \"#utility.yul\":6707:6719   */\n      and\n        /* \"#utility.yul\":6738:6756   */\n      dup1\n        /* \"#utility.yul\":6728:6809   */\n      tag_304\n      jumpi\n        /* \"#utility.yul\":6794:6798   */\n      0x7f\n        /* \"#utility.yul\":6786:6792   */\n      dup3\n        /* \"#utility.yul\":6782:6799   */\n      and\n        /* \"#utility.yul\":6772:6799   */\n      swap2\n      pop\n        /* \"#utility.yul\":6728:6809   */\n    tag_304:\n        /* \"#utility.yul\":6856:6858   */\n      0x20\n        /* \"#utility.yul\":6848:6854   */\n      dup3\n        /* \"#utility.yul\":6845:6859   */\n      lt\n        /* \"#utility.yul\":6825:6843   */\n      dup2\n        /* \"#utility.yul\":6822:6860   */\n      sub\n        /* \"#utility.yul\":6819:6903   */\n      tag_305\n      jumpi\n        /* \"#utility.yul\":6875:6893   */\n      tag_306\n      tag_203\n      jump\t// in\n    tag_306:\n        /* \"#utility.yul\":6819:6903   */\n    tag_305:\n        /* \"#utility.yul\":6640:6909   */\n      pop\n        /* \"#utility.yul\":6589:6909   */\n      swap2\n      swap1\n      pop\n      jump\t// out\n        /* \"#utility.yul\":6915:7142   */\n    tag_204:\n        /* \"#utility.yul\":7055:7089   */\n      0x45524332303a207472616e7366657220616d6f756e7420657863656564732061\n        /* \"#utility.yul\":7051:7052   */\n      0x00\n        /* \"#utility.yul\":7043:7049   */\n      dup3\n        /* \"#utility.yul\":7039:7053   */\n      add\n        /* \"#utility.yul\":7032:7090   */\n      mstore\n        /* \"#utility.yul\":7124:7134   */\n      0x6c6c6f77616e6365000000000000000000000000000000000000000000000000\n        /* \"#utility.yul\":7119:7121   */\n      0x20\n        /* \"#utility.yul\":7111:7117   */\n      dup3\n        /* \"#utility.yul\":7107:7122   */\n      add\n        /* \"#utility.yul\":7100:7135   */\n      mstore\n        /* \"#utility.yul\":6915:7142   */\n      pop\n      jump\t// out\n        /* \"#utility.yul\":7148:7514   */\n    tag_205:\n        /* \"#utility.yul\":7290:7293   */\n      0x00\n        /* \"#utility.yul\":7311:7378   */\n      tag_309\n        /* \"#utility.yul\":7375:7377   */\n      0x28\n        /* \"#utility.yul\":7370:7373   */\n      dup4\n        /* \"#utility.yul\":7311:7378   */\n      tag_183\n      jump\t// in\n    tag_309:\n        /* \"#utility.yul\":7304:7378   */\n      swap2\n      pop\n        /* \"#utility.yul\":7387:7480   */\n      tag_310\n        /* \"#utility.yul\":7476:7479   */\n      dup3\n        /* \"#utility.yul\":7387:7480   */\n      tag_204\n      jump\t// in\n    tag_310:\n        /* \"#utility.yul\":7505:7507   */\n      0x40\n        /* \"#utility.yul\":7500:7503   */\n      dup3\n        /* \"#utility.yul\":7496:7508   */\n      add\n        /* \"#utility.yul\":7489:7508   */\n      swap1\n      pop\n        /* \"#utility.yul\":7148:7514   */\n      swap2\n      swap1\n      pop\n      jump\t// out\n        /* \"#utility.yul\":7520:7939   */\n    tag_98:\n        /* \"#utility.yul\":7686:7690   */\n      0x00\n        /* \"#utility.yul\":7724:7726   */\n      0x20\n        /* \"#utility.yul\":7713:7722   */\n      dup3\n        /* \"#utility.yul\":7709:7727   */\n      add\n        /* \"#utility.yul\":7701:7727   */\n      swap1\n      pop\n        /* \"#utility.yul\":7773:7782   */\n      dup2\n        /* \"#utility.yul\":7767:7771   */\n      dup2\n        /* \"#utility.yul\":7763:7783   */\n      sub\n        /* \"#utility.yul\":7759:7760   */\n      0x00\n        /* \"#utility.yul\":7748:7757   */\n      dup4\n        /* \"#utility.yul\":7744:7761   */\n      add\n        /* \"#utility.yul\":7737:7784   */\n      mstore\n        /* \"#utility.yul\":7801:7932   */\n      tag_312\n        /* \"#utility.yul\":7927:7931   */\n      dup2\n        /* \"#utility.yul\":7801:7932   */\n      tag_205\n      jump\t// in\n    tag_312:\n        /* \"#utility.yul\":7793:7932   */\n      swap1\n      pop\n        /* \"#utility.yul\":7520:7939   */\n      swap2\n      swap1\n      pop\n      jump\t// out\n        /* \"#utility.yul\":7945:8125   */\n    tag_206:\n        /* \"#utility.yul\":7993:8070   */\n      0x4e487b7100000000000000000000000000000000000000000000000000000000\n        /* \"#utility.yul\":7990:7991   */\n      0x00\n        /* \"#utility.yul\":7983:8071   */\n      mstore\n        /* \"#utility.yul\":8090:8094   */\n      0x11\n        /* \"#utility.yul\":8087:8088   */\n      0x04\n        /* \"#utility.yul\":8080:8095   */\n      mstore\n        /* \"#utility.yul\":8114:8118   */\n      0x24\n        /* \"#utility.yul\":8111:8112   */\n      0x00\n        /* \"#utility.yul\":8104:8119   */\n      revert\n        /* \"#utility.yul\":8131:8322   */\n    tag_107:\n        /* \"#utility.yul\":8171:8174   */\n      0x00\n        /* \"#utility.yul\":8190:8210   */\n      tag_315\n        /* \"#utility.yul\":8208:8209   */\n      dup3\n        /* \"#utility.yul\":8190:8210   */\n      tag_194\n      jump\t// in\n    tag_315:\n        /* \"#utility.yul\":8185:8210   */\n      swap2\n      pop\n        /* \"#utility.yul\":8224:8244   */\n      tag_316\n        /* \"#utility.yul\":8242:8243   */\n      dup4\n        /* \"#utility.yul\":8224:8244   */\n      tag_194\n      jump\t// in\n    tag_316:\n        /* \"#utility.yul\":8219:8244   */\n      swap3\n      pop\n        /* \"#utility.yul\":8267:8268   */\n      dup3\n        /* \"#utility.yul\":8264:8265   */\n      dup3\n        /* \"#utility.yul\":8260:8269   */\n      add\n        /* \"#utility.yul\":8253:8269   */\n      swap1\n      pop\n        /* \"#utility.yul\":8288:8291   */\n      dup1\n        /* \"#utility.yul\":8285:8286   */\n      dup3\n        /* \"#utility.yul\":8282:8292   */\n      gt\n        /* \"#utility.yul\":8279:8315   */\n      iszero\n      tag_317\n      jumpi\n        /* \"#utility.yul\":8295:8313   */\n      tag_318\n      tag_206\n      jump\t// in\n    tag_318:\n        /* \"#utility.yul\":8279:8315   */\n    tag_317:\n        /* \"#utility.yul\":8131:8322   */\n      swap3\n      swap2\n      pop\n      pop\n      jump\t// out\n        /* \"#utility.yul\":8328:8499   */\n    tag_207:\n        /* \"#utility.yul\":8468:8491   */\n      0x4f6e6c79206f776e65722063616e206d696e7420210000000000000000000000\n        /* \"#utility.yul\":8464:8465   */\n      0x00\n        /* \"#utility.yul\":8456:8462   */\n      dup3\n        /* \"#utility.yul\":8452:8466   */\n      add\n        /* \"#utility.yul\":8445:8492   */\n      mstore\n        /* \"#utility.yul\":8328:8499   */\n      pop\n      jump\t// out\n        /* \"#utility.yul\":8505:8871   */\n    tag_208:\n        /* \"#utility.yul\":8647:8650   */\n      0x00\n        /* \"#utility.yul\":8668:8735   */\n      tag_321\n        /* \"#utility.yul\":8732:8734   */\n      0x15\n        /* \"#utility.yul\":8727:8730   */\n      dup4\n        /* \"#utility.yul\":8668:8735   */\n      tag_183\n      jump\t// in\n    tag_321:\n        /* \"#utility.yul\":8661:8735   */\n      swap2\n      pop\n        /* \"#utility.yul\":8744:8837   */\n      tag_322\n        /* \"#utility.yul\":8833:8836   */\n      dup3\n        /* \"#utility.yul\":8744:8837   */\n      tag_207\n      jump\t// in\n    tag_322:\n        /* \"#utility.yul\":8862:8864   */\n      0x20\n        /* \"#utility.yul\":8857:8860   */\n      dup3\n        /* \"#utility.yul\":8853:8865   */\n      add\n        /* \"#utility.yul\":8846:8865   */\n      swap1\n      pop\n        /* \"#utility.yul\":8505:8871   */\n      swap2\n      swap1\n      pop\n      jump\t// out\n        /* \"#utility.yul\":8877:9296   */\n    tag_111:\n        /* \"#utility.yul\":9043:9047   */\n      0x00\n        /* \"#utility.yul\":9081:9083   */\n      0x20\n        /* \"#utility.yul\":9070:9079   */\n      dup3\n        /* \"#utility.yul\":9066:9084   */\n      add\n        /* \"#utility.yul\":9058:9084   */\n      swap1\n      pop\n        /* \"#utility.yul\":9130:9139   */\n      dup2\n        /* \"#utility.yul\":9124:9128   */\n      dup2\n        /* \"#utility.yul\":9120:9140   */\n      sub\n        /* \"#utility.yul\":9116:9117   */\n      0x00\n        /* \"#utility.yul\":9105:9114   */\n      dup4\n        /* \"#utility.yul\":9101:9118   */\n      add\n        /* \"#utility.yul\":9094:9141   */\n      mstore\n        /* \"#utility.yul\":9158:9289   */\n      tag_324\n        /* \"#utility.yul\":9284:9288   */\n      dup2\n        /* \"#utility.yul\":9158:9289   */\n      tag_208\n      jump\t// in\n    tag_324:\n        /* \"#utility.yul\":9150:9289   */\n      swap1\n      pop\n        /* \"#utility.yul\":8877:9296   */\n      swap2\n      swap1\n      pop\n      jump\t// out\n        /* \"#utility.yul\":9302:9526   */\n    tag_209:\n        /* \"#utility.yul\":9442:9476   */\n      0x45524332303a2064656372656173656420616c6c6f77616e63652062656c6f77\n        /* \"#utility.yul\":9438:9439   */\n      0x00\n        /* \"#utility.yul\":9430:9436   */\n      dup3\n        /* \"#utility.yul\":9426:9440   */\n      add\n        /* \"#utility.yul\":9419:9477   */\n      mstore\n        /* \"#utility.yul\":9511:9518   */\n      0x207a65726f000000000000000000000000000000000000000000000000000000\n        /* \"#utility.yul\":9506:9508   */\n      0x20\n        /* \"#utility.yul\":9498:9504   */\n      dup3\n        /* \"#utility.yul\":9494:9509   */\n      add\n        /* \"#utility.yul\":9487:9519   */\n      mstore\n        /* \"#utility.yul\":9302:9526   */\n      pop\n      jump\t// out\n        /* \"#utility.yul\":9532:9898   */\n    tag_210:\n        /* \"#utility.yul\":9674:9677   */\n      0x00\n        /* \"#utility.yul\":9695:9762   */\n      tag_327\n        /* \"#utility.yul\":9759:9761   */\n      0x25\n        /* \"#utility.yul\":9754:9757   */\n      dup4\n        /* \"#utility.yul\":9695:9762   */\n      tag_183\n      jump\t// in\n    tag_327:\n        /* \"#utility.yul\":9688:9762   */\n      swap2\n      pop\n        /* \"#utility.yul\":9771:9864   */\n      tag_328\n        /* \"#utility.yul\":9860:9863   */\n      dup3\n        /* \"#utility.yul\":9771:9864   */\n      tag_209\n      jump\t// in\n    tag_328:\n        /* \"#utility.yul\":9889:9891   */\n      0x40\n        /* \"#utility.yul\":9884:9887   */\n      dup3\n        /* \"#utility.yul\":9880:9892   */\n      add\n        /* \"#utility.yul\":9873:9892   */\n      swap1\n      pop\n        /* \"#utility.yul\":9532:9898   */\n      swap2\n      swap1\n      pop\n      jump\t// out\n        /* \"#utility.yul\":9904:10323   */\n    tag_128:\n        /* \"#utility.yul\":10070:10074   */\n      0x00\n        /* \"#utility.yul\":10108:10110   */\n      0x20\n        /* \"#utility.yul\":10097:10106   */\n      dup3\n        /* \"#utility.yul\":10093:10111   */\n      add\n        /* \"#utility.yul\":10085:10111   */\n      swap1\n      pop\n        /* \"#utility.yul\":10157:10166   */\n      dup2\n        /* \"#utility.yul\":10151:10155   */\n      dup2\n        /* \"#utility.yul\":10147:10167   */\n      sub\n        /* \"#utility.yul\":10143:10144   */\n      0x00\n        /* \"#utility.yul\":10132:10141   */\n      dup4\n        /* \"#utility.yul\":10128:10145   */\n      add\n        /* \"#utility.yul\":10121:10168   */\n      mstore\n        /* \"#utility.yul\":10185:10316   */\n      tag_330\n        /* \"#utility.yul\":10311:10315   */\n      dup2\n        /* \"#utility.yul\":10185:10316   */\n      tag_210\n      jump\t// in\n    tag_330:\n        /* \"#utility.yul\":10177:10316   */\n      swap1\n      pop\n        /* \"#utility.yul\":9904:10323   */\n      swap2\n      swap1\n      pop\n      jump\t// out\n        /* \"#utility.yul\":10329:10552   */\n    tag_211:\n        /* \"#utility.yul\":10469:10503   */\n      0x45524332303a20617070726f76652066726f6d20746865207a65726f20616464\n        /* \"#utility.yul\":10465:10466   */\n      0x00\n        /* \"#utility.yul\":10457:10463   */\n      dup3\n        /* \"#utility.yul\":10453:10467   */\n      add\n        /* \"#utility.yul\":10446:10504   */\n      mstore\n        /* \"#utility.yul\":10538:10544   */\n      0x7265737300000000000000000000000000000000000000000000000000000000\n        /* \"#utility.yul\":10533:10535   */\n      0x20\n        /* \"#utility.yul\":10525:10531   */\n      dup3\n        /* \"#utility.yul\":10521:10536   */\n      add\n        /* \"#utility.yul\":10514:10545   */\n      mstore\n        /* \"#utility.yul\":10329:10552   */\n      pop\n      jump\t// out\n        /* \"#utility.yul\":10558:10924   */\n    tag_212:\n        /* \"#utility.yul\":10700:10703   */\n      0x00\n        /* \"#utility.yul\":10721:10788   */\n      tag_333\n        /* \"#utility.yul\":10785:10787   */\n      0x24\n        /* \"#utility.yul\":10780:10783   */\n      dup4\n        /* \"#utility.yul\":10721:10788   */\n      tag_183\n      jump\t// in\n    tag_333:\n        /* \"#utility.yul\":10714:10788   */\n      swap2\n      pop\n        /* \"#utility.yul\":10797:10890   */\n      tag_334\n        /* \"#utility.yul\":10886:10889   */\n      dup3\n        /* \"#utility.yul\":10797:10890   */\n      tag_211\n      jump\t// in\n    tag_334:\n        /* \"#utility.yul\":10915:10917   */\n      0x40\n        /* \"#utility.yul\":10910:10913   */\n      dup3\n        /* \"#utility.yul\":10906:10918   */\n      add\n        /* \"#utility.yul\":10899:10918   */\n      swap1\n      pop\n        /* \"#utility.yul\":10558:10924   */\n      swap2\n      swap1\n      pop\n      jump\t// out\n        /* \"#utility.yul\":10930:11349   */\n    tag_138:\n        /* \"#utility.yul\":11096:11100   */\n      0x00\n        /* \"#utility.yul\":11134:11136   */\n      0x20\n        /* \"#utility.yul\":11123:11132   */\n      dup3\n        /* \"#utility.yul\":11119:11137   */\n      add\n        /* \"#utility.yul\":11111:11137   */\n      swap1\n      pop\n        /* \"#utility.yul\":11183:11192   */\n      dup2\n        /* \"#utility.yul\":11177:11181   */\n      dup2\n        /* \"#utility.yul\":11173:11193   */\n      sub\n        /* \"#utility.yul\":11169:11170   */\n      0x00\n        /* \"#utility.yul\":11158:11167   */\n      dup4\n        /* \"#utility.yul\":11154:11171   */\n      add\n        /* \"#utility.yul\":11147:11194   */\n      mstore\n        /* \"#utility.yul\":11211:11342   */\n      tag_336\n        /* \"#utility.yul\":11337:11341   */\n      dup2\n        /* \"#utility.yul\":11211:11342   */\n      tag_212\n      jump\t// in\n    tag_336:\n        /* \"#utility.yul\":11203:11342   */\n      swap1\n      pop\n        /* \"#utility.yul\":10930:11349   */\n      swap2\n      swap1\n      pop\n      jump\t// out\n        /* \"#utility.yul\":11355:11576   */\n    tag_213:\n        /* \"#utility.yul\":11495:11529   */\n      0x45524332303a20617070726f766520746f20746865207a65726f206164647265\n        /* \"#utility.yul\":11491:11492   */\n      0x00\n        /* \"#utility.yul\":11483:11489   */\n      dup3\n        /* \"#utility.yul\":11479:11493   */\n      add\n        /* \"#utility.yul\":11472:11530   */\n      mstore\n        /* \"#utility.yul\":11564:11568   */\n      0x7373000000000000000000000000000000000000000000000000000000000000\n        /* \"#utility.yul\":11559:11561   */\n      0x20\n        /* \"#utility.yul\":11551:11557   */\n      dup3\n        /* \"#utility.yul\":11547:11562   */\n      add\n        /* \"#utility.yul\":11540:11569   */\n      mstore\n        /* \"#utility.yul\":11355:11576   */\n      pop\n      jump\t// out\n        /* \"#utility.yul\":11582:11948   */\n    tag_214:\n        /* \"#utility.yul\":11724:11727   */\n      0x00\n        /* \"#utility.yul\":11745:11812   */\n      tag_339\n        /* \"#utility.yul\":11809:11811   */\n      0x22\n        /* \"#utility.yul\":11804:11807   */\n      dup4\n        /* \"#utility.yul\":11745:11812   */\n      tag_183\n      jump\t// in\n    tag_339:\n        /* \"#utility.yul\":11738:11812   */\n      swap2\n      pop\n        /* \"#utility.yul\":11821:11914   */\n      tag_340\n        /* \"#utility.yul\":11910:11913   */\n      dup3\n        /* \"#utility.yul\":11821:11914   */\n      tag_213\n      jump\t// in\n    tag_340:\n        /* \"#utility.yul\":11939:11941   */\n      0x40\n        /* \"#utility.yul\":11934:11937   */\n      dup3\n        /* \"#utility.yul\":11930:11942   */\n      add\n        /* \"#utility.yul\":11923:11942   */\n      swap1\n      pop\n        /* \"#utility.yul\":11582:11948   */\n      swap2\n      swap1\n      pop\n      jump\t// out\n        /* \"#utility.yul\":11954:12373   */\n    tag_141:\n        /* \"#utility.yul\":12120:12124   */\n      0x00\n        /* \"#utility.yul\":12158:12160   */\n      0x20\n        /* \"#utility.yul\":12147:12156   */\n      dup3\n        /* \"#utility.yul\":12143:12161   */\n      add\n        /* \"#utility.yul\":12135:12161   */\n      swap1\n      pop\n        /* \"#utility.yul\":12207:12216   */\n      dup2\n        /* \"#utility.yul\":12201:12205   */\n      dup2\n        /* \"#utility.yul\":12197:12217   */\n      sub\n        /* \"#utility.yul\":12193:12194   */\n      0x00\n        /* \"#utility.yul\":12182:12191   */\n      dup4\n        /* \"#utility.yul\":12178:12195   */\n      add\n        /* \"#utility.yul\":12171:12218   */\n      mstore\n        /* \"#utility.yul\":12235:12366   */\n      tag_342\n        /* \"#utility.yul\":12361:12365   */\n      dup2\n        /* \"#utility.yul\":12235:12366   */\n      tag_214\n      jump\t// in\n    tag_342:\n        /* \"#utility.yul\":12227:12366   */\n      swap1\n      pop\n        /* \"#utility.yul\":11954:12373   */\n      swap2\n      swap1\n      pop\n      jump\t// out\n        /* \"#utility.yul\":12379:12603   */\n    tag_215:\n        /* \"#utility.yul\":12519:12553   */\n      0x45524332303a207472616e736665722066726f6d20746865207a65726f206164\n        /* \"#utility.yul\":12515:12516   */\n      0x00\n        /* \"#utility.yul\":12507:12513   */\n      dup3\n        /* \"#utility.yul\":12503:12517   */\n      add\n        /* \"#utility.yul\":12496:12554   */\n      mstore\n        /* \"#utility.yul\":12588:12595   */\n      0x6472657373000000000000000000000000000000000000000000000000000000\n        /* \"#utility.yul\":12583:12585   */\n      0x20\n        /* \"#utility.yul\":12575:12581   */\n      dup3\n        /* \"#utility.yul\":12571:12586   */\n      add\n        /* \"#utility.yul\":12564:12596   */\n      mstore\n        /* \"#utility.yul\":12379:12603   */\n      pop\n      jump\t// out\n        /* \"#utility.yul\":12609:12975   */\n    tag_216:\n        /* \"#utility.yul\":12751:12754   */\n      0x00\n        /* \"#utility.yul\":12772:12839   */\n      tag_345\n        /* \"#utility.yul\":12836:12838   */\n      0x25\n        /* \"#utility.yul\":12831:12834   */\n      dup4\n        /* \"#utility.yul\":12772:12839   */\n      tag_183\n      jump\t// in\n    tag_345:\n        /* \"#utility.yul\":12765:12839   */\n      swap2\n      pop\n        /* \"#utility.yul\":12848:12941   */\n      tag_346\n        /* \"#utility.yul\":12937:12940   */\n      dup3\n        /* \"#utility.yul\":12848:12941   */\n      tag_215\n      jump\t// in\n    tag_346:\n        /* \"#utility.yul\":12966:12968   */\n      0x40\n        /* \"#utility.yul\":12961:12964   */\n      dup3\n        /* \"#utility.yul\":12957:12969   */\n      add\n        /* \"#utility.yul\":12950:12969   */\n      swap1\n      pop\n        /* \"#utility.yul\":12609:12975   */\n      swap2\n      swap1\n      pop\n      jump\t// out\n        /* \"#utility.yul\":12981:13400   */\n    tag_146:\n        /* \"#utility.yul\":13147:13151   */\n      0x00\n        /* \"#utility.yul\":13185:13187   */\n      0x20\n        /* \"#utility.yul\":13174:13183   */\n      dup3\n        /* \"#utility.yul\":13170:13188   */\n      add\n        /* \"#utility.yul\":13162:13188   */\n      swap1\n      pop\n        /* \"#utility.yul\":13234:13243   */\n      dup2\n        /* \"#utility.yul\":13228:13232   */\n      dup2\n        /* \"#utility.yul\":13224:13244   */\n      sub\n        /* \"#utility.yul\":13220:13221   */\n      0x00\n        /* \"#utility.yul\":13209:13218   */\n      dup4\n        /* \"#utility.yul\":13205:13222   */\n      add\n        /* \"#utility.yul\":13198:13245   */\n      mstore\n        /* \"#utility.yul\":13262:13393   */\n      tag_348\n        /* \"#utility.yul\":13388:13392   */\n      dup2\n        /* \"#utility.yul\":13262:13393   */\n      tag_216\n      jump\t// in\n    tag_348:\n        /* \"#utility.yul\":13254:13393   */\n      swap1\n      pop\n        /* \"#utility.yul\":12981:13400   */\n      swap2\n      swap1\n      pop\n      jump\t// out\n        /* \"#utility.yul\":13406:13628   */\n    tag_217:\n        /* \"#utility.yul\":13546:13580   */\n      0x45524332303a207472616e7366657220746f20746865207a65726f2061646472\n        /* \"#utility.yul\":13542:13543   */\n      0x00\n        /* \"#utility.yul\":13534:13540   */\n      dup3\n        /* \"#utility.yul\":13530:13544   */\n      add\n        /* \"#utility.yul\":13523:13581   */\n      mstore\n        /* \"#utility.yul\":13615:13620   */\n      0x6573730000000000000000000000000000000000000000000000000000000000\n        /* \"#utility.yul\":13610:13612   */\n      0x20\n        /* \"#utility.yul\":13602:13608   */\n      dup3\n        /* \"#utility.yul\":13598:13613   */\n      add\n        /* \"#utility.yul\":13591:13621   */\n      mstore\n        /* \"#utility.yul\":13406:13628   */\n      pop\n      jump\t// out\n        /* \"#utility.yul\":13634:14000   */\n    tag_218:\n        /* \"#utility.yul\":13776:13779   */\n      0x00\n        /* \"#utility.yul\":13797:13864   */\n      tag_351\n        /* \"#utility.yul\":13861:13863   */\n      0x23\n        /* \"#utility.yul\":13856:13859   */\n      dup4\n        /* \"#utility.yul\":13797:13864   */\n      tag_183\n      jump\t// in\n    tag_351:\n        /* \"#utility.yul\":13790:13864   */\n      swap2\n      pop\n        /* \"#utility.yul\":13873:13966   */\n      tag_352\n        /* \"#utility.yul\":13962:13965   */\n      dup3\n        /* \"#utility.yul\":13873:13966   */\n      tag_217\n      jump\t// in\n    tag_352:\n        /* \"#utility.yul\":13991:13993   */\n      0x40\n        /* \"#utility.yul\":13986:13989   */\n      dup3\n        /* \"#utility.yul\":13982:13994   */\n      add\n        /* \"#utility.yul\":13975:13994   */\n      swap1\n      pop\n        /* \"#utility.yul\":13634:14000   */\n      swap2\n      swap1\n      pop\n      jump\t// out\n        /* \"#utility.yul\":14006:14425   */\n    tag_149:\n        /* \"#utility.yul\":14172:14176   */\n      0x00\n        /* \"#utility.yul\":14210:14212   */\n      0x20\n        /* \"#utility.yul\":14199:14208   */\n      dup3\n        /* \"#utility.yul\":14195:14213   */\n      add\n        /* \"#utility.yul\":14187:14213   */\n      swap1\n      pop\n        /* \"#utility.yul\":14259:14268   */\n      dup2\n        /* \"#utility.yul\":14253:14257   */\n      dup2\n        /* \"#utility.yul\":14249:14269   */\n      sub\n        /* \"#utility.yul\":14245:14246   */\n      0x00\n        /* \"#utility.yul\":14234:14243   */\n      dup4\n        /* \"#utility.yul\":14230:14247   */\n      add\n        /* \"#utility.yul\":14223:14270   */\n      mstore\n        /* \"#utility.yul\":14287:14418   */\n      tag_354\n        /* \"#utility.yul\":14413:14417   */\n      dup2\n        /* \"#utility.yul\":14287:14418   */\n      tag_218\n      jump\t// in\n    tag_354:\n        /* \"#utility.yul\":14279:14418   */\n      swap1\n      pop\n        /* \"#utility.yul\":14006:14425   */\n      swap2\n      swap1\n      pop\n      jump\t// out\n        /* \"#utility.yul\":14431:14656   */\n    tag_219:\n        /* \"#utility.yul\":14571:14605   */\n      0x45524332303a207472616e7366657220616d6f756e7420657863656564732062\n        /* \"#utility.yul\":14567:14568   */\n      0x00\n        /* \"#utility.yul\":14559:14565   */\n      dup3\n        /* \"#utility.yul\":14555:14569   */\n      add\n        /* \"#utility.yul\":14548:14606   */\n      mstore\n        /* \"#utility.yul\":14640:14648   */\n      0x616c616e63650000000000000000000000000000000000000000000000000000\n        /* \"#utility.yul\":14635:14637   */\n      0x20\n        /* \"#utility.yul\":14627:14633   */\n      dup3\n        /* \"#utility.yul\":14623:14638   */\n      add\n        /* \"#utility.yul\":14616:14649   */\n      mstore\n        /* \"#utility.yul\":14431:14656   */\n      pop\n      jump\t// out\n        /* \"#utility.yul\":14662:15028   */\n    tag_220:\n        /* \"#utility.yul\":14804:14807   */\n      0x00\n        /* \"#utility.yul\":14825:14892   */\n      tag_357\n        /* \"#utility.yul\":14889:14891   */\n      0x26\n        /* \"#utility.yul\":14884:14887   */\n      dup4\n        /* \"#utility.yul\":14825:14892   */\n      tag_183\n      jump\t// in\n    tag_357:\n        /* \"#utility.yul\":14818:14892   */\n      swap2\n      pop\n        /* \"#utility.yul\":14901:14994   */\n      tag_358\n        /* \"#utility.yul\":14990:14993   */\n      dup3\n        /* \"#utility.yul\":14901:14994   */\n      tag_219\n      jump\t// in\n    tag_358:\n        /* \"#utility.yul\":15019:15021   */\n      0x40\n        /* \"#utility.yul\":15014:15017   */\n      dup3\n        /* \"#utility.yul\":15010:15022   */\n      add\n        /* \"#utility.yul\":15003:15022   */\n      swap1\n      pop\n        /* \"#utility.yul\":14662:15028   */\n      swap2\n      swap1\n      pop\n      jump\t// out\n        /* \"#utility.yul\":15034:15453   */\n    tag_154:\n        /* \"#utility.yul\":15200:15204   */\n      0x00\n        /* \"#utility.yul\":15238:15240   */\n      0x20\n        /* \"#utility.yul\":15227:15236   */\n      dup3\n        /* \"#utility.yul\":15223:15241   */\n      add\n        /* \"#utility.yul\":15215:15241   */\n      swap1\n      pop\n        /* \"#utility.yul\":15287:15296   */\n      dup2\n        /* \"#utility.yul\":15281:15285   */\n      dup2\n        /* \"#utility.yul\":15277:15297   */\n      sub\n        /* \"#utility.yul\":15273:15274   */\n      0x00\n        /* \"#utility.yul\":15262:15271   */\n      dup4\n        /* \"#utility.yul\":15258:15275   */\n      add\n        /* \"#utility.yul\":15251:15298   */\n      mstore\n        /* \"#utility.yul\":15315:15446   */\n      tag_360\n        /* \"#utility.yul\":15441:15445   */\n      dup2\n        /* \"#utility.yul\":15315:15446   */\n      tag_220\n      jump\t// in\n    tag_360:\n        /* \"#utility.yul\":15307:15446   */\n      swap1\n      pop\n        /* \"#utility.yul\":15034:15453   */\n      swap2\n      swap1\n      pop\n      jump\t// out\n        /* \"#utility.yul\":15459:15640   */\n    tag_221:\n        /* \"#utility.yul\":15599:15632   */\n      0x45524332303a206d696e7420746f20746865207a65726f206164647265737300\n        /* \"#utility.yul\":15595:15596   */\n      0x00\n        /* \"#utility.yul\":15587:15593   */\n      dup3\n        /* \"#utility.yul\":15583:15597   */\n      add\n        /* \"#utility.yul\":15576:15633   */\n      mstore\n        /* \"#utility.yul\":15459:15640   */\n      pop\n      jump\t// out\n        /* \"#utility.yul\":15646:16012   */\n    tag_222:\n        /* \"#utility.yul\":15788:15791   */\n      0x00\n        /* \"#utility.yul\":15809:15876   */\n      tag_363\n        /* \"#utility.yul\":15873:15875   */\n      0x1f\n        /* \"#utility.yul\":15868:15871   */\n      dup4\n        /* \"#utility.yul\":15809:15876   */\n      tag_183\n      jump\t// in\n    tag_363:\n        /* \"#utility.yul\":15802:15876   */\n      swap2\n      pop\n        /* \"#utility.yul\":15885:15978   */\n      tag_364\n        /* \"#utility.yul\":15974:15977   */\n      dup3\n        /* \"#utility.yul\":15885:15978   */\n      tag_221\n      jump\t// in\n    tag_364:\n        /* \"#utility.yul\":16003:16005   */\n      0x20\n        /* \"#utility.yul\":15998:16001   */\n      dup3\n        /* \"#utility.yul\":15994:16006   */\n      add\n        /* \"#utility.yul\":15987:16006   */\n      swap1\n      pop\n        /* \"#utility.yul\":15646:16012   */\n      swap2\n      swap1\n      pop\n      jump\t// out\n        /* \"#utility.yul\":16018:16437   */\n    tag_162:\n        /* \"#utility.yul\":16184:16188   */\n      0x00\n        /* \"#utility.yul\":16222:16224   */\n      0x20\n        /* \"#utility.yul\":16211:16220   */\n      dup3\n        /* \"#utility.yul\":16207:16225   */\n      add\n        /* \"#utility.yul\":16199:16225   */\n      swap1\n      pop\n        /* \"#utility.yul\":16271:16280   */\n      dup2\n        /* \"#utility.yul\":16265:16269   */\n      dup2\n        /* \"#utility.yul\":16261:16281   */\n      sub\n        /* \"#utility.yul\":16257:16258   */\n      0x00\n        /* \"#utility.yul\":16246:16255   */\n      dup4\n        /* \"#utility.yul\":16242:16259   */\n      add\n        /* \"#utility.yul\":16235:16282   */\n      mstore\n        /* \"#utility.yul\":16299:16430   */\n      tag_366\n        /* \"#utility.yul\":16425:16429   */\n      dup2\n        /* \"#utility.yul\":16299:16430   */\n      tag_222\n      jump\t// in\n    tag_366:\n        /* \"#utility.yul\":16291:16430   */\n      swap1\n      pop\n        /* \"#utility.yul\":16018:16437   */\n      swap2\n      swap1\n      pop\n      jump\t// out\n        /* \"#utility.yul\":16443:16663   */\n    tag_223:\n        /* \"#utility.yul\":16583:16617   */\n      0x45524332303a206275726e2066726f6d20746865207a65726f20616464726573\n        /* \"#utility.yul\":16579:16580   */\n      0x00\n        /* \"#utility.yul\":16571:16577   */\n      dup3\n        /* \"#utility.yul\":16567:16581   */\n      add\n        /* \"#utility.yul\":16560:16618   */\n      mstore\n        /* \"#utility.yul\":16652:16655   */\n      0x7300000000000000000000000000000000000000000000000000000000000000\n        /* \"#utility.yul\":16647:16649   */\n      0x20\n        /* \"#utility.yul\":16639:16645   */\n      dup3\n        /* \"#utility.yul\":16635:16650   */\n      add\n        /* \"#utility.yul\":16628:16656   */\n      mstore\n        /* \"#utility.yul\":16443:16663   */\n      pop\n      jump\t// out\n        /* \"#utility.yul\":16669:17035   */\n    tag_224:\n        /* \"#utility.yul\":16811:16814   */\n      0x00\n        /* \"#utility.yul\":16832:16899   */\n      tag_369\n        /* \"#utility.yul\":16896:16898   */\n      0x21\n        /* \"#utility.yul\":16891:16894   */\n      dup4\n        /* \"#utility.yul\":16832:16899   */\n      tag_183\n      jump\t// in\n    tag_369:\n        /* \"#utility.yul\":16825:16899   */\n      swap2\n      pop\n        /* \"#utility.yul\":16908:17001   */\n      tag_370\n        /* \"#utility.yul\":16997:17000   */\n      dup3\n        /* \"#utility.yul\":16908:17001   */\n      tag_223\n      jump\t// in\n    tag_370:\n        /* \"#utility.yul\":17026:17028   */\n      0x40\n        /* \"#utility.yul\":17021:17024   */\n      dup3\n        /* \"#utility.yul\":17017:17029   */\n      add\n        /* \"#utility.yul\":17010:17029   */\n      swap1\n      pop\n        /* \"#utility.yul\":16669:17035   */\n      swap2\n      swap1\n      pop\n      jump\t// out\n        /* \"#utility.yul\":17041:17460   */\n    tag_171:\n        /* \"#utility.yul\":17207:17211   */\n      0x00\n        /* \"#utility.yul\":17245:17247   */\n      0x20\n        /* \"#utility.yul\":17234:17243   */\n      dup3\n        /* \"#utility.yul\":17230:17248   */\n      add\n        /* \"#utility.yul\":17222:17248   */\n      swap1\n      pop\n        /* \"#utility.yul\":17294:17303   */\n      dup2\n        /* \"#utility.yul\":17288:17292   */\n      dup2\n        /* \"#utility.yul\":17284:17304   */\n      sub\n        /* \"#utility.yul\":17280:17281   */\n      0x00\n        /* \"#utility.yul\":17269:17278   */\n      dup4\n        /* \"#utility.yul\":17265:17282   */\n      add\n        /* \"#utility.yul\":17258:17305   */\n      mstore\n        /* \"#utility.yul\":17322:17453   */\n      tag_372\n        /* \"#utility.yul\":17448:17452   */\n      dup2\n        /* \"#utility.yul\":17322:17453   */\n      tag_224\n      jump\t// in\n    tag_372:\n        /* \"#utility.yul\":17314:17453   */\n      swap1\n      pop\n        /* \"#utility.yul\":17041:17460   */\n      swap2\n      swap1\n      pop\n      jump\t// out\n        /* \"#utility.yul\":17466:17687   */\n    tag_225:\n        /* \"#utility.yul\":17606:17640   */\n      0x45524332303a206275726e20616d6f756e7420657863656564732062616c616e\n        /* \"#utility.yul\":17602:17603   */\n      0x00\n        /* \"#utility.yul\":17594:17600   */\n      dup3\n        /* \"#utility.yul\":17590:17604   */\n      add\n        /* \"#utility.yul\":17583:17641   */\n      mstore\n        /* \"#utility.yul\":17675:17679   */\n      0x6365000000000000000000000000000000000000000000000000000000000000\n        /* \"#utility.yul\":17670:17672   */\n      0x20\n        /* \"#utility.yul\":17662:17668   */\n      dup3\n        /* \"#utility.yul\":17658:17673   */\n      add\n        /* \"#utility.yul\":17651:17680   */\n      mstore\n        /* \"#utility.yul\":17466:17687   */\n      pop\n      jump\t// out\n        /* \"#utility.yul\":17693:18059   */\n    tag_226:\n        /* \"#utility.yul\":17835:17838   */\n      0x00\n        /* \"#utility.yul\":17856:17923   */\n      tag_375\n        /* \"#utility.yul\":17920:17922   */\n      0x22\n        /* \"#utility.yul\":17915:17918   */\n      dup4\n        /* \"#utility.yul\":17856:17923   */\n      tag_183\n      jump\t// in\n    tag_375:\n        /* \"#utility.yul\":17849:17923   */\n      swap2\n      pop\n        /* \"#utility.yul\":17932:18025   */\n      tag_376\n        /* \"#utility.yul\":18021:18024   */\n      dup3\n        /* \"#utility.yul\":17932:18025   */\n      tag_225\n      jump\t// in\n    tag_376:\n        /* \"#utility.yul\":18050:18052   */\n      0x40\n        /* \"#utility.yul\":18045:18048   */\n      dup3\n        /* \"#utility.yul\":18041:18053   */\n      add\n        /* \"#utility.yul\":18034:18053   */\n      swap1\n      pop\n        /* \"#utility.yul\":17693:18059   */\n      swap2\n      swap1\n      pop\n      jump\t// out\n        /* \"#utility.yul\":18065:18484   */\n    tag_175:\n        /* \"#utility.yul\":18231:18235   */\n      0x00\n        /* \"#utility.yul\":18269:18271   */\n      0x20\n        /* \"#utility.yul\":18258:18267   */\n      dup3\n        /* \"#utility.yul\":18254:18272   */\n      add\n        /* \"#utility.yul\":18246:18272   */\n      swap1\n      pop\n        /* \"#utility.yul\":18318:18327   */\n      dup2\n        /* \"#utility.yul\":18312:18316   */\n      dup2\n        /* \"#utility.yul\":18308:18328   */\n      sub\n        /* \"#utility.yul\":18304:18305   */\n      0x00\n        /* \"#utility.yul\":18293:18302   */\n      dup4\n        /* \"#utility.yul\":18289:18306   */\n      add\n        /* \"#utility.yul\":18282:18329   */\n      mstore\n        /* \"#utility.yul\":18346:18477   */\n      tag_378\n        /* \"#utility.yul\":18472:18476   */\n      dup2\n        /* \"#utility.yul\":18346:18477   */\n      tag_226\n      jump\t// in\n    tag_378:\n        /* \"#utility.yul\":18338:18477   */\n      swap1\n      pop\n        /* \"#utility.yul\":18065:18484   */\n      swap2\n      swap1\n      pop\n      jump\t// out\n        /* \"#utility.yul\":18490:18684   */\n    tag_177:\n        /* \"#utility.yul\":18530:18534   */\n      0x00\n        /* \"#utility.yul\":18550:18570   */\n      tag_380\n        /* \"#utility.yul\":18568:18569   */\n      dup3\n        /* \"#utility.yul\":18550:18570   */\n      tag_194\n      jump\t// in\n    tag_380:\n        /* \"#utility.yul\":18545:18570   */\n      swap2\n      pop\n        /* \"#utility.yul\":18584:18604   */\n      tag_381\n        /* \"#utility.yul\":18602:18603   */\n      dup4\n        /* \"#utility.yul\":18584:18604   */\n      tag_194\n      jump\t// in\n    tag_381:\n        /* \"#utility.yul\":18579:18604   */\n      swap3\n      pop\n        /* \"#utility.yul\":18628:18629   */\n      dup3\n        /* \"#utility.yul\":18625:18626   */\n      dup3\n        /* \"#utility.yul\":18621:18630   */\n      sub\n        /* \"#utility.yul\":18613:18630   */\n      swap1\n      pop\n        /* \"#utility.yul\":18652:18653   */\n      dup2\n        /* \"#utility.yul\":18646:18650   */\n      dup2\n        /* \"#utility.yul\":18643:18654   */\n      gt\n        /* \"#utility.yul\":18640:18677   */\n      iszero\n      tag_382\n      jumpi\n        /* \"#utility.yul\":18657:18675   */\n      tag_383\n      tag_206\n      jump\t// in\n    tag_383:\n        /* \"#utility.yul\":18640:18677   */\n    tag_382:\n        /* \"#utility.yul\":18490:18684   */\n      swap3\n      swap2\n      pop\n      pop\n      jump\t// out\n\n    auxdata: 0xa2646970667358221220090c958943c23ef8d8cd0405cf3c1f66ee960d972af2059b7155f7331842f4b464736f6c637823302e382e31362d63692e323032322e372e31342b636f6d6d69742e38303030383865330054\n}\n",
				"bytecode": {
					"linkReferences": {},
					"object": "60806040523480156200001157600080fd5b506040518060400160405280600581526020017f65706172730000000000000000000000000000000000000000000000000000008152506040518060400160405280600581526020017f455041525300000000000000000000000000000000000000000000000000000081525081600390816200008f919062000504565b508060049081620000a1919062000504565b505050620000c1336a3913517ebd3c0c650000006200010860201b60201c565b33600560006101000a81548173ffffffffffffffffffffffffffffffffffffffff021916908373ffffffffffffffffffffffffffffffffffffffff16021790555062000706565b600073ffffffffffffffffffffffffffffffffffffffff168273ffffffffffffffffffffffffffffffffffffffff16036200017a576040517f08c379a000000000000000000000000000000000000000000000000000000000815260040162000171906200064c565b60405180910390fd5b6200018e600083836200028060201b60201c565b8060026000828254620001a291906200069d565b92505081905550806000808473ffffffffffffffffffffffffffffffffffffffff1673ffffffffffffffffffffffffffffffffffffffff1681526020019081526020016000206000828254620001f991906200069d565b925050819055508173ffffffffffffffffffffffffffffffffffffffff16600073ffffffffffffffffffffffffffffffffffffffff167fddf252ad1be2c89b69c2b068fc378daa952ba7f163c4a11628f55a4df523b3ef83604051620002609190620006e9565b60405180910390a36200027c600083836200028560201b60201c565b5050565b505050565b505050565b600081519050919050565b7f4e487b7100000000000000000000000000000000000000000000000000000000600052604160045260246000fd5b7f4e487b7100000000000000000000000000000000000000000000000000000000600052602260045260246000fd5b600060028204905060018216806200030c57607f821691505b602082108103620003225762000321620002c4565b5b50919050565b60008190508160005260206000209050919050565b60006020601f8301049050919050565b600082821b905092915050565b6000600883026200038c7fffffffffffffffffffffffffffffffffffffffffffffffffffffffffffffffff826200034d565b6200039886836200034d565b95508019841693508086168417925050509392505050565b6000819050919050565b6000819050919050565b6000620003e5620003df620003d984620003b0565b620003ba565b620003b0565b9050919050565b6000819050919050565b6200040183620003c4565b620004196200041082620003ec565b8484546200035a565b825550505050565b600090565b6200043062000421565b6200043d818484620003f6565b505050565b5b8181101562000465576200045960008262000426565b60018101905062000443565b5050565b601f821115620004b4576200047e8162000328565b62000489846200033d565b8101602085101562000499578190505b620004b1620004a8856200033d565b83018262000442565b50505b505050565b600082821c905092915050565b6000620004d960001984600802620004b9565b1980831691505092915050565b6000620004f48383620004c6565b9150826002028217905092915050565b6200050f826200028a565b67ffffffffffffffff8111156200052b576200052a62000295565b5b620005378254620002f3565b6200054482828562000469565b600060209050601f8311600181146200057c576000841562000567578287015190505b620005738582620004e6565b865550620005e3565b601f1984166200058c8662000328565b60005b82811015620005b6578489015182556001820191506020850194506020810190506200058f565b86831015620005d65784890151620005d2601f891682620004c6565b8355505b6001600288020188555050505b505050505050565b600082825260208201905092915050565b7f45524332303a206d696e7420746f20746865207a65726f206164647265737300600082015250565b600062000634601f83620005eb565b91506200064182620005fc565b602082019050919050565b60006020820190508181036000830152620006678162000625565b9050919050565b7f4e487b7100000000000000000000000000000000000000000000000000000000600052601160045260246000fd5b6000620006aa82620003b0565b9150620006b783620003b0565b9250828201905080821115620006d257620006d16200066e565b5b92915050565b620006e381620003b0565b82525050565b6000602082019050620007006000830184620006d8565b92915050565b611ae380620007166000396000f3fe608060405234801561001057600080fd5b50600436106100ea5760003560e01c806342966c681161008c57806395d89b411161006657806395d89b411461025f578063a457c2d71461027d578063a9059cbb146102ad578063dd62ed3e146102dd576100ea565b806342966c68146101f557806370a08231146102115780638da5cb5b14610241576100ea565b806323b872dd116100c857806323b872dd1461015b578063313ce5671461018b57806339509351146101a957806340c10f19146101d9576100ea565b806306fdde03146100ef578063095ea7b31461010d57806318160ddd1461013d575b600080fd5b6100f761030d565b60405161010491906110f2565b60405180910390f35b610127600480360381019061012291906111ad565b61039f565b6040516101349190611208565b60405180910390f35b6101456103bd565b6040516101529190611232565b60405180910390f35b6101756004803603810190610170919061124d565b6103c7565b6040516101829190611208565b60405180910390f35b6101936104bf565b6040516101a091906112bc565b60405180910390f35b6101c360048036038101906101be91906111ad565b6104c8565b6040516101d09190611208565b60405180910390f35b6101f360048036038101906101ee91906111ad565b610574565b005b61020f600480360381019061020a91906112d7565b610612565b005b61022b60048036038101906102269190611304565b61061f565b6040516102389190611232565b60405180910390f35b610249610667565b6040516102569190611340565b60405180910390f35b61026761068d565b60405161027491906110f2565b60405180910390f35b610297600480360381019061029291906111ad565b61071f565b6040516102a49190611208565b60405180910390f35b6102c760048036038101906102c291906111ad565b61080a565b6040516102d49190611208565b60405180910390f35b6102f760048036038101906102f2919061135b565b610843565b6040516103049190611232565b60405180910390f35b60606003805461031c906113ca565b80601f0160208091040260200160405190810160405280929190818152602001828054610348906113ca565b80156103955780601f1061036a57610100808354040283529160200191610395565b820191906000526020600020905b81548152906001019060200180831161037857829003601f168201915b5050505050905090565b60006103b36103ac6108ca565b84846108d2565b6001905092915050565b6000600254905090565b60006103d4848484610a9b565b6000600160008673ffffffffffffffffffffffffffffffffffffffff1673ffffffffffffffffffffffffffffffffffffffff168152602001908152602001600020600061041f6108ca565b73ffffffffffffffffffffffffffffffffffffffff1673ffffffffffffffffffffffffffffffffffffffff1681526020019081526020016000205490508281101561049f576040517f08c379a00000000000000000000000000000000000000000000000000000000081526004016104969061146d565b60405180910390fd5b6104b3856104ab6108ca565b8584036108d2565b60019150509392505050565b60006012905090565b600061056a6104d56108ca565b8484600160006104e36108ca565b73ffffffffffffffffffffffffffffffffffffffff1673ffffffffffffffffffffffffffffffffffffffff16815260200190815260200160002060008873ffffffffffffffffffffffffffffffffffffffff1673ffffffffffffffffffffffffffffffffffffffff1681526020019081526020016000205461056591906114bc565b6108d2565b6001905092915050565b600560009054906101000a900473ffffffffffffffffffffffffffffffffffffffff1673ffffffffffffffffffffffffffffffffffffffff163373ffffffffffffffffffffffffffffffffffffffff1614610604576040517f08c379a00000000000000000000000000000000000000000000000000000000081526004016105fb9061153c565b60405180910390fd5b61060e8282610d1a565b5050565b61061c3382610e79565b50565b60008060008373ffffffffffffffffffffffffffffffffffffffff1673ffffffffffffffffffffffffffffffffffffffff168152602001908152602001600020549050919050565b600560009054906101000a900473ffffffffffffffffffffffffffffffffffffffff1681565b60606004805461069c906113ca565b80601f01602080910402602001604051908101604052809291908181526020018280546106c8906113ca565b80156107155780601f106106ea57610100808354040283529160200191610715565b820191906000526020600020905b8154815290600101906020018083116106f857829003601f168201915b5050505050905090565b6000806001600061072e6108ca565b73ffffffffffffffffffffffffffffffffffffffff1673ffffffffffffffffffffffffffffffffffffffff16815260200190815260200160002060008573ffffffffffffffffffffffffffffffffffffffff1673ffffffffffffffffffffffffffffffffffffffff168152602001908152602001600020549050828110156107eb576040517f08c379a00000000000000000000000000000000000000000000000000000000081526004016107e2906115ce565b60405180910390fd5b6107ff6107f66108ca565b858584036108d2565b600191505092915050565b6000610839600560009054906101000a900473ffffffffffffffffffffffffffffffffffffffff168484610a9b565b6001905092915050565b6000600160008473ffffffffffffffffffffffffffffffffffffffff1673ffffffffffffffffffffffffffffffffffffffff16815260200190815260200160002060008373ffffffffffffffffffffffffffffffffffffffff1673ffffffffffffffffffffffffffffffffffffffff16815260200190815260200160002054905092915050565b600033905090565b600073ffffffffffffffffffffffffffffffffffffffff168373ffffffffffffffffffffffffffffffffffffffff1603610941576040517f08c379a000000000000000000000000000000000000000000000000000000000815260040161093890611660565b60405180910390fd5b600073ffffffffffffffffffffffffffffffffffffffff168273ffffffffffffffffffffffffffffffffffffffff16036109b0576040517f08c379a00000000000000000000000000000000000000000000000000000000081526004016109a7906116f2565b60405180910390fd5b80600160008573ffffffffffffffffffffffffffffffffffffffff1673ffffffffffffffffffffffffffffffffffffffff16815260200190815260200160002060008473ffffffffffffffffffffffffffffffffffffffff1673ffffffffffffffffffffffffffffffffffffffff168152602001908152602001600020819055508173ffffffffffffffffffffffffffffffffffffffff168373ffffffffffffffffffffffffffffffffffffffff167f8c5be1e5ebec7d5bd14f71427d1e84f3dd0314c0f7b2291e5b200ac8c7c3b92583604051610a8e9190611232565b60405180910390a3505050565b600073ffffffffffffffffffffffffffffffffffffffff168373ffffffffffffffffffffffffffffffffffffffff1603610b0a576040517f08c379a0000000000000000000000000000000000000000000000000000000008152600401610b0190611784565b60405180910390fd5b600073ffffffffffffffffffffffffffffffffffffffff168273ffffffffffffffffffffffffffffffffffffffff1603610b79576040517f08c379a0000000000000000000000000000000000000000000000000000000008152600401610b7090611816565b60405180910390fd5b610b8483838361104f565b60008060008573ffffffffffffffffffffffffffffffffffffffff1673ffffffffffffffffffffffffffffffffffffffff16815260200190815260200160002054905081811015610c0a576040517f08c379a0000000000000000000000000000000000000000000000000000000008152600401610c01906118a8565b60405180910390fd5b8181036000808673ffffffffffffffffffffffffffffffffffffffff1673ffffffffffffffffffffffffffffffffffffffff16815260200190815260200160002081905550816000808573ffffffffffffffffffffffffffffffffffffffff1673ffffffffffffffffffffffffffffffffffffffff1681526020019081526020016000206000828254610c9d91906114bc565b925050819055508273ffffffffffffffffffffffffffffffffffffffff168473ffffffffffffffffffffffffffffffffffffffff167fddf252ad1be2c89b69c2b068fc378daa952ba7f163c4a11628f55a4df523b3ef84604051610d019190611232565b60405180910390a3610d14848484611054565b50505050565b600073ffffffffffffffffffffffffffffffffffffffff168273ffffffffffffffffffffffffffffffffffffffff1603610d89576040517f08c379a0000000000000000000000000000000000000000000000000000000008152600401610d8090611914565b60405180910390fd5b610d956000838361104f565b8060026000828254610da791906114bc565b92505081905550806000808473ffffffffffffffffffffffffffffffffffffffff1673ffffffffffffffffffffffffffffffffffffffff1681526020019081526020016000206000828254610dfc91906114bc565b925050819055508173ffffffffffffffffffffffffffffffffffffffff16600073ffffffffffffffffffffffffffffffffffffffff167fddf252ad1be2c89b69c2b068fc378daa952ba7f163c4a11628f55a4df523b3ef83604051610e619190611232565b60405180910390a3610e7560008383611054565b5050565b600073ffffffffffffffffffffffffffffffffffffffff168273ffffffffffffffffffffffffffffffffffffffff1603610ee8576040517f08c379a0000000000000000000000000000000000000000000000000000000008152600401610edf906119a6565b60405180910390fd5b610ef48260008361104f565b60008060008473ffffffffffffffffffffffffffffffffffffffff1673ffffffffffffffffffffffffffffffffffffffff16815260200190815260200160002054905081811015610f7a576040517f08c379a0000000000000000000000000000000000000000000000000000000008152600401610f7190611a38565b60405180910390fd5b8181036000808573ffffffffffffffffffffffffffffffffffffffff1673ffffffffffffffffffffffffffffffffffffffff168152602001908152602001600020819055508160026000828254610fd19190611a58565b92505081905550600073ffffffffffffffffffffffffffffffffffffffff168373ffffffffffffffffffffffffffffffffffffffff167fddf252ad1be2c89b69c2b068fc378daa952ba7f163c4a11628f55a4df523b3ef846040516110369190611232565b60405180910390a361104a83600084611054565b505050565b505050565b505050565b600081519050919050565b600082825260208201905092915050565b60005b83811015611093578082015181840152602081019050611078565b838111156110a2576000848401525b50505050565b6000601f19601f8301169050919050565b60006110c482611059565b6110ce8185611064565b93506110de818560208601611075565b6110e7816110a8565b840191505092915050565b6000602082019050818103600083015261110c81846110b9565b905092915050565b600080fd5b600073ffffffffffffffffffffffffffffffffffffffff82169050919050565b600061114482611119565b9050919050565b61115481611139565b811461115f57600080fd5b50565b6000813590506111718161114b565b92915050565b6000819050919050565b61118a81611177565b811461119557600080fd5b50565b6000813590506111a781611181565b92915050565b600080604083850312156111c4576111c3611114565b5b60006111d285828601611162565b92505060206111e385828601611198565b9150509250929050565b60008115159050919050565b611202816111ed565b82525050565b600060208201905061121d60008301846111f9565b92915050565b61122c81611177565b82525050565b60006020820190506112476000830184611223565b92915050565b60008060006060848603121561126657611265611114565b5b600061127486828701611162565b935050602061128586828701611162565b925050604061129686828701611198565b9150509250925092565b600060ff82169050919050565b6112b6816112a0565b82525050565b60006020820190506112d160008301846112ad565b92915050565b6000602082840312156112ed576112ec611114565b5b60006112fb84828501611198565b91505092915050565b60006020828403121561131a57611319611114565b5b600061132884828501611162565b91505092915050565b61133a81611139565b82525050565b60006020820190506113556000830184611331565b92915050565b6000806040838503121561137257611371611114565b5b600061138085828601611162565b925050602061139185828601611162565b9150509250929050565b7f4e487b7100000000000000000000000000000000000000000000000000000000600052602260045260246000fd5b600060028204905060018216806113e257607f821691505b6020821081036113f5576113f461139b565b5b50919050565b7f45524332303a207472616e7366657220616d6f756e742065786365656473206160008201527f6c6c6f77616e6365000000000000000000000000000000000000000000000000602082015250565b6000611457602883611064565b9150611462826113fb565b604082019050919050565b600060208201905081810360008301526114868161144a565b9050919050565b7f4e487b7100000000000000000000000000000000000000000000000000000000600052601160045260246000fd5b60006114c782611177565b91506114d283611177565b92508282019050808211156114ea576114e961148d565b5b92915050565b7f4f6e6c79206f776e65722063616e206d696e7420210000000000000000000000600082015250565b6000611526601583611064565b9150611531826114f0565b602082019050919050565b6000602082019050818103600083015261155581611519565b9050919050565b7f45524332303a2064656372656173656420616c6c6f77616e63652062656c6f7760008201527f207a65726f000000000000000000000000000000000000000000000000000000602082015250565b60006115b8602583611064565b91506115c38261155c565b604082019050919050565b600060208201905081810360008301526115e7816115ab565b9050919050565b7f45524332303a20617070726f76652066726f6d20746865207a65726f2061646460008201527f7265737300000000000000000000000000000000000000000000000000000000602082015250565b600061164a602483611064565b9150611655826115ee565b604082019050919050565b600060208201905081810360008301526116798161163d565b9050919050565b7f45524332303a20617070726f766520746f20746865207a65726f20616464726560008201527f7373000000000000000000000000000000000000000000000000000000000000602082015250565b60006116dc602283611064565b91506116e782611680565b604082019050919050565b6000602082019050818103600083015261170b816116cf565b9050919050565b7f45524332303a207472616e736665722066726f6d20746865207a65726f20616460008201527f6472657373000000000000000000000000000000000000000000000000000000602082015250565b600061176e602583611064565b915061177982611712565b604082019050919050565b6000602082019050818103600083015261179d81611761565b9050919050565b7f45524332303a207472616e7366657220746f20746865207a65726f206164647260008201527f6573730000000000000000000000000000000000000000000000000000000000602082015250565b6000611800602383611064565b915061180b826117a4565b604082019050919050565b6000602082019050818103600083015261182f816117f3565b9050919050565b7f45524332303a207472616e7366657220616d6f756e742065786365656473206260008201527f616c616e63650000000000000000000000000000000000000000000000000000602082015250565b6000611892602683611064565b915061189d82611836565b604082019050919050565b600060208201905081810360008301526118c181611885565b9050919050565b7f45524332303a206d696e7420746f20746865207a65726f206164647265737300600082015250565b60006118fe601f83611064565b9150611909826118c8565b602082019050919050565b6000602082019050818103600083015261192d816118f1565b9050919050565b7f45524332303a206275726e2066726f6d20746865207a65726f2061646472657360008201527f7300000000000000000000000000000000000000000000000000000000000000602082015250565b6000611990602183611064565b915061199b82611934565b604082019050919050565b600060208201905081810360008301526119bf81611983565b9050919050565b7f45524332303a206275726e20616d6f756e7420657863656564732062616c616e60008201527f6365000000000000000000000000000000000000000000000000000000000000602082015250565b6000611a22602283611064565b9150611a2d826119c6565b604082019050919050565b60006020820190508181036000830152611a5181611a15565b9050919050565b6000611a6382611177565b9150611a6e83611177565b9250828203905081811115611a8657611a8561148d565b5b9291505056fea2646970667358221220090c958943c23ef8d8cd0405cf3c1f66ee960d972af2059b7155f7331842f4b464736f6c637823302e382e31362d63692e323032322e372e31342b636f6d6d69742e38303030383865330054",
					"opcodes": "PUSH1 0x80 PUSH1 0x40 MSTORE CALLVALUE DUP1 ISZERO PUSH3 0x11 JUMPI PUSH1 0x0 DUP1 REVERT JUMPDEST POP PUSH1 0x40 MLOAD DUP1 PUSH1 0x40 ADD PUSH1 0x40 MSTORE DUP1 PUSH1 0x5 DUP2 MSTORE PUSH1 0x20 ADD PUSH32 0x6570617273000000000000000000000000000000000000000000000000000000 DUP2 MSTORE POP PUSH1 0x40 MLOAD DUP1 PUSH1 0x40 ADD PUSH1 0x40 MSTORE DUP1 PUSH1 0x5 DUP2 MSTORE PUSH1 0x20 ADD PUSH32 0x4550415253000000000000000000000000000000000000000000000000000000 DUP2 MSTORE POP DUP2 PUSH1 0x3 SWAP1 DUP2 PUSH3 0x8F SWAP2 SWAP1 PUSH3 0x504 JUMP JUMPDEST POP DUP1 PUSH1 0x4 SWAP1 DUP2 PUSH3 0xA1 SWAP2 SWAP1 PUSH3 0x504 JUMP JUMPDEST POP POP POP PUSH3 0xC1 CALLER PUSH11 0x3913517EBD3C0C65000000 PUSH3 0x108 PUSH1 0x20 SHL PUSH1 0x20 SHR JUMP JUMPDEST CALLER PUSH1 0x5 PUSH1 0x0 PUSH2 0x100 EXP DUP2 SLOAD DUP2 PUSH20 0xFFFFFFFFFFFFFFFFFFFFFFFFFFFFFFFFFFFFFFFF MUL NOT AND SWAP1 DUP4 PUSH20 0xFFFFFFFFFFFFFFFFFFFFFFFFFFFFFFFFFFFFFFFF AND MUL OR SWAP1 SSTORE POP PUSH3 0x706 JUMP JUMPDEST PUSH1 0x0 PUSH20 0xFFFFFFFFFFFFFFFFFFFFFFFFFFFFFFFFFFFFFFFF AND DUP3 PUSH20 0xFFFFFFFFFFFFFFFFFFFFFFFFFFFFFFFFFFFFFFFF AND SUB PUSH3 0x17A JUMPI PUSH1 0x40 MLOAD PUSH32 0x8C379A000000000000000000000000000000000000000000000000000000000 DUP2 MSTORE PUSH1 0x4 ADD PUSH3 0x171 SWAP1 PUSH3 0x64C JUMP JUMPDEST PUSH1 0x40 MLOAD DUP1 SWAP2 SUB SWAP1 REVERT JUMPDEST PUSH3 0x18E PUSH1 0x0 DUP4 DUP4 PUSH3 0x280 PUSH1 0x20 SHL PUSH1 0x20 SHR JUMP JUMPDEST DUP1 PUSH1 0x2 PUSH1 0x0 DUP3 DUP3 SLOAD PUSH3 0x1A2 SWAP2 SWAP1 PUSH3 0x69D JUMP JUMPDEST SWAP3 POP POP DUP2 SWAP1 SSTORE POP DUP1 PUSH1 0x0 DUP1 DUP5 PUSH20 0xFFFFFFFFFFFFFFFFFFFFFFFFFFFFFFFFFFFFFFFF AND PUSH20 0xFFFFFFFFFFFFFFFFFFFFFFFFFFFFFFFFFFFFFFFF AND DUP2 MSTORE PUSH1 0x20 ADD SWAP1 DUP2 MSTORE PUSH1 0x20 ADD PUSH1 0x0 KECCAK256 PUSH1 0x0 DUP3 DUP3 SLOAD PUSH3 0x1F9 SWAP2 SWAP1 PUSH3 0x69D JUMP JUMPDEST SWAP3 POP POP DUP2 SWAP1 SSTORE POP DUP2 PUSH20 0xFFFFFFFFFFFFFFFFFFFFFFFFFFFFFFFFFFFFFFFF AND PUSH1 0x0 PUSH20 0xFFFFFFFFFFFFFFFFFFFFFFFFFFFFFFFFFFFFFFFF AND PUSH32 0xDDF252AD1BE2C89B69C2B068FC378DAA952BA7F163C4A11628F55A4DF523B3EF DUP4 PUSH1 0x40 MLOAD PUSH3 0x260 SWAP2 SWAP1 PUSH3 0x6E9 JUMP JUMPDEST PUSH1 0x40 MLOAD DUP1 SWAP2 SUB SWAP1 LOG3 PUSH3 0x27C PUSH1 0x0 DUP4 DUP4 PUSH3 0x285 PUSH1 0x20 SHL PUSH1 0x20 SHR JUMP JUMPDEST POP POP JUMP JUMPDEST POP POP POP JUMP JUMPDEST POP POP POP JUMP JUMPDEST PUSH1 0x0 DUP2 MLOAD SWAP1 POP SWAP2 SWAP1 POP JUMP JUMPDEST PUSH32 0x4E487B7100000000000000000000000000000000000000000000000000000000 PUSH1 0x0 MSTORE PUSH1 0x41 PUSH1 0x4 MSTORE PUSH1 0x24 PUSH1 0x0 REVERT JUMPDEST PUSH32 0x4E487B7100000000000000000000000000000000000000000000000000000000 PUSH1 0x0 MSTORE PUSH1 0x22 PUSH1 0x4 MSTORE PUSH1 0x24 PUSH1 0x0 REVERT JUMPDEST PUSH1 0x0 PUSH1 0x2 DUP3 DIV SWAP1 POP PUSH1 0x1 DUP3 AND DUP1 PUSH3 0x30C JUMPI PUSH1 0x7F DUP3 AND SWAP2 POP JUMPDEST PUSH1 0x20 DUP3 LT DUP2 SUB PUSH3 0x322 JUMPI PUSH3 0x321 PUSH3 0x2C4 JUMP JUMPDEST JUMPDEST POP SWAP2 SWAP1 POP JUMP JUMPDEST PUSH1 0x0 DUP2 SWAP1 POP DUP2 PUSH1 0x0 MSTORE PUSH1 0x20 PUSH1 0x0 KECCAK256 SWAP1 POP SWAP2 SWAP1 POP JUMP JUMPDEST PUSH1 0x0 PUSH1 0x20 PUSH1 0x1F DUP4 ADD DIV SWAP1 POP SWAP2 SWAP1 POP JUMP JUMPDEST PUSH1 0x0 DUP3 DUP3 SHL SWAP1 POP SWAP3 SWAP2 POP POP JUMP JUMPDEST PUSH1 0x0 PUSH1 0x8 DUP4 MUL PUSH3 0x38C PUSH32 0xFFFFFFFFFFFFFFFFFFFFFFFFFFFFFFFFFFFFFFFFFFFFFFFFFFFFFFFFFFFFFFFF DUP3 PUSH3 0x34D JUMP JUMPDEST PUSH3 0x398 DUP7 DUP4 PUSH3 0x34D JUMP JUMPDEST SWAP6 POP DUP1 NOT DUP5 AND SWAP4 POP DUP1 DUP7 AND DUP5 OR SWAP3 POP POP POP SWAP4 SWAP3 POP POP POP JUMP JUMPDEST PUSH1 0x0 DUP2 SWAP1 POP SWAP2 SWAP1 POP JUMP JUMPDEST PUSH1 0x0 DUP2 SWAP1 POP SWAP2 SWAP1 POP JUMP JUMPDEST PUSH1 0x0 PUSH3 0x3E5 PUSH3 0x3DF PUSH3 0x3D9 DUP5 PUSH3 0x3B0 JUMP JUMPDEST PUSH3 0x3BA JUMP JUMPDEST PUSH3 0x3B0 JUMP JUMPDEST SWAP1 POP SWAP2 SWAP1 POP JUMP JUMPDEST PUSH1 0x0 DUP2 SWAP1 POP SWAP2 SWAP1 POP JUMP JUMPDEST PUSH3 0x401 DUP4 PUSH3 0x3C4 JUMP JUMPDEST PUSH3 0x419 PUSH3 0x410 DUP3 PUSH3 0x3EC JUMP JUMPDEST DUP5 DUP5 SLOAD PUSH3 0x35A JUMP JUMPDEST DUP3 SSTORE POP POP POP POP JUMP JUMPDEST PUSH1 0x0 SWAP1 JUMP JUMPDEST PUSH3 0x430 PUSH3 0x421 JUMP JUMPDEST PUSH3 0x43D DUP2 DUP5 DUP5 PUSH3 0x3F6 JUMP JUMPDEST POP POP POP JUMP JUMPDEST JUMPDEST DUP2 DUP2 LT ISZERO PUSH3 0x465 JUMPI PUSH3 0x459 PUSH1 0x0 DUP3 PUSH3 0x426 JUMP JUMPDEST PUSH1 0x1 DUP2 ADD SWAP1 POP PUSH3 0x443 JUMP JUMPDEST POP POP JUMP JUMPDEST PUSH1 0x1F DUP3 GT ISZERO PUSH3 0x4B4 JUMPI PUSH3 0x47E DUP2 PUSH3 0x328 JUMP JUMPDEST PUSH3 0x489 DUP5 PUSH3 0x33D JUMP JUMPDEST DUP2 ADD PUSH1 0x20 DUP6 LT ISZERO PUSH3 0x499 JUMPI DUP2 SWAP1 POP JUMPDEST PUSH3 0x4B1 PUSH3 0x4A8 DUP6 PUSH3 0x33D JUMP JUMPDEST DUP4 ADD DUP3 PUSH3 0x442 JUMP JUMPDEST POP POP JUMPDEST POP POP POP JUMP JUMPDEST PUSH1 0x0 DUP3 DUP3 SHR SWAP1 POP SWAP3 SWAP2 POP POP JUMP JUMPDEST PUSH1 0x0 PUSH3 0x4D9 PUSH1 0x0 NOT DUP5 PUSH1 0x8 MUL PUSH3 0x4B9 JUMP JUMPDEST NOT DUP1 DUP4 AND SWAP2 POP POP SWAP3 SWAP2 POP POP JUMP JUMPDEST PUSH1 0x0 PUSH3 0x4F4 DUP4 DUP4 PUSH3 0x4C6 JUMP JUMPDEST SWAP2 POP DUP3 PUSH1 0x2 MUL DUP3 OR SWAP1 POP SWAP3 SWAP2 POP POP JUMP JUMPDEST PUSH3 0x50F DUP3 PUSH3 0x28A JUMP JUMPDEST PUSH8 0xFFFFFFFFFFFFFFFF DUP2 GT ISZERO PUSH3 0x52B JUMPI PUSH3 0x52A PUSH3 0x295 JUMP JUMPDEST JUMPDEST PUSH3 0x537 DUP3 SLOAD PUSH3 0x2F3 JUMP JUMPDEST PUSH3 0x544 DUP3 DUP3 DUP6 PUSH3 0x469 JUMP JUMPDEST PUSH1 0x0 PUSH1 0x20 SWAP1 POP PUSH1 0x1F DUP4 GT PUSH1 0x1 DUP2 EQ PUSH3 0x57C JUMPI PUSH1 0x0 DUP5 ISZERO PUSH3 0x567 JUMPI DUP3 DUP8 ADD MLOAD SWAP1 POP JUMPDEST PUSH3 0x573 DUP6 DUP3 PUSH3 0x4E6 JUMP JUMPDEST DUP7 SSTORE POP PUSH3 0x5E3 JUMP JUMPDEST PUSH1 0x1F NOT DUP5 AND PUSH3 0x58C DUP7 PUSH3 0x328 JUMP JUMPDEST PUSH1 0x0 JUMPDEST DUP3 DUP2 LT ISZERO PUSH3 0x5B6 JUMPI DUP5 DUP10 ADD MLOAD DUP3 SSTORE PUSH1 0x1 DUP3 ADD SWAP2 POP PUSH1 0x20 DUP6 ADD SWAP5 POP PUSH1 0x20 DUP2 ADD SWAP1 POP PUSH3 0x58F JUMP JUMPDEST DUP7 DUP4 LT ISZERO PUSH3 0x5D6 JUMPI DUP5 DUP10 ADD MLOAD PUSH3 0x5D2 PUSH1 0x1F DUP10 AND DUP3 PUSH3 0x4C6 JUMP JUMPDEST DUP4 SSTORE POP JUMPDEST PUSH1 0x1 PUSH1 0x2 DUP9 MUL ADD DUP9 SSTORE POP POP POP JUMPDEST POP POP POP POP POP POP JUMP JUMPDEST PUSH1 0x0 DUP3 DUP3 MSTORE PUSH1 0x20 DUP3 ADD SWAP1 POP SWAP3 SWAP2 POP POP JUMP JUMPDEST PUSH32 0x45524332303A206D696E7420746F20746865207A65726F206164647265737300 PUSH1 0x0 DUP3 ADD MSTORE POP JUMP JUMPDEST PUSH1 0x0 PUSH3 0x634 PUSH1 0x1F DUP4 PUSH3 0x5EB JUMP JUMPDEST SWAP2 POP PUSH3 0x641 DUP3 PUSH3 0x5FC JUMP JUMPDEST PUSH1 0x20 DUP3 ADD SWAP1 POP SWAP2 SWAP1 POP JUMP JUMPDEST PUSH1 0x0 PUSH1 0x20 DUP3 ADD SWAP1 POP DUP2 DUP2 SUB PUSH1 0x0 DUP4 ADD MSTORE PUSH3 0x667 DUP2 PUSH3 0x625 JUMP JUMPDEST SWAP1 POP SWAP2 SWAP1 POP JUMP JUMPDEST PUSH32 0x4E487B7100000000000000000000000000000000000000000000000000000000 PUSH1 0x0 MSTORE PUSH1 0x11 PUSH1 0x4 MSTORE PUSH1 0x24 PUSH1 0x0 REVERT JUMPDEST PUSH1 0x0 PUSH3 0x6AA DUP3 PUSH3 0x3B0 JUMP JUMPDEST SWAP2 POP PUSH3 0x6B7 DUP4 PUSH3 0x3B0 JUMP JUMPDEST SWAP3 POP DUP3 DUP3 ADD SWAP1 POP DUP1 DUP3 GT ISZERO PUSH3 0x6D2 JUMPI PUSH3 0x6D1 PUSH3 0x66E JUMP JUMPDEST JUMPDEST SWAP3 SWAP2 POP POP JUMP JUMPDEST PUSH3 0x6E3 DUP2 PUSH3 0x3B0 JUMP JUMPDEST DUP3 MSTORE POP POP JUMP JUMPDEST PUSH1 0x0 PUSH1 0x20 DUP3 ADD SWAP1 POP PUSH3 0x700 PUSH1 0x0 DUP4 ADD DUP5 PUSH3 0x6D8 JUMP JUMPDEST SWAP3 SWAP2 POP POP JUMP JUMPDEST PUSH2 0x1AE3 DUP1 PUSH3 0x716 PUSH1 0x0 CODECOPY PUSH1 0x0 RETURN INVALID PUSH1 0x80 PUSH1 0x40 MSTORE CALLVALUE DUP1 ISZERO PUSH2 0x10 JUMPI PUSH1 0x0 DUP1 REVERT JUMPDEST POP PUSH1 0x4 CALLDATASIZE LT PUSH2 0xEA JUMPI PUSH1 0x0 CALLDATALOAD PUSH1 0xE0 SHR DUP1 PUSH4 0x42966C68 GT PUSH2 0x8C JUMPI DUP1 PUSH4 0x95D89B41 GT PUSH2 0x66 JUMPI DUP1 PUSH4 0x95D89B41 EQ PUSH2 0x25F JUMPI DUP1 PUSH4 0xA457C2D7 EQ PUSH2 0x27D JUMPI DUP1 PUSH4 0xA9059CBB EQ PUSH2 0x2AD JUMPI DUP1 PUSH4 0xDD62ED3E EQ PUSH2 0x2DD JUMPI PUSH2 0xEA JUMP JUMPDEST DUP1 PUSH4 0x42966C68 EQ PUSH2 0x1F5 JUMPI DUP1 PUSH4 0x70A08231 EQ PUSH2 0x211 JUMPI DUP1 PUSH4 0x8DA5CB5B EQ PUSH2 0x241 JUMPI PUSH2 0xEA JUMP JUMPDEST DUP1 PUSH4 0x23B872DD GT PUSH2 0xC8 JUMPI DUP1 PUSH4 0x23B872DD EQ PUSH2 0x15B JUMPI DUP1 PUSH4 0x313CE567 EQ PUSH2 0x18B JUMPI DUP1 PUSH4 0x39509351 EQ PUSH2 0x1A9 JUMPI DUP1 PUSH4 0x40C10F19 EQ PUSH2 0x1D9 JUMPI PUSH2 0xEA JUMP JUMPDEST DUP1 PUSH4 0x6FDDE03 EQ PUSH2 0xEF JUMPI DUP1 PUSH4 0x95EA7B3 EQ PUSH2 0x10D JUMPI DUP1 PUSH4 0x18160DDD EQ PUSH2 0x13D JUMPI JUMPDEST PUSH1 0x0 DUP1 REVERT JUMPDEST PUSH2 0xF7 PUSH2 0x30D JUMP JUMPDEST PUSH1 0x40 MLOAD PUSH2 0x104 SWAP2 SWAP1 PUSH2 0x10F2 JUMP JUMPDEST PUSH1 0x40 MLOAD DUP1 SWAP2 SUB SWAP1 RETURN JUMPDEST PUSH2 0x127 PUSH1 0x4 DUP1 CALLDATASIZE SUB DUP2 ADD SWAP1 PUSH2 0x122 SWAP2 SWAP1 PUSH2 0x11AD JUMP JUMPDEST PUSH2 0x39F JUMP JUMPDEST PUSH1 0x40 MLOAD PUSH2 0x134 SWAP2 SWAP1 PUSH2 0x1208 JUMP JUMPDEST PUSH1 0x40 MLOAD DUP1 SWAP2 SUB SWAP1 RETURN JUMPDEST PUSH2 0x145 PUSH2 0x3BD JUMP JUMPDEST PUSH1 0x40 MLOAD PUSH2 0x152 SWAP2 SWAP1 PUSH2 0x1232 JUMP JUMPDEST PUSH1 0x40 MLOAD DUP1 SWAP2 SUB SWAP1 RETURN JUMPDEST PUSH2 0x175 PUSH1 0x4 DUP1 CALLDATASIZE SUB DUP2 ADD SWAP1 PUSH2 0x170 SWAP2 SWAP1 PUSH2 0x124D JUMP JUMPDEST PUSH2 0x3C7 JUMP JUMPDEST PUSH1 0x40 MLOAD PUSH2 0x182 SWAP2 SWAP1 PUSH2 0x1208 JUMP JUMPDEST PUSH1 0x40 MLOAD DUP1 SWAP2 SUB SWAP1 RETURN JUMPDEST PUSH2 0x193 PUSH2 0x4BF JUMP JUMPDEST PUSH1 0x40 MLOAD PUSH2 0x1A0 SWAP2 SWAP1 PUSH2 0x12BC JUMP JUMPDEST PUSH1 0x40 MLOAD DUP1 SWAP2 SUB SWAP1 RETURN JUMPDEST PUSH2 0x1C3 PUSH1 0x4 DUP1 CALLDATASIZE SUB DUP2 ADD SWAP1 PUSH2 0x1BE SWAP2 SWAP1 PUSH2 0x11AD JUMP JUMPDEST PUSH2 0x4C8 JUMP JUMPDEST PUSH1 0x40 MLOAD PUSH2 0x1D0 SWAP2 SWAP1 PUSH2 0x1208 JUMP JUMPDEST PUSH1 0x40 MLOAD DUP1 SWAP2 SUB SWAP1 RETURN JUMPDEST PUSH2 0x1F3 PUSH1 0x4 DUP1 CALLDATASIZE SUB DUP2 ADD SWAP1 PUSH2 0x1EE SWAP2 SWAP1 PUSH2 0x11AD JUMP JUMPDEST PUSH2 0x574 JUMP JUMPDEST STOP JUMPDEST PUSH2 0x20F PUSH1 0x4 DUP1 CALLDATASIZE SUB DUP2 ADD SWAP1 PUSH2 0x20A SWAP2 SWAP1 PUSH2 0x12D7 JUMP JUMPDEST PUSH2 0x612 JUMP JUMPDEST STOP JUMPDEST PUSH2 0x22B PUSH1 0x4 DUP1 CALLDATASIZE SUB DUP2 ADD SWAP1 PUSH2 0x226 SWAP2 SWAP1 PUSH2 0x1304 JUMP JUMPDEST PUSH2 0x61F JUMP JUMPDEST PUSH1 0x40 MLOAD PUSH2 0x238 SWAP2 SWAP1 PUSH2 0x1232 JUMP JUMPDEST PUSH1 0x40 MLOAD DUP1 SWAP2 SUB SWAP1 RETURN JUMPDEST PUSH2 0x249 PUSH2 0x667 JUMP JUMPDEST PUSH1 0x40 MLOAD PUSH2 0x256 SWAP2 SWAP1 PUSH2 0x1340 JUMP JUMPDEST PUSH1 0x40 MLOAD DUP1 SWAP2 SUB SWAP1 RETURN JUMPDEST PUSH2 0x267 PUSH2 0x68D JUMP JUMPDEST PUSH1 0x40 MLOAD PUSH2 0x274 SWAP2 SWAP1 PUSH2 0x10F2 JUMP JUMPDEST PUSH1 0x40 MLOAD DUP1 SWAP2 SUB SWAP1 RETURN JUMPDEST PUSH2 0x297 PUSH1 0x4 DUP1 CALLDATASIZE SUB DUP2 ADD SWAP1 PUSH2 0x292 SWAP2 SWAP1 PUSH2 0x11AD JUMP JUMPDEST PUSH2 0x71F JUMP JUMPDEST PUSH1 0x40 MLOAD PUSH2 0x2A4 SWAP2 SWAP1 PUSH2 0x1208 JUMP JUMPDEST PUSH1 0x40 MLOAD DUP1 SWAP2 SUB SWAP1 RETURN JUMPDEST PUSH2 0x2C7 PUSH1 0x4 DUP1 CALLDATASIZE SUB DUP2 ADD SWAP1 PUSH2 0x2C2 SWAP2 SWAP1 PUSH2 0x11AD JUMP JUMPDEST PUSH2 0x80A JUMP JUMPDEST PUSH1 0x40 MLOAD PUSH2 0x2D4 SWAP2 SWAP1 PUSH2 0x1208 JUMP JUMPDEST PUSH1 0x40 MLOAD DUP1 SWAP2 SUB SWAP1 RETURN JUMPDEST PUSH2 0x2F7 PUSH1 0x4 DUP1 CALLDATASIZE SUB DUP2 ADD SWAP1 PUSH2 0x2F2 SWAP2 SWAP1 PUSH2 0x135B JUMP JUMPDEST PUSH2 0x843 JUMP JUMPDEST PUSH1 0x40 MLOAD PUSH2 0x304 SWAP2 SWAP1 PUSH2 0x1232 JUMP JUMPDEST PUSH1 0x40 MLOAD DUP1 SWAP2 SUB SWAP1 RETURN JUMPDEST PUSH1 0x60 PUSH1 0x3 DUP1 SLOAD PUSH2 0x31C SWAP1 PUSH2 0x13CA JUMP JUMPDEST DUP1 PUSH1 0x1F ADD PUSH1 0x20 DUP1 SWAP2 DIV MUL PUSH1 0x20 ADD PUSH1 0x40 MLOAD SWAP1 DUP2 ADD PUSH1 0x40 MSTORE DUP1 SWAP3 SWAP2 SWAP1 DUP2 DUP2 MSTORE PUSH1 0x20 ADD DUP3 DUP1 SLOAD PUSH2 0x348 SWAP1 PUSH2 0x13CA JUMP JUMPDEST DUP1 ISZERO PUSH2 0x395 JUMPI DUP1 PUSH1 0x1F LT PUSH2 0x36A JUMPI PUSH2 0x100 DUP1 DUP4 SLOAD DIV MUL DUP4 MSTORE SWAP2 PUSH1 0x20 ADD SWAP2 PUSH2 0x395 JUMP JUMPDEST DUP3 ADD SWAP2 SWAP1 PUSH1 0x0 MSTORE PUSH1 0x20 PUSH1 0x0 KECCAK256 SWAP1 JUMPDEST DUP2 SLOAD DUP2 MSTORE SWAP1 PUSH1 0x1 ADD SWAP1 PUSH1 0x20 ADD DUP1 DUP4 GT PUSH2 0x378 JUMPI DUP3 SWAP1 SUB PUSH1 0x1F AND DUP3 ADD SWAP2 JUMPDEST POP POP POP POP POP SWAP1 POP SWAP1 JUMP JUMPDEST PUSH1 0x0 PUSH2 0x3B3 PUSH2 0x3AC PUSH2 0x8CA JUMP JUMPDEST DUP5 DUP5 PUSH2 0x8D2 JUMP JUMPDEST PUSH1 0x1 SWAP1 POP SWAP3 SWAP2 POP POP JUMP JUMPDEST PUSH1 0x0 PUSH1 0x2 SLOAD SWAP1 POP SWAP1 JUMP JUMPDEST PUSH1 0x0 PUSH2 0x3D4 DUP5 DUP5 DUP5 PUSH2 0xA9B JUMP JUMPDEST PUSH1 0x0 PUSH1 0x1 PUSH1 0x0 DUP7 PUSH20 0xFFFFFFFFFFFFFFFFFFFFFFFFFFFFFFFFFFFFFFFF AND PUSH20 0xFFFFFFFFFFFFFFFFFFFFFFFFFFFFFFFFFFFFFFFF AND DUP2 MSTORE PUSH1 0x20 ADD SWAP1 DUP2 MSTORE PUSH1 0x20 ADD PUSH1 0x0 KECCAK256 PUSH1 0x0 PUSH2 0x41F PUSH2 0x8CA JUMP JUMPDEST PUSH20 0xFFFFFFFFFFFFFFFFFFFFFFFFFFFFFFFFFFFFFFFF AND PUSH20 0xFFFFFFFFFFFFFFFFFFFFFFFFFFFFFFFFFFFFFFFF AND DUP2 MSTORE PUSH1 0x20 ADD SWAP1 DUP2 MSTORE PUSH1 0x20 ADD PUSH1 0x0 KECCAK256 SLOAD SWAP1 POP DUP3 DUP2 LT ISZERO PUSH2 0x49F JUMPI PUSH1 0x40 MLOAD PUSH32 0x8C379A000000000000000000000000000000000000000000000000000000000 DUP2 MSTORE PUSH1 0x4 ADD PUSH2 0x496 SWAP1 PUSH2 0x146D JUMP JUMPDEST PUSH1 0x40 MLOAD DUP1 SWAP2 SUB SWAP1 REVERT JUMPDEST PUSH2 0x4B3 DUP6 PUSH2 0x4AB PUSH2 0x8CA JUMP JUMPDEST DUP6 DUP5 SUB PUSH2 0x8D2 JUMP JUMPDEST PUSH1 0x1 SWAP2 POP POP SWAP4 SWAP3 POP POP POP JUMP JUMPDEST PUSH1 0x0 PUSH1 0x12 SWAP1 POP SWAP1 JUMP JUMPDEST PUSH1 0x0 PUSH2 0x56A PUSH2 0x4D5 PUSH2 0x8CA JUMP JUMPDEST DUP5 DUP5 PUSH1 0x1 PUSH1 0x0 PUSH2 0x4E3 PUSH2 0x8CA JUMP JUMPDEST PUSH20 0xFFFFFFFFFFFFFFFFFFFFFFFFFFFFFFFFFFFFFFFF AND PUSH20 0xFFFFFFFFFFFFFFFFFFFFFFFFFFFFFFFFFFFFFFFF AND DUP2 MSTORE PUSH1 0x20 ADD SWAP1 DUP2 MSTORE PUSH1 0x20 ADD PUSH1 0x0 KECCAK256 PUSH1 0x0 DUP9 PUSH20 0xFFFFFFFFFFFFFFFFFFFFFFFFFFFFFFFFFFFFFFFF AND PUSH20 0xFFFFFFFFFFFFFFFFFFFFFFFFFFFFFFFFFFFFFFFF AND DUP2 MSTORE PUSH1 0x20 ADD SWAP1 DUP2 MSTORE PUSH1 0x20 ADD PUSH1 0x0 KECCAK256 SLOAD PUSH2 0x565 SWAP2 SWAP1 PUSH2 0x14BC JUMP JUMPDEST PUSH2 0x8D2 JUMP JUMPDEST PUSH1 0x1 SWAP1 POP SWAP3 SWAP2 POP POP JUMP JUMPDEST PUSH1 0x5 PUSH1 0x0 SWAP1 SLOAD SWAP1 PUSH2 0x100 EXP SWAP1 DIV PUSH20 0xFFFFFFFFFFFFFFFFFFFFFFFFFFFFFFFFFFFFFFFF AND PUSH20 0xFFFFFFFFFFFFFFFFFFFFFFFFFFFFFFFFFFFFFFFF AND CALLER PUSH20 0xFFFFFFFFFFFFFFFFFFFFFFFFFFFFFFFFFFFFFFFF AND EQ PUSH2 0x604 JUMPI PUSH1 0x40 MLOAD PUSH32 0x8C379A000000000000000000000000000000000000000000000000000000000 DUP2 MSTORE PUSH1 0x4 ADD PUSH2 0x5FB SWAP1 PUSH2 0x153C JUMP JUMPDEST PUSH1 0x40 MLOAD DUP1 SWAP2 SUB SWAP1 REVERT JUMPDEST PUSH2 0x60E DUP3 DUP3 PUSH2 0xD1A JUMP JUMPDEST POP POP JUMP JUMPDEST PUSH2 0x61C CALLER DUP3 PUSH2 0xE79 JUMP JUMPDEST POP JUMP JUMPDEST PUSH1 0x0 DUP1 PUSH1 0x0 DUP4 PUSH20 0xFFFFFFFFFFFFFFFFFFFFFFFFFFFFFFFFFFFFFFFF AND PUSH20 0xFFFFFFFFFFFFFFFFFFFFFFFFFFFFFFFFFFFFFFFF AND DUP2 MSTORE PUSH1 0x20 ADD SWAP1 DUP2 MSTORE PUSH1 0x20 ADD PUSH1 0x0 KECCAK256 SLOAD SWAP1 POP SWAP2 SWAP1 POP JUMP JUMPDEST PUSH1 0x5 PUSH1 0x0 SWAP1 SLOAD SWAP1 PUSH2 0x100 EXP SWAP1 DIV PUSH20 0xFFFFFFFFFFFFFFFFFFFFFFFFFFFFFFFFFFFFFFFF AND DUP2 JUMP JUMPDEST PUSH1 0x60 PUSH1 0x4 DUP1 SLOAD PUSH2 0x69C SWAP1 PUSH2 0x13CA JUMP JUMPDEST DUP1 PUSH1 0x1F ADD PUSH1 0x20 DUP1 SWAP2 DIV MUL PUSH1 0x20 ADD PUSH1 0x40 MLOAD SWAP1 DUP2 ADD PUSH1 0x40 MSTORE DUP1 SWAP3 SWAP2 SWAP1 DUP2 DUP2 MSTORE PUSH1 0x20 ADD DUP3 DUP1 SLOAD PUSH2 0x6C8 SWAP1 PUSH2 0x13CA JUMP JUMPDEST DUP1 ISZERO PUSH2 0x715 JUMPI DUP1 PUSH1 0x1F LT PUSH2 0x6EA JUMPI PUSH2 0x100 DUP1 DUP4 SLOAD DIV MUL DUP4 MSTORE SWAP2 PUSH1 0x20 ADD SWAP2 PUSH2 0x715 JUMP JUMPDEST DUP3 ADD SWAP2 SWAP1 PUSH1 0x0 MSTORE PUSH1 0x20 PUSH1 0x0 KECCAK256 SWAP1 JUMPDEST DUP2 SLOAD DUP2 MSTORE SWAP1 PUSH1 0x1 ADD SWAP1 PUSH1 0x20 ADD DUP1 DUP4 GT PUSH2 0x6F8 JUMPI DUP3 SWAP1 SUB PUSH1 0x1F AND DUP3 ADD SWAP2 JUMPDEST POP POP POP POP POP SWAP1 POP SWAP1 JUMP JUMPDEST PUSH1 0x0 DUP1 PUSH1 0x1 PUSH1 0x0 PUSH2 0x72E PUSH2 0x8CA JUMP JUMPDEST PUSH20 0xFFFFFFFFFFFFFFFFFFFFFFFFFFFFFFFFFFFFFFFF AND PUSH20 0xFFFFFFFFFFFFFFFFFFFFFFFFFFFFFFFFFFFFFFFF AND DUP2 MSTORE PUSH1 0x20 ADD SWAP1 DUP2 MSTORE PUSH1 0x20 ADD PUSH1 0x0 KECCAK256 PUSH1 0x0 DUP6 PUSH20 0xFFFFFFFFFFFFFFFFFFFFFFFFFFFFFFFFFFFFFFFF AND PUSH20 0xFFFFFFFFFFFFFFFFFFFFFFFFFFFFFFFFFFFFFFFF AND DUP2 MSTORE PUSH1 0x20 ADD SWAP1 DUP2 MSTORE PUSH1 0x20 ADD PUSH1 0x0 KECCAK256 SLOAD SWAP1 POP DUP3 DUP2 LT ISZERO PUSH2 0x7EB JUMPI PUSH1 0x40 MLOAD PUSH32 0x8C379A000000000000000000000000000000000000000000000000000000000 DUP2 MSTORE PUSH1 0x4 ADD PUSH2 0x7E2 SWAP1 PUSH2 0x15CE JUMP JUMPDEST PUSH1 0x40 MLOAD DUP1 SWAP2 SUB SWAP1 REVERT JUMPDEST PUSH2 0x7FF PUSH2 0x7F6 PUSH2 0x8CA JUMP JUMPDEST DUP6 DUP6 DUP5 SUB PUSH2 0x8D2 JUMP JUMPDEST PUSH1 0x1 SWAP2 POP POP SWAP3 SWAP2 POP POP JUMP JUMPDEST PUSH1 0x0 PUSH2 0x839 PUSH1 0x5 PUSH1 0x0 SWAP1 SLOAD SWAP1 PUSH2 0x100 EXP SWAP1 DIV PUSH20 0xFFFFFFFFFFFFFFFFFFFFFFFFFFFFFFFFFFFFFFFF AND DUP5 DUP5 PUSH2 0xA9B JUMP JUMPDEST PUSH1 0x1 SWAP1 POP SWAP3 SWAP2 POP POP JUMP JUMPDEST PUSH1 0x0 PUSH1 0x1 PUSH1 0x0 DUP5 PUSH20 0xFFFFFFFFFFFFFFFFFFFFFFFFFFFFFFFFFFFFFFFF AND PUSH20 0xFFFFFFFFFFFFFFFFFFFFFFFFFFFFFFFFFFFFFFFF AND DUP2 MSTORE PUSH1 0x20 ADD SWAP1 DUP2 MSTORE PUSH1 0x20 ADD PUSH1 0x0 KECCAK256 PUSH1 0x0 DUP4 PUSH20 0xFFFFFFFFFFFFFFFFFFFFFFFFFFFFFFFFFFFFFFFF AND PUSH20 0xFFFFFFFFFFFFFFFFFFFFFFFFFFFFFFFFFFFFFFFF AND DUP2 MSTORE PUSH1 0x20 ADD SWAP1 DUP2 MSTORE PUSH1 0x20 ADD PUSH1 0x0 KECCAK256 SLOAD SWAP1 POP SWAP3 SWAP2 POP POP JUMP JUMPDEST PUSH1 0x0 CALLER SWAP1 POP SWAP1 JUMP JUMPDEST PUSH1 0x0 PUSH20 0xFFFFFFFFFFFFFFFFFFFFFFFFFFFFFFFFFFFFFFFF AND DUP4 PUSH20 0xFFFFFFFFFFFFFFFFFFFFFFFFFFFFFFFFFFFFFFFF AND SUB PUSH2 0x941 JUMPI PUSH1 0x40 MLOAD PUSH32 0x8C379A000000000000000000000000000000000000000000000000000000000 DUP2 MSTORE PUSH1 0x4 ADD PUSH2 0x938 SWAP1 PUSH2 0x1660 JUMP JUMPDEST PUSH1 0x40 MLOAD DUP1 SWAP2 SUB SWAP1 REVERT JUMPDEST PUSH1 0x0 PUSH20 0xFFFFFFFFFFFFFFFFFFFFFFFFFFFFFFFFFFFFFFFF AND DUP3 PUSH20 0xFFFFFFFFFFFFFFFFFFFFFFFFFFFFFFFFFFFFFFFF AND SUB PUSH2 0x9B0 JUMPI PUSH1 0x40 MLOAD PUSH32 0x8C379A000000000000000000000000000000000000000000000000000000000 DUP2 MSTORE PUSH1 0x4 ADD PUSH2 0x9A7 SWAP1 PUSH2 0x16F2 JUMP JUMPDEST PUSH1 0x40 MLOAD DUP1 SWAP2 SUB SWAP1 REVERT JUMPDEST DUP1 PUSH1 0x1 PUSH1 0x0 DUP6 PUSH20 0xFFFFFFFFFFFFFFFFFFFFFFFFFFFFFFFFFFFFFFFF AND PUSH20 0xFFFFFFFFFFFFFFFFFFFFFFFFFFFFFFFFFFFFFFFF AND DUP2 MSTORE PUSH1 0x20 ADD SWAP1 DUP2 MSTORE PUSH1 0x20 ADD PUSH1 0x0 KECCAK256 PUSH1 0x0 DUP5 PUSH20 0xFFFFFFFFFFFFFFFFFFFFFFFFFFFFFFFFFFFFFFFF AND PUSH20 0xFFFFFFFFFFFFFFFFFFFFFFFFFFFFFFFFFFFFFFFF AND DUP2 MSTORE PUSH1 0x20 ADD SWAP1 DUP2 MSTORE PUSH1 0x20 ADD PUSH1 0x0 KECCAK256 DUP2 SWAP1 SSTORE POP DUP2 PUSH20 0xFFFFFFFFFFFFFFFFFFFFFFFFFFFFFFFFFFFFFFFF AND DUP4 PUSH20 0xFFFFFFFFFFFFFFFFFFFFFFFFFFFFFFFFFFFFFFFF AND PUSH32 0x8C5BE1E5EBEC7D5BD14F71427D1E84F3DD0314C0F7B2291E5B200AC8C7C3B925 DUP4 PUSH1 0x40 MLOAD PUSH2 0xA8E SWAP2 SWAP1 PUSH2 0x1232 JUMP JUMPDEST PUSH1 0x40 MLOAD DUP1 SWAP2 SUB SWAP1 LOG3 POP POP POP JUMP JUMPDEST PUSH1 0x0 PUSH20 0xFFFFFFFFFFFFFFFFFFFFFFFFFFFFFFFFFFFFFFFF AND DUP4 PUSH20 0xFFFFFFFFFFFFFFFFFFFFFFFFFFFFFFFFFFFFFFFF AND SUB PUSH2 0xB0A JUMPI PUSH1 0x40 MLOAD PUSH32 0x8C379A000000000000000000000000000000000000000000000000000000000 DUP2 MSTORE PUSH1 0x4 ADD PUSH2 0xB01 SWAP1 PUSH2 0x1784 JUMP JUMPDEST PUSH1 0x40 MLOAD DUP1 SWAP2 SUB SWAP1 REVERT JUMPDEST PUSH1 0x0 PUSH20 0xFFFFFFFFFFFFFFFFFFFFFFFFFFFFFFFFFFFFFFFF AND DUP3 PUSH20 0xFFFFFFFFFFFFFFFFFFFFFFFFFFFFFFFFFFFFFFFF AND SUB PUSH2 0xB79 JUMPI PUSH1 0x40 MLOAD PUSH32 0x8C379A000000000000000000000000000000000000000000000000000000000 DUP2 MSTORE PUSH1 0x4 ADD PUSH2 0xB70 SWAP1 PUSH2 0x1816 JUMP JUMPDEST PUSH1 0x40 MLOAD DUP1 SWAP2 SUB SWAP1 REVERT JUMPDEST PUSH2 0xB84 DUP4 DUP4 DUP4 PUSH2 0x104F JUMP JUMPDEST PUSH1 0x0 DUP1 PUSH1 0x0 DUP6 PUSH20 0xFFFFFFFFFFFFFFFFFFFFFFFFFFFFFFFFFFFFFFFF AND PUSH20 0xFFFFFFFFFFFFFFFFFFFFFFFFFFFFFFFFFFFFFFFF AND DUP2 MSTORE PUSH1 0x20 ADD SWAP1 DUP2 MSTORE PUSH1 0x20 ADD PUSH1 0x0 KECCAK256 SLOAD SWAP1 POP DUP2 DUP2 LT ISZERO PUSH2 0xC0A JUMPI PUSH1 0x40 MLOAD PUSH32 0x8C379A000000000000000000000000000000000000000000000000000000000 DUP2 MSTORE PUSH1 0x4 ADD PUSH2 0xC01 SWAP1 PUSH2 0x18A8 JUMP JUMPDEST PUSH1 0x40 MLOAD DUP1 SWAP2 SUB SWAP1 REVERT JUMPDEST DUP2 DUP2 SUB PUSH1 0x0 DUP1 DUP7 PUSH20 0xFFFFFFFFFFFFFFFFFFFFFFFFFFFFFFFFFFFFFFFF AND PUSH20 0xFFFFFFFFFFFFFFFFFFFFFFFFFFFFFFFFFFFFFFFF AND DUP2 MSTORE PUSH1 0x20 ADD SWAP1 DUP2 MSTORE PUSH1 0x20 ADD PUSH1 0x0 KECCAK256 DUP2 SWAP1 SSTORE POP DUP2 PUSH1 0x0 DUP1 DUP6 PUSH20 0xFFFFFFFFFFFFFFFFFFFFFFFFFFFFFFFFFFFFFFFF AND PUSH20 0xFFFFFFFFFFFFFFFFFFFFFFFFFFFFFFFFFFFFFFFF AND DUP2 MSTORE PUSH1 0x20 ADD SWAP1 DUP2 MSTORE PUSH1 0x20 ADD PUSH1 0x0 KECCAK256 PUSH1 0x0 DUP3 DUP3 SLOAD PUSH2 0xC9D SWAP2 SWAP1 PUSH2 0x14BC JUMP JUMPDEST SWAP3 POP POP DUP2 SWAP1 SSTORE POP DUP3 PUSH20 0xFFFFFFFFFFFFFFFFFFFFFFFFFFFFFFFFFFFFFFFF AND DUP5 PUSH20 0xFFFFFFFFFFFFFFFFFFFFFFFFFFFFFFFFFFFFFFFF AND PUSH32 0xDDF252AD1BE2C89B69C2B068FC378DAA952BA7F163C4A11628F55A4DF523B3EF DUP5 PUSH1 0x40 MLOAD PUSH2 0xD01 SWAP2 SWAP1 PUSH2 0x1232 JUMP JUMPDEST PUSH1 0x40 MLOAD DUP1 SWAP2 SUB SWAP1 LOG3 PUSH2 0xD14 DUP5 DUP5 DUP5 PUSH2 0x1054 JUMP JUMPDEST POP POP POP POP JUMP JUMPDEST PUSH1 0x0 PUSH20 0xFFFFFFFFFFFFFFFFFFFFFFFFFFFFFFFFFFFFFFFF AND DUP3 PUSH20 0xFFFFFFFFFFFFFFFFFFFFFFFFFFFFFFFFFFFFFFFF AND SUB PUSH2 0xD89 JUMPI PUSH1 0x40 MLOAD PUSH32 0x8C379A000000000000000000000000000000000000000000000000000000000 DUP2 MSTORE PUSH1 0x4 ADD PUSH2 0xD80 SWAP1 PUSH2 0x1914 JUMP JUMPDEST PUSH1 0x40 MLOAD DUP1 SWAP2 SUB SWAP1 REVERT JUMPDEST PUSH2 0xD95 PUSH1 0x0 DUP4 DUP4 PUSH2 0x104F JUMP JUMPDEST DUP1 PUSH1 0x2 PUSH1 0x0 DUP3 DUP3 SLOAD PUSH2 0xDA7 SWAP2 SWAP1 PUSH2 0x14BC JUMP JUMPDEST SWAP3 POP POP DUP2 SWAP1 SSTORE POP DUP1 PUSH1 0x0 DUP1 DUP5 PUSH20 0xFFFFFFFFFFFFFFFFFFFFFFFFFFFFFFFFFFFFFFFF AND PUSH20 0xFFFFFFFFFFFFFFFFFFFFFFFFFFFFFFFFFFFFFFFF AND DUP2 MSTORE PUSH1 0x20 ADD SWAP1 DUP2 MSTORE PUSH1 0x20 ADD PUSH1 0x0 KECCAK256 PUSH1 0x0 DUP3 DUP3 SLOAD PUSH2 0xDFC SWAP2 SWAP1 PUSH2 0x14BC JUMP JUMPDEST SWAP3 POP POP DUP2 SWAP1 SSTORE POP DUP2 PUSH20 0xFFFFFFFFFFFFFFFFFFFFFFFFFFFFFFFFFFFFFFFF AND PUSH1 0x0 PUSH20 0xFFFFFFFFFFFFFFFFFFFFFFFFFFFFFFFFFFFFFFFF AND PUSH32 0xDDF252AD1BE2C89B69C2B068FC378DAA952BA7F163C4A11628F55A4DF523B3EF DUP4 PUSH1 0x40 MLOAD PUSH2 0xE61 SWAP2 SWAP1 PUSH2 0x1232 JUMP JUMPDEST PUSH1 0x40 MLOAD DUP1 SWAP2 SUB SWAP1 LOG3 PUSH2 0xE75 PUSH1 0x0 DUP4 DUP4 PUSH2 0x1054 JUMP JUMPDEST POP POP JUMP JUMPDEST PUSH1 0x0 PUSH20 0xFFFFFFFFFFFFFFFFFFFFFFFFFFFFFFFFFFFFFFFF AND DUP3 PUSH20 0xFFFFFFFFFFFFFFFFFFFFFFFFFFFFFFFFFFFFFFFF AND SUB PUSH2 0xEE8 JUMPI PUSH1 0x40 MLOAD PUSH32 0x8C379A000000000000000000000000000000000000000000000000000000000 DUP2 MSTORE PUSH1 0x4 ADD PUSH2 0xEDF SWAP1 PUSH2 0x19A6 JUMP JUMPDEST PUSH1 0x40 MLOAD DUP1 SWAP2 SUB SWAP1 REVERT JUMPDEST PUSH2 0xEF4 DUP3 PUSH1 0x0 DUP4 PUSH2 0x104F JUMP JUMPDEST PUSH1 0x0 DUP1 PUSH1 0x0 DUP5 PUSH20 0xFFFFFFFFFFFFFFFFFFFFFFFFFFFFFFFFFFFFFFFF AND PUSH20 0xFFFFFFFFFFFFFFFFFFFFFFFFFFFFFFFFFFFFFFFF AND DUP2 MSTORE PUSH1 0x20 ADD SWAP1 DUP2 MSTORE PUSH1 0x20 ADD PUSH1 0x0 KECCAK256 SLOAD SWAP1 POP DUP2 DUP2 LT ISZERO PUSH2 0xF7A JUMPI PUSH1 0x40 MLOAD PUSH32 0x8C379A000000000000000000000000000000000000000000000000000000000 DUP2 MSTORE PUSH1 0x4 ADD PUSH2 0xF71 SWAP1 PUSH2 0x1A38 JUMP JUMPDEST PUSH1 0x40 MLOAD DUP1 SWAP2 SUB SWAP1 REVERT JUMPDEST DUP2 DUP2 SUB PUSH1 0x0 DUP1 DUP6 PUSH20 0xFFFFFFFFFFFFFFFFFFFFFFFFFFFFFFFFFFFFFFFF AND PUSH20 0xFFFFFFFFFFFFFFFFFFFFFFFFFFFFFFFFFFFFFFFF AND DUP2 MSTORE PUSH1 0x20 ADD SWAP1 DUP2 MSTORE PUSH1 0x20 ADD PUSH1 0x0 KECCAK256 DUP2 SWAP1 SSTORE POP DUP2 PUSH1 0x2 PUSH1 0x0 DUP3 DUP3 SLOAD PUSH2 0xFD1 SWAP2 SWAP1 PUSH2 0x1A58 JUMP JUMPDEST SWAP3 POP POP DUP2 SWAP1 SSTORE POP PUSH1 0x0 PUSH20 0xFFFFFFFFFFFFFFFFFFFFFFFFFFFFFFFFFFFFFFFF AND DUP4 PUSH20 0xFFFFFFFFFFFFFFFFFFFFFFFFFFFFFFFFFFFFFFFF AND PUSH32 0xDDF252AD1BE2C89B69C2B068FC378DAA952BA7F163C4A11628F55A4DF523B3EF DUP5 PUSH1 0x40 MLOAD PUSH2 0x1036 SWAP2 SWAP1 PUSH2 0x1232 JUMP JUMPDEST PUSH1 0x40 MLOAD DUP1 SWAP2 SUB SWAP1 LOG3 PUSH2 0x104A DUP4 PUSH1 0x0 DUP5 PUSH2 0x1054 JUMP JUMPDEST POP POP POP JUMP JUMPDEST POP POP POP JUMP JUMPDEST POP POP POP JUMP JUMPDEST PUSH1 0x0 DUP2 MLOAD SWAP1 POP SWAP2 SWAP1 POP JUMP JUMPDEST PUSH1 0x0 DUP3 DUP3 MSTORE PUSH1 0x20 DUP3 ADD SWAP1 POP SWAP3 SWAP2 POP POP JUMP JUMPDEST PUSH1 0x0 JUMPDEST DUP4 DUP2 LT ISZERO PUSH2 0x1093 JUMPI DUP1 DUP3 ADD MLOAD DUP2 DUP5 ADD MSTORE PUSH1 0x20 DUP2 ADD SWAP1 POP PUSH2 0x1078 JUMP JUMPDEST DUP4 DUP2 GT ISZERO PUSH2 0x10A2 JUMPI PUSH1 0x0 DUP5 DUP5 ADD MSTORE JUMPDEST POP POP POP POP JUMP JUMPDEST PUSH1 0x0 PUSH1 0x1F NOT PUSH1 0x1F DUP4 ADD AND SWAP1 POP SWAP2 SWAP1 POP JUMP JUMPDEST PUSH1 0x0 PUSH2 0x10C4 DUP3 PUSH2 0x1059 JUMP JUMPDEST PUSH2 0x10CE DUP2 DUP6 PUSH2 0x1064 JUMP JUMPDEST SWAP4 POP PUSH2 0x10DE DUP2 DUP6 PUSH1 0x20 DUP7 ADD PUSH2 0x1075 JUMP JUMPDEST PUSH2 0x10E7 DUP2 PUSH2 0x10A8 JUMP JUMPDEST DUP5 ADD SWAP2 POP POP SWAP3 SWAP2 POP POP JUMP JUMPDEST PUSH1 0x0 PUSH1 0x20 DUP3 ADD SWAP1 POP DUP2 DUP2 SUB PUSH1 0x0 DUP4 ADD MSTORE PUSH2 0x110C DUP2 DUP5 PUSH2 0x10B9 JUMP JUMPDEST SWAP1 POP SWAP3 SWAP2 POP POP JUMP JUMPDEST PUSH1 0x0 DUP1 REVERT JUMPDEST PUSH1 0x0 PUSH20 0xFFFFFFFFFFFFFFFFFFFFFFFFFFFFFFFFFFFFFFFF DUP3 AND SWAP1 POP SWAP2 SWAP1 POP JUMP JUMPDEST PUSH1 0x0 PUSH2 0x1144 DUP3 PUSH2 0x1119 JUMP JUMPDEST SWAP1 POP SWAP2 SWAP1 POP JUMP JUMPDEST PUSH2 0x1154 DUP2 PUSH2 0x1139 JUMP JUMPDEST DUP2 EQ PUSH2 0x115F JUMPI PUSH1 0x0 DUP1 REVERT JUMPDEST POP JUMP JUMPDEST PUSH1 0x0 DUP2 CALLDATALOAD SWAP1 POP PUSH2 0x1171 DUP2 PUSH2 0x114B JUMP JUMPDEST SWAP3 SWAP2 POP POP JUMP JUMPDEST PUSH1 0x0 DUP2 SWAP1 POP SWAP2 SWAP1 POP JUMP JUMPDEST PUSH2 0x118A DUP2 PUSH2 0x1177 JUMP JUMPDEST DUP2 EQ PUSH2 0x1195 JUMPI PUSH1 0x0 DUP1 REVERT JUMPDEST POP JUMP JUMPDEST PUSH1 0x0 DUP2 CALLDATALOAD SWAP1 POP PUSH2 0x11A7 DUP2 PUSH2 0x1181 JUMP JUMPDEST SWAP3 SWAP2 POP POP JUMP JUMPDEST PUSH1 0x0 DUP1 PUSH1 0x40 DUP4 DUP6 SUB SLT ISZERO PUSH2 0x11C4 JUMPI PUSH2 0x11C3 PUSH2 0x1114 JUMP JUMPDEST JUMPDEST PUSH1 0x0 PUSH2 0x11D2 DUP6 DUP3 DUP7 ADD PUSH2 0x1162 JUMP JUMPDEST SWAP3 POP POP PUSH1 0x20 PUSH2 0x11E3 DUP6 DUP3 DUP7 ADD PUSH2 0x1198 JUMP JUMPDEST SWAP2 POP POP SWAP3 POP SWAP3 SWAP1 POP JUMP JUMPDEST PUSH1 0x0 DUP2 ISZERO ISZERO SWAP1 POP SWAP2 SWAP1 POP JUMP JUMPDEST PUSH2 0x1202 DUP2 PUSH2 0x11ED JUMP JUMPDEST DUP3 MSTORE POP POP JUMP JUMPDEST PUSH1 0x0 PUSH1 0x20 DUP3 ADD SWAP1 POP PUSH2 0x121D PUSH1 0x0 DUP4 ADD DUP5 PUSH2 0x11F9 JUMP JUMPDEST SWAP3 SWAP2 POP POP JUMP JUMPDEST PUSH2 0x122C DUP2 PUSH2 0x1177 JUMP JUMPDEST DUP3 MSTORE POP POP JUMP JUMPDEST PUSH1 0x0 PUSH1 0x20 DUP3 ADD SWAP1 POP PUSH2 0x1247 PUSH1 0x0 DUP4 ADD DUP5 PUSH2 0x1223 JUMP JUMPDEST SWAP3 SWAP2 POP POP JUMP JUMPDEST PUSH1 0x0 DUP1 PUSH1 0x0 PUSH1 0x60 DUP5 DUP7 SUB SLT ISZERO PUSH2 0x1266 JUMPI PUSH2 0x1265 PUSH2 0x1114 JUMP JUMPDEST JUMPDEST PUSH1 0x0 PUSH2 0x1274 DUP7 DUP3 DUP8 ADD PUSH2 0x1162 JUMP JUMPDEST SWAP4 POP POP PUSH1 0x20 PUSH2 0x1285 DUP7 DUP3 DUP8 ADD PUSH2 0x1162 JUMP JUMPDEST SWAP3 POP POP PUSH1 0x40 PUSH2 0x1296 DUP7 DUP3 DUP8 ADD PUSH2 0x1198 JUMP JUMPDEST SWAP2 POP POP SWAP3 POP SWAP3 POP SWAP3 JUMP JUMPDEST PUSH1 0x0 PUSH1 0xFF DUP3 AND SWAP1 POP SWAP2 SWAP1 POP JUMP JUMPDEST PUSH2 0x12B6 DUP2 PUSH2 0x12A0 JUMP JUMPDEST DUP3 MSTORE POP POP JUMP JUMPDEST PUSH1 0x0 PUSH1 0x20 DUP3 ADD SWAP1 POP PUSH2 0x12D1 PUSH1 0x0 DUP4 ADD DUP5 PUSH2 0x12AD JUMP JUMPDEST SWAP3 SWAP2 POP POP JUMP JUMPDEST PUSH1 0x0 PUSH1 0x20 DUP3 DUP5 SUB SLT ISZERO PUSH2 0x12ED JUMPI PUSH2 0x12EC PUSH2 0x1114 JUMP JUMPDEST JUMPDEST PUSH1 0x0 PUSH2 0x12FB DUP5 DUP3 DUP6 ADD PUSH2 0x1198 JUMP JUMPDEST SWAP2 POP POP SWAP3 SWAP2 POP POP JUMP JUMPDEST PUSH1 0x0 PUSH1 0x20 DUP3 DUP5 SUB SLT ISZERO PUSH2 0x131A JUMPI PUSH2 0x1319 PUSH2 0x1114 JUMP JUMPDEST JUMPDEST PUSH1 0x0 PUSH2 0x1328 DUP5 DUP3 DUP6 ADD PUSH2 0x1162 JUMP JUMPDEST SWAP2 POP POP SWAP3 SWAP2 POP POP JUMP JUMPDEST PUSH2 0x133A DUP2 PUSH2 0x1139 JUMP JUMPDEST DUP3 MSTORE POP POP JUMP JUMPDEST PUSH1 0x0 PUSH1 0x20 DUP3 ADD SWAP1 POP PUSH2 0x1355 PUSH1 0x0 DUP4 ADD DUP5 PUSH2 0x1331 JUMP JUMPDEST SWAP3 SWAP2 POP POP JUMP JUMPDEST PUSH1 0x0 DUP1 PUSH1 0x40 DUP4 DUP6 SUB SLT ISZERO PUSH2 0x1372 JUMPI PUSH2 0x1371 PUSH2 0x1114 JUMP JUMPDEST JUMPDEST PUSH1 0x0 PUSH2 0x1380 DUP6 DUP3 DUP7 ADD PUSH2 0x1162 JUMP JUMPDEST SWAP3 POP POP PUSH1 0x20 PUSH2 0x1391 DUP6 DUP3 DUP7 ADD PUSH2 0x1162 JUMP JUMPDEST SWAP2 POP POP SWAP3 POP SWAP3 SWAP1 POP JUMP JUMPDEST PUSH32 0x4E487B7100000000000000000000000000000000000000000000000000000000 PUSH1 0x0 MSTORE PUSH1 0x22 PUSH1 0x4 MSTORE PUSH1 0x24 PUSH1 0x0 REVERT JUMPDEST PUSH1 0x0 PUSH1 0x2 DUP3 DIV SWAP1 POP PUSH1 0x1 DUP3 AND DUP1 PUSH2 0x13E2 JUMPI PUSH1 0x7F DUP3 AND SWAP2 POP JUMPDEST PUSH1 0x20 DUP3 LT DUP2 SUB PUSH2 0x13F5 JUMPI PUSH2 0x13F4 PUSH2 0x139B JUMP JUMPDEST JUMPDEST POP SWAP2 SWAP1 POP JUMP JUMPDEST PUSH32 0x45524332303A207472616E7366657220616D6F756E7420657863656564732061 PUSH1 0x0 DUP3 ADD MSTORE PUSH32 0x6C6C6F77616E6365000000000000000000000000000000000000000000000000 PUSH1 0x20 DUP3 ADD MSTORE POP JUMP JUMPDEST PUSH1 0x0 PUSH2 0x1457 PUSH1 0x28 DUP4 PUSH2 0x1064 JUMP JUMPDEST SWAP2 POP PUSH2 0x1462 DUP3 PUSH2 0x13FB JUMP JUMPDEST PUSH1 0x40 DUP3 ADD SWAP1 POP SWAP2 SWAP1 POP JUMP JUMPDEST PUSH1 0x0 PUSH1 0x20 DUP3 ADD SWAP1 POP DUP2 DUP2 SUB PUSH1 0x0 DUP4 ADD MSTORE PUSH2 0x1486 DUP2 PUSH2 0x144A JUMP JUMPDEST SWAP1 POP SWAP2 SWAP1 POP JUMP JUMPDEST PUSH32 0x4E487B7100000000000000000000000000000000000000000000000000000000 PUSH1 0x0 MSTORE PUSH1 0x11 PUSH1 0x4 MSTORE PUSH1 0x24 PUSH1 0x0 REVERT JUMPDEST PUSH1 0x0 PUSH2 0x14C7 DUP3 PUSH2 0x1177 JUMP JUMPDEST SWAP2 POP PUSH2 0x14D2 DUP4 PUSH2 0x1177 JUMP JUMPDEST SWAP3 POP DUP3 DUP3 ADD SWAP1 POP DUP1 DUP3 GT ISZERO PUSH2 0x14EA JUMPI PUSH2 0x14E9 PUSH2 0x148D JUMP JUMPDEST JUMPDEST SWAP3 SWAP2 POP POP JUMP JUMPDEST PUSH32 0x4F6E6C79206F776E65722063616E206D696E7420210000000000000000000000 PUSH1 0x0 DUP3 ADD MSTORE POP JUMP JUMPDEST PUSH1 0x0 PUSH2 0x1526 PUSH1 0x15 DUP4 PUSH2 0x1064 JUMP JUMPDEST SWAP2 POP PUSH2 0x1531 DUP3 PUSH2 0x14F0 JUMP JUMPDEST PUSH1 0x20 DUP3 ADD SWAP1 POP SWAP2 SWAP1 POP JUMP JUMPDEST PUSH1 0x0 PUSH1 0x20 DUP3 ADD SWAP1 POP DUP2 DUP2 SUB PUSH1 0x0 DUP4 ADD MSTORE PUSH2 0x1555 DUP2 PUSH2 0x1519 JUMP JUMPDEST SWAP1 POP SWAP2 SWAP1 POP JUMP JUMPDEST PUSH32 0x45524332303A2064656372656173656420616C6C6F77616E63652062656C6F77 PUSH1 0x0 DUP3 ADD MSTORE PUSH32 0x207A65726F000000000000000000000000000000000000000000000000000000 PUSH1 0x20 DUP3 ADD MSTORE POP JUMP JUMPDEST PUSH1 0x0 PUSH2 0x15B8 PUSH1 0x25 DUP4 PUSH2 0x1064 JUMP JUMPDEST SWAP2 POP PUSH2 0x15C3 DUP3 PUSH2 0x155C JUMP JUMPDEST PUSH1 0x40 DUP3 ADD SWAP1 POP SWAP2 SWAP1 POP JUMP JUMPDEST PUSH1 0x0 PUSH1 0x20 DUP3 ADD SWAP1 POP DUP2 DUP2 SUB PUSH1 0x0 DUP4 ADD MSTORE PUSH2 0x15E7 DUP2 PUSH2 0x15AB JUMP JUMPDEST SWAP1 POP SWAP2 SWAP1 POP JUMP JUMPDEST PUSH32 0x45524332303A20617070726F76652066726F6D20746865207A65726F20616464 PUSH1 0x0 DUP3 ADD MSTORE PUSH32 0x7265737300000000000000000000000000000000000000000000000000000000 PUSH1 0x20 DUP3 ADD MSTORE POP JUMP JUMPDEST PUSH1 0x0 PUSH2 0x164A PUSH1 0x24 DUP4 PUSH2 0x1064 JUMP JUMPDEST SWAP2 POP PUSH2 0x1655 DUP3 PUSH2 0x15EE JUMP JUMPDEST PUSH1 0x40 DUP3 ADD SWAP1 POP SWAP2 SWAP1 POP JUMP JUMPDEST PUSH1 0x0 PUSH1 0x20 DUP3 ADD SWAP1 POP DUP2 DUP2 SUB PUSH1 0x0 DUP4 ADD MSTORE PUSH2 0x1679 DUP2 PUSH2 0x163D JUMP JUMPDEST SWAP1 POP SWAP2 SWAP1 POP JUMP JUMPDEST PUSH32 0x45524332303A20617070726F766520746F20746865207A65726F206164647265 PUSH1 0x0 DUP3 ADD MSTORE PUSH32 0x7373000000000000000000000000000000000000000000000000000000000000 PUSH1 0x20 DUP3 ADD MSTORE POP JUMP JUMPDEST PUSH1 0x0 PUSH2 0x16DC PUSH1 0x22 DUP4 PUSH2 0x1064 JUMP JUMPDEST SWAP2 POP PUSH2 0x16E7 DUP3 PUSH2 0x1680 JUMP JUMPDEST PUSH1 0x40 DUP3 ADD SWAP1 POP SWAP2 SWAP1 POP JUMP JUMPDEST PUSH1 0x0 PUSH1 0x20 DUP3 ADD SWAP1 POP DUP2 DUP2 SUB PUSH1 0x0 DUP4 ADD MSTORE PUSH2 0x170B DUP2 PUSH2 0x16CF JUMP JUMPDEST SWAP1 POP SWAP2 SWAP1 POP JUMP JUMPDEST PUSH32 0x45524332303A207472616E736665722066726F6D20746865207A65726F206164 PUSH1 0x0 DUP3 ADD MSTORE PUSH32 0x6472657373000000000000000000000000000000000000000000000000000000 PUSH1 0x20 DUP3 ADD MSTORE POP JUMP JUMPDEST PUSH1 0x0 PUSH2 0x176E PUSH1 0x25 DUP4 PUSH2 0x1064 JUMP JUMPDEST SWAP2 POP PUSH2 0x1779 DUP3 PUSH2 0x1712 JUMP JUMPDEST PUSH1 0x40 DUP3 ADD SWAP1 POP SWAP2 SWAP1 POP JUMP JUMPDEST PUSH1 0x0 PUSH1 0x20 DUP3 ADD SWAP1 POP DUP2 DUP2 SUB PUSH1 0x0 DUP4 ADD MSTORE PUSH2 0x179D DUP2 PUSH2 0x1761 JUMP JUMPDEST SWAP1 POP SWAP2 SWAP1 POP JUMP JUMPDEST PUSH32 0x45524332303A207472616E7366657220746F20746865207A65726F2061646472 PUSH1 0x0 DUP3 ADD MSTORE PUSH32 0x6573730000000000000000000000000000000000000000000000000000000000 PUSH1 0x20 DUP3 ADD MSTORE POP JUMP JUMPDEST PUSH1 0x0 PUSH2 0x1800 PUSH1 0x23 DUP4 PUSH2 0x1064 JUMP JUMPDEST SWAP2 POP PUSH2 0x180B DUP3 PUSH2 0x17A4 JUMP JUMPDEST PUSH1 0x40 DUP3 ADD SWAP1 POP SWAP2 SWAP1 POP JUMP JUMPDEST PUSH1 0x0 PUSH1 0x20 DUP3 ADD SWAP1 POP DUP2 DUP2 SUB PUSH1 0x0 DUP4 ADD MSTORE PUSH2 0x182F DUP2 PUSH2 0x17F3 JUMP JUMPDEST SWAP1 POP SWAP2 SWAP1 POP JUMP JUMPDEST PUSH32 0x45524332303A207472616E7366657220616D6F756E7420657863656564732062 PUSH1 0x0 DUP3 ADD MSTORE PUSH32 0x616C616E63650000000000000000000000000000000000000000000000000000 PUSH1 0x20 DUP3 ADD MSTORE POP JUMP JUMPDEST PUSH1 0x0 PUSH2 0x1892 PUSH1 0x26 DUP4 PUSH2 0x1064 JUMP JUMPDEST SWAP2 POP PUSH2 0x189D DUP3 PUSH2 0x1836 JUMP JUMPDEST PUSH1 0x40 DUP3 ADD SWAP1 POP SWAP2 SWAP1 POP JUMP JUMPDEST PUSH1 0x0 PUSH1 0x20 DUP3 ADD SWAP1 POP DUP2 DUP2 SUB PUSH1 0x0 DUP4 ADD MSTORE PUSH2 0x18C1 DUP2 PUSH2 0x1885 JUMP JUMPDEST SWAP1 POP SWAP2 SWAP1 POP JUMP JUMPDEST PUSH32 0x45524332303A206D696E7420746F20746865207A65726F206164647265737300 PUSH1 0x0 DUP3 ADD MSTORE POP JUMP JUMPDEST PUSH1 0x0 PUSH2 0x18FE PUSH1 0x1F DUP4 PUSH2 0x1064 JUMP JUMPDEST SWAP2 POP PUSH2 0x1909 DUP3 PUSH2 0x18C8 JUMP JUMPDEST PUSH1 0x20 DUP3 ADD SWAP1 POP SWAP2 SWAP1 POP JUMP JUMPDEST PUSH1 0x0 PUSH1 0x20 DUP3 ADD SWAP1 POP DUP2 DUP2 SUB PUSH1 0x0 DUP4 ADD MSTORE PUSH2 0x192D DUP2 PUSH2 0x18F1 JUMP JUMPDEST SWAP1 POP SWAP2 SWAP1 POP JUMP JUMPDEST PUSH32 0x45524332303A206275726E2066726F6D20746865207A65726F20616464726573 PUSH1 0x0 DUP3 ADD MSTORE PUSH32 0x7300000000000000000000000000000000000000000000000000000000000000 PUSH1 0x20 DUP3 ADD MSTORE POP JUMP JUMPDEST PUSH1 0x0 PUSH2 0x1990 PUSH1 0x21 DUP4 PUSH2 0x1064 JUMP JUMPDEST SWAP2 POP PUSH2 0x199B DUP3 PUSH2 0x1934 JUMP JUMPDEST PUSH1 0x40 DUP3 ADD SWAP1 POP SWAP2 SWAP1 POP JUMP JUMPDEST PUSH1 0x0 PUSH1 0x20 DUP3 ADD SWAP1 POP DUP2 DUP2 SUB PUSH1 0x0 DUP4 ADD MSTORE PUSH2 0x19BF DUP2 PUSH2 0x1983 JUMP JUMPDEST SWAP1 POP SWAP2 SWAP1 POP JUMP JUMPDEST PUSH32 0x45524332303A206275726E20616D6F756E7420657863656564732062616C616E PUSH1 0x0 DUP3 ADD MSTORE PUSH32 0x6365000000000000000000000000000000000000000000000000000000000000 PUSH1 0x20 DUP3 ADD MSTORE POP JUMP JUMPDEST PUSH1 0x0 PUSH2 0x1A22 PUSH1 0x22 DUP4 PUSH2 0x1064 JUMP JUMPDEST SWAP2 POP PUSH2 0x1A2D DUP3 PUSH2 0x19C6 JUMP JUMPDEST PUSH1 0x40 DUP3 ADD SWAP1 POP SWAP2 SWAP1 POP JUMP JUMPDEST PUSH1 0x0 PUSH1 0x20 DUP3 ADD SWAP1 POP DUP2 DUP2 SUB PUSH1 0x0 DUP4 ADD MSTORE PUSH2 0x1A51 DUP2 PUSH2 0x1A15 JUMP JUMPDEST SWAP1 POP SWAP2 SWAP1 POP JUMP JUMPDEST PUSH1 0x0 PUSH2 0x1A63 DUP3 PUSH2 0x1177 JUMP JUMPDEST SWAP2 POP PUSH2 0x1A6E DUP4 PUSH2 0x1177 JUMP JUMPDEST SWAP3 POP DUP3 DUP3 SUB SWAP1 POP DUP2 DUP2 GT ISZERO PUSH2 0x1A86 JUMPI PUSH2 0x1A85 PUSH2 0x148D JUMP JUMPDEST JUMPDEST SWAP3 SWAP2 POP POP JUMP INVALID LOG2 PUSH5 0x6970667358 0x22 SLT KECCAK256 MULMOD 0xC SWAP6 DUP10 NUMBER 0xC2 RETURNDATACOPY 0xF8 0xD8 0xCD DIV SDIV 0xCF EXTCODECOPY 0x1F PUSH7 0xEE960D972AF205 SWAP12 PUSH18 0x55F7331842F4B464736F6C637823302E382E BALANCE CALLDATASIZE 0x2D PUSH4 0x692E3230 ORIGIN ORIGIN 0x2E CALLDATACOPY 0x2E BALANCE CALLVALUE 0x2B PUSH4 0x6F6D6D69 PUSH21 0x2E3830303038386533005400000000000000000000 "
				},
				"gasEstimates": {
					"creation": {
						"codeDepositCost": "1376600",
						"executionCost": "infinite",
						"totalCost": "infinite"
					},
					"external": {
						"allowance(address,address)": "infinite",
						"approve(address,uint256)": "infinite",
						"balanceOf(address)": "2886",
						"burn(uint256)": "infinite",
						"decimals()": "388",
						"decreaseAllowance(address,uint256)": "infinite",
						"increaseAllowance(address,uint256)": "infinite",
						"mint(address,uint256)": "infinite",
						"name()": "infinite",
						"owner()": "2581",
						"symbol()": "infinite",
						"totalSupply()": "2505",
						"transfer(address,uint256)": "infinite",
						"transferFrom(address,address,uint256)": "infinite"
					}
				},
				"methodIdentifiers": {
					"allowance(address,address)": "dd62ed3e",
					"approve(address,uint256)": "095ea7b3",
					"balanceOf(address)": "70a08231",
					"burn(uint256)": "42966c68",
					"decimals()": "313ce567",
					"decreaseAllowance(address,uint256)": "a457c2d7",
					"increaseAllowance(address,uint256)": "39509351",
					"mint(address,uint256)": "40c10f19",
					"name()": "06fdde03",
					"owner()": "8da5cb5b",
					"symbol()": "95d89b41",
					"totalSupply()": "18160ddd",
					"transfer(address,uint256)": "a9059cbb",
					"transferFrom(address,address,uint256)": "23b872dd"
				}
			},
			"storageLayout": {
				"storage": [
					{
						"astId": 119,
						"contract": "EPARS.sol:EPARS",
						"label": "_balances",
						"offset": 0,
						"slot": "0",
						"type": "t_mapping(t_address,t_uint256)"
					},
					{
						"astId": 125,
						"contract": "EPARS.sol:EPARS",
						"label": "_allowances",
						"offset": 0,
						"slot": "1",
						"type": "t_mapping(t_address,t_mapping(t_address,t_uint256))"
					},
					{
						"astId": 127,
						"contract": "EPARS.sol:EPARS",
						"label": "_totalSupply",
						"offset": 0,
						"slot": "2",
						"type": "t_uint256"
					},
					{
						"astId": 129,
						"contract": "EPARS.sol:EPARS",
						"label": "_name",
						"offset": 0,
						"slot": "3",
						"type": "t_string_storage"
					},
					{
						"astId": 131,
						"contract": "EPARS.sol:EPARS",
						"label": "_symbol",
						"offset": 0,
						"slot": "4",
						"type": "t_string_storage"
					},
					{
						"astId": 27,
						"contract": "EPARS.sol:EPARS",
						"label": "owner",
						"offset": 0,
						"slot": "5",
						"type": "t_address"
					}
				],
				"types": {
					"t_address": {
						"encoding": "inplace",
						"label": "address",
						"numberOfBytes": "20"
					},
					"t_mapping(t_address,t_mapping(t_address,t_uint256))": {
						"encoding": "mapping",
						"key": "t_address",
						"label": "mapping(address => mapping(address => uint256))",
						"numberOfBytes": "32",
						"value": "t_mapping(t_address,t_uint256)"
					},
					"t_mapping(t_address,t_uint256)": {
						"encoding": "mapping",
						"key": "t_address",
						"label": "mapping(address => uint256)",
						"numberOfBytes": "32",
						"value": "t_uint256"
					},
					"t_string_storage": {
						"encoding": "bytes",
						"label": "string",
						"numberOfBytes": "32"
					},
					"t_uint256": {
						"encoding": "inplace",
						"label": "uint256",
						"numberOfBytes": "32"
					}
				}
			},
			"userdoc": {
				"kind": "user",
				"methods": {},
				"version": 1
			}
		}
	}
}