{
	"EparsFactory.sol": {
		"indexPeopleWithMapping": {
			"abi": [
				{
					"inputs": [
						{
							"internalType": "string",
							"name": "_firstName",
							"type": "string"
						},
						{
							"internalType": "string",
							"name": "_lastName",
							"type": "string"
						}
					],
					"name": "addPerson",
					"outputs": [],
					"stateMutability": "nonpayable",
					"type": "function"
				},
				{
					"inputs": [
						{
							"internalType": "uint256",
							"name": "",
							"type": "uint256"
						}
					],
					"name": "people",
					"outputs": [
						{
							"internalType": "uint256",
							"name": "_id",
							"type": "uint256"
						},
						{
							"internalType": "string",
							"name": "_firstName",
							"type": "string"
						},
						{
							"internalType": "string",
							"name": "_lastName",
							"type": "string"
						}
					],
					"stateMutability": "view",
					"type": "function"
				},
				{
					"inputs": [],
					"name": "peopleCount",
					"outputs": [
						{
							"internalType": "uint256",
							"name": "",
							"type": "uint256"
						}
					],
					"stateMutability": "view",
					"type": "function"
				}
			],
			"devdoc": {
				"kind": "dev",
				"methods": {},
				"version": 1
			},
			"evm": {
				"assembly": "    /* \"EparsFactory.sol\":1746:2299  contract indexPeopleWithMapping {... */\n  mstore(0x40, 0x80)\n    /* \"EparsFactory.sol\":1853:1854  0 */\n  0x00\n    /* \"EparsFactory.sol\":1824:1854  uint256 public peopleCount = 0 */\n  dup1\n  sstore\n    /* \"EparsFactory.sol\":1746:2299  contract indexPeopleWithMapping {... */\n  callvalue\n  dup1\n  iszero\n  tag_1\n  jumpi\n  0x00\n  dup1\n  revert\ntag_1:\n  pop\n  dataSize(sub_0)\n  dup1\n  dataOffset(sub_0)\n  0x00\n  codecopy\n  0x00\n  return\nstop\n\nsub_0: assembly {\n        /* \"EparsFactory.sol\":1746:2299  contract indexPeopleWithMapping {... */\n      mstore(0x40, 0x80)\n      callvalue\n      dup1\n      iszero\n      tag_1\n      jumpi\n      0x00\n      dup1\n      revert\n    tag_1:\n      pop\n      jumpi(tag_2, lt(calldatasize, 0x04))\n      shr(0xe0, calldataload(0x00))\n      dup1\n      0x22f5b58d\n      eq\n      tag_3\n      jumpi\n      dup1\n      0x267c68e0\n      eq\n      tag_4\n      jumpi\n      dup1\n      0x9e7a13ad\n      eq\n      tag_5\n      jumpi\n    tag_2:\n      0x00\n      dup1\n      revert\n        /* \"EparsFactory.sol\":2017:2218  function addPerson(string memory _firstName, string memory _lastName)... */\n    tag_3:\n      tag_6\n      0x04\n      dup1\n      calldatasize\n      sub\n      dup2\n      add\n      swap1\n      tag_7\n      swap2\n      swap1\n      tag_8\n      jump\t// in\n    tag_7:\n      tag_9\n      jump\t// in\n    tag_6:\n      stop\n        /* \"EparsFactory.sol\":1824:1854  uint256 public peopleCount = 0 */\n    tag_4:\n      tag_10\n      tag_11\n      jump\t// in\n    tag_10:\n      mload(0x40)\n      tag_12\n      swap2\n      swap1\n      tag_13\n      jump\t// in\n    tag_12:\n      mload(0x40)\n      dup1\n      swap2\n      sub\n      swap1\n      return\n        /* \"EparsFactory.sol\":1861:1901  mapping(uint256 => Person) public people */\n    tag_5:\n      tag_14\n      0x04\n      dup1\n      calldatasize\n      sub\n      dup2\n      add\n      swap1\n      tag_15\n      swap2\n      swap1\n      tag_16\n      jump\t// in\n    tag_15:\n      tag_17\n      jump\t// in\n    tag_14:\n      mload(0x40)\n      tag_18\n      swap4\n      swap3\n      swap2\n      swap1\n      tag_19\n      jump\t// in\n    tag_18:\n      mload(0x40)\n      dup1\n      swap2\n      sub\n      swap1\n      return\n        /* \"EparsFactory.sol\":2017:2218  function addPerson(string memory _firstName, string memory _lastName)... */\n    tag_9:\n        /* \"EparsFactory.sol\":2141:2183  Person(peopleCount, _firstName, _lastName) */\n      mload(0x40)\n      dup1\n      0x60\n      add\n      0x40\n      mstore\n      dup1\n        /* \"EparsFactory.sol\":2148:2159  peopleCount */\n      sload(0x00)\n        /* \"EparsFactory.sol\":2141:2183  Person(peopleCount, _firstName, _lastName) */\n      dup2\n      mstore\n      0x20\n      add\n        /* \"EparsFactory.sol\":2161:2171  _firstName */\n      dup4\n        /* \"EparsFactory.sol\":2141:2183  Person(peopleCount, _firstName, _lastName) */\n      dup2\n      mstore\n      0x20\n      add\n        /* \"EparsFactory.sol\":2173:2182  _lastName */\n      dup3\n        /* \"EparsFactory.sol\":2141:2183  Person(peopleCount, _firstName, _lastName) */\n      dup2\n      mstore\n      pop\n        /* \"EparsFactory.sol\":2119:2125  people */\n      0x01\n        /* \"EparsFactory.sol\":2119:2138  people[peopleCount] */\n      0x00\n        /* \"EparsFactory.sol\":2126:2137  peopleCount */\n      dup1\n      sload\n        /* \"EparsFactory.sol\":2119:2138  people[peopleCount] */\n      dup2\n      mstore\n      0x20\n      add\n      swap1\n      dup2\n      mstore\n      0x20\n      add\n      0x00\n      keccak256\n        /* \"EparsFactory.sol\":2119:2183  people[peopleCount] = Person(peopleCount, _firstName, _lastName) */\n      0x00\n      dup3\n      add\n      mload\n      dup2\n      0x00\n      add\n      sstore\n      0x20\n      dup3\n      add\n      mload\n      dup2\n      0x01\n      add\n      swap1\n      dup2\n      tag_21\n      swap2\n      swap1\n      tag_22\n      jump\t// in\n    tag_21:\n      pop\n      0x40\n      dup3\n      add\n      mload\n      dup2\n      0x02\n      add\n      swap1\n      dup2\n      tag_23\n      swap2\n      swap1\n      tag_22\n      jump\t// in\n    tag_23:\n      pop\n      swap1\n      pop\n      pop\n        /* \"EparsFactory.sol\":2194:2210  incrementCount() */\n      tag_24\n        /* \"EparsFactory.sol\":2194:2208  incrementCount */\n      tag_25\n        /* \"EparsFactory.sol\":2194:2210  incrementCount() */\n      jump\t// in\n    tag_24:\n        /* \"EparsFactory.sol\":2017:2218  function addPerson(string memory _firstName, string memory _lastName)... */\n      pop\n      pop\n      jump\t// out\n        /* \"EparsFactory.sol\":1824:1854  uint256 public peopleCount = 0 */\n    tag_11:\n      sload(0x00)\n      dup2\n      jump\t// out\n        /* \"EparsFactory.sol\":1861:1901  mapping(uint256 => Person) public people */\n    tag_17:\n      mstore(0x20, 0x01)\n      dup1\n      0x00\n      mstore\n      keccak256(0x00, 0x40)\n      0x00\n      swap2\n      pop\n      swap1\n      pop\n      dup1\n      0x00\n      add\n      sload\n      swap1\n      dup1\n      0x01\n      add\n      dup1\n      sload\n      tag_26\n      swap1\n      tag_27\n      jump\t// in\n    tag_26:\n      dup1\n      0x1f\n      add\n      0x20\n      dup1\n      swap2\n      div\n      mul\n      0x20\n      add\n      mload(0x40)\n      swap1\n      dup2\n      add\n      0x40\n      mstore\n      dup1\n      swap3\n      swap2\n      swap1\n      dup2\n      dup2\n      mstore\n      0x20\n      add\n      dup3\n      dup1\n      sload\n      tag_28\n      swap1\n      tag_27\n      jump\t// in\n    tag_28:\n      dup1\n      iszero\n      tag_29\n      jumpi\n      dup1\n      0x1f\n      lt\n      tag_30\n      jumpi\n      0x0100\n      dup1\n      dup4\n      sload\n      div\n      mul\n      dup4\n      mstore\n      swap2\n      0x20\n      add\n      swap2\n      jump(tag_29)\n    tag_30:\n      dup3\n      add\n      swap2\n      swap1\n      0x00\n      mstore\n      keccak256(0x00, 0x20)\n      swap1\n    tag_31:\n      dup2\n      sload\n      dup2\n      mstore\n      swap1\n      0x01\n      add\n      swap1\n      0x20\n      add\n      dup1\n      dup4\n      gt\n      tag_31\n      jumpi\n      dup3\n      swap1\n      sub\n      0x1f\n      and\n      dup3\n      add\n      swap2\n    tag_29:\n      pop\n      pop\n      pop\n      pop\n      pop\n      swap1\n      dup1\n      0x02\n      add\n      dup1\n      sload\n      tag_32\n      swap1\n      tag_27\n      jump\t// in\n    tag_32:\n      dup1\n      0x1f\n      add\n      0x20\n      dup1\n      swap2\n      div\n      mul\n      0x20\n      add\n      mload(0x40)\n      swap1\n      dup2\n      add\n      0x40\n      mstore\n      dup1\n      swap3\n      swap2\n      swap1\n      dup2\n      dup2\n      mstore\n      0x20\n      add\n      dup3\n      dup1\n      sload\n      tag_33\n      swap1\n      tag_27\n      jump\t// in\n    tag_33:\n      dup1\n      iszero\n      tag_34\n      jumpi\n      dup1\n      0x1f\n      lt\n      tag_35\n      jumpi\n      0x0100\n      dup1\n      dup4\n      sload\n      div\n      mul\n      dup4\n      mstore\n      swap2\n      0x20\n      add\n      swap2\n      jump(tag_34)\n    tag_35:\n      dup3\n      add\n      swap2\n      swap1\n      0x00\n      mstore\n      keccak256(0x00, 0x20)\n      swap1\n    tag_36:\n      dup2\n      sload\n      dup2\n      mstore\n      swap1\n      0x01\n      add\n      swap1\n      0x20\n      add\n      dup1\n      dup4\n      gt\n      tag_36\n      jumpi\n      dup3\n      swap1\n      sub\n      0x1f\n      and\n      dup3\n      add\n      swap2\n    tag_34:\n      pop\n      pop\n      pop\n      pop\n      pop\n      swap1\n      pop\n      dup4\n      jump\t// out\n        /* \"EparsFactory.sol\":2226:2296  function incrementCount() internal {... */\n    tag_25:\n        /* \"EparsFactory.sol\":2287:2288  1 */\n      0x01\n        /* \"EparsFactory.sol\":2272:2283  peopleCount */\n      0x00\n      dup1\n        /* \"EparsFactory.sol\":2272:2288  peopleCount += 1 */\n      dup3\n      dup3\n      sload\n      tag_38\n      swap2\n      swap1\n      tag_39\n      jump\t// in\n    tag_38:\n      swap3\n      pop\n      pop\n      dup2\n      swap1\n      sstore\n      pop\n        /* \"EparsFactory.sol\":2226:2296  function incrementCount() internal {... */\n      jump\t// out\n        /* \"#utility.yul\":7:82   */\n    tag_40:\n        /* \"#utility.yul\":40:46   */\n      0x00\n        /* \"#utility.yul\":73:75   */\n      0x40\n        /* \"#utility.yul\":67:76   */\n      mload\n        /* \"#utility.yul\":57:76   */\n      swap1\n      pop\n        /* \"#utility.yul\":7:82   */\n      swap1\n      jump\t// out\n        /* \"#utility.yul\":88:205   */\n    tag_41:\n        /* \"#utility.yul\":197:198   */\n      0x00\n        /* \"#utility.yul\":194:195   */\n      dup1\n        /* \"#utility.yul\":187:199   */\n      revert\n        /* \"#utility.yul\":211:328   */\n    tag_42:\n        /* \"#utility.yul\":320:321   */\n      0x00\n        /* \"#utility.yul\":317:318   */\n      dup1\n        /* \"#utility.yul\":310:322   */\n      revert\n        /* \"#utility.yul\":334:451   */\n    tag_43:\n        /* \"#utility.yul\":443:444   */\n      0x00\n        /* \"#utility.yul\":440:441   */\n      dup1\n        /* \"#utility.yul\":433:445   */\n      revert\n        /* \"#utility.yul\":457:574   */\n    tag_44:\n        /* \"#utility.yul\":566:567   */\n      0x00\n        /* \"#utility.yul\":563:564   */\n      dup1\n        /* \"#utility.yul\":556:568   */\n      revert\n        /* \"#utility.yul\":580:682   */\n    tag_45:\n        /* \"#utility.yul\":621:627   */\n      0x00\n        /* \"#utility.yul\":672:674   */\n      0x1f\n        /* \"#utility.yul\":668:675   */\n      not\n        /* \"#utility.yul\":663:665   */\n      0x1f\n        /* \"#utility.yul\":656:661   */\n      dup4\n        /* \"#utility.yul\":652:666   */\n      add\n        /* \"#utility.yul\":648:676   */\n      and\n        /* \"#utility.yul\":638:676   */\n      swap1\n      pop\n        /* \"#utility.yul\":580:682   */\n      swap2\n      swap1\n      pop\n      jump\t// out\n        /* \"#utility.yul\":688:868   */\n    tag_46:\n        /* \"#utility.yul\":736:813   */\n      0x4e487b7100000000000000000000000000000000000000000000000000000000\n        /* \"#utility.yul\":733:734   */\n      0x00\n        /* \"#utility.yul\":726:814   */\n      mstore\n        /* \"#utility.yul\":833:837   */\n      0x41\n        /* \"#utility.yul\":830:831   */\n      0x04\n        /* \"#utility.yul\":823:838   */\n      mstore\n        /* \"#utility.yul\":857:861   */\n      0x24\n        /* \"#utility.yul\":854:855   */\n      0x00\n        /* \"#utility.yul\":847:862   */\n      revert\n        /* \"#utility.yul\":874:1155   */\n    tag_47:\n        /* \"#utility.yul\":957:984   */\n      tag_87\n        /* \"#utility.yul\":979:983   */\n      dup3\n        /* \"#utility.yul\":957:984   */\n      tag_45\n      jump\t// in\n    tag_87:\n        /* \"#utility.yul\":949:955   */\n      dup2\n        /* \"#utility.yul\":945:985   */\n      add\n        /* \"#utility.yul\":1087:1093   */\n      dup2\n        /* \"#utility.yul\":1075:1085   */\n      dup2\n        /* \"#utility.yul\":1072:1094   */\n      lt\n        /* \"#utility.yul\":1051:1069   */\n      0xffffffffffffffff\n        /* \"#utility.yul\":1039:1049   */\n      dup3\n        /* \"#utility.yul\":1036:1070   */\n      gt\n        /* \"#utility.yul\":1033:1095   */\n      or\n        /* \"#utility.yul\":1030:1118   */\n      iszero\n      tag_88\n      jumpi\n        /* \"#utility.yul\":1098:1116   */\n      tag_89\n      tag_46\n      jump\t// in\n    tag_89:\n        /* \"#utility.yul\":1030:1118   */\n    tag_88:\n        /* \"#utility.yul\":1138:1148   */\n      dup1\n        /* \"#utility.yul\":1134:1136   */\n      0x40\n        /* \"#utility.yul\":1127:1149   */\n      mstore\n        /* \"#utility.yul\":917:1155   */\n      pop\n        /* \"#utility.yul\":874:1155   */\n      pop\n      pop\n      jump\t// out\n        /* \"#utility.yul\":1161:1290   */\n    tag_48:\n        /* \"#utility.yul\":1195:1201   */\n      0x00\n        /* \"#utility.yul\":1222:1242   */\n      tag_91\n      tag_40\n      jump\t// in\n    tag_91:\n        /* \"#utility.yul\":1212:1242   */\n      swap1\n      pop\n        /* \"#utility.yul\":1251:1284   */\n      tag_92\n        /* \"#utility.yul\":1279:1283   */\n      dup3\n        /* \"#utility.yul\":1271:1277   */\n      dup3\n        /* \"#utility.yul\":1251:1284   */\n      tag_47\n      jump\t// in\n    tag_92:\n        /* \"#utility.yul\":1161:1290   */\n      swap2\n      swap1\n      pop\n      jump\t// out\n        /* \"#utility.yul\":1296:1604   */\n    tag_49:\n        /* \"#utility.yul\":1358:1362   */\n      0x00\n        /* \"#utility.yul\":1448:1466   */\n      0xffffffffffffffff\n        /* \"#utility.yul\":1440:1446   */\n      dup3\n        /* \"#utility.yul\":1437:1467   */\n      gt\n        /* \"#utility.yul\":1434:1490   */\n      iszero\n      tag_94\n      jumpi\n        /* \"#utility.yul\":1470:1488   */\n      tag_95\n      tag_46\n      jump\t// in\n    tag_95:\n        /* \"#utility.yul\":1434:1490   */\n    tag_94:\n        /* \"#utility.yul\":1508:1537   */\n      tag_96\n        /* \"#utility.yul\":1530:1536   */\n      dup3\n        /* \"#utility.yul\":1508:1537   */\n      tag_45\n      jump\t// in\n    tag_96:\n        /* \"#utility.yul\":1500:1537   */\n      swap1\n      pop\n        /* \"#utility.yul\":1592:1596   */\n      0x20\n        /* \"#utility.yul\":1586:1590   */\n      dup2\n        /* \"#utility.yul\":1582:1597   */\n      add\n        /* \"#utility.yul\":1574:1597   */\n      swap1\n      pop\n        /* \"#utility.yul\":1296:1604   */\n      swap2\n      swap1\n      pop\n      jump\t// out\n        /* \"#utility.yul\":1610:1764   */\n    tag_50:\n        /* \"#utility.yul\":1694:1700   */\n      dup3\n        /* \"#utility.yul\":1689:1692   */\n      dup2\n        /* \"#utility.yul\":1684:1687   */\n      dup4\n        /* \"#utility.yul\":1671:1701   */\n      calldatacopy\n        /* \"#utility.yul\":1756:1757   */\n      0x00\n        /* \"#utility.yul\":1747:1753   */\n      dup4\n        /* \"#utility.yul\":1742:1745   */\n      dup4\n        /* \"#utility.yul\":1738:1754   */\n      add\n        /* \"#utility.yul\":1731:1758   */\n      mstore\n        /* \"#utility.yul\":1610:1764   */\n      pop\n      pop\n      pop\n      jump\t// out\n        /* \"#utility.yul\":1770:2182   */\n    tag_51:\n        /* \"#utility.yul\":1848:1853   */\n      0x00\n        /* \"#utility.yul\":1873:1939   */\n      tag_99\n        /* \"#utility.yul\":1889:1938   */\n      tag_100\n        /* \"#utility.yul\":1931:1937   */\n      dup5\n        /* \"#utility.yul\":1889:1938   */\n      tag_49\n      jump\t// in\n    tag_100:\n        /* \"#utility.yul\":1873:1939   */\n      tag_48\n      jump\t// in\n    tag_99:\n        /* \"#utility.yul\":1864:1939   */\n      swap1\n      pop\n        /* \"#utility.yul\":1962:1968   */\n      dup3\n        /* \"#utility.yul\":1955:1960   */\n      dup2\n        /* \"#utility.yul\":1948:1969   */\n      mstore\n        /* \"#utility.yul\":2000:2004   */\n      0x20\n        /* \"#utility.yul\":1993:1998   */\n      dup2\n        /* \"#utility.yul\":1989:2005   */\n      add\n        /* \"#utility.yul\":2038:2041   */\n      dup5\n        /* \"#utility.yul\":2029:2035   */\n      dup5\n        /* \"#utility.yul\":2024:2027   */\n      dup5\n        /* \"#utility.yul\":2020:2036   */\n      add\n        /* \"#utility.yul\":2017:2042   */\n      gt\n        /* \"#utility.yul\":2014:2126   */\n      iszero\n      tag_101\n      jumpi\n        /* \"#utility.yul\":2045:2124   */\n      tag_102\n      tag_44\n      jump\t// in\n    tag_102:\n        /* \"#utility.yul\":2014:2126   */\n    tag_101:\n        /* \"#utility.yul\":2135:2176   */\n      tag_103\n        /* \"#utility.yul\":2169:2175   */\n      dup5\n        /* \"#utility.yul\":2164:2167   */\n      dup3\n        /* \"#utility.yul\":2159:2162   */\n      dup6\n        /* \"#utility.yul\":2135:2176   */\n      tag_50\n      jump\t// in\n    tag_103:\n        /* \"#utility.yul\":1854:2182   */\n      pop\n        /* \"#utility.yul\":1770:2182   */\n      swap4\n      swap3\n      pop\n      pop\n      pop\n      jump\t// out\n        /* \"#utility.yul\":2202:2542   */\n    tag_52:\n        /* \"#utility.yul\":2258:2263   */\n      0x00\n        /* \"#utility.yul\":2307:2310   */\n      dup3\n        /* \"#utility.yul\":2300:2304   */\n      0x1f\n        /* \"#utility.yul\":2292:2298   */\n      dup4\n        /* \"#utility.yul\":2288:2305   */\n      add\n        /* \"#utility.yul\":2284:2311   */\n      slt\n        /* \"#utility.yul\":2274:2396   */\n      tag_105\n      jumpi\n        /* \"#utility.yul\":2315:2394   */\n      tag_106\n      tag_43\n      jump\t// in\n    tag_106:\n        /* \"#utility.yul\":2274:2396   */\n    tag_105:\n        /* \"#utility.yul\":2432:2438   */\n      dup2\n        /* \"#utility.yul\":2419:2439   */\n      calldataload\n        /* \"#utility.yul\":2457:2536   */\n      tag_107\n        /* \"#utility.yul\":2532:2535   */\n      dup5\n        /* \"#utility.yul\":2524:2530   */\n      dup3\n        /* \"#utility.yul\":2517:2521   */\n      0x20\n        /* \"#utility.yul\":2509:2515   */\n      dup7\n        /* \"#utility.yul\":2505:2522   */\n      add\n        /* \"#utility.yul\":2457:2536   */\n      tag_51\n      jump\t// in\n    tag_107:\n        /* \"#utility.yul\":2448:2536   */\n      swap2\n      pop\n        /* \"#utility.yul\":2264:2542   */\n      pop\n        /* \"#utility.yul\":2202:2542   */\n      swap3\n      swap2\n      pop\n      pop\n      jump\t// out\n        /* \"#utility.yul\":2548:3382   */\n    tag_8:\n        /* \"#utility.yul\":2636:2642   */\n      0x00\n        /* \"#utility.yul\":2644:2650   */\n      dup1\n        /* \"#utility.yul\":2693:2695   */\n      0x40\n        /* \"#utility.yul\":2681:2690   */\n      dup4\n        /* \"#utility.yul\":2672:2679   */\n      dup6\n        /* \"#utility.yul\":2668:2691   */\n      sub\n        /* \"#utility.yul\":2664:2696   */\n      slt\n        /* \"#utility.yul\":2661:2780   */\n      iszero\n      tag_109\n      jumpi\n        /* \"#utility.yul\":2699:2778   */\n      tag_110\n      tag_41\n      jump\t// in\n    tag_110:\n        /* \"#utility.yul\":2661:2780   */\n    tag_109:\n        /* \"#utility.yul\":2847:2848   */\n      0x00\n        /* \"#utility.yul\":2836:2845   */\n      dup4\n        /* \"#utility.yul\":2832:2849   */\n      add\n        /* \"#utility.yul\":2819:2850   */\n      calldataload\n        /* \"#utility.yul\":2877:2895   */\n      0xffffffffffffffff\n        /* \"#utility.yul\":2869:2875   */\n      dup2\n        /* \"#utility.yul\":2866:2896   */\n      gt\n        /* \"#utility.yul\":2863:2980   */\n      iszero\n      tag_111\n      jumpi\n        /* \"#utility.yul\":2899:2978   */\n      tag_112\n      tag_42\n      jump\t// in\n    tag_112:\n        /* \"#utility.yul\":2863:2980   */\n    tag_111:\n        /* \"#utility.yul\":3004:3067   */\n      tag_113\n        /* \"#utility.yul\":3059:3066   */\n      dup6\n        /* \"#utility.yul\":3050:3056   */\n      dup3\n        /* \"#utility.yul\":3039:3048   */\n      dup7\n        /* \"#utility.yul\":3035:3057   */\n      add\n        /* \"#utility.yul\":3004:3067   */\n      tag_52\n      jump\t// in\n    tag_113:\n        /* \"#utility.yul\":2994:3067   */\n      swap3\n      pop\n        /* \"#utility.yul\":2790:3077   */\n      pop\n        /* \"#utility.yul\":3144:3146   */\n      0x20\n        /* \"#utility.yul\":3133:3142   */\n      dup4\n        /* \"#utility.yul\":3129:3147   */\n      add\n        /* \"#utility.yul\":3116:3148   */\n      calldataload\n        /* \"#utility.yul\":3175:3193   */\n      0xffffffffffffffff\n        /* \"#utility.yul\":3167:3173   */\n      dup2\n        /* \"#utility.yul\":3164:3194   */\n      gt\n        /* \"#utility.yul\":3161:3278   */\n      iszero\n      tag_114\n      jumpi\n        /* \"#utility.yul\":3197:3276   */\n      tag_115\n      tag_42\n      jump\t// in\n    tag_115:\n        /* \"#utility.yul\":3161:3278   */\n    tag_114:\n        /* \"#utility.yul\":3302:3365   */\n      tag_116\n        /* \"#utility.yul\":3357:3364   */\n      dup6\n        /* \"#utility.yul\":3348:3354   */\n      dup3\n        /* \"#utility.yul\":3337:3346   */\n      dup7\n        /* \"#utility.yul\":3333:3355   */\n      add\n        /* \"#utility.yul\":3302:3365   */\n      tag_52\n      jump\t// in\n    tag_116:\n        /* \"#utility.yul\":3292:3365   */\n      swap2\n      pop\n        /* \"#utility.yul\":3087:3375   */\n      pop\n        /* \"#utility.yul\":2548:3382   */\n      swap3\n      pop\n      swap3\n      swap1\n      pop\n      jump\t// out\n        /* \"#utility.yul\":3388:3465   */\n    tag_53:\n        /* \"#utility.yul\":3425:3432   */\n      0x00\n        /* \"#utility.yul\":3454:3459   */\n      dup2\n        /* \"#utility.yul\":3443:3459   */\n      swap1\n      pop\n        /* \"#utility.yul\":3388:3465   */\n      swap2\n      swap1\n      pop\n      jump\t// out\n        /* \"#utility.yul\":3471:3589   */\n    tag_54:\n        /* \"#utility.yul\":3558:3582   */\n      tag_119\n        /* \"#utility.yul\":3576:3581   */\n      dup2\n        /* \"#utility.yul\":3558:3582   */\n      tag_53\n      jump\t// in\n    tag_119:\n        /* \"#utility.yul\":3553:3556   */\n      dup3\n        /* \"#utility.yul\":3546:3583   */\n      mstore\n        /* \"#utility.yul\":3471:3589   */\n      pop\n      pop\n      jump\t// out\n        /* \"#utility.yul\":3595:3817   */\n    tag_13:\n        /* \"#utility.yul\":3688:3692   */\n      0x00\n        /* \"#utility.yul\":3726:3728   */\n      0x20\n        /* \"#utility.yul\":3715:3724   */\n      dup3\n        /* \"#utility.yul\":3711:3729   */\n      add\n        /* \"#utility.yul\":3703:3729   */\n      swap1\n      pop\n        /* \"#utility.yul\":3739:3810   */\n      tag_121\n        /* \"#utility.yul\":3807:3808   */\n      0x00\n        /* \"#utility.yul\":3796:3805   */\n      dup4\n        /* \"#utility.yul\":3792:3809   */\n      add\n        /* \"#utility.yul\":3783:3789   */\n      dup5\n        /* \"#utility.yul\":3739:3810   */\n      tag_54\n      jump\t// in\n    tag_121:\n        /* \"#utility.yul\":3595:3817   */\n      swap3\n      swap2\n      pop\n      pop\n      jump\t// out\n        /* \"#utility.yul\":3823:3945   */\n    tag_55:\n        /* \"#utility.yul\":3896:3920   */\n      tag_123\n        /* \"#utility.yul\":3914:3919   */\n      dup2\n        /* \"#utility.yul\":3896:3920   */\n      tag_53\n      jump\t// in\n    tag_123:\n        /* \"#utility.yul\":3889:3894   */\n      dup2\n        /* \"#utility.yul\":3886:3921   */\n      eq\n        /* \"#utility.yul\":3876:3939   */\n      tag_124\n      jumpi\n        /* \"#utility.yul\":3935:3936   */\n      0x00\n        /* \"#utility.yul\":3932:3933   */\n      dup1\n        /* \"#utility.yul\":3925:3937   */\n      revert\n        /* \"#utility.yul\":3876:3939   */\n    tag_124:\n        /* \"#utility.yul\":3823:3945   */\n      pop\n      jump\t// out\n        /* \"#utility.yul\":3951:4090   */\n    tag_56:\n        /* \"#utility.yul\":3997:4002   */\n      0x00\n        /* \"#utility.yul\":4035:4041   */\n      dup2\n        /* \"#utility.yul\":4022:4042   */\n      calldataload\n        /* \"#utility.yul\":4013:4042   */\n      swap1\n      pop\n        /* \"#utility.yul\":4051:4084   */\n      tag_126\n        /* \"#utility.yul\":4078:4083   */\n      dup2\n        /* \"#utility.yul\":4051:4084   */\n      tag_55\n      jump\t// in\n    tag_126:\n        /* \"#utility.yul\":3951:4090   */\n      swap3\n      swap2\n      pop\n      pop\n      jump\t// out\n        /* \"#utility.yul\":4096:4425   */\n    tag_16:\n        /* \"#utility.yul\":4155:4161   */\n      0x00\n        /* \"#utility.yul\":4204:4206   */\n      0x20\n        /* \"#utility.yul\":4192:4201   */\n      dup3\n        /* \"#utility.yul\":4183:4190   */\n      dup5\n        /* \"#utility.yul\":4179:4202   */\n      sub\n        /* \"#utility.yul\":4175:4207   */\n      slt\n        /* \"#utility.yul\":4172:4291   */\n      iszero\n      tag_128\n      jumpi\n        /* \"#utility.yul\":4210:4289   */\n      tag_129\n      tag_41\n      jump\t// in\n    tag_129:\n        /* \"#utility.yul\":4172:4291   */\n    tag_128:\n        /* \"#utility.yul\":4330:4331   */\n      0x00\n        /* \"#utility.yul\":4355:4408   */\n      tag_130\n        /* \"#utility.yul\":4400:4407   */\n      dup5\n        /* \"#utility.yul\":4391:4397   */\n      dup3\n        /* \"#utility.yul\":4380:4389   */\n      dup6\n        /* \"#utility.yul\":4376:4398   */\n      add\n        /* \"#utility.yul\":4355:4408   */\n      tag_56\n      jump\t// in\n    tag_130:\n        /* \"#utility.yul\":4345:4408   */\n      swap2\n      pop\n        /* \"#utility.yul\":4301:4418   */\n      pop\n        /* \"#utility.yul\":4096:4425   */\n      swap3\n      swap2\n      pop\n      pop\n      jump\t// out\n        /* \"#utility.yul\":4431:4530   */\n    tag_57:\n        /* \"#utility.yul\":4483:4489   */\n      0x00\n        /* \"#utility.yul\":4517:4522   */\n      dup2\n        /* \"#utility.yul\":4511:4523   */\n      mload\n        /* \"#utility.yul\":4501:4523   */\n      swap1\n      pop\n        /* \"#utility.yul\":4431:4530   */\n      swap2\n      swap1\n      pop\n      jump\t// out\n        /* \"#utility.yul\":4536:4705   */\n    tag_58:\n        /* \"#utility.yul\":4620:4631   */\n      0x00\n        /* \"#utility.yul\":4654:4660   */\n      dup3\n        /* \"#utility.yul\":4649:4652   */\n      dup3\n        /* \"#utility.yul\":4642:4661   */\n      mstore\n        /* \"#utility.yul\":4694:4698   */\n      0x20\n        /* \"#utility.yul\":4689:4692   */\n      dup3\n        /* \"#utility.yul\":4685:4699   */\n      add\n        /* \"#utility.yul\":4670:4699   */\n      swap1\n      pop\n        /* \"#utility.yul\":4536:4705   */\n      swap3\n      swap2\n      pop\n      pop\n      jump\t// out\n        /* \"#utility.yul\":4711:5018   */\n    tag_59:\n        /* \"#utility.yul\":4779:4780   */\n      0x00\n        /* \"#utility.yul\":4789:4902   */\n    tag_134:\n        /* \"#utility.yul\":4803:4809   */\n      dup4\n        /* \"#utility.yul\":4800:4801   */\n      dup2\n        /* \"#utility.yul\":4797:4810   */\n      lt\n        /* \"#utility.yul\":4789:4902   */\n      iszero\n      tag_136\n      jumpi\n        /* \"#utility.yul\":4888:4889   */\n      dup1\n        /* \"#utility.yul\":4883:4886   */\n      dup3\n        /* \"#utility.yul\":4879:4890   */\n      add\n        /* \"#utility.yul\":4873:4891   */\n      mload\n        /* \"#utility.yul\":4869:4870   */\n      dup2\n        /* \"#utility.yul\":4864:4867   */\n      dup5\n        /* \"#utility.yul\":4860:4871   */\n      add\n        /* \"#utility.yul\":4853:4892   */\n      mstore\n        /* \"#utility.yul\":4825:4827   */\n      0x20\n        /* \"#utility.yul\":4822:4823   */\n      dup2\n        /* \"#utility.yul\":4818:4828   */\n      add\n        /* \"#utility.yul\":4813:4828   */\n      swap1\n      pop\n        /* \"#utility.yul\":4789:4902   */\n      jump(tag_134)\n    tag_136:\n        /* \"#utility.yul\":4920:4926   */\n      dup4\n        /* \"#utility.yul\":4917:4918   */\n      dup2\n        /* \"#utility.yul\":4914:4927   */\n      gt\n        /* \"#utility.yul\":4911:5012   */\n      iszero\n      tag_137\n      jumpi\n        /* \"#utility.yul\":5000:5001   */\n      0x00\n        /* \"#utility.yul\":4991:4997   */\n      dup5\n        /* \"#utility.yul\":4986:4989   */\n      dup5\n        /* \"#utility.yul\":4982:4998   */\n      add\n        /* \"#utility.yul\":4975:5002   */\n      mstore\n        /* \"#utility.yul\":4911:5012   */\n    tag_137:\n        /* \"#utility.yul\":4760:5018   */\n      pop\n        /* \"#utility.yul\":4711:5018   */\n      pop\n      pop\n      pop\n      jump\t// out\n        /* \"#utility.yul\":5024:5388   */\n    tag_60:\n        /* \"#utility.yul\":5112:5115   */\n      0x00\n        /* \"#utility.yul\":5140:5179   */\n      tag_139\n        /* \"#utility.yul\":5173:5178   */\n      dup3\n        /* \"#utility.yul\":5140:5179   */\n      tag_57\n      jump\t// in\n    tag_139:\n        /* \"#utility.yul\":5195:5266   */\n      tag_140\n        /* \"#utility.yul\":5259:5265   */\n      dup2\n        /* \"#utility.yul\":5254:5257   */\n      dup6\n        /* \"#utility.yul\":5195:5266   */\n      tag_58\n      jump\t// in\n    tag_140:\n        /* \"#utility.yul\":5188:5266   */\n      swap4\n      pop\n        /* \"#utility.yul\":5275:5327   */\n      tag_141\n        /* \"#utility.yul\":5320:5326   */\n      dup2\n        /* \"#utility.yul\":5315:5318   */\n      dup6\n        /* \"#utility.yul\":5308:5312   */\n      0x20\n        /* \"#utility.yul\":5301:5306   */\n      dup7\n        /* \"#utility.yul\":5297:5313   */\n      add\n        /* \"#utility.yul\":5275:5327   */\n      tag_59\n      jump\t// in\n    tag_141:\n        /* \"#utility.yul\":5352:5381   */\n      tag_142\n        /* \"#utility.yul\":5374:5380   */\n      dup2\n        /* \"#utility.yul\":5352:5381   */\n      tag_45\n      jump\t// in\n    tag_142:\n        /* \"#utility.yul\":5347:5350   */\n      dup5\n        /* \"#utility.yul\":5343:5382   */\n      add\n        /* \"#utility.yul\":5336:5382   */\n      swap2\n      pop\n        /* \"#utility.yul\":5116:5388   */\n      pop\n        /* \"#utility.yul\":5024:5388   */\n      swap3\n      swap2\n      pop\n      pop\n      jump\t// out\n        /* \"#utility.yul\":5394:6018   */\n    tag_19:\n        /* \"#utility.yul\":5583:5587   */\n      0x00\n        /* \"#utility.yul\":5621:5623   */\n      0x60\n        /* \"#utility.yul\":5610:5619   */\n      dup3\n        /* \"#utility.yul\":5606:5624   */\n      add\n        /* \"#utility.yul\":5598:5624   */\n      swap1\n      pop\n        /* \"#utility.yul\":5634:5705   */\n      tag_144\n        /* \"#utility.yul\":5702:5703   */\n      0x00\n        /* \"#utility.yul\":5691:5700   */\n      dup4\n        /* \"#utility.yul\":5687:5704   */\n      add\n        /* \"#utility.yul\":5678:5684   */\n      dup7\n        /* \"#utility.yul\":5634:5705   */\n      tag_54\n      jump\t// in\n    tag_144:\n        /* \"#utility.yul\":5752:5761   */\n      dup2\n        /* \"#utility.yul\":5746:5750   */\n      dup2\n        /* \"#utility.yul\":5742:5762   */\n      sub\n        /* \"#utility.yul\":5737:5739   */\n      0x20\n        /* \"#utility.yul\":5726:5735   */\n      dup4\n        /* \"#utility.yul\":5722:5740   */\n      add\n        /* \"#utility.yul\":5715:5763   */\n      mstore\n        /* \"#utility.yul\":5780:5858   */\n      tag_145\n        /* \"#utility.yul\":5853:5857   */\n      dup2\n        /* \"#utility.yul\":5844:5850   */\n      dup6\n        /* \"#utility.yul\":5780:5858   */\n      tag_60\n      jump\t// in\n    tag_145:\n        /* \"#utility.yul\":5772:5858   */\n      swap1\n      pop\n        /* \"#utility.yul\":5905:5914   */\n      dup2\n        /* \"#utility.yul\":5899:5903   */\n      dup2\n        /* \"#utility.yul\":5895:5915   */\n      sub\n        /* \"#utility.yul\":5890:5892   */\n      0x40\n        /* \"#utility.yul\":5879:5888   */\n      dup4\n        /* \"#utility.yul\":5875:5893   */\n      add\n        /* \"#utility.yul\":5868:5916   */\n      mstore\n        /* \"#utility.yul\":5933:6011   */\n      tag_146\n        /* \"#utility.yul\":6006:6010   */\n      dup2\n        /* \"#utility.yul\":5997:6003   */\n      dup5\n        /* \"#utility.yul\":5933:6011   */\n      tag_60\n      jump\t// in\n    tag_146:\n        /* \"#utility.yul\":5925:6011   */\n      swap1\n      pop\n        /* \"#utility.yul\":5394:6018   */\n      swap5\n      swap4\n      pop\n      pop\n      pop\n      pop\n      jump\t// out\n        /* \"#utility.yul\":6024:6204   */\n    tag_61:\n        /* \"#utility.yul\":6072:6149   */\n      0x4e487b7100000000000000000000000000000000000000000000000000000000\n        /* \"#utility.yul\":6069:6070   */\n      0x00\n        /* \"#utility.yul\":6062:6150   */\n      mstore\n        /* \"#utility.yul\":6169:6173   */\n      0x22\n        /* \"#utility.yul\":6166:6167   */\n      0x04\n        /* \"#utility.yul\":6159:6174   */\n      mstore\n        /* \"#utility.yul\":6193:6197   */\n      0x24\n        /* \"#utility.yul\":6190:6191   */\n      0x00\n        /* \"#utility.yul\":6183:6198   */\n      revert\n        /* \"#utility.yul\":6210:6530   */\n    tag_27:\n        /* \"#utility.yul\":6254:6260   */\n      0x00\n        /* \"#utility.yul\":6291:6292   */\n      0x02\n        /* \"#utility.yul\":6285:6289   */\n      dup3\n        /* \"#utility.yul\":6281:6293   */\n      div\n        /* \"#utility.yul\":6271:6293   */\n      swap1\n      pop\n        /* \"#utility.yul\":6338:6339   */\n      0x01\n        /* \"#utility.yul\":6332:6336   */\n      dup3\n        /* \"#utility.yul\":6328:6340   */\n      and\n        /* \"#utility.yul\":6359:6377   */\n      dup1\n        /* \"#utility.yul\":6349:6430   */\n      tag_149\n      jumpi\n        /* \"#utility.yul\":6415:6419   */\n      0x7f\n        /* \"#utility.yul\":6407:6413   */\n      dup3\n        /* \"#utility.yul\":6403:6420   */\n      and\n        /* \"#utility.yul\":6393:6420   */\n      swap2\n      pop\n        /* \"#utility.yul\":6349:6430   */\n    tag_149:\n        /* \"#utility.yul\":6477:6479   */\n      0x20\n        /* \"#utility.yul\":6469:6475   */\n      dup3\n        /* \"#utility.yul\":6466:6480   */\n      lt\n        /* \"#utility.yul\":6446:6464   */\n      dup2\n        /* \"#utility.yul\":6443:6481   */\n      sub\n        /* \"#utility.yul\":6440:6524   */\n      tag_150\n      jumpi\n        /* \"#utility.yul\":6496:6514   */\n      tag_151\n      tag_61\n      jump\t// in\n    tag_151:\n        /* \"#utility.yul\":6440:6524   */\n    tag_150:\n        /* \"#utility.yul\":6261:6530   */\n      pop\n        /* \"#utility.yul\":6210:6530   */\n      swap2\n      swap1\n      pop\n      jump\t// out\n        /* \"#utility.yul\":6536:6677   */\n    tag_62:\n        /* \"#utility.yul\":6585:6589   */\n      0x00\n        /* \"#utility.yul\":6608:6611   */\n      dup2\n        /* \"#utility.yul\":6600:6611   */\n      swap1\n      pop\n        /* \"#utility.yul\":6631:6634   */\n      dup2\n        /* \"#utility.yul\":6628:6629   */\n      0x00\n        /* \"#utility.yul\":6621:6635   */\n      mstore\n        /* \"#utility.yul\":6665:6669   */\n      0x20\n        /* \"#utility.yul\":6662:6663   */\n      0x00\n        /* \"#utility.yul\":6652:6670   */\n      keccak256\n        /* \"#utility.yul\":6644:6670   */\n      swap1\n      pop\n        /* \"#utility.yul\":6536:6677   */\n      swap2\n      swap1\n      pop\n      jump\t// out\n        /* \"#utility.yul\":6683:6776   */\n    tag_63:\n        /* \"#utility.yul\":6720:6726   */\n      0x00\n        /* \"#utility.yul\":6767:6769   */\n      0x20\n        /* \"#utility.yul\":6762:6764   */\n      0x1f\n        /* \"#utility.yul\":6755:6760   */\n      dup4\n        /* \"#utility.yul\":6751:6765   */\n      add\n        /* \"#utility.yul\":6747:6770   */\n      div\n        /* \"#utility.yul\":6737:6770   */\n      swap1\n      pop\n        /* \"#utility.yul\":6683:6776   */\n      swap2\n      swap1\n      pop\n      jump\t// out\n        /* \"#utility.yul\":6782:6889   */\n    tag_64:\n        /* \"#utility.yul\":6826:6834   */\n      0x00\n        /* \"#utility.yul\":6876:6881   */\n      dup3\n        /* \"#utility.yul\":6870:6874   */\n      dup3\n        /* \"#utility.yul\":6866:6882   */\n      shl\n        /* \"#utility.yul\":6845:6882   */\n      swap1\n      pop\n        /* \"#utility.yul\":6782:6889   */\n      swap3\n      swap2\n      pop\n      pop\n      jump\t// out\n        /* \"#utility.yul\":6895:7288   */\n    tag_65:\n        /* \"#utility.yul\":6964:6970   */\n      0x00\n        /* \"#utility.yul\":7014:7015   */\n      0x08\n        /* \"#utility.yul\":7002:7012   */\n      dup4\n        /* \"#utility.yul\":6998:7016   */\n      mul\n        /* \"#utility.yul\":7037:7134   */\n      tag_156\n        /* \"#utility.yul\":7067:7133   */\n      0xffffffffffffffffffffffffffffffffffffffffffffffffffffffffffffffff\n        /* \"#utility.yul\":7056:7065   */\n      dup3\n        /* \"#utility.yul\":7037:7134   */\n      tag_64\n      jump\t// in\n    tag_156:\n        /* \"#utility.yul\":7155:7194   */\n      tag_157\n        /* \"#utility.yul\":7185:7193   */\n      dup7\n        /* \"#utility.yul\":7174:7183   */\n      dup4\n        /* \"#utility.yul\":7155:7194   */\n      tag_64\n      jump\t// in\n    tag_157:\n        /* \"#utility.yul\":7143:7194   */\n      swap6\n      pop\n        /* \"#utility.yul\":7227:7231   */\n      dup1\n        /* \"#utility.yul\":7223:7232   */\n      not\n        /* \"#utility.yul\":7216:7221   */\n      dup5\n        /* \"#utility.yul\":7212:7233   */\n      and\n        /* \"#utility.yul\":7203:7233   */\n      swap4\n      pop\n        /* \"#utility.yul\":7276:7280   */\n      dup1\n        /* \"#utility.yul\":7266:7274   */\n      dup7\n        /* \"#utility.yul\":7262:7281   */\n      and\n        /* \"#utility.yul\":7255:7260   */\n      dup5\n        /* \"#utility.yul\":7252:7282   */\n      or\n        /* \"#utility.yul\":7242:7282   */\n      swap3\n      pop\n        /* \"#utility.yul\":6971:7288   */\n      pop\n      pop\n        /* \"#utility.yul\":6895:7288   */\n      swap4\n      swap3\n      pop\n      pop\n      pop\n      jump\t// out\n        /* \"#utility.yul\":7294:7354   */\n    tag_66:\n        /* \"#utility.yul\":7322:7325   */\n      0x00\n        /* \"#utility.yul\":7343:7348   */\n      dup2\n        /* \"#utility.yul\":7336:7348   */\n      swap1\n      pop\n        /* \"#utility.yul\":7294:7354   */\n      swap2\n      swap1\n      pop\n      jump\t// out\n        /* \"#utility.yul\":7360:7502   */\n    tag_67:\n        /* \"#utility.yul\":7410:7419   */\n      0x00\n        /* \"#utility.yul\":7443:7496   */\n      tag_160\n        /* \"#utility.yul\":7461:7495   */\n      tag_161\n        /* \"#utility.yul\":7470:7494   */\n      tag_162\n        /* \"#utility.yul\":7488:7493   */\n      dup5\n        /* \"#utility.yul\":7470:7494   */\n      tag_53\n      jump\t// in\n    tag_162:\n        /* \"#utility.yul\":7461:7495   */\n      tag_66\n      jump\t// in\n    tag_161:\n        /* \"#utility.yul\":7443:7496   */\n      tag_53\n      jump\t// in\n    tag_160:\n        /* \"#utility.yul\":7430:7496   */\n      swap1\n      pop\n        /* \"#utility.yul\":7360:7502   */\n      swap2\n      swap1\n      pop\n      jump\t// out\n        /* \"#utility.yul\":7508:7583   */\n    tag_68:\n        /* \"#utility.yul\":7551:7554   */\n      0x00\n        /* \"#utility.yul\":7572:7577   */\n      dup2\n        /* \"#utility.yul\":7565:7577   */\n      swap1\n      pop\n        /* \"#utility.yul\":7508:7583   */\n      swap2\n      swap1\n      pop\n      jump\t// out\n        /* \"#utility.yul\":7589:7858   */\n    tag_69:\n        /* \"#utility.yul\":7699:7738   */\n      tag_165\n        /* \"#utility.yul\":7730:7737   */\n      dup4\n        /* \"#utility.yul\":7699:7738   */\n      tag_67\n      jump\t// in\n    tag_165:\n        /* \"#utility.yul\":7760:7851   */\n      tag_166\n        /* \"#utility.yul\":7809:7850   */\n      tag_167\n        /* \"#utility.yul\":7833:7849   */\n      dup3\n        /* \"#utility.yul\":7809:7850   */\n      tag_68\n      jump\t// in\n    tag_167:\n        /* \"#utility.yul\":7801:7807   */\n      dup5\n        /* \"#utility.yul\":7794:7798   */\n      dup5\n        /* \"#utility.yul\":7788:7799   */\n      sload\n        /* \"#utility.yul\":7760:7851   */\n      tag_65\n      jump\t// in\n    tag_166:\n        /* \"#utility.yul\":7754:7758   */\n      dup3\n        /* \"#utility.yul\":7747:7852   */\n      sstore\n        /* \"#utility.yul\":7665:7858   */\n      pop\n        /* \"#utility.yul\":7589:7858   */\n      pop\n      pop\n      pop\n      jump\t// out\n        /* \"#utility.yul\":7864:7937   */\n    tag_70:\n        /* \"#utility.yul\":7909:7912   */\n      0x00\n        /* \"#utility.yul\":7864:7937   */\n      swap1\n      jump\t// out\n        /* \"#utility.yul\":7943:8132   */\n    tag_71:\n        /* \"#utility.yul\":8020:8052   */\n      tag_170\n      tag_70\n      jump\t// in\n    tag_170:\n        /* \"#utility.yul\":8061:8126   */\n      tag_171\n        /* \"#utility.yul\":8119:8125   */\n      dup2\n        /* \"#utility.yul\":8111:8117   */\n      dup5\n        /* \"#utility.yul\":8105:8109   */\n      dup5\n        /* \"#utility.yul\":8061:8126   */\n      tag_69\n      jump\t// in\n    tag_171:\n        /* \"#utility.yul\":7996:8132   */\n      pop\n        /* \"#utility.yul\":7943:8132   */\n      pop\n      pop\n      jump\t// out\n        /* \"#utility.yul\":8138:8324   */\n    tag_72:\n        /* \"#utility.yul\":8198:8318   */\n    tag_173:\n        /* \"#utility.yul\":8215:8218   */\n      dup2\n        /* \"#utility.yul\":8208:8213   */\n      dup2\n        /* \"#utility.yul\":8205:8219   */\n      lt\n        /* \"#utility.yul\":8198:8318   */\n      iszero\n      tag_175\n      jumpi\n        /* \"#utility.yul\":8269:8308   */\n      tag_176\n        /* \"#utility.yul\":8306:8307   */\n      0x00\n        /* \"#utility.yul\":8299:8304   */\n      dup3\n        /* \"#utility.yul\":8269:8308   */\n      tag_71\n      jump\t// in\n    tag_176:\n        /* \"#utility.yul\":8242:8243   */\n      0x01\n        /* \"#utility.yul\":8235:8240   */\n      dup2\n        /* \"#utility.yul\":8231:8244   */\n      add\n        /* \"#utility.yul\":8222:8244   */\n      swap1\n      pop\n        /* \"#utility.yul\":8198:8318   */\n      jump(tag_173)\n    tag_175:\n        /* \"#utility.yul\":8138:8324   */\n      pop\n      pop\n      jump\t// out\n        /* \"#utility.yul\":8330:8873   */\n    tag_73:\n        /* \"#utility.yul\":8431:8433   */\n      0x1f\n        /* \"#utility.yul\":8426:8429   */\n      dup3\n        /* \"#utility.yul\":8423:8434   */\n      gt\n        /* \"#utility.yul\":8420:8866   */\n      iszero\n      tag_178\n      jumpi\n        /* \"#utility.yul\":8465:8503   */\n      tag_179\n        /* \"#utility.yul\":8497:8502   */\n      dup2\n        /* \"#utility.yul\":8465:8503   */\n      tag_62\n      jump\t// in\n    tag_179:\n        /* \"#utility.yul\":8549:8578   */\n      tag_180\n        /* \"#utility.yul\":8567:8577   */\n      dup5\n        /* \"#utility.yul\":8549:8578   */\n      tag_63\n      jump\t// in\n    tag_180:\n        /* \"#utility.yul\":8539:8547   */\n      dup2\n        /* \"#utility.yul\":8535:8579   */\n      add\n        /* \"#utility.yul\":8732:8734   */\n      0x20\n        /* \"#utility.yul\":8720:8730   */\n      dup6\n        /* \"#utility.yul\":8717:8735   */\n      lt\n        /* \"#utility.yul\":8714:8763   */\n      iszero\n      tag_181\n      jumpi\n        /* \"#utility.yul\":8753:8761   */\n      dup2\n        /* \"#utility.yul\":8738:8761   */\n      swap1\n      pop\n        /* \"#utility.yul\":8714:8763   */\n    tag_181:\n        /* \"#utility.yul\":8776:8856   */\n      tag_182\n        /* \"#utility.yul\":8832:8854   */\n      tag_183\n        /* \"#utility.yul\":8850:8853   */\n      dup6\n        /* \"#utility.yul\":8832:8854   */\n      tag_63\n      jump\t// in\n    tag_183:\n        /* \"#utility.yul\":8822:8830   */\n      dup4\n        /* \"#utility.yul\":8818:8855   */\n      add\n        /* \"#utility.yul\":8805:8816   */\n      dup3\n        /* \"#utility.yul\":8776:8856   */\n      tag_72\n      jump\t// in\n    tag_182:\n        /* \"#utility.yul\":8435:8866   */\n      pop\n      pop\n        /* \"#utility.yul\":8420:8866   */\n    tag_178:\n        /* \"#utility.yul\":8330:8873   */\n      pop\n      pop\n      pop\n      jump\t// out\n        /* \"#utility.yul\":8879:8996   */\n    tag_74:\n        /* \"#utility.yul\":8933:8941   */\n      0x00\n        /* \"#utility.yul\":8983:8988   */\n      dup3\n        /* \"#utility.yul\":8977:8981   */\n      dup3\n        /* \"#utility.yul\":8973:8989   */\n      shr\n        /* \"#utility.yul\":8952:8989   */\n      swap1\n      pop\n        /* \"#utility.yul\":8879:8996   */\n      swap3\n      swap2\n      pop\n      pop\n      jump\t// out\n        /* \"#utility.yul\":9002:9171   */\n    tag_75:\n        /* \"#utility.yul\":9046:9052   */\n      0x00\n        /* \"#utility.yul\":9079:9130   */\n      tag_186\n        /* \"#utility.yul\":9127:9128   */\n      0x00\n        /* \"#utility.yul\":9123:9129   */\n      not\n        /* \"#utility.yul\":9115:9120   */\n      dup5\n        /* \"#utility.yul\":9112:9113   */\n      0x08\n        /* \"#utility.yul\":9108:9121   */\n      mul\n        /* \"#utility.yul\":9079:9130   */\n      tag_74\n      jump\t// in\n    tag_186:\n        /* \"#utility.yul\":9075:9131   */\n      not\n        /* \"#utility.yul\":9160:9164   */\n      dup1\n        /* \"#utility.yul\":9154:9158   */\n      dup4\n        /* \"#utility.yul\":9150:9165   */\n      and\n        /* \"#utility.yul\":9140:9165   */\n      swap2\n      pop\n        /* \"#utility.yul\":9053:9171   */\n      pop\n        /* \"#utility.yul\":9002:9171   */\n      swap3\n      swap2\n      pop\n      pop\n      jump\t// out\n        /* \"#utility.yul\":9176:9471   */\n    tag_76:\n        /* \"#utility.yul\":9252:9256   */\n      0x00\n        /* \"#utility.yul\":9398:9427   */\n      tag_188\n        /* \"#utility.yul\":9423:9426   */\n      dup4\n        /* \"#utility.yul\":9417:9421   */\n      dup4\n        /* \"#utility.yul\":9398:9427   */\n      tag_75\n      jump\t// in\n    tag_188:\n        /* \"#utility.yul\":9390:9427   */\n      swap2\n      pop\n        /* \"#utility.yul\":9460:9463   */\n      dup3\n        /* \"#utility.yul\":9457:9458   */\n      0x02\n        /* \"#utility.yul\":9453:9464   */\n      mul\n        /* \"#utility.yul\":9447:9451   */\n      dup3\n        /* \"#utility.yul\":9444:9465   */\n      or\n        /* \"#utility.yul\":9436:9465   */\n      swap1\n      pop\n        /* \"#utility.yul\":9176:9471   */\n      swap3\n      swap2\n      pop\n      pop\n      jump\t// out\n        /* \"#utility.yul\":9476:10871   */\n    tag_22:\n        /* \"#utility.yul\":9593:9630   */\n      tag_190\n        /* \"#utility.yul\":9626:9629   */\n      dup3\n        /* \"#utility.yul\":9593:9630   */\n      tag_57\n      jump\t// in\n    tag_190:\n        /* \"#utility.yul\":9695:9713   */\n      0xffffffffffffffff\n        /* \"#utility.yul\":9687:9693   */\n      dup2\n        /* \"#utility.yul\":9684:9714   */\n      gt\n        /* \"#utility.yul\":9681:9737   */\n      iszero\n      tag_191\n      jumpi\n        /* \"#utility.yul\":9717:9735   */\n      tag_192\n      tag_46\n      jump\t// in\n    tag_192:\n        /* \"#utility.yul\":9681:9737   */\n    tag_191:\n        /* \"#utility.yul\":9761:9799   */\n      tag_193\n        /* \"#utility.yul\":9793:9797   */\n      dup3\n        /* \"#utility.yul\":9787:9798   */\n      sload\n        /* \"#utility.yul\":9761:9799   */\n      tag_27\n      jump\t// in\n    tag_193:\n        /* \"#utility.yul\":9846:9913   */\n      tag_194\n        /* \"#utility.yul\":9906:9912   */\n      dup3\n        /* \"#utility.yul\":9898:9904   */\n      dup3\n        /* \"#utility.yul\":9892:9896   */\n      dup6\n        /* \"#utility.yul\":9846:9913   */\n      tag_73\n      jump\t// in\n    tag_194:\n        /* \"#utility.yul\":9940:9941   */\n      0x00\n        /* \"#utility.yul\":9964:9968   */\n      0x20\n        /* \"#utility.yul\":9951:9968   */\n      swap1\n      pop\n        /* \"#utility.yul\":9996:9998   */\n      0x1f\n        /* \"#utility.yul\":9988:9994   */\n      dup4\n        /* \"#utility.yul\":9985:9999   */\n      gt\n        /* \"#utility.yul\":10013:10014   */\n      0x01\n        /* \"#utility.yul\":10008:10626   */\n      dup2\n      eq\n      tag_196\n      jumpi\n        /* \"#utility.yul\":10670:10671   */\n      0x00\n        /* \"#utility.yul\":10687:10693   */\n      dup5\n        /* \"#utility.yul\":10684:10761   */\n      iszero\n      tag_197\n      jumpi\n        /* \"#utility.yul\":10736:10745   */\n      dup3\n        /* \"#utility.yul\":10731:10734   */\n      dup8\n        /* \"#utility.yul\":10727:10746   */\n      add\n        /* \"#utility.yul\":10721:10747   */\n      mload\n        /* \"#utility.yul\":10712:10747   */\n      swap1\n      pop\n        /* \"#utility.yul\":10684:10761   */\n    tag_197:\n        /* \"#utility.yul\":10787:10854   */\n      tag_198\n        /* \"#utility.yul\":10847:10853   */\n      dup6\n        /* \"#utility.yul\":10840:10845   */\n      dup3\n        /* \"#utility.yul\":10787:10854   */\n      tag_76\n      jump\t// in\n    tag_198:\n        /* \"#utility.yul\":10781:10785   */\n      dup7\n        /* \"#utility.yul\":10774:10855   */\n      sstore\n        /* \"#utility.yul\":10643:10865   */\n      pop\n        /* \"#utility.yul\":9978:10865   */\n      jump(tag_195)\n        /* \"#utility.yul\":10008:10626   */\n    tag_196:\n        /* \"#utility.yul\":10060:10064   */\n      0x1f\n        /* \"#utility.yul\":10056:10065   */\n      not\n        /* \"#utility.yul\":10048:10054   */\n      dup5\n        /* \"#utility.yul\":10044:10066   */\n      and\n        /* \"#utility.yul\":10094:10131   */\n      tag_199\n        /* \"#utility.yul\":10126:10130   */\n      dup7\n        /* \"#utility.yul\":10094:10131   */\n      tag_62\n      jump\t// in\n    tag_199:\n        /* \"#utility.yul\":10153:10154   */\n      0x00\n        /* \"#utility.yul\":10167:10375   */\n    tag_200:\n        /* \"#utility.yul\":10181:10188   */\n      dup3\n        /* \"#utility.yul\":10178:10179   */\n      dup2\n        /* \"#utility.yul\":10175:10189   */\n      lt\n        /* \"#utility.yul\":10167:10375   */\n      iszero\n      tag_202\n      jumpi\n        /* \"#utility.yul\":10260:10269   */\n      dup5\n        /* \"#utility.yul\":10255:10258   */\n      dup10\n        /* \"#utility.yul\":10251:10270   */\n      add\n        /* \"#utility.yul\":10245:10271   */\n      mload\n        /* \"#utility.yul\":10237:10243   */\n      dup3\n        /* \"#utility.yul\":10230:10272   */\n      sstore\n        /* \"#utility.yul\":10311:10312   */\n      0x01\n        /* \"#utility.yul\":10303:10309   */\n      dup3\n        /* \"#utility.yul\":10299:10313   */\n      add\n        /* \"#utility.yul\":10289:10313   */\n      swap2\n      pop\n        /* \"#utility.yul\":10358:10360   */\n      0x20\n        /* \"#utility.yul\":10347:10356   */\n      dup6\n        /* \"#utility.yul\":10343:10361   */\n      add\n        /* \"#utility.yul\":10330:10361   */\n      swap5\n      pop\n        /* \"#utility.yul\":10204:10208   */\n      0x20\n        /* \"#utility.yul\":10201:10202   */\n      dup2\n        /* \"#utility.yul\":10197:10209   */\n      add\n        /* \"#utility.yul\":10192:10209   */\n      swap1\n      pop\n        /* \"#utility.yul\":10167:10375   */\n      jump(tag_200)\n    tag_202:\n        /* \"#utility.yul\":10403:10409   */\n      dup7\n        /* \"#utility.yul\":10394:10401   */\n      dup4\n        /* \"#utility.yul\":10391:10410   */\n      lt\n        /* \"#utility.yul\":10388:10567   */\n      iszero\n      tag_203\n      jumpi\n        /* \"#utility.yul\":10461:10470   */\n      dup5\n        /* \"#utility.yul\":10456:10459   */\n      dup10\n        /* \"#utility.yul\":10452:10471   */\n      add\n        /* \"#utility.yul\":10446:10472   */\n      mload\n        /* \"#utility.yul\":10504:10552   */\n      tag_204\n        /* \"#utility.yul\":10546:10550   */\n      0x1f\n        /* \"#utility.yul\":10538:10544   */\n      dup10\n        /* \"#utility.yul\":10534:10551   */\n      and\n        /* \"#utility.yul\":10523:10532   */\n      dup3\n        /* \"#utility.yul\":10504:10552   */\n      tag_75\n      jump\t// in\n    tag_204:\n        /* \"#utility.yul\":10496:10502   */\n      dup4\n        /* \"#utility.yul\":10489:10553   */\n      sstore\n        /* \"#utility.yul\":10411:10567   */\n      pop\n        /* \"#utility.yul\":10388:10567   */\n    tag_203:\n        /* \"#utility.yul\":10613:10614   */\n      0x01\n        /* \"#utility.yul\":10609:10610   */\n      0x02\n        /* \"#utility.yul\":10601:10607   */\n      dup9\n        /* \"#utility.yul\":10597:10611   */\n      mul\n        /* \"#utility.yul\":10593:10615   */\n      add\n        /* \"#utility.yul\":10587:10591   */\n      dup9\n        /* \"#utility.yul\":10580:10616   */\n      sstore\n        /* \"#utility.yul\":10015:10626   */\n      pop\n      pop\n      pop\n        /* \"#utility.yul\":9978:10865   */\n    tag_195:\n      pop\n        /* \"#utility.yul\":9568:10871   */\n      pop\n      pop\n      pop\n        /* \"#utility.yul\":9476:10871   */\n      pop\n      pop\n      jump\t// out\n        /* \"#utility.yul\":10877:11057   */\n    tag_77:\n        /* \"#utility.yul\":10925:11002   */\n      0x4e487b7100000000000000000000000000000000000000000000000000000000\n        /* \"#utility.yul\":10922:10923   */\n      0x00\n        /* \"#utility.yul\":10915:11003   */\n      mstore\n        /* \"#utility.yul\":11022:11026   */\n      0x11\n        /* \"#utility.yul\":11019:11020   */\n      0x04\n        /* \"#utility.yul\":11012:11027   */\n      mstore\n        /* \"#utility.yul\":11046:11050   */\n      0x24\n        /* \"#utility.yul\":11043:11044   */\n      0x00\n        /* \"#utility.yul\":11036:11051   */\n      revert\n        /* \"#utility.yul\":11063:11254   */\n    tag_39:\n        /* \"#utility.yul\":11103:11106   */\n      0x00\n        /* \"#utility.yul\":11122:11142   */\n      tag_207\n        /* \"#utility.yul\":11140:11141   */\n      dup3\n        /* \"#utility.yul\":11122:11142   */\n      tag_53\n      jump\t// in\n    tag_207:\n        /* \"#utility.yul\":11117:11142   */\n      swap2\n      pop\n        /* \"#utility.yul\":11156:11176   */\n      tag_208\n        /* \"#utility.yul\":11174:11175   */\n      dup4\n        /* \"#utility.yul\":11156:11176   */\n      tag_53\n      jump\t// in\n    tag_208:\n        /* \"#utility.yul\":11151:11176   */\n      swap3\n      pop\n        /* \"#utility.yul\":11199:11200   */\n      dup3\n        /* \"#utility.yul\":11196:11197   */\n      dup3\n        /* \"#utility.yul\":11192:11201   */\n      add\n        /* \"#utility.yul\":11185:11201   */\n      swap1\n      pop\n        /* \"#utility.yul\":11220:11223   */\n      dup1\n        /* \"#utility.yul\":11217:11218   */\n      dup3\n        /* \"#utility.yul\":11214:11224   */\n      gt\n        /* \"#utility.yul\":11211:11247   */\n      iszero\n      tag_209\n      jumpi\n        /* \"#utility.yul\":11227:11245   */\n      tag_210\n      tag_77\n      jump\t// in\n    tag_210:\n        /* \"#utility.yul\":11211:11247   */\n    tag_209:\n        /* \"#utility.yul\":11063:11254   */\n      swap3\n      swap2\n      pop\n      pop\n      jump\t// out\n\n    auxdata: 0xa2646970667358221220f0b96e1d4d3ffce7dc27dcc726b0ee706514b22e92dea44b6b40cafafc0d65cc64736f6c637823302e382e31362d63692e323032322e372e31342b636f6d6d69742e38303030383865330054\n}\n",
				"bytecode": {
					"linkReferences": {},
					"object": "60806040526000805534801561001457600080fd5b50610947806100246000396000f3fe608060405234801561001057600080fd5b50600436106100415760003560e01c806322f5b58d14610046578063267c68e0146100625780639e7a13ad14610080575b600080fd5b610060600480360381019061005b91906103dd565b6100b2565b005b61006a610128565b604051610077919061046e565b60405180910390f35b61009a600480360381019061009591906104b5565b61012e565b6040516100a99392919061056a565b60405180910390f35b6040518060600160405280600054815260200183815260200182815250600160008054815260200190815260200160002060008201518160000155602082015181600101908161010291906107bb565b50604082015181600201908161011891906107bb565b50905050610124610268565b5050565b60005481565b6001602052806000526040600020600091509050806000015490806001018054610157906105de565b80601f0160208091040260200160405190810160405280929190818152602001828054610183906105de565b80156101d05780601f106101a5576101008083540402835291602001916101d0565b820191906000526020600020905b8154815290600101906020018083116101b357829003601f168201915b5050505050908060020180546101e5906105de565b80601f0160208091040260200160405190810160405280929190818152602001828054610211906105de565b801561025e5780601f106102335761010080835404028352916020019161025e565b820191906000526020600020905b81548152906001019060200180831161024157829003601f168201915b5050505050905083565b600160008082825461027a91906108bc565b92505081905550565b6000604051905090565b600080fd5b600080fd5b600080fd5b600080fd5b6000601f19601f8301169050919050565b7f4e487b7100000000000000000000000000000000000000000000000000000000600052604160045260246000fd5b6102ea826102a1565b810181811067ffffffffffffffff82111715610309576103086102b2565b5b80604052505050565b600061031c610283565b905061032882826102e1565b919050565b600067ffffffffffffffff821115610348576103476102b2565b5b610351826102a1565b9050602081019050919050565b82818337600083830152505050565b600061038061037b8461032d565b610312565b90508281526020810184848401111561039c5761039b61029c565b5b6103a784828561035e565b509392505050565b600082601f8301126103c4576103c3610297565b5b81356103d484826020860161036d565b91505092915050565b600080604083850312156103f4576103f361028d565b5b600083013567ffffffffffffffff81111561041257610411610292565b5b61041e858286016103af565b925050602083013567ffffffffffffffff81111561043f5761043e610292565b5b61044b858286016103af565b9150509250929050565b6000819050919050565b61046881610455565b82525050565b6000602082019050610483600083018461045f565b92915050565b61049281610455565b811461049d57600080fd5b50565b6000813590506104af81610489565b92915050565b6000602082840312156104cb576104ca61028d565b5b60006104d9848285016104a0565b91505092915050565b600081519050919050565b600082825260208201905092915050565b60005b8381101561051c578082015181840152602081019050610501565b8381111561052b576000848401525b50505050565b600061053c826104e2565b61054681856104ed565b93506105568185602086016104fe565b61055f816102a1565b840191505092915050565b600060608201905061057f600083018661045f565b81810360208301526105918185610531565b905081810360408301526105a58184610531565b9050949350505050565b7f4e487b7100000000000000000000000000000000000000000000000000000000600052602260045260246000fd5b600060028204905060018216806105f657607f821691505b602082108103610609576106086105af565b5b50919050565b60008190508160005260206000209050919050565b60006020601f8301049050919050565b600082821b905092915050565b6000600883026106717fffffffffffffffffffffffffffffffffffffffffffffffffffffffffffffffff82610634565b61067b8683610634565b95508019841693508086168417925050509392505050565b6000819050919050565b60006106b86106b36106ae84610455565b610693565b610455565b9050919050565b6000819050919050565b6106d28361069d565b6106e66106de826106bf565b848454610641565b825550505050565b600090565b6106fb6106ee565b6107068184846106c9565b505050565b5b8181101561072a5761071f6000826106f3565b60018101905061070c565b5050565b601f82111561076f576107408161060f565b61074984610624565b81016020851015610758578190505b61076c61076485610624565b83018261070b565b50505b505050565b600082821c905092915050565b600061079260001984600802610774565b1980831691505092915050565b60006107ab8383610781565b9150826002028217905092915050565b6107c4826104e2565b67ffffffffffffffff8111156107dd576107dc6102b2565b5b6107e782546105de565b6107f282828561072e565b600060209050601f8311600181146108255760008415610813578287015190505b61081d858261079f565b865550610885565b601f1984166108338661060f565b60005b8281101561085b57848901518255600182019150602085019450602081019050610836565b868310156108785784890151610874601f891682610781565b8355505b6001600288020188555050505b505050505050565b7f4e487b7100000000000000000000000000000000000000000000000000000000600052601160045260246000fd5b60006108c782610455565b91506108d283610455565b92508282019050808211156108ea576108e961088d565b5b9291505056fea2646970667358221220f0b96e1d4d3ffce7dc27dcc726b0ee706514b22e92dea44b6b40cafafc0d65cc64736f6c637823302e382e31362d63692e323032322e372e31342b636f6d6d69742e38303030383865330054",
					"opcodes": "PUSH1 0x80 PUSH1 0x40 MSTORE PUSH1 0x0 DUP1 SSTORE CALLVALUE DUP1 ISZERO PUSH2 0x14 JUMPI PUSH1 0x0 DUP1 REVERT JUMPDEST POP PUSH2 0x947 DUP1 PUSH2 0x24 PUSH1 0x0 CODECOPY PUSH1 0x0 RETURN INVALID PUSH1 0x80 PUSH1 0x40 MSTORE CALLVALUE DUP1 ISZERO PUSH2 0x10 JUMPI PUSH1 0x0 DUP1 REVERT JUMPDEST POP PUSH1 0x4 CALLDATASIZE LT PUSH2 0x41 JUMPI PUSH1 0x0 CALLDATALOAD PUSH1 0xE0 SHR DUP1 PUSH4 0x22F5B58D EQ PUSH2 0x46 JUMPI DUP1 PUSH4 0x267C68E0 EQ PUSH2 0x62 JUMPI DUP1 PUSH4 0x9E7A13AD EQ PUSH2 0x80 JUMPI JUMPDEST PUSH1 0x0 DUP1 REVERT JUMPDEST PUSH2 0x60 PUSH1 0x4 DUP1 CALLDATASIZE SUB DUP2 ADD SWAP1 PUSH2 0x5B SWAP2 SWAP1 PUSH2 0x3DD JUMP JUMPDEST PUSH2 0xB2 JUMP JUMPDEST STOP JUMPDEST PUSH2 0x6A PUSH2 0x128 JUMP JUMPDEST PUSH1 0x40 MLOAD PUSH2 0x77 SWAP2 SWAP1 PUSH2 0x46E JUMP JUMPDEST PUSH1 0x40 MLOAD DUP1 SWAP2 SUB SWAP1 RETURN JUMPDEST PUSH2 0x9A PUSH1 0x4 DUP1 CALLDATASIZE SUB DUP2 ADD SWAP1 PUSH2 0x95 SWAP2 SWAP1 PUSH2 0x4B5 JUMP JUMPDEST PUSH2 0x12E JUMP JUMPDEST PUSH1 0x40 MLOAD PUSH2 0xA9 SWAP4 SWAP3 SWAP2 SWAP1 PUSH2 0x56A JUMP JUMPDEST PUSH1 0x40 MLOAD DUP1 SWAP2 SUB SWAP1 RETURN JUMPDEST PUSH1 0x40 MLOAD DUP1 PUSH1 0x60 ADD PUSH1 0x40 MSTORE DUP1 PUSH1 0x0 SLOAD DUP2 MSTORE PUSH1 0x20 ADD DUP4 DUP2 MSTORE PUSH1 0x20 ADD DUP3 DUP2 MSTORE POP PUSH1 0x1 PUSH1 0x0 DUP1 SLOAD DUP2 MSTORE PUSH1 0x20 ADD SWAP1 DUP2 MSTORE PUSH1 0x20 ADD PUSH1 0x0 KECCAK256 PUSH1 0x0 DUP3 ADD MLOAD DUP2 PUSH1 0x0 ADD SSTORE PUSH1 0x20 DUP3 ADD MLOAD DUP2 PUSH1 0x1 ADD SWAP1 DUP2 PUSH2 0x102 SWAP2 SWAP1 PUSH2 0x7BB JUMP JUMPDEST POP PUSH1 0x40 DUP3 ADD MLOAD DUP2 PUSH1 0x2 ADD SWAP1 DUP2 PUSH2 0x118 SWAP2 SWAP1 PUSH2 0x7BB JUMP JUMPDEST POP SWAP1 POP POP PUSH2 0x124 PUSH2 0x268 JUMP JUMPDEST POP POP JUMP JUMPDEST PUSH1 0x0 SLOAD DUP2 JUMP JUMPDEST PUSH1 0x1 PUSH1 0x20 MSTORE DUP1 PUSH1 0x0 MSTORE PUSH1 0x40 PUSH1 0x0 KECCAK256 PUSH1 0x0 SWAP2 POP SWAP1 POP DUP1 PUSH1 0x0 ADD SLOAD SWAP1 DUP1 PUSH1 0x1 ADD DUP1 SLOAD PUSH2 0x157 SWAP1 PUSH2 0x5DE JUMP JUMPDEST DUP1 PUSH1 0x1F ADD PUSH1 0x20 DUP1 SWAP2 DIV MUL PUSH1 0x20 ADD PUSH1 0x40 MLOAD SWAP1 DUP2 ADD PUSH1 0x40 MSTORE DUP1 SWAP3 SWAP2 SWAP1 DUP2 DUP2 MSTORE PUSH1 0x20 ADD DUP3 DUP1 SLOAD PUSH2 0x183 SWAP1 PUSH2 0x5DE JUMP JUMPDEST DUP1 ISZERO PUSH2 0x1D0 JUMPI DUP1 PUSH1 0x1F LT PUSH2 0x1A5 JUMPI PUSH2 0x100 DUP1 DUP4 SLOAD DIV MUL DUP4 MSTORE SWAP2 PUSH1 0x20 ADD SWAP2 PUSH2 0x1D0 JUMP JUMPDEST DUP3 ADD SWAP2 SWAP1 PUSH1 0x0 MSTORE PUSH1 0x20 PUSH1 0x0 KECCAK256 SWAP1 JUMPDEST DUP2 SLOAD DUP2 MSTORE SWAP1 PUSH1 0x1 ADD SWAP1 PUSH1 0x20 ADD DUP1 DUP4 GT PUSH2 0x1B3 JUMPI DUP3 SWAP1 SUB PUSH1 0x1F AND DUP3 ADD SWAP2 JUMPDEST POP POP POP POP POP SWAP1 DUP1 PUSH1 0x2 ADD DUP1 SLOAD PUSH2 0x1E5 SWAP1 PUSH2 0x5DE JUMP JUMPDEST DUP1 PUSH1 0x1F ADD PUSH1 0x20 DUP1 SWAP2 DIV MUL PUSH1 0x20 ADD PUSH1 0x40 MLOAD SWAP1 DUP2 ADD PUSH1 0x40 MSTORE DUP1 SWAP3 SWAP2 SWAP1 DUP2 DUP2 MSTORE PUSH1 0x20 ADD DUP3 DUP1 SLOAD PUSH2 0x211 SWAP1 PUSH2 0x5DE JUMP JUMPDEST DUP1 ISZERO PUSH2 0x25E JUMPI DUP1 PUSH1 0x1F LT PUSH2 0x233 JUMPI PUSH2 0x100 DUP1 DUP4 SLOAD DIV MUL DUP4 MSTORE SWAP2 PUSH1 0x20 ADD SWAP2 PUSH2 0x25E JUMP JUMPDEST DUP3 ADD SWAP2 SWAP1 PUSH1 0x0 MSTORE PUSH1 0x20 PUSH1 0x0 KECCAK256 SWAP1 JUMPDEST DUP2 SLOAD DUP2 MSTORE SWAP1 PUSH1 0x1 ADD SWAP1 PUSH1 0x20 ADD DUP1 DUP4 GT PUSH2 0x241 JUMPI DUP3 SWAP1 SUB PUSH1 0x1F AND DUP3 ADD SWAP2 JUMPDEST POP POP POP POP POP SWAP1 POP DUP4 JUMP JUMPDEST PUSH1 0x1 PUSH1 0x0 DUP1 DUP3 DUP3 SLOAD PUSH2 0x27A SWAP2 SWAP1 PUSH2 0x8BC JUMP JUMPDEST SWAP3 POP POP DUP2 SWAP1 SSTORE POP JUMP JUMPDEST PUSH1 0x0 PUSH1 0x40 MLOAD SWAP1 POP SWAP1 JUMP JUMPDEST PUSH1 0x0 DUP1 REVERT JUMPDEST PUSH1 0x0 DUP1 REVERT JUMPDEST PUSH1 0x0 DUP1 REVERT JUMPDEST PUSH1 0x0 DUP1 REVERT JUMPDEST PUSH1 0x0 PUSH1 0x1F NOT PUSH1 0x1F DUP4 ADD AND SWAP1 POP SWAP2 SWAP1 POP JUMP JUMPDEST PUSH32 0x4E487B7100000000000000000000000000000000000000000000000000000000 PUSH1 0x0 MSTORE PUSH1 0x41 PUSH1 0x4 MSTORE PUSH1 0x24 PUSH1 0x0 REVERT JUMPDEST PUSH2 0x2EA DUP3 PUSH2 0x2A1 JUMP JUMPDEST DUP2 ADD DUP2 DUP2 LT PUSH8 0xFFFFFFFFFFFFFFFF DUP3 GT OR ISZERO PUSH2 0x309 JUMPI PUSH2 0x308 PUSH2 0x2B2 JUMP JUMPDEST JUMPDEST DUP1 PUSH1 0x40 MSTORE POP POP POP JUMP JUMPDEST PUSH1 0x0 PUSH2 0x31C PUSH2 0x283 JUMP JUMPDEST SWAP1 POP PUSH2 0x328 DUP3 DUP3 PUSH2 0x2E1 JUMP JUMPDEST SWAP2 SWAP1 POP JUMP JUMPDEST PUSH1 0x0 PUSH8 0xFFFFFFFFFFFFFFFF DUP3 GT ISZERO PUSH2 0x348 JUMPI PUSH2 0x347 PUSH2 0x2B2 JUMP JUMPDEST JUMPDEST PUSH2 0x351 DUP3 PUSH2 0x2A1 JUMP JUMPDEST SWAP1 POP PUSH1 0x20 DUP2 ADD SWAP1 POP SWAP2 SWAP1 POP JUMP JUMPDEST DUP3 DUP2 DUP4 CALLDATACOPY PUSH1 0x0 DUP4 DUP4 ADD MSTORE POP POP POP JUMP JUMPDEST PUSH1 0x0 PUSH2 0x380 PUSH2 0x37B DUP5 PUSH2 0x32D JUMP JUMPDEST PUSH2 0x312 JUMP JUMPDEST SWAP1 POP DUP3 DUP2 MSTORE PUSH1 0x20 DUP2 ADD DUP5 DUP5 DUP5 ADD GT ISZERO PUSH2 0x39C JUMPI PUSH2 0x39B PUSH2 0x29C JUMP JUMPDEST JUMPDEST PUSH2 0x3A7 DUP5 DUP3 DUP6 PUSH2 0x35E JUMP JUMPDEST POP SWAP4 SWAP3 POP POP POP JUMP JUMPDEST PUSH1 0x0 DUP3 PUSH1 0x1F DUP4 ADD SLT PUSH2 0x3C4 JUMPI PUSH2 0x3C3 PUSH2 0x297 JUMP JUMPDEST JUMPDEST DUP2 CALLDATALOAD PUSH2 0x3D4 DUP5 DUP3 PUSH1 0x20 DUP7 ADD PUSH2 0x36D JUMP JUMPDEST SWAP2 POP POP SWAP3 SWAP2 POP POP JUMP JUMPDEST PUSH1 0x0 DUP1 PUSH1 0x40 DUP4 DUP6 SUB SLT ISZERO PUSH2 0x3F4 JUMPI PUSH2 0x3F3 PUSH2 0x28D JUMP JUMPDEST JUMPDEST PUSH1 0x0 DUP4 ADD CALLDATALOAD PUSH8 0xFFFFFFFFFFFFFFFF DUP2 GT ISZERO PUSH2 0x412 JUMPI PUSH2 0x411 PUSH2 0x292 JUMP JUMPDEST JUMPDEST PUSH2 0x41E DUP6 DUP3 DUP7 ADD PUSH2 0x3AF JUMP JUMPDEST SWAP3 POP POP PUSH1 0x20 DUP4 ADD CALLDATALOAD PUSH8 0xFFFFFFFFFFFFFFFF DUP2 GT ISZERO PUSH2 0x43F JUMPI PUSH2 0x43E PUSH2 0x292 JUMP JUMPDEST JUMPDEST PUSH2 0x44B DUP6 DUP3 DUP7 ADD PUSH2 0x3AF JUMP JUMPDEST SWAP2 POP POP SWAP3 POP SWAP3 SWAP1 POP JUMP JUMPDEST PUSH1 0x0 DUP2 SWAP1 POP SWAP2 SWAP1 POP JUMP JUMPDEST PUSH2 0x468 DUP2 PUSH2 0x455 JUMP JUMPDEST DUP3 MSTORE POP POP JUMP JUMPDEST PUSH1 0x0 PUSH1 0x20 DUP3 ADD SWAP1 POP PUSH2 0x483 PUSH1 0x0 DUP4 ADD DUP5 PUSH2 0x45F JUMP JUMPDEST SWAP3 SWAP2 POP POP JUMP JUMPDEST PUSH2 0x492 DUP2 PUSH2 0x455 JUMP JUMPDEST DUP2 EQ PUSH2 0x49D JUMPI PUSH1 0x0 DUP1 REVERT JUMPDEST POP JUMP JUMPDEST PUSH1 0x0 DUP2 CALLDATALOAD SWAP1 POP PUSH2 0x4AF DUP2 PUSH2 0x489 JUMP JUMPDEST SWAP3 SWAP2 POP POP JUMP JUMPDEST PUSH1 0x0 PUSH1 0x20 DUP3 DUP5 SUB SLT ISZERO PUSH2 0x4CB JUMPI PUSH2 0x4CA PUSH2 0x28D JUMP JUMPDEST JUMPDEST PUSH1 0x0 PUSH2 0x4D9 DUP5 DUP3 DUP6 ADD PUSH2 0x4A0 JUMP JUMPDEST SWAP2 POP POP SWAP3 SWAP2 POP POP JUMP JUMPDEST PUSH1 0x0 DUP2 MLOAD SWAP1 POP SWAP2 SWAP1 POP JUMP JUMPDEST PUSH1 0x0 DUP3 DUP3 MSTORE PUSH1 0x20 DUP3 ADD SWAP1 POP SWAP3 SWAP2 POP POP JUMP JUMPDEST PUSH1 0x0 JUMPDEST DUP4 DUP2 LT ISZERO PUSH2 0x51C JUMPI DUP1 DUP3 ADD MLOAD DUP2 DUP5 ADD MSTORE PUSH1 0x20 DUP2 ADD SWAP1 POP PUSH2 0x501 JUMP JUMPDEST DUP4 DUP2 GT ISZERO PUSH2 0x52B JUMPI PUSH1 0x0 DUP5 DUP5 ADD MSTORE JUMPDEST POP POP POP POP JUMP JUMPDEST PUSH1 0x0 PUSH2 0x53C DUP3 PUSH2 0x4E2 JUMP JUMPDEST PUSH2 0x546 DUP2 DUP6 PUSH2 0x4ED JUMP JUMPDEST SWAP4 POP PUSH2 0x556 DUP2 DUP6 PUSH1 0x20 DUP7 ADD PUSH2 0x4FE JUMP JUMPDEST PUSH2 0x55F DUP2 PUSH2 0x2A1 JUMP JUMPDEST DUP5 ADD SWAP2 POP POP SWAP3 SWAP2 POP POP JUMP JUMPDEST PUSH1 0x0 PUSH1 0x60 DUP3 ADD SWAP1 POP PUSH2 0x57F PUSH1 0x0 DUP4 ADD DUP7 PUSH2 0x45F JUMP JUMPDEST DUP2 DUP2 SUB PUSH1 0x20 DUP4 ADD MSTORE PUSH2 0x591 DUP2 DUP6 PUSH2 0x531 JUMP JUMPDEST SWAP1 POP DUP2 DUP2 SUB PUSH1 0x40 DUP4 ADD MSTORE PUSH2 0x5A5 DUP2 DUP5 PUSH2 0x531 JUMP JUMPDEST SWAP1 POP SWAP5 SWAP4 POP POP POP POP JUMP JUMPDEST PUSH32 0x4E487B7100000000000000000000000000000000000000000000000000000000 PUSH1 0x0 MSTORE PUSH1 0x22 PUSH1 0x4 MSTORE PUSH1 0x24 PUSH1 0x0 REVERT JUMPDEST PUSH1 0x0 PUSH1 0x2 DUP3 DIV SWAP1 POP PUSH1 0x1 DUP3 AND DUP1 PUSH2 0x5F6 JUMPI PUSH1 0x7F DUP3 AND SWAP2 POP JUMPDEST PUSH1 0x20 DUP3 LT DUP2 SUB PUSH2 0x609 JUMPI PUSH2 0x608 PUSH2 0x5AF JUMP JUMPDEST JUMPDEST POP SWAP2 SWAP1 POP JUMP JUMPDEST PUSH1 0x0 DUP2 SWAP1 POP DUP2 PUSH1 0x0 MSTORE PUSH1 0x20 PUSH1 0x0 KECCAK256 SWAP1 POP SWAP2 SWAP1 POP JUMP JUMPDEST PUSH1 0x0 PUSH1 0x20 PUSH1 0x1F DUP4 ADD DIV SWAP1 POP SWAP2 SWAP1 POP JUMP JUMPDEST PUSH1 0x0 DUP3 DUP3 SHL SWAP1 POP SWAP3 SWAP2 POP POP JUMP JUMPDEST PUSH1 0x0 PUSH1 0x8 DUP4 MUL PUSH2 0x671 PUSH32 0xFFFFFFFFFFFFFFFFFFFFFFFFFFFFFFFFFFFFFFFFFFFFFFFFFFFFFFFFFFFFFFFF DUP3 PUSH2 0x634 JUMP JUMPDEST PUSH2 0x67B DUP7 DUP4 PUSH2 0x634 JUMP JUMPDEST SWAP6 POP DUP1 NOT DUP5 AND SWAP4 POP DUP1 DUP7 AND DUP5 OR SWAP3 POP POP POP SWAP4 SWAP3 POP POP POP JUMP JUMPDEST PUSH1 0x0 DUP2 SWAP1 POP SWAP2 SWAP1 POP JUMP JUMPDEST PUSH1 0x0 PUSH2 0x6B8 PUSH2 0x6B3 PUSH2 0x6AE DUP5 PUSH2 0x455 JUMP JUMPDEST PUSH2 0x693 JUMP JUMPDEST PUSH2 0x455 JUMP JUMPDEST SWAP1 POP SWAP2 SWAP1 POP JUMP JUMPDEST PUSH1 0x0 DUP2 SWAP1 POP SWAP2 SWAP1 POP JUMP JUMPDEST PUSH2 0x6D2 DUP4 PUSH2 0x69D JUMP JUMPDEST PUSH2 0x6E6 PUSH2 0x6DE DUP3 PUSH2 0x6BF JUMP JUMPDEST DUP5 DUP5 SLOAD PUSH2 0x641 JUMP JUMPDEST DUP3 SSTORE POP POP POP POP JUMP JUMPDEST PUSH1 0x0 SWAP1 JUMP JUMPDEST PUSH2 0x6FB PUSH2 0x6EE JUMP JUMPDEST PUSH2 0x706 DUP2 DUP5 DUP5 PUSH2 0x6C9 JUMP JUMPDEST POP POP POP JUMP JUMPDEST JUMPDEST DUP2 DUP2 LT ISZERO PUSH2 0x72A JUMPI PUSH2 0x71F PUSH1 0x0 DUP3 PUSH2 0x6F3 JUMP JUMPDEST PUSH1 0x1 DUP2 ADD SWAP1 POP PUSH2 0x70C JUMP JUMPDEST POP POP JUMP JUMPDEST PUSH1 0x1F DUP3 GT ISZERO PUSH2 0x76F JUMPI PUSH2 0x740 DUP2 PUSH2 0x60F JUMP JUMPDEST PUSH2 0x749 DUP5 PUSH2 0x624 JUMP JUMPDEST DUP2 ADD PUSH1 0x20 DUP6 LT ISZERO PUSH2 0x758 JUMPI DUP2 SWAP1 POP JUMPDEST PUSH2 0x76C PUSH2 0x764 DUP6 PUSH2 0x624 JUMP JUMPDEST DUP4 ADD DUP3 PUSH2 0x70B JUMP JUMPDEST POP POP JUMPDEST POP POP POP JUMP JUMPDEST PUSH1 0x0 DUP3 DUP3 SHR SWAP1 POP SWAP3 SWAP2 POP POP JUMP JUMPDEST PUSH1 0x0 PUSH2 0x792 PUSH1 0x0 NOT DUP5 PUSH1 0x8 MUL PUSH2 0x774 JUMP JUMPDEST NOT DUP1 DUP4 AND SWAP2 POP POP SWAP3 SWAP2 POP POP JUMP JUMPDEST PUSH1 0x0 PUSH2 0x7AB DUP4 DUP4 PUSH2 0x781 JUMP JUMPDEST SWAP2 POP DUP3 PUSH1 0x2 MUL DUP3 OR SWAP1 POP SWAP3 SWAP2 POP POP JUMP JUMPDEST PUSH2 0x7C4 DUP3 PUSH2 0x4E2 JUMP JUMPDEST PUSH8 0xFFFFFFFFFFFFFFFF DUP2 GT ISZERO PUSH2 0x7DD JUMPI PUSH2 0x7DC PUSH2 0x2B2 JUMP JUMPDEST JUMPDEST PUSH2 0x7E7 DUP3 SLOAD PUSH2 0x5DE JUMP JUMPDEST PUSH2 0x7F2 DUP3 DUP3 DUP6 PUSH2 0x72E JUMP JUMPDEST PUSH1 0x0 PUSH1 0x20 SWAP1 POP PUSH1 0x1F DUP4 GT PUSH1 0x1 DUP2 EQ PUSH2 0x825 JUMPI PUSH1 0x0 DUP5 ISZERO PUSH2 0x813 JUMPI DUP3 DUP8 ADD MLOAD SWAP1 POP JUMPDEST PUSH2 0x81D DUP6 DUP3 PUSH2 0x79F JUMP JUMPDEST DUP7 SSTORE POP PUSH2 0x885 JUMP JUMPDEST PUSH1 0x1F NOT DUP5 AND PUSH2 0x833 DUP7 PUSH2 0x60F JUMP JUMPDEST PUSH1 0x0 JUMPDEST DUP3 DUP2 LT ISZERO PUSH2 0x85B JUMPI DUP5 DUP10 ADD MLOAD DUP3 SSTORE PUSH1 0x1 DUP3 ADD SWAP2 POP PUSH1 0x20 DUP6 ADD SWAP5 POP PUSH1 0x20 DUP2 ADD SWAP1 POP PUSH2 0x836 JUMP JUMPDEST DUP7 DUP4 LT ISZERO PUSH2 0x878 JUMPI DUP5 DUP10 ADD MLOAD PUSH2 0x874 PUSH1 0x1F DUP10 AND DUP3 PUSH2 0x781 JUMP JUMPDEST DUP4 SSTORE POP JUMPDEST PUSH1 0x1 PUSH1 0x2 DUP9 MUL ADD DUP9 SSTORE POP POP POP JUMPDEST POP POP POP POP POP POP JUMP JUMPDEST PUSH32 0x4E487B7100000000000000000000000000000000000000000000000000000000 PUSH1 0x0 MSTORE PUSH1 0x11 PUSH1 0x4 MSTORE PUSH1 0x24 PUSH1 0x0 REVERT JUMPDEST PUSH1 0x0 PUSH2 0x8C7 DUP3 PUSH2 0x455 JUMP JUMPDEST SWAP2 POP PUSH2 0x8D2 DUP4 PUSH2 0x455 JUMP JUMPDEST SWAP3 POP DUP3 DUP3 ADD SWAP1 POP DUP1 DUP3 GT ISZERO PUSH2 0x8EA JUMPI PUSH2 0x8E9 PUSH2 0x88D JUMP JUMPDEST JUMPDEST SWAP3 SWAP2 POP POP JUMP INVALID LOG2 PUSH5 0x6970667358 0x22 SLT KECCAK256 CREATE 0xB9 PUSH15 0x1D4D3FFCE7DC27DCC726B0EE706514 0xB2 0x2E SWAP3 0xDE LOG4 0x4B PUSH12 0x40CAFAFC0D65CC64736F6C63 PUSH25 0x23302E382E31362D63692E323032322E372E31342B636F6D6D PUSH10 0x742E3830303038386533 STOP SLOAD "
				},
				"gasEstimates": {
					"creation": {
						"codeDepositCost": "475000",
						"executionCost": "5517",
						"totalCost": "480517"
					},
					"external": {
						"addPerson(string,string)": "infinite",
						"people(uint256)": "infinite",
						"peopleCount()": "2429"
					},
					"internal": {
						"incrementCount()": "infinite"
					}
				},
				"methodIdentifiers": {
					"addPerson(string,string)": "22f5b58d",
					"people(uint256)": "9e7a13ad",
					"peopleCount()": "267c68e0"
				}
			},
			"storageLayout": {
				"storage": [
					{
						"astId": 716,
						"contract": "EparsFactory.sol:indexPeopleWithMapping",
						"label": "peopleCount",
						"offset": 0,
						"slot": "0",
						"type": "t_uint256"
					},
					{
						"astId": 721,
						"contract": "EparsFactory.sol:indexPeopleWithMapping",
						"label": "people",
						"offset": 0,
						"slot": "1",
						"type": "t_mapping(t_uint256,t_struct(Person)728_storage)"
					}
				],
				"types": {
					"t_mapping(t_uint256,t_struct(Person)728_storage)": {
						"encoding": "mapping",
						"key": "t_uint256",
						"label": "mapping(uint256 => struct indexPeopleWithMapping.Person)",
						"numberOfBytes": "32",
						"value": "t_struct(Person)728_storage"
					},
					"t_string_storage": {
						"encoding": "bytes",
						"label": "string",
						"numberOfBytes": "32"
					},
					"t_struct(Person)728_storage": {
						"encoding": "inplace",
						"label": "struct indexPeopleWithMapping.Person",
						"members": [
							{
								"astId": 723,
								"contract": "EparsFactory.sol:indexPeopleWithMapping",
								"label": "_id",
								"offset": 0,
								"slot": "0",
								"type": "t_uint256"
							},
							{
								"astId": 725,
								"contract": "EparsFactory.sol:indexPeopleWithMapping",
								"label": "_firstName",
								"offset": 0,
								"slot": "1",
								"type": "t_string_storage"
							},
							{
								"astId": 727,
								"contract": "EparsFactory.sol:indexPeopleWithMapping",
								"label": "_lastName",
								"offset": 0,
								"slot": "2",
								"type": "t_string_storage"
							}
						],
						"numberOfBytes": "96"
					},
					"t_uint256": {
						"encoding": "inplace",
						"label": "uint256",
						"numberOfBytes": "32"
					}
				}
			},
			"userdoc": {
				"kind": "user",
				"methods": {},
				"version": 1
			}
		}
	}
}