{
	"EparsFactory.sol": {
		"EparsFactory": {
			"abi": [
				{
					"inputs": [
						{
							"internalType": "contract IERC20",
							"name": "_tokenAddress",
							"type": "address"
						}
					],
					"stateMutability": "nonpayable",
					"type": "constructor"
				},
				{
					"inputs": [],
					"name": "factoryOwner",
					"outputs": [
						{
							"internalType": "address",
							"name": "",
							"type": "address"
						}
					],
					"stateMutability": "view",
					"type": "function"
				},
				{
					"inputs": [
						{
							"internalType": "address",
							"name": "_owner",
							"type": "address"
						}
					],
					"name": "getBalance",
					"outputs": [
						{
							"internalType": "uint256",
							"name": "balance",
							"type": "uint256"
						}
					],
					"stateMutability": "view",
					"type": "function"
				},
				{
					"inputs": [
						{
							"internalType": "address",
							"name": "_to",
							"type": "address"
						},
						{
							"internalType": "uint256",
							"name": "_amount",
							"type": "uint256"
						}
					],
					"name": "sendGift",
					"outputs": [
						{
							"internalType": "bool",
							"name": "success",
							"type": "bool"
						}
					],
					"stateMutability": "nonpayable",
					"type": "function"
				},
				{
					"inputs": [],
					"name": "tokenAddress",
					"outputs": [
						{
							"internalType": "contract IERC20",
							"name": "",
							"type": "address"
						}
					],
					"stateMutability": "view",
					"type": "function"
				}
			],
			"devdoc": {
				"kind": "dev",
				"methods": {},
				"version": 1
			},
			"evm": {
				"assembly": "    /* \"EparsFactory.sol\":433:1177  contract EparsFactory {\r... */\n  mstore(0x40, 0x80)\n    /* \"EparsFactory.sol\":531:648  constructor(IERC20 _tokenAddress) {\r... */\n  callvalue\n  dup1\n  iszero\n  tag_1\n  jumpi\n  0x00\n  dup1\n  revert\ntag_1:\n  pop\n  mload(0x40)\n  sub(codesize, bytecodeSize)\n  dup1\n  bytecodeSize\n  dup4\n  codecopy\n  dup2\n  dup2\n  add\n  0x40\n  mstore\n  dup2\n  add\n  swap1\n  tag_2\n  swap2\n  swap1\n  tag_3\n  jump\t// in\ntag_2:\n    /* \"EparsFactory.sol\":591:601  msg.sender */\n  caller\n    /* \"EparsFactory.sol\":576:588  factoryOwner */\n  0x00\n  dup1\n    /* \"EparsFactory.sol\":576:601  factoryOwner = msg.sender */\n  0x0100\n  exp\n  dup2\n  sload\n  dup2\n  0xffffffffffffffffffffffffffffffffffffffff\n  mul\n  not\n  and\n  swap1\n  dup4\n  0xffffffffffffffffffffffffffffffffffffffff\n  and\n  mul\n  or\n  swap1\n  sstore\n  pop\n    /* \"EparsFactory.sol\":627:640  _tokenAddress */\n  dup1\n    /* \"EparsFactory.sol\":612:624  tokenAddress */\n  0x01\n  0x00\n    /* \"EparsFactory.sol\":612:640  tokenAddress = _tokenAddress */\n  0x0100\n  exp\n  dup2\n  sload\n  dup2\n  0xffffffffffffffffffffffffffffffffffffffff\n  mul\n  not\n  and\n  swap1\n  dup4\n  0xffffffffffffffffffffffffffffffffffffffff\n  and\n  mul\n  or\n  swap1\n  sstore\n  pop\n    /* \"EparsFactory.sol\":531:648  constructor(IERC20 _tokenAddress) {\r... */\n  pop\n    /* \"EparsFactory.sol\":433:1177  contract EparsFactory {\r... */\n  jump(tag_6)\n    /* \"#utility.yul\":7:178   */\ntag_8:\n    /* \"#utility.yul\":78:83   */\n  0x00\n    /* \"#utility.yul\":109:115   */\n  dup2\n    /* \"#utility.yul\":103:116   */\n  mload\n    /* \"#utility.yul\":94:116   */\n  swap1\n  pop\n    /* \"#utility.yul\":125:172   */\n  tag_10\n    /* \"#utility.yul\":166:171   */\n  dup2\n    /* \"#utility.yul\":125:172   */\n  tag_11\n  jump\t// in\ntag_10:\n    /* \"#utility.yul\":7:178   */\n  swap3\n  swap2\n  pop\n  pop\n  jump\t// out\n    /* \"#utility.yul\":184:563   */\ntag_3:\n    /* \"#utility.yul\":268:274   */\n  0x00\n    /* \"#utility.yul\":317:319   */\n  0x20\n    /* \"#utility.yul\":305:314   */\n  dup3\n    /* \"#utility.yul\":296:303   */\n  dup5\n    /* \"#utility.yul\":292:315   */\n  sub\n    /* \"#utility.yul\":288:320   */\n  slt\n    /* \"#utility.yul\":285:404   */\n  iszero\n  tag_13\n  jumpi\n    /* \"#utility.yul\":323:402   */\n  tag_14\n  tag_15\n  jump\t// in\ntag_14:\n    /* \"#utility.yul\":285:404   */\ntag_13:\n    /* \"#utility.yul\":443:444   */\n  0x00\n    /* \"#utility.yul\":468:546   */\n  tag_16\n    /* \"#utility.yul\":538:545   */\n  dup5\n    /* \"#utility.yul\":529:535   */\n  dup3\n    /* \"#utility.yul\":518:527   */\n  dup6\n    /* \"#utility.yul\":514:536   */\n  add\n    /* \"#utility.yul\":468:546   */\n  tag_8\n  jump\t// in\ntag_16:\n    /* \"#utility.yul\":458:546   */\n  swap2\n  pop\n    /* \"#utility.yul\":414:556   */\n  pop\n    /* \"#utility.yul\":184:563   */\n  swap3\n  swap2\n  pop\n  pop\n  jump\t// out\n    /* \"#utility.yul\":650:746   */\ntag_19:\n    /* \"#utility.yul\":687:694   */\n  0x00\n    /* \"#utility.yul\":716:740   */\n  tag_21\n    /* \"#utility.yul\":734:739   */\n  dup3\n    /* \"#utility.yul\":716:740   */\n  tag_22\n  jump\t// in\ntag_21:\n    /* \"#utility.yul\":705:740   */\n  swap1\n  pop\n    /* \"#utility.yul\":650:746   */\n  swap2\n  swap1\n  pop\n  jump\t// out\n    /* \"#utility.yul\":752:862   */\ntag_23:\n    /* \"#utility.yul\":803:810   */\n  0x00\n    /* \"#utility.yul\":832:856   */\n  tag_25\n    /* \"#utility.yul\":850:855   */\n  dup3\n    /* \"#utility.yul\":832:856   */\n  tag_19\n  jump\t// in\ntag_25:\n    /* \"#utility.yul\":821:856   */\n  swap1\n  pop\n    /* \"#utility.yul\":752:862   */\n  swap2\n  swap1\n  pop\n  jump\t// out\n    /* \"#utility.yul\":868:994   */\ntag_22:\n    /* \"#utility.yul\":905:912   */\n  0x00\n    /* \"#utility.yul\":945:987   */\n  0xffffffffffffffffffffffffffffffffffffffff\n    /* \"#utility.yul\":938:943   */\n  dup3\n    /* \"#utility.yul\":934:988   */\n  and\n    /* \"#utility.yul\":923:988   */\n  swap1\n  pop\n    /* \"#utility.yul\":868:994   */\n  swap2\n  swap1\n  pop\n  jump\t// out\n    /* \"#utility.yul\":1123:1240   */\ntag_15:\n    /* \"#utility.yul\":1232:1233   */\n  0x00\n    /* \"#utility.yul\":1229:1230   */\n  dup1\n    /* \"#utility.yul\":1222:1234   */\n  revert\n    /* \"#utility.yul\":1246:1396   */\ntag_11:\n    /* \"#utility.yul\":1333:1371   */\n  tag_31\n    /* \"#utility.yul\":1365:1370   */\n  dup2\n    /* \"#utility.yul\":1333:1371   */\n  tag_23\n  jump\t// in\ntag_31:\n    /* \"#utility.yul\":1326:1331   */\n  dup2\n    /* \"#utility.yul\":1323:1372   */\n  eq\n    /* \"#utility.yul\":1313:1390   */\n  tag_32\n  jumpi\n    /* \"#utility.yul\":1386:1387   */\n  0x00\n    /* \"#utility.yul\":1383:1384   */\n  dup1\n    /* \"#utility.yul\":1376:1388   */\n  revert\n    /* \"#utility.yul\":1313:1390   */\ntag_32:\n    /* \"#utility.yul\":1246:1396   */\n  pop\n  jump\t// out\n    /* \"EparsFactory.sol\":433:1177  contract EparsFactory {\r... */\ntag_6:\n  dataSize(sub_0)\n  dup1\n  dataOffset(sub_0)\n  0x00\n  codecopy\n  0x00\n  return\nstop\n\nsub_0: assembly {\n        /* \"EparsFactory.sol\":433:1177  contract EparsFactory {\r... */\n      mstore(0x40, 0x80)\n      callvalue\n      dup1\n      iszero\n      tag_1\n      jumpi\n      0x00\n      dup1\n      revert\n    tag_1:\n      pop\n      jumpi(tag_2, lt(calldatasize, 0x04))\n      shr(0xe0, calldataload(0x00))\n      dup1\n      0x4273601c\n      eq\n      tag_3\n      jumpi\n      dup1\n      0x63d9b4b1\n      eq\n      tag_4\n      jumpi\n      dup1\n      0x9d76ea58\n      eq\n      tag_5\n      jumpi\n      dup1\n      0xf8b2cb4f\n      eq\n      tag_6\n      jumpi\n    tag_2:\n      0x00\n      dup1\n      revert\n        /* \"EparsFactory.sol\":462:489  address public factoryOwner */\n    tag_3:\n      tag_7\n      tag_8\n      jump\t// in\n    tag_7:\n      mload(0x40)\n      tag_9\n      swap2\n      swap1\n      tag_10\n      jump\t// in\n    tag_9:\n      mload(0x40)\n      dup1\n      swap2\n      sub\n      swap1\n      return\n        /* \"EparsFactory.sol\":758:963  function sendGift(address _to, uint256 _amount)\r... */\n    tag_4:\n      tag_11\n      0x04\n      dup1\n      calldatasize\n      sub\n      dup2\n      add\n      swap1\n      tag_12\n      swap2\n      swap1\n      tag_13\n      jump\t// in\n    tag_12:\n      tag_14\n      jump\t// in\n    tag_11:\n      mload(0x40)\n      tag_15\n      swap2\n      swap1\n      tag_16\n      jump\t// in\n    tag_15:\n      mload(0x40)\n      dup1\n      swap2\n      sub\n      swap1\n      return\n        /* \"EparsFactory.sol\":496:522  IERC20 public tokenAddress */\n    tag_5:\n      tag_17\n      tag_18\n      jump\t// in\n    tag_17:\n      mload(0x40)\n      tag_19\n      swap2\n      swap1\n      tag_20\n      jump\t// in\n    tag_19:\n      mload(0x40)\n      dup1\n      swap2\n      sub\n      swap1\n      return\n        /* \"EparsFactory.sol\":971:1174  function getBalance(address _owner)\r... */\n    tag_6:\n      tag_21\n      0x04\n      dup1\n      calldatasize\n      sub\n      dup2\n      add\n      swap1\n      tag_22\n      swap2\n      swap1\n      tag_23\n      jump\t// in\n    tag_22:\n      tag_24\n      jump\t// in\n    tag_21:\n      mload(0x40)\n      tag_25\n      swap2\n      swap1\n      tag_26\n      jump\t// in\n    tag_25:\n      mload(0x40)\n      dup1\n      swap2\n      sub\n      swap1\n      return\n        /* \"EparsFactory.sol\":462:489  address public factoryOwner */\n    tag_8:\n      0x00\n      dup1\n      sload\n      swap1\n      0x0100\n      exp\n      swap1\n      div\n      0xffffffffffffffffffffffffffffffffffffffff\n      and\n      dup2\n      jump\t// out\n        /* \"EparsFactory.sol\":758:963  function sendGift(address _to, uint256 _amount)\r... */\n    tag_14:\n        /* \"EparsFactory.sol\":868:880  bool success */\n      0x00\n        /* \"EparsFactory.sol\":717:729  factoryOwner */\n      dup1\n      0x00\n      swap1\n      sload\n      swap1\n      0x0100\n      exp\n      swap1\n      div\n      0xffffffffffffffffffffffffffffffffffffffff\n      and\n        /* \"EparsFactory.sol\":703:729  msg.sender == factoryOwner */\n      0xffffffffffffffffffffffffffffffffffffffff\n      and\n        /* \"EparsFactory.sol\":703:713  msg.sender */\n      caller\n        /* \"EparsFactory.sol\":703:729  msg.sender == factoryOwner */\n      0xffffffffffffffffffffffffffffffffffffffff\n      and\n      eq\n        /* \"EparsFactory.sol\":695:730  require(msg.sender == factoryOwner) */\n      tag_28\n      jumpi\n      0x00\n      dup1\n      revert\n    tag_28:\n        /* \"EparsFactory.sol\":898:910  tokenAddress */\n      0x01\n      0x00\n      swap1\n      sload\n      swap1\n      0x0100\n      exp\n      swap1\n      div\n      0xffffffffffffffffffffffffffffffffffffffff\n      and\n        /* \"EparsFactory.sol\":898:919  tokenAddress.transfer */\n      0xffffffffffffffffffffffffffffffffffffffff\n      and\n      0xa9059cbb\n        /* \"EparsFactory.sol\":920:923  _to */\n      dup5\n        /* \"EparsFactory.sol\":925:932  _amount */\n      dup5\n        /* \"EparsFactory.sol\":898:933  tokenAddress.transfer(_to, _amount) */\n      mload(0x40)\n      dup4\n      0xffffffff\n      and\n      0xe0\n      shl\n      dup2\n      mstore\n      0x04\n      add\n      tag_30\n      swap3\n      swap2\n      swap1\n      tag_31\n      jump\t// in\n    tag_30:\n      0x20\n      mload(0x40)\n      dup1\n      dup4\n      sub\n      dup2\n      0x00\n      dup8\n      dup1\n      extcodesize\n      iszero\n      dup1\n      iszero\n      tag_32\n      jumpi\n      0x00\n      dup1\n      revert\n    tag_32:\n      pop\n      gas\n      call\n      iszero\n      dup1\n      iszero\n      tag_34\n      jumpi\n      returndatasize\n      0x00\n      dup1\n      returndatacopy\n      revert(0x00, returndatasize)\n    tag_34:\n      pop\n      pop\n      pop\n      pop\n      mload(0x40)\n      returndatasize\n      not(0x1f)\n      0x1f\n      dup3\n      add\n      and\n      dup3\n      add\n      dup1\n      0x40\n      mstore\n      pop\n      dup2\n      add\n      swap1\n      tag_35\n      swap2\n      swap1\n      tag_36\n      jump\t// in\n    tag_35:\n      pop\n        /* \"EparsFactory.sol\":951:955  true */\n      0x01\n        /* \"EparsFactory.sol\":944:955  return true */\n      swap1\n      pop\n        /* \"EparsFactory.sol\":758:963  function sendGift(address _to, uint256 _amount)\r... */\n      swap3\n      swap2\n      pop\n      pop\n      jump\t// out\n        /* \"EparsFactory.sol\":496:522  IERC20 public tokenAddress */\n    tag_18:\n      0x01\n      0x00\n      swap1\n      sload\n      swap1\n      0x0100\n      exp\n      swap1\n      div\n      0xffffffffffffffffffffffffffffffffffffffff\n      and\n      dup2\n      jump\t// out\n        /* \"EparsFactory.sol\":971:1174  function getBalance(address _owner)\r... */\n    tag_24:\n        /* \"EparsFactory.sol\":1057:1072  uint256 balance */\n      0x00\n        /* \"EparsFactory.sol\":1090:1102  IERC20 token */\n      dup1\n        /* \"EparsFactory.sol\":1112:1124  tokenAddress */\n      0x01\n      0x00\n      swap1\n      sload\n      swap1\n      0x0100\n      exp\n      swap1\n      div\n      0xffffffffffffffffffffffffffffffffffffffff\n      and\n        /* \"EparsFactory.sol\":1090:1125  IERC20 token = IERC20(tokenAddress) */\n      swap1\n      pop\n        /* \"EparsFactory.sol\":1143:1148  token */\n      dup1\n        /* \"EparsFactory.sol\":1143:1158  token.balanceOf */\n      0xffffffffffffffffffffffffffffffffffffffff\n      and\n      0x70a08231\n        /* \"EparsFactory.sol\":1159:1165  _owner */\n      dup5\n        /* \"EparsFactory.sol\":1143:1166  token.balanceOf(_owner) */\n      mload(0x40)\n      dup3\n      0xffffffff\n      and\n      0xe0\n      shl\n      dup2\n      mstore\n      0x04\n      add\n      tag_38\n      swap2\n      swap1\n      tag_10\n      jump\t// in\n    tag_38:\n      0x20\n      mload(0x40)\n      dup1\n      dup4\n      sub\n      dup2\n      dup7\n      dup1\n      extcodesize\n      iszero\n      dup1\n      iszero\n      tag_39\n      jumpi\n      0x00\n      dup1\n      revert\n    tag_39:\n      pop\n      gas\n      staticcall\n      iszero\n      dup1\n      iszero\n      tag_41\n      jumpi\n      returndatasize\n      0x00\n      dup1\n      returndatacopy\n      revert(0x00, returndatasize)\n    tag_41:\n      pop\n      pop\n      pop\n      pop\n      mload(0x40)\n      returndatasize\n      not(0x1f)\n      0x1f\n      dup3\n      add\n      and\n      dup3\n      add\n      dup1\n      0x40\n      mstore\n      pop\n      dup2\n      add\n      swap1\n      tag_42\n      swap2\n      swap1\n      tag_43\n      jump\t// in\n    tag_42:\n        /* \"EparsFactory.sol\":1136:1166  return token.balanceOf(_owner) */\n      swap2\n      pop\n      pop\n        /* \"EparsFactory.sol\":971:1174  function getBalance(address _owner)\r... */\n      swap2\n      swap1\n      pop\n      jump\t// out\n        /* \"#utility.yul\":7:146   */\n    tag_45:\n        /* \"#utility.yul\":53:58   */\n      0x00\n        /* \"#utility.yul\":91:97   */\n      dup2\n        /* \"#utility.yul\":78:98   */\n      calldataload\n        /* \"#utility.yul\":69:98   */\n      swap1\n      pop\n        /* \"#utility.yul\":107:140   */\n      tag_47\n        /* \"#utility.yul\":134:139   */\n      dup2\n        /* \"#utility.yul\":107:140   */\n      tag_48\n      jump\t// in\n    tag_47:\n        /* \"#utility.yul\":7:146   */\n      swap3\n      swap2\n      pop\n      pop\n      jump\t// out\n        /* \"#utility.yul\":152:289   */\n    tag_49:\n        /* \"#utility.yul\":206:211   */\n      0x00\n        /* \"#utility.yul\":237:243   */\n      dup2\n        /* \"#utility.yul\":231:244   */\n      mload\n        /* \"#utility.yul\":222:244   */\n      swap1\n      pop\n        /* \"#utility.yul\":253:283   */\n      tag_51\n        /* \"#utility.yul\":277:282   */\n      dup2\n        /* \"#utility.yul\":253:283   */\n      tag_52\n      jump\t// in\n    tag_51:\n        /* \"#utility.yul\":152:289   */\n      swap3\n      swap2\n      pop\n      pop\n      jump\t// out\n        /* \"#utility.yul\":295:434   */\n    tag_53:\n        /* \"#utility.yul\":341:346   */\n      0x00\n        /* \"#utility.yul\":379:385   */\n      dup2\n        /* \"#utility.yul\":366:386   */\n      calldataload\n        /* \"#utility.yul\":357:386   */\n      swap1\n      pop\n        /* \"#utility.yul\":395:428   */\n      tag_55\n        /* \"#utility.yul\":422:427   */\n      dup2\n        /* \"#utility.yul\":395:428   */\n      tag_56\n      jump\t// in\n    tag_55:\n        /* \"#utility.yul\":295:434   */\n      swap3\n      swap2\n      pop\n      pop\n      jump\t// out\n        /* \"#utility.yul\":440:583   */\n    tag_57:\n        /* \"#utility.yul\":497:502   */\n      0x00\n        /* \"#utility.yul\":528:534   */\n      dup2\n        /* \"#utility.yul\":522:535   */\n      mload\n        /* \"#utility.yul\":513:535   */\n      swap1\n      pop\n        /* \"#utility.yul\":544:577   */\n      tag_59\n        /* \"#utility.yul\":571:576   */\n      dup2\n        /* \"#utility.yul\":544:577   */\n      tag_56\n      jump\t// in\n    tag_59:\n        /* \"#utility.yul\":440:583   */\n      swap3\n      swap2\n      pop\n      pop\n      jump\t// out\n        /* \"#utility.yul\":589:918   */\n    tag_23:\n        /* \"#utility.yul\":648:654   */\n      0x00\n        /* \"#utility.yul\":697:699   */\n      0x20\n        /* \"#utility.yul\":685:694   */\n      dup3\n        /* \"#utility.yul\":676:683   */\n      dup5\n        /* \"#utility.yul\":672:695   */\n      sub\n        /* \"#utility.yul\":668:700   */\n      slt\n        /* \"#utility.yul\":665:784   */\n      iszero\n      tag_61\n      jumpi\n        /* \"#utility.yul\":703:782   */\n      tag_62\n      tag_63\n      jump\t// in\n    tag_62:\n        /* \"#utility.yul\":665:784   */\n    tag_61:\n        /* \"#utility.yul\":823:824   */\n      0x00\n        /* \"#utility.yul\":848:901   */\n      tag_64\n        /* \"#utility.yul\":893:900   */\n      dup5\n        /* \"#utility.yul\":884:890   */\n      dup3\n        /* \"#utility.yul\":873:882   */\n      dup6\n        /* \"#utility.yul\":869:891   */\n      add\n        /* \"#utility.yul\":848:901   */\n      tag_45\n      jump\t// in\n    tag_64:\n        /* \"#utility.yul\":838:901   */\n      swap2\n      pop\n        /* \"#utility.yul\":794:911   */\n      pop\n        /* \"#utility.yul\":589:918   */\n      swap3\n      swap2\n      pop\n      pop\n      jump\t// out\n        /* \"#utility.yul\":924:1398   */\n    tag_13:\n        /* \"#utility.yul\":992:998   */\n      0x00\n        /* \"#utility.yul\":1000:1006   */\n      dup1\n        /* \"#utility.yul\":1049:1051   */\n      0x40\n        /* \"#utility.yul\":1037:1046   */\n      dup4\n        /* \"#utility.yul\":1028:1035   */\n      dup6\n        /* \"#utility.yul\":1024:1047   */\n      sub\n        /* \"#utility.yul\":1020:1052   */\n      slt\n        /* \"#utility.yul\":1017:1136   */\n      iszero\n      tag_66\n      jumpi\n        /* \"#utility.yul\":1055:1134   */\n      tag_67\n      tag_63\n      jump\t// in\n    tag_67:\n        /* \"#utility.yul\":1017:1136   */\n    tag_66:\n        /* \"#utility.yul\":1175:1176   */\n      0x00\n        /* \"#utility.yul\":1200:1253   */\n      tag_68\n        /* \"#utility.yul\":1245:1252   */\n      dup6\n        /* \"#utility.yul\":1236:1242   */\n      dup3\n        /* \"#utility.yul\":1225:1234   */\n      dup7\n        /* \"#utility.yul\":1221:1243   */\n      add\n        /* \"#utility.yul\":1200:1253   */\n      tag_45\n      jump\t// in\n    tag_68:\n        /* \"#utility.yul\":1190:1253   */\n      swap3\n      pop\n        /* \"#utility.yul\":1146:1263   */\n      pop\n        /* \"#utility.yul\":1302:1304   */\n      0x20\n        /* \"#utility.yul\":1328:1381   */\n      tag_69\n        /* \"#utility.yul\":1373:1380   */\n      dup6\n        /* \"#utility.yul\":1364:1370   */\n      dup3\n        /* \"#utility.yul\":1353:1362   */\n      dup7\n        /* \"#utility.yul\":1349:1371   */\n      add\n        /* \"#utility.yul\":1328:1381   */\n      tag_53\n      jump\t// in\n    tag_69:\n        /* \"#utility.yul\":1318:1381   */\n      swap2\n      pop\n        /* \"#utility.yul\":1273:1391   */\n      pop\n        /* \"#utility.yul\":924:1398   */\n      swap3\n      pop\n      swap3\n      swap1\n      pop\n      jump\t// out\n        /* \"#utility.yul\":1404:1749   */\n    tag_36:\n        /* \"#utility.yul\":1471:1477   */\n      0x00\n        /* \"#utility.yul\":1520:1522   */\n      0x20\n        /* \"#utility.yul\":1508:1517   */\n      dup3\n        /* \"#utility.yul\":1499:1506   */\n      dup5\n        /* \"#utility.yul\":1495:1518   */\n      sub\n        /* \"#utility.yul\":1491:1523   */\n      slt\n        /* \"#utility.yul\":1488:1607   */\n      iszero\n      tag_71\n      jumpi\n        /* \"#utility.yul\":1526:1605   */\n      tag_72\n      tag_63\n      jump\t// in\n    tag_72:\n        /* \"#utility.yul\":1488:1607   */\n    tag_71:\n        /* \"#utility.yul\":1646:1647   */\n      0x00\n        /* \"#utility.yul\":1671:1732   */\n      tag_73\n        /* \"#utility.yul\":1724:1731   */\n      dup5\n        /* \"#utility.yul\":1715:1721   */\n      dup3\n        /* \"#utility.yul\":1704:1713   */\n      dup6\n        /* \"#utility.yul\":1700:1722   */\n      add\n        /* \"#utility.yul\":1671:1732   */\n      tag_49\n      jump\t// in\n    tag_73:\n        /* \"#utility.yul\":1661:1732   */\n      swap2\n      pop\n        /* \"#utility.yul\":1617:1742   */\n      pop\n        /* \"#utility.yul\":1404:1749   */\n      swap3\n      swap2\n      pop\n      pop\n      jump\t// out\n        /* \"#utility.yul\":1755:2106   */\n    tag_43:\n        /* \"#utility.yul\":1825:1831   */\n      0x00\n        /* \"#utility.yul\":1874:1876   */\n      0x20\n        /* \"#utility.yul\":1862:1871   */\n      dup3\n        /* \"#utility.yul\":1853:1860   */\n      dup5\n        /* \"#utility.yul\":1849:1872   */\n      sub\n        /* \"#utility.yul\":1845:1877   */\n      slt\n        /* \"#utility.yul\":1842:1961   */\n      iszero\n      tag_75\n      jumpi\n        /* \"#utility.yul\":1880:1959   */\n      tag_76\n      tag_63\n      jump\t// in\n    tag_76:\n        /* \"#utility.yul\":1842:1961   */\n    tag_75:\n        /* \"#utility.yul\":2000:2001   */\n      0x00\n        /* \"#utility.yul\":2025:2089   */\n      tag_77\n        /* \"#utility.yul\":2081:2088   */\n      dup5\n        /* \"#utility.yul\":2072:2078   */\n      dup3\n        /* \"#utility.yul\":2061:2070   */\n      dup6\n        /* \"#utility.yul\":2057:2079   */\n      add\n        /* \"#utility.yul\":2025:2089   */\n      tag_57\n      jump\t// in\n    tag_77:\n        /* \"#utility.yul\":2015:2089   */\n      swap2\n      pop\n        /* \"#utility.yul\":1971:2099   */\n      pop\n        /* \"#utility.yul\":1755:2106   */\n      swap3\n      swap2\n      pop\n      pop\n      jump\t// out\n        /* \"#utility.yul\":2112:2230   */\n    tag_78:\n        /* \"#utility.yul\":2199:2223   */\n      tag_80\n        /* \"#utility.yul\":2217:2222   */\n      dup2\n        /* \"#utility.yul\":2199:2223   */\n      tag_81\n      jump\t// in\n    tag_80:\n        /* \"#utility.yul\":2194:2197   */\n      dup3\n        /* \"#utility.yul\":2187:2224   */\n      mstore\n        /* \"#utility.yul\":2112:2230   */\n      pop\n      pop\n      jump\t// out\n        /* \"#utility.yul\":2236:2345   */\n    tag_82:\n        /* \"#utility.yul\":2317:2338   */\n      tag_84\n        /* \"#utility.yul\":2332:2337   */\n      dup2\n        /* \"#utility.yul\":2317:2338   */\n      tag_85\n      jump\t// in\n    tag_84:\n        /* \"#utility.yul\":2312:2315   */\n      dup3\n        /* \"#utility.yul\":2305:2339   */\n      mstore\n        /* \"#utility.yul\":2236:2345   */\n      pop\n      pop\n      jump\t// out\n        /* \"#utility.yul\":2351:2510   */\n    tag_86:\n        /* \"#utility.yul\":2452:2503   */\n      tag_88\n        /* \"#utility.yul\":2497:2502   */\n      dup2\n        /* \"#utility.yul\":2452:2503   */\n      tag_89\n      jump\t// in\n    tag_88:\n        /* \"#utility.yul\":2447:2450   */\n      dup3\n        /* \"#utility.yul\":2440:2504   */\n      mstore\n        /* \"#utility.yul\":2351:2510   */\n      pop\n      pop\n      jump\t// out\n        /* \"#utility.yul\":2516:2634   */\n    tag_90:\n        /* \"#utility.yul\":2603:2627   */\n      tag_92\n        /* \"#utility.yul\":2621:2626   */\n      dup2\n        /* \"#utility.yul\":2603:2627   */\n      tag_93\n      jump\t// in\n    tag_92:\n        /* \"#utility.yul\":2598:2601   */\n      dup3\n        /* \"#utility.yul\":2591:2628   */\n      mstore\n        /* \"#utility.yul\":2516:2634   */\n      pop\n      pop\n      jump\t// out\n        /* \"#utility.yul\":2640:2862   */\n    tag_10:\n        /* \"#utility.yul\":2733:2737   */\n      0x00\n        /* \"#utility.yul\":2771:2773   */\n      0x20\n        /* \"#utility.yul\":2760:2769   */\n      dup3\n        /* \"#utility.yul\":2756:2774   */\n      add\n        /* \"#utility.yul\":2748:2774   */\n      swap1\n      pop\n        /* \"#utility.yul\":2784:2855   */\n      tag_95\n        /* \"#utility.yul\":2852:2853   */\n      0x00\n        /* \"#utility.yul\":2841:2850   */\n      dup4\n        /* \"#utility.yul\":2837:2854   */\n      add\n        /* \"#utility.yul\":2828:2834   */\n      dup5\n        /* \"#utility.yul\":2784:2855   */\n      tag_78\n      jump\t// in\n    tag_95:\n        /* \"#utility.yul\":2640:2862   */\n      swap3\n      swap2\n      pop\n      pop\n      jump\t// out\n        /* \"#utility.yul\":2868:3200   */\n    tag_31:\n        /* \"#utility.yul\":2989:2993   */\n      0x00\n        /* \"#utility.yul\":3027:3029   */\n      0x40\n        /* \"#utility.yul\":3016:3025   */\n      dup3\n        /* \"#utility.yul\":3012:3030   */\n      add\n        /* \"#utility.yul\":3004:3030   */\n      swap1\n      pop\n        /* \"#utility.yul\":3040:3111   */\n      tag_97\n        /* \"#utility.yul\":3108:3109   */\n      0x00\n        /* \"#utility.yul\":3097:3106   */\n      dup4\n        /* \"#utility.yul\":3093:3110   */\n      add\n        /* \"#utility.yul\":3084:3090   */\n      dup6\n        /* \"#utility.yul\":3040:3111   */\n      tag_78\n      jump\t// in\n    tag_97:\n        /* \"#utility.yul\":3121:3193   */\n      tag_98\n        /* \"#utility.yul\":3189:3191   */\n      0x20\n        /* \"#utility.yul\":3178:3187   */\n      dup4\n        /* \"#utility.yul\":3174:3192   */\n      add\n        /* \"#utility.yul\":3165:3171   */\n      dup5\n        /* \"#utility.yul\":3121:3193   */\n      tag_90\n      jump\t// in\n    tag_98:\n        /* \"#utility.yul\":2868:3200   */\n      swap4\n      swap3\n      pop\n      pop\n      pop\n      jump\t// out\n        /* \"#utility.yul\":3206:3416   */\n    tag_16:\n        /* \"#utility.yul\":3293:3297   */\n      0x00\n        /* \"#utility.yul\":3331:3333   */\n      0x20\n        /* \"#utility.yul\":3320:3329   */\n      dup3\n        /* \"#utility.yul\":3316:3334   */\n      add\n        /* \"#utility.yul\":3308:3334   */\n      swap1\n      pop\n        /* \"#utility.yul\":3344:3409   */\n      tag_100\n        /* \"#utility.yul\":3406:3407   */\n      0x00\n        /* \"#utility.yul\":3395:3404   */\n      dup4\n        /* \"#utility.yul\":3391:3408   */\n      add\n        /* \"#utility.yul\":3382:3388   */\n      dup5\n        /* \"#utility.yul\":3344:3409   */\n      tag_82\n      jump\t// in\n    tag_100:\n        /* \"#utility.yul\":3206:3416   */\n      swap3\n      swap2\n      pop\n      pop\n      jump\t// out\n        /* \"#utility.yul\":3422:3672   */\n    tag_20:\n        /* \"#utility.yul\":3529:3533   */\n      0x00\n        /* \"#utility.yul\":3567:3569   */\n      0x20\n        /* \"#utility.yul\":3556:3565   */\n      dup3\n        /* \"#utility.yul\":3552:3570   */\n      add\n        /* \"#utility.yul\":3544:3570   */\n      swap1\n      pop\n        /* \"#utility.yul\":3580:3665   */\n      tag_102\n        /* \"#utility.yul\":3662:3663   */\n      0x00\n        /* \"#utility.yul\":3651:3660   */\n      dup4\n        /* \"#utility.yul\":3647:3664   */\n      add\n        /* \"#utility.yul\":3638:3644   */\n      dup5\n        /* \"#utility.yul\":3580:3665   */\n      tag_86\n      jump\t// in\n    tag_102:\n        /* \"#utility.yul\":3422:3672   */\n      swap3\n      swap2\n      pop\n      pop\n      jump\t// out\n        /* \"#utility.yul\":3678:3900   */\n    tag_26:\n        /* \"#utility.yul\":3771:3775   */\n      0x00\n        /* \"#utility.yul\":3809:3811   */\n      0x20\n        /* \"#utility.yul\":3798:3807   */\n      dup3\n        /* \"#utility.yul\":3794:3812   */\n      add\n        /* \"#utility.yul\":3786:3812   */\n      swap1\n      pop\n        /* \"#utility.yul\":3822:3893   */\n      tag_104\n        /* \"#utility.yul\":3890:3891   */\n      0x00\n        /* \"#utility.yul\":3879:3888   */\n      dup4\n        /* \"#utility.yul\":3875:3892   */\n      add\n        /* \"#utility.yul\":3866:3872   */\n      dup5\n        /* \"#utility.yul\":3822:3893   */\n      tag_90\n      jump\t// in\n    tag_104:\n        /* \"#utility.yul\":3678:3900   */\n      swap3\n      swap2\n      pop\n      pop\n      jump\t// out\n        /* \"#utility.yul\":3987:4083   */\n    tag_81:\n        /* \"#utility.yul\":4024:4031   */\n      0x00\n        /* \"#utility.yul\":4053:4077   */\n      tag_108\n        /* \"#utility.yul\":4071:4076   */\n      dup3\n        /* \"#utility.yul\":4053:4077   */\n      tag_109\n      jump\t// in\n    tag_108:\n        /* \"#utility.yul\":4042:4077   */\n      swap1\n      pop\n        /* \"#utility.yul\":3987:4083   */\n      swap2\n      swap1\n      pop\n      jump\t// out\n        /* \"#utility.yul\":4089:4179   */\n    tag_85:\n        /* \"#utility.yul\":4123:4130   */\n      0x00\n        /* \"#utility.yul\":4166:4171   */\n      dup2\n        /* \"#utility.yul\":4159:4172   */\n      iszero\n        /* \"#utility.yul\":4152:4173   */\n      iszero\n        /* \"#utility.yul\":4141:4173   */\n      swap1\n      pop\n        /* \"#utility.yul\":4089:4179   */\n      swap2\n      swap1\n      pop\n      jump\t// out\n        /* \"#utility.yul\":4185:4311   */\n    tag_109:\n        /* \"#utility.yul\":4222:4229   */\n      0x00\n        /* \"#utility.yul\":4262:4304   */\n      0xffffffffffffffffffffffffffffffffffffffff\n        /* \"#utility.yul\":4255:4260   */\n      dup3\n        /* \"#utility.yul\":4251:4305   */\n      and\n        /* \"#utility.yul\":4240:4305   */\n      swap1\n      pop\n        /* \"#utility.yul\":4185:4311   */\n      swap2\n      swap1\n      pop\n      jump\t// out\n        /* \"#utility.yul\":4317:4394   */\n    tag_93:\n        /* \"#utility.yul\":4354:4361   */\n      0x00\n        /* \"#utility.yul\":4383:4388   */\n      dup2\n        /* \"#utility.yul\":4372:4388   */\n      swap1\n      pop\n        /* \"#utility.yul\":4317:4394   */\n      swap2\n      swap1\n      pop\n      jump\t// out\n        /* \"#utility.yul\":4400:4540   */\n    tag_89:\n        /* \"#utility.yul\":4464:4473   */\n      0x00\n        /* \"#utility.yul\":4497:4534   */\n      tag_114\n        /* \"#utility.yul\":4528:4533   */\n      dup3\n        /* \"#utility.yul\":4497:4534   */\n      tag_115\n      jump\t// in\n    tag_114:\n        /* \"#utility.yul\":4484:4534   */\n      swap1\n      pop\n        /* \"#utility.yul\":4400:4540   */\n      swap2\n      swap1\n      pop\n      jump\t// out\n        /* \"#utility.yul\":4546:4672   */\n    tag_115:\n        /* \"#utility.yul\":4596:4605   */\n      0x00\n        /* \"#utility.yul\":4629:4666   */\n      tag_117\n        /* \"#utility.yul\":4660:4665   */\n      dup3\n        /* \"#utility.yul\":4629:4666   */\n      tag_118\n      jump\t// in\n    tag_117:\n        /* \"#utility.yul\":4616:4666   */\n      swap1\n      pop\n        /* \"#utility.yul\":4546:4672   */\n      swap2\n      swap1\n      pop\n      jump\t// out\n        /* \"#utility.yul\":4678:4791   */\n    tag_118:\n        /* \"#utility.yul\":4728:4737   */\n      0x00\n        /* \"#utility.yul\":4761:4785   */\n      tag_120\n        /* \"#utility.yul\":4779:4784   */\n      dup3\n        /* \"#utility.yul\":4761:4785   */\n      tag_109\n      jump\t// in\n    tag_120:\n        /* \"#utility.yul\":4748:4785   */\n      swap1\n      pop\n        /* \"#utility.yul\":4678:4791   */\n      swap2\n      swap1\n      pop\n      jump\t// out\n        /* \"#utility.yul\":4920:5037   */\n    tag_63:\n        /* \"#utility.yul\":5029:5030   */\n      0x00\n        /* \"#utility.yul\":5026:5027   */\n      dup1\n        /* \"#utility.yul\":5019:5031   */\n      revert\n        /* \"#utility.yul\":5043:5165   */\n    tag_48:\n        /* \"#utility.yul\":5116:5140   */\n      tag_125\n        /* \"#utility.yul\":5134:5139   */\n      dup2\n        /* \"#utility.yul\":5116:5140   */\n      tag_81\n      jump\t// in\n    tag_125:\n        /* \"#utility.yul\":5109:5114   */\n      dup2\n        /* \"#utility.yul\":5106:5141   */\n      eq\n        /* \"#utility.yul\":5096:5159   */\n      tag_126\n      jumpi\n        /* \"#utility.yul\":5155:5156   */\n      0x00\n        /* \"#utility.yul\":5152:5153   */\n      dup1\n        /* \"#utility.yul\":5145:5157   */\n      revert\n        /* \"#utility.yul\":5096:5159   */\n    tag_126:\n        /* \"#utility.yul\":5043:5165   */\n      pop\n      jump\t// out\n        /* \"#utility.yul\":5171:5287   */\n    tag_52:\n        /* \"#utility.yul\":5241:5262   */\n      tag_128\n        /* \"#utility.yul\":5256:5261   */\n      dup2\n        /* \"#utility.yul\":5241:5262   */\n      tag_85\n      jump\t// in\n    tag_128:\n        /* \"#utility.yul\":5234:5239   */\n      dup2\n        /* \"#utility.yul\":5231:5263   */\n      eq\n        /* \"#utility.yul\":5221:5281   */\n      tag_129\n      jumpi\n        /* \"#utility.yul\":5277:5278   */\n      0x00\n        /* \"#utility.yul\":5274:5275   */\n      dup1\n        /* \"#utility.yul\":5267:5279   */\n      revert\n        /* \"#utility.yul\":5221:5281   */\n    tag_129:\n        /* \"#utility.yul\":5171:5287   */\n      pop\n      jump\t// out\n        /* \"#utility.yul\":5293:5415   */\n    tag_56:\n        /* \"#utility.yul\":5366:5390   */\n      tag_131\n        /* \"#utility.yul\":5384:5389   */\n      dup2\n        /* \"#utility.yul\":5366:5390   */\n      tag_93\n      jump\t// in\n    tag_131:\n        /* \"#utility.yul\":5359:5364   */\n      dup2\n        /* \"#utility.yul\":5356:5391   */\n      eq\n        /* \"#utility.yul\":5346:5409   */\n      tag_132\n      jumpi\n        /* \"#utility.yul\":5405:5406   */\n      0x00\n        /* \"#utility.yul\":5402:5403   */\n      dup1\n        /* \"#utility.yul\":5395:5407   */\n      revert\n        /* \"#utility.yul\":5346:5409   */\n    tag_132:\n        /* \"#utility.yul\":5293:5415   */\n      pop\n      jump\t// out\n\n    auxdata: 0xa26469706673582212200aa121edafbc03fa0b94a680ebdf4eeea406b2281c1734bbfa0f317a0f383db364736f6c63430008070033\n}\n",
				"bytecode": {
					"linkReferences": {},
					"object": "608060405234801561001057600080fd5b50604051610759380380610759833981810160405281019061003291906100ce565b336000806101000a81548173ffffffffffffffffffffffffffffffffffffffff021916908373ffffffffffffffffffffffffffffffffffffffff16021790555080600160006101000a81548173ffffffffffffffffffffffffffffffffffffffff021916908373ffffffffffffffffffffffffffffffffffffffff1602179055505061015b565b6000815190506100c881610144565b92915050565b6000602082840312156100e4576100e361013f565b5b60006100f2848285016100b9565b91505092915050565b60006101068261011f565b9050919050565b6000610118826100fb565b9050919050565b600073ffffffffffffffffffffffffffffffffffffffff82169050919050565b600080fd5b61014d8161010d565b811461015857600080fd5b50565b6105ef8061016a6000396000f3fe608060405234801561001057600080fd5b506004361061004c5760003560e01c80634273601c1461005157806363d9b4b11461006f5780639d76ea581461009f578063f8b2cb4f146100bd575b600080fd5b6100596100ed565b604051610066919061045c565b60405180910390f35b61008960048036038101906100849190610386565b610111565b60405161009691906104a0565b60405180910390f35b6100a7610226565b6040516100b491906104bb565b60405180910390f35b6100d760048036038101906100d29190610359565b61024c565b6040516100e491906104d6565b60405180910390f35b60008054906101000a900473ffffffffffffffffffffffffffffffffffffffff1681565b60008060009054906101000a900473ffffffffffffffffffffffffffffffffffffffff1673ffffffffffffffffffffffffffffffffffffffff163373ffffffffffffffffffffffffffffffffffffffff161461016c57600080fd5b600160009054906101000a900473ffffffffffffffffffffffffffffffffffffffff1673ffffffffffffffffffffffffffffffffffffffff1663a9059cbb84846040518363ffffffff1660e01b81526004016101c9929190610477565b602060405180830381600087803b1580156101e357600080fd5b505af11580156101f7573d6000803e3d6000fd5b505050506040513d601f19601f8201168201806040525081019061021b91906103c6565b506001905092915050565b600160009054906101000a900473ffffffffffffffffffffffffffffffffffffffff1681565b600080600160009054906101000a900473ffffffffffffffffffffffffffffffffffffffff1690508073ffffffffffffffffffffffffffffffffffffffff166370a08231846040518263ffffffff1660e01b81526004016102ad919061045c565b60206040518083038186803b1580156102c557600080fd5b505afa1580156102d9573d6000803e3d6000fd5b505050506040513d601f19601f820116820180604052508101906102fd91906103f3565b915050919050565b60008135905061031481610574565b92915050565b6000815190506103298161058b565b92915050565b60008135905061033e816105a2565b92915050565b600081519050610353816105a2565b92915050565b60006020828403121561036f5761036e61056f565b5b600061037d84828501610305565b91505092915050565b6000806040838503121561039d5761039c61056f565b5b60006103ab85828601610305565b92505060206103bc8582860161032f565b9150509250929050565b6000602082840312156103dc576103db61056f565b5b60006103ea8482850161031a565b91505092915050565b6000602082840312156104095761040861056f565b5b600061041784828501610344565b91505092915050565b610429816104f1565b82525050565b61043881610503565b82525050565b61044781610539565b82525050565b6104568161052f565b82525050565b60006020820190506104716000830184610420565b92915050565b600060408201905061048c6000830185610420565b610499602083018461044d565b9392505050565b60006020820190506104b5600083018461042f565b92915050565b60006020820190506104d0600083018461043e565b92915050565b60006020820190506104eb600083018461044d565b92915050565b60006104fc8261050f565b9050919050565b60008115159050919050565b600073ffffffffffffffffffffffffffffffffffffffff82169050919050565b6000819050919050565b60006105448261054b565b9050919050565b60006105568261055d565b9050919050565b60006105688261050f565b9050919050565b600080fd5b61057d816104f1565b811461058857600080fd5b50565b61059481610503565b811461059f57600080fd5b50565b6105ab8161052f565b81146105b657600080fd5b5056fea26469706673582212200aa121edafbc03fa0b94a680ebdf4eeea406b2281c1734bbfa0f317a0f383db364736f6c63430008070033",
					"opcodes": "PUSH1 0x80 PUSH1 0x40 MSTORE CALLVALUE DUP1 ISZERO PUSH2 0x10 JUMPI PUSH1 0x0 DUP1 REVERT JUMPDEST POP PUSH1 0x40 MLOAD PUSH2 0x759 CODESIZE SUB DUP1 PUSH2 0x759 DUP4 CODECOPY DUP2 DUP2 ADD PUSH1 0x40 MSTORE DUP2 ADD SWAP1 PUSH2 0x32 SWAP2 SWAP1 PUSH2 0xCE JUMP JUMPDEST CALLER PUSH1 0x0 DUP1 PUSH2 0x100 EXP DUP2 SLOAD DUP2 PUSH20 0xFFFFFFFFFFFFFFFFFFFFFFFFFFFFFFFFFFFFFFFF MUL NOT AND SWAP1 DUP4 PUSH20 0xFFFFFFFFFFFFFFFFFFFFFFFFFFFFFFFFFFFFFFFF AND MUL OR SWAP1 SSTORE POP DUP1 PUSH1 0x1 PUSH1 0x0 PUSH2 0x100 EXP DUP2 SLOAD DUP2 PUSH20 0xFFFFFFFFFFFFFFFFFFFFFFFFFFFFFFFFFFFFFFFF MUL NOT AND SWAP1 DUP4 PUSH20 0xFFFFFFFFFFFFFFFFFFFFFFFFFFFFFFFFFFFFFFFF AND MUL OR SWAP1 SSTORE POP POP PUSH2 0x15B JUMP JUMPDEST PUSH1 0x0 DUP2 MLOAD SWAP1 POP PUSH2 0xC8 DUP2 PUSH2 0x144 JUMP JUMPDEST SWAP3 SWAP2 POP POP JUMP JUMPDEST PUSH1 0x0 PUSH1 0x20 DUP3 DUP5 SUB SLT ISZERO PUSH2 0xE4 JUMPI PUSH2 0xE3 PUSH2 0x13F JUMP JUMPDEST JUMPDEST PUSH1 0x0 PUSH2 0xF2 DUP5 DUP3 DUP6 ADD PUSH2 0xB9 JUMP JUMPDEST SWAP2 POP POP SWAP3 SWAP2 POP POP JUMP JUMPDEST PUSH1 0x0 PUSH2 0x106 DUP3 PUSH2 0x11F JUMP JUMPDEST SWAP1 POP SWAP2 SWAP1 POP JUMP JUMPDEST PUSH1 0x0 PUSH2 0x118 DUP3 PUSH2 0xFB JUMP JUMPDEST SWAP1 POP SWAP2 SWAP1 POP JUMP JUMPDEST PUSH1 0x0 PUSH20 0xFFFFFFFFFFFFFFFFFFFFFFFFFFFFFFFFFFFFFFFF DUP3 AND SWAP1 POP SWAP2 SWAP1 POP JUMP JUMPDEST PUSH1 0x0 DUP1 REVERT JUMPDEST PUSH2 0x14D DUP2 PUSH2 0x10D JUMP JUMPDEST DUP2 EQ PUSH2 0x158 JUMPI PUSH1 0x0 DUP1 REVERT JUMPDEST POP JUMP JUMPDEST PUSH2 0x5EF DUP1 PUSH2 0x16A PUSH1 0x0 CODECOPY PUSH1 0x0 RETURN INVALID PUSH1 0x80 PUSH1 0x40 MSTORE CALLVALUE DUP1 ISZERO PUSH2 0x10 JUMPI PUSH1 0x0 DUP1 REVERT JUMPDEST POP PUSH1 0x4 CALLDATASIZE LT PUSH2 0x4C JUMPI PUSH1 0x0 CALLDATALOAD PUSH1 0xE0 SHR DUP1 PUSH4 0x4273601C EQ PUSH2 0x51 JUMPI DUP1 PUSH4 0x63D9B4B1 EQ PUSH2 0x6F JUMPI DUP1 PUSH4 0x9D76EA58 EQ PUSH2 0x9F JUMPI DUP1 PUSH4 0xF8B2CB4F EQ PUSH2 0xBD JUMPI JUMPDEST PUSH1 0x0 DUP1 REVERT JUMPDEST PUSH2 0x59 PUSH2 0xED JUMP JUMPDEST PUSH1 0x40 MLOAD PUSH2 0x66 SWAP2 SWAP1 PUSH2 0x45C JUMP JUMPDEST PUSH1 0x40 MLOAD DUP1 SWAP2 SUB SWAP1 RETURN JUMPDEST PUSH2 0x89 PUSH1 0x4 DUP1 CALLDATASIZE SUB DUP2 ADD SWAP1 PUSH2 0x84 SWAP2 SWAP1 PUSH2 0x386 JUMP JUMPDEST PUSH2 0x111 JUMP JUMPDEST PUSH1 0x40 MLOAD PUSH2 0x96 SWAP2 SWAP1 PUSH2 0x4A0 JUMP JUMPDEST PUSH1 0x40 MLOAD DUP1 SWAP2 SUB SWAP1 RETURN JUMPDEST PUSH2 0xA7 PUSH2 0x226 JUMP JUMPDEST PUSH1 0x40 MLOAD PUSH2 0xB4 SWAP2 SWAP1 PUSH2 0x4BB JUMP JUMPDEST PUSH1 0x40 MLOAD DUP1 SWAP2 SUB SWAP1 RETURN JUMPDEST PUSH2 0xD7 PUSH1 0x4 DUP1 CALLDATASIZE SUB DUP2 ADD SWAP1 PUSH2 0xD2 SWAP2 SWAP1 PUSH2 0x359 JUMP JUMPDEST PUSH2 0x24C JUMP JUMPDEST PUSH1 0x40 MLOAD PUSH2 0xE4 SWAP2 SWAP1 PUSH2 0x4D6 JUMP JUMPDEST PUSH1 0x40 MLOAD DUP1 SWAP2 SUB SWAP1 RETURN JUMPDEST PUSH1 0x0 DUP1 SLOAD SWAP1 PUSH2 0x100 EXP SWAP1 DIV PUSH20 0xFFFFFFFFFFFFFFFFFFFFFFFFFFFFFFFFFFFFFFFF AND DUP2 JUMP JUMPDEST PUSH1 0x0 DUP1 PUSH1 0x0 SWAP1 SLOAD SWAP1 PUSH2 0x100 EXP SWAP1 DIV PUSH20 0xFFFFFFFFFFFFFFFFFFFFFFFFFFFFFFFFFFFFFFFF AND PUSH20 0xFFFFFFFFFFFFFFFFFFFFFFFFFFFFFFFFFFFFFFFF AND CALLER PUSH20 0xFFFFFFFFFFFFFFFFFFFFFFFFFFFFFFFFFFFFFFFF AND EQ PUSH2 0x16C JUMPI PUSH1 0x0 DUP1 REVERT JUMPDEST PUSH1 0x1 PUSH1 0x0 SWAP1 SLOAD SWAP1 PUSH2 0x100 EXP SWAP1 DIV PUSH20 0xFFFFFFFFFFFFFFFFFFFFFFFFFFFFFFFFFFFFFFFF AND PUSH20 0xFFFFFFFFFFFFFFFFFFFFFFFFFFFFFFFFFFFFFFFF AND PUSH4 0xA9059CBB DUP5 DUP5 PUSH1 0x40 MLOAD DUP4 PUSH4 0xFFFFFFFF AND PUSH1 0xE0 SHL DUP2 MSTORE PUSH1 0x4 ADD PUSH2 0x1C9 SWAP3 SWAP2 SWAP1 PUSH2 0x477 JUMP JUMPDEST PUSH1 0x20 PUSH1 0x40 MLOAD DUP1 DUP4 SUB DUP2 PUSH1 0x0 DUP8 DUP1 EXTCODESIZE ISZERO DUP1 ISZERO PUSH2 0x1E3 JUMPI PUSH1 0x0 DUP1 REVERT JUMPDEST POP GAS CALL ISZERO DUP1 ISZERO PUSH2 0x1F7 JUMPI RETURNDATASIZE PUSH1 0x0 DUP1 RETURNDATACOPY RETURNDATASIZE PUSH1 0x0 REVERT JUMPDEST POP POP POP POP PUSH1 0x40 MLOAD RETURNDATASIZE PUSH1 0x1F NOT PUSH1 0x1F DUP3 ADD AND DUP3 ADD DUP1 PUSH1 0x40 MSTORE POP DUP2 ADD SWAP1 PUSH2 0x21B SWAP2 SWAP1 PUSH2 0x3C6 JUMP JUMPDEST POP PUSH1 0x1 SWAP1 POP SWAP3 SWAP2 POP POP JUMP JUMPDEST PUSH1 0x1 PUSH1 0x0 SWAP1 SLOAD SWAP1 PUSH2 0x100 EXP SWAP1 DIV PUSH20 0xFFFFFFFFFFFFFFFFFFFFFFFFFFFFFFFFFFFFFFFF AND DUP2 JUMP JUMPDEST PUSH1 0x0 DUP1 PUSH1 0x1 PUSH1 0x0 SWAP1 SLOAD SWAP1 PUSH2 0x100 EXP SWAP1 DIV PUSH20 0xFFFFFFFFFFFFFFFFFFFFFFFFFFFFFFFFFFFFFFFF AND SWAP1 POP DUP1 PUSH20 0xFFFFFFFFFFFFFFFFFFFFFFFFFFFFFFFFFFFFFFFF AND PUSH4 0x70A08231 DUP5 PUSH1 0x40 MLOAD DUP3 PUSH4 0xFFFFFFFF AND PUSH1 0xE0 SHL DUP2 MSTORE PUSH1 0x4 ADD PUSH2 0x2AD SWAP2 SWAP1 PUSH2 0x45C JUMP JUMPDEST PUSH1 0x20 PUSH1 0x40 MLOAD DUP1 DUP4 SUB DUP2 DUP7 DUP1 EXTCODESIZE ISZERO DUP1 ISZERO PUSH2 0x2C5 JUMPI PUSH1 0x0 DUP1 REVERT JUMPDEST POP GAS STATICCALL ISZERO DUP1 ISZERO PUSH2 0x2D9 JUMPI RETURNDATASIZE PUSH1 0x0 DUP1 RETURNDATACOPY RETURNDATASIZE PUSH1 0x0 REVERT JUMPDEST POP POP POP POP PUSH1 0x40 MLOAD RETURNDATASIZE PUSH1 0x1F NOT PUSH1 0x1F DUP3 ADD AND DUP3 ADD DUP1 PUSH1 0x40 MSTORE POP DUP2 ADD SWAP1 PUSH2 0x2FD SWAP2 SWAP1 PUSH2 0x3F3 JUMP JUMPDEST SWAP2 POP POP SWAP2 SWAP1 POP JUMP JUMPDEST PUSH1 0x0 DUP2 CALLDATALOAD SWAP1 POP PUSH2 0x314 DUP2 PUSH2 0x574 JUMP JUMPDEST SWAP3 SWAP2 POP POP JUMP JUMPDEST PUSH1 0x0 DUP2 MLOAD SWAP1 POP PUSH2 0x329 DUP2 PUSH2 0x58B JUMP JUMPDEST SWAP3 SWAP2 POP POP JUMP JUMPDEST PUSH1 0x0 DUP2 CALLDATALOAD SWAP1 POP PUSH2 0x33E DUP2 PUSH2 0x5A2 JUMP JUMPDEST SWAP3 SWAP2 POP POP JUMP JUMPDEST PUSH1 0x0 DUP2 MLOAD SWAP1 POP PUSH2 0x353 DUP2 PUSH2 0x5A2 JUMP JUMPDEST SWAP3 SWAP2 POP POP JUMP JUMPDEST PUSH1 0x0 PUSH1 0x20 DUP3 DUP5 SUB SLT ISZERO PUSH2 0x36F JUMPI PUSH2 0x36E PUSH2 0x56F JUMP JUMPDEST JUMPDEST PUSH1 0x0 PUSH2 0x37D DUP5 DUP3 DUP6 ADD PUSH2 0x305 JUMP JUMPDEST SWAP2 POP POP SWAP3 SWAP2 POP POP JUMP JUMPDEST PUSH1 0x0 DUP1 PUSH1 0x40 DUP4 DUP6 SUB SLT ISZERO PUSH2 0x39D JUMPI PUSH2 0x39C PUSH2 0x56F JUMP JUMPDEST JUMPDEST PUSH1 0x0 PUSH2 0x3AB DUP6 DUP3 DUP7 ADD PUSH2 0x305 JUMP JUMPDEST SWAP3 POP POP PUSH1 0x20 PUSH2 0x3BC DUP6 DUP3 DUP7 ADD PUSH2 0x32F JUMP JUMPDEST SWAP2 POP POP SWAP3 POP SWAP3 SWAP1 POP JUMP JUMPDEST PUSH1 0x0 PUSH1 0x20 DUP3 DUP5 SUB SLT ISZERO PUSH2 0x3DC JUMPI PUSH2 0x3DB PUSH2 0x56F JUMP JUMPDEST JUMPDEST PUSH1 0x0 PUSH2 0x3EA DUP5 DUP3 DUP6 ADD PUSH2 0x31A JUMP JUMPDEST SWAP2 POP POP SWAP3 SWAP2 POP POP JUMP JUMPDEST PUSH1 0x0 PUSH1 0x20 DUP3 DUP5 SUB SLT ISZERO PUSH2 0x409 JUMPI PUSH2 0x408 PUSH2 0x56F JUMP JUMPDEST JUMPDEST PUSH1 0x0 PUSH2 0x417 DUP5 DUP3 DUP6 ADD PUSH2 0x344 JUMP JUMPDEST SWAP2 POP POP SWAP3 SWAP2 POP POP JUMP JUMPDEST PUSH2 0x429 DUP2 PUSH2 0x4F1 JUMP JUMPDEST DUP3 MSTORE POP POP JUMP JUMPDEST PUSH2 0x438 DUP2 PUSH2 0x503 JUMP JUMPDEST DUP3 MSTORE POP POP JUMP JUMPDEST PUSH2 0x447 DUP2 PUSH2 0x539 JUMP JUMPDEST DUP3 MSTORE POP POP JUMP JUMPDEST PUSH2 0x456 DUP2 PUSH2 0x52F JUMP JUMPDEST DUP3 MSTORE POP POP JUMP JUMPDEST PUSH1 0x0 PUSH1 0x20 DUP3 ADD SWAP1 POP PUSH2 0x471 PUSH1 0x0 DUP4 ADD DUP5 PUSH2 0x420 JUMP JUMPDEST SWAP3 SWAP2 POP POP JUMP JUMPDEST PUSH1 0x0 PUSH1 0x40 DUP3 ADD SWAP1 POP PUSH2 0x48C PUSH1 0x0 DUP4 ADD DUP6 PUSH2 0x420 JUMP JUMPDEST PUSH2 0x499 PUSH1 0x20 DUP4 ADD DUP5 PUSH2 0x44D JUMP JUMPDEST SWAP4 SWAP3 POP POP POP JUMP JUMPDEST PUSH1 0x0 PUSH1 0x20 DUP3 ADD SWAP1 POP PUSH2 0x4B5 PUSH1 0x0 DUP4 ADD DUP5 PUSH2 0x42F JUMP JUMPDEST SWAP3 SWAP2 POP POP JUMP JUMPDEST PUSH1 0x0 PUSH1 0x20 DUP3 ADD SWAP1 POP PUSH2 0x4D0 PUSH1 0x0 DUP4 ADD DUP5 PUSH2 0x43E JUMP JUMPDEST SWAP3 SWAP2 POP POP JUMP JUMPDEST PUSH1 0x0 PUSH1 0x20 DUP3 ADD SWAP1 POP PUSH2 0x4EB PUSH1 0x0 DUP4 ADD DUP5 PUSH2 0x44D JUMP JUMPDEST SWAP3 SWAP2 POP POP JUMP JUMPDEST PUSH1 0x0 PUSH2 0x4FC DUP3 PUSH2 0x50F JUMP JUMPDEST SWAP1 POP SWAP2 SWAP1 POP JUMP JUMPDEST PUSH1 0x0 DUP2 ISZERO ISZERO SWAP1 POP SWAP2 SWAP1 POP JUMP JUMPDEST PUSH1 0x0 PUSH20 0xFFFFFFFFFFFFFFFFFFFFFFFFFFFFFFFFFFFFFFFF DUP3 AND SWAP1 POP SWAP2 SWAP1 POP JUMP JUMPDEST PUSH1 0x0 DUP2 SWAP1 POP SWAP2 SWAP1 POP JUMP JUMPDEST PUSH1 0x0 PUSH2 0x544 DUP3 PUSH2 0x54B JUMP JUMPDEST SWAP1 POP SWAP2 SWAP1 POP JUMP JUMPDEST PUSH1 0x0 PUSH2 0x556 DUP3 PUSH2 0x55D JUMP JUMPDEST SWAP1 POP SWAP2 SWAP1 POP JUMP JUMPDEST PUSH1 0x0 PUSH2 0x568 DUP3 PUSH2 0x50F JUMP JUMPDEST SWAP1 POP SWAP2 SWAP1 POP JUMP JUMPDEST PUSH1 0x0 DUP1 REVERT JUMPDEST PUSH2 0x57D DUP2 PUSH2 0x4F1 JUMP JUMPDEST DUP2 EQ PUSH2 0x588 JUMPI PUSH1 0x0 DUP1 REVERT JUMPDEST POP JUMP JUMPDEST PUSH2 0x594 DUP2 PUSH2 0x503 JUMP JUMPDEST DUP2 EQ PUSH2 0x59F JUMPI PUSH1 0x0 DUP1 REVERT JUMPDEST POP JUMP JUMPDEST PUSH2 0x5AB DUP2 PUSH2 0x52F JUMP JUMPDEST DUP2 EQ PUSH2 0x5B6 JUMPI PUSH1 0x0 DUP1 REVERT JUMPDEST POP JUMP INVALID LOG2 PUSH5 0x6970667358 0x22 SLT KECCAK256 EXP LOG1 0x21 0xED 0xAF 0xBC SUB STATICCALL SIGNEXTEND SWAP5 0xA6 DUP1 0xEB 0xDF 0x4E 0xEE LOG4 MOD 0xB2 0x28 SHR OR CALLVALUE 0xBB STATICCALL 0xF BALANCE PUSH27 0xF383DB364736F6C63430008070033000000000000000000000000 "
				},
				"gasEstimates": {
					"creation": {
						"codeDepositCost": "303800",
						"executionCost": "infinite",
						"totalCost": "infinite"
					},
					"external": {
						"factoryOwner()": "2489",
						"getBalance(address)": "infinite",
						"sendGift(address,uint256)": "infinite",
						"tokenAddress()": "2622"
					}
				},
				"methodIdentifiers": {
					"factoryOwner()": "4273601c",
					"getBalance(address)": "f8b2cb4f",
					"sendGift(address,uint256)": "63d9b4b1",
					"tokenAddress()": "9d76ea58"
				}
			},
			"storageLayout": {
				"storage": [
					{
						"astId": 1757,
						"contract": "EparsFactory.sol:EparsFactory",
						"label": "factoryOwner",
						"offset": 0,
						"slot": "0",
						"type": "t_address"
					},
					{
						"astId": 1760,
						"contract": "EparsFactory.sol:EparsFactory",
						"label": "tokenAddress",
						"offset": 0,
						"slot": "1",
						"type": "t_contract(IERC20)776"
					}
				],
				"types": {
					"t_address": {
						"encoding": "inplace",
						"label": "address",
						"numberOfBytes": "20"
					},
					"t_contract(IERC20)776": {
						"encoding": "inplace",
						"label": "contract IERC20",
						"numberOfBytes": "20"
					}
				}
			},
			"userdoc": {
				"kind": "user",
				"methods": {},
				"version": 1
			}
		}
	}
}