{
	"EparsFactory.sol": {
		"EparsFactory": {
			"abi": [
				{
					"inputs": [
						{
							"internalType": "contract IERC20",
							"name": "_tokenAddress",
							"type": "address"
						}
					],
					"stateMutability": "nonpayable",
					"type": "constructor"
				},
				{
					"inputs": [
						{
							"internalType": "uint256",
							"name": "",
							"type": "uint256"
						}
					],
					"name": "allNFTs",
					"outputs": [
						{
							"internalType": "uint256",
							"name": "_id",
							"type": "uint256"
						},
						{
							"internalType": "string",
							"name": "pic",
							"type": "string"
						}
					],
					"stateMutability": "view",
					"type": "function"
				},
				{
					"inputs": [],
					"name": "factoryOwner",
					"outputs": [
						{
							"internalType": "address",
							"name": "",
							"type": "address"
						}
					],
					"stateMutability": "view",
					"type": "function"
				},
				{
					"inputs": [
						{
							"internalType": "address",
							"name": "_owner",
							"type": "address"
						}
					],
					"name": "getBalance",
					"outputs": [
						{
							"internalType": "uint256",
							"name": "balance",
							"type": "uint256"
						}
					],
					"stateMutability": "view",
					"type": "function"
				},
				{
					"inputs": [
						{
							"internalType": "string",
							"name": "_pic",
							"type": "string"
						}
					],
					"name": "mintNFT",
					"outputs": [],
					"stateMutability": "nonpayable",
					"type": "function"
				},
				{
					"inputs": [],
					"name": "nftCount",
					"outputs": [
						{
							"internalType": "uint256",
							"name": "",
							"type": "uint256"
						}
					],
					"stateMutability": "view",
					"type": "function"
				},
				{
					"inputs": [
						{
							"internalType": "address",
							"name": "_to",
							"type": "address"
						},
						{
							"internalType": "uint256",
							"name": "_amount",
							"type": "uint256"
						}
					],
					"name": "sendGift",
					"outputs": [
						{
							"internalType": "bool",
							"name": "success",
							"type": "bool"
						}
					],
					"stateMutability": "nonpayable",
					"type": "function"
				},
				{
					"inputs": [],
					"name": "tokenAddress",
					"outputs": [
						{
							"internalType": "contract IERC20",
							"name": "",
							"type": "address"
						}
					],
					"stateMutability": "view",
					"type": "function"
				}
			],
			"devdoc": {
				"kind": "dev",
				"methods": {},
				"version": 1
			},
			"evm": {
				"assembly": "    /* \"EparsFactory.sol\":133:1201  contract EparsFactory {... */\n  mstore(0x40, 0x80)\n    /* \"EparsFactory.sol\":255:256  0 */\n  0x00\n    /* \"EparsFactory.sol\":229:256  uint256 public nftCount = 0 */\n  0x02\n  sstore\n    /* \"EparsFactory.sol\":312:429  constructor(IERC20 _tokenAddress) {... */\n  callvalue\n  dup1\n  iszero\n  tag_1\n  jumpi\n  0x00\n  dup1\n  revert\ntag_1:\n  pop\n  mload(0x40)\n  sub(codesize, bytecodeSize)\n  dup1\n  bytecodeSize\n  dup4\n  codecopy\n  dup2\n  dup2\n  add\n  0x40\n  mstore\n  dup2\n  add\n  swap1\n  tag_2\n  swap2\n  swap1\n  tag_3\n  jump\t// in\ntag_2:\n    /* \"EparsFactory.sol\":372:382  msg.sender */\n  caller\n    /* \"EparsFactory.sol\":357:369  factoryOwner */\n  0x01\n  0x00\n    /* \"EparsFactory.sol\":357:382  factoryOwner = msg.sender */\n  0x0100\n  exp\n  dup2\n  sload\n  dup2\n  0xffffffffffffffffffffffffffffffffffffffff\n  mul\n  not\n  and\n  swap1\n  dup4\n  0xffffffffffffffffffffffffffffffffffffffff\n  and\n  mul\n  or\n  swap1\n  sstore\n  pop\n    /* \"EparsFactory.sol\":408:421  _tokenAddress */\n  dup1\n    /* \"EparsFactory.sol\":393:405  tokenAddress */\n  0x00\n  dup1\n    /* \"EparsFactory.sol\":393:421  tokenAddress = _tokenAddress */\n  0x0100\n  exp\n  dup2\n  sload\n  dup2\n  0xffffffffffffffffffffffffffffffffffffffff\n  mul\n  not\n  and\n  swap1\n  dup4\n  0xffffffffffffffffffffffffffffffffffffffff\n  and\n  mul\n  or\n  swap1\n  sstore\n  pop\n    /* \"EparsFactory.sol\":312:429  constructor(IERC20 _tokenAddress) {... */\n  pop\n    /* \"EparsFactory.sol\":133:1201  contract EparsFactory {... */\n  jump(tag_6)\n    /* \"#utility.yul\":88:205   */\ntag_8:\n    /* \"#utility.yul\":197:198   */\n  0x00\n    /* \"#utility.yul\":194:195   */\n  dup1\n    /* \"#utility.yul\":187:199   */\n  revert\n    /* \"#utility.yul\":334:460   */\ntag_10:\n    /* \"#utility.yul\":371:378   */\n  0x00\n    /* \"#utility.yul\":411:453   */\n  0xffffffffffffffffffffffffffffffffffffffff\n    /* \"#utility.yul\":404:409   */\n  dup3\n    /* \"#utility.yul\":400:454   */\n  and\n    /* \"#utility.yul\":389:454   */\n  swap1\n  pop\n    /* \"#utility.yul\":334:460   */\n  swap2\n  swap1\n  pop\n  jump\t// out\n    /* \"#utility.yul\":466:562   */\ntag_11:\n    /* \"#utility.yul\":503:510   */\n  0x00\n    /* \"#utility.yul\":532:556   */\n  tag_21\n    /* \"#utility.yul\":550:555   */\n  dup3\n    /* \"#utility.yul\":532:556   */\n  tag_10\n  jump\t// in\ntag_21:\n    /* \"#utility.yul\":521:556   */\n  swap1\n  pop\n    /* \"#utility.yul\":466:562   */\n  swap2\n  swap1\n  pop\n  jump\t// out\n    /* \"#utility.yul\":568:678   */\ntag_12:\n    /* \"#utility.yul\":619:626   */\n  0x00\n    /* \"#utility.yul\":648:672   */\n  tag_23\n    /* \"#utility.yul\":666:671   */\n  dup3\n    /* \"#utility.yul\":648:672   */\n  tag_11\n  jump\t// in\ntag_23:\n    /* \"#utility.yul\":637:672   */\n  swap1\n  pop\n    /* \"#utility.yul\":568:678   */\n  swap2\n  swap1\n  pop\n  jump\t// out\n    /* \"#utility.yul\":684:834   */\ntag_13:\n    /* \"#utility.yul\":771:809   */\n  tag_25\n    /* \"#utility.yul\":803:808   */\n  dup2\n    /* \"#utility.yul\":771:809   */\n  tag_12\n  jump\t// in\ntag_25:\n    /* \"#utility.yul\":764:769   */\n  dup2\n    /* \"#utility.yul\":761:810   */\n  eq\n    /* \"#utility.yul\":751:828   */\n  tag_26\n  jumpi\n    /* \"#utility.yul\":824:825   */\n  0x00\n    /* \"#utility.yul\":821:822   */\n  dup1\n    /* \"#utility.yul\":814:826   */\n  revert\n    /* \"#utility.yul\":751:828   */\ntag_26:\n    /* \"#utility.yul\":684:834   */\n  pop\n  jump\t// out\n    /* \"#utility.yul\":840:1011   */\ntag_14:\n    /* \"#utility.yul\":911:916   */\n  0x00\n    /* \"#utility.yul\":942:948   */\n  dup2\n    /* \"#utility.yul\":936:949   */\n  mload\n    /* \"#utility.yul\":927:949   */\n  swap1\n  pop\n    /* \"#utility.yul\":958:1005   */\n  tag_28\n    /* \"#utility.yul\":999:1004   */\n  dup2\n    /* \"#utility.yul\":958:1005   */\n  tag_13\n  jump\t// in\ntag_28:\n    /* \"#utility.yul\":840:1011   */\n  swap3\n  swap2\n  pop\n  pop\n  jump\t// out\n    /* \"#utility.yul\":1017:1396   */\ntag_3:\n    /* \"#utility.yul\":1101:1107   */\n  0x00\n    /* \"#utility.yul\":1150:1152   */\n  0x20\n    /* \"#utility.yul\":1138:1147   */\n  dup3\n    /* \"#utility.yul\":1129:1136   */\n  dup5\n    /* \"#utility.yul\":1125:1148   */\n  sub\n    /* \"#utility.yul\":1121:1153   */\n  slt\n    /* \"#utility.yul\":1118:1237   */\n  iszero\n  tag_30\n  jumpi\n    /* \"#utility.yul\":1156:1235   */\n  tag_31\n  tag_8\n  jump\t// in\ntag_31:\n    /* \"#utility.yul\":1118:1237   */\ntag_30:\n    /* \"#utility.yul\":1276:1277   */\n  0x00\n    /* \"#utility.yul\":1301:1379   */\n  tag_32\n    /* \"#utility.yul\":1371:1378   */\n  dup5\n    /* \"#utility.yul\":1362:1368   */\n  dup3\n    /* \"#utility.yul\":1351:1360   */\n  dup6\n    /* \"#utility.yul\":1347:1369   */\n  add\n    /* \"#utility.yul\":1301:1379   */\n  tag_14\n  jump\t// in\ntag_32:\n    /* \"#utility.yul\":1291:1379   */\n  swap2\n  pop\n    /* \"#utility.yul\":1247:1389   */\n  pop\n    /* \"#utility.yul\":1017:1396   */\n  swap3\n  swap2\n  pop\n  pop\n  jump\t// out\n    /* \"EparsFactory.sol\":133:1201  contract EparsFactory {... */\ntag_6:\n  dataSize(sub_0)\n  dup1\n  dataOffset(sub_0)\n  0x00\n  codecopy\n  0x00\n  return\nstop\n\nsub_0: assembly {\n        /* \"EparsFactory.sol\":133:1201  contract EparsFactory {... */\n      mstore(0x40, 0x80)\n      callvalue\n      dup1\n      iszero\n      tag_1\n      jumpi\n      0x00\n      dup1\n      revert\n    tag_1:\n      pop\n      jumpi(tag_2, lt(calldatasize, 0x04))\n      shr(0xe0, calldataload(0x00))\n      dup1\n      0x9d76ea58\n      gt\n      tag_10\n      jumpi\n      dup1\n      0x9d76ea58\n      eq\n      tag_6\n      jumpi\n      dup1\n      0xbf162d67\n      eq\n      tag_7\n      jumpi\n      dup1\n      0xf8b2cb4f\n      eq\n      tag_8\n      jumpi\n      dup1\n      0xfb37e883\n      eq\n      tag_9\n      jumpi\n      jump(tag_2)\n    tag_10:\n      dup1\n      0x0af2c6ca\n      eq\n      tag_3\n      jumpi\n      dup1\n      0x4273601c\n      eq\n      tag_4\n      jumpi\n      dup1\n      0x63d9b4b1\n      eq\n      tag_5\n      jumpi\n    tag_2:\n      0x00\n      dup1\n      revert\n        /* \"EparsFactory.sol\":229:256  uint256 public nftCount = 0 */\n    tag_3:\n      tag_11\n      tag_12\n      jump\t// in\n    tag_11:\n      mload(0x40)\n      tag_13\n      swap2\n      swap1\n      tag_14\n      jump\t// in\n    tag_13:\n      mload(0x40)\n      dup1\n      swap2\n      sub\n      swap1\n      return\n        /* \"EparsFactory.sol\":195:222  address public factoryOwner */\n    tag_4:\n      tag_15\n      tag_16\n      jump\t// in\n    tag_15:\n      mload(0x40)\n      tag_17\n      swap2\n      swap1\n      tag_18\n      jump\t// in\n    tag_17:\n      mload(0x40)\n      dup1\n      swap2\n      sub\n      swap1\n      return\n        /* \"EparsFactory.sol\":821:1026  function sendGift(address _to, uint256 _amount)... */\n    tag_5:\n      tag_19\n      0x04\n      dup1\n      calldatasize\n      sub\n      dup2\n      add\n      swap1\n      tag_20\n      swap2\n      swap1\n      tag_21\n      jump\t// in\n    tag_20:\n      tag_22\n      jump\t// in\n    tag_19:\n      mload(0x40)\n      tag_23\n      swap2\n      swap1\n      tag_24\n      jump\t// in\n    tag_23:\n      mload(0x40)\n      dup1\n      swap2\n      sub\n      swap1\n      return\n        /* \"EparsFactory.sol\":162:188  IERC20 public tokenAddress */\n    tag_6:\n      tag_25\n      tag_26\n      jump\t// in\n    tag_25:\n      mload(0x40)\n      tag_27\n      swap2\n      swap1\n      tag_28\n      jump\t// in\n    tag_27:\n      mload(0x40)\n      dup1\n      swap2\n      sub\n      swap1\n      return\n        /* \"EparsFactory.sol\":265:303  mapping(uint256 => NFT) public allNFTs */\n    tag_7:\n      tag_29\n      0x04\n      dup1\n      calldatasize\n      sub\n      dup2\n      add\n      swap1\n      tag_30\n      swap2\n      swap1\n      tag_31\n      jump\t// in\n    tag_30:\n      tag_32\n      jump\t// in\n    tag_29:\n      mload(0x40)\n      tag_33\n      swap3\n      swap2\n      swap1\n      tag_34\n      jump\t// in\n    tag_33:\n      mload(0x40)\n      dup1\n      swap2\n      sub\n      swap1\n      return\n        /* \"EparsFactory.sol\":1034:1198  function getBalance(address _owner)... */\n    tag_8:\n      tag_35\n      0x04\n      dup1\n      calldatasize\n      sub\n      dup2\n      add\n      swap1\n      tag_36\n      swap2\n      swap1\n      tag_37\n      jump\t// in\n    tag_36:\n      tag_38\n      jump\t// in\n    tag_35:\n      mload(0x40)\n      tag_39\n      swap2\n      swap1\n      tag_14\n      jump\t// in\n    tag_39:\n      mload(0x40)\n      dup1\n      swap2\n      sub\n      swap1\n      return\n        /* \"EparsFactory.sol\":507:636  function mintNFT(string memory _pic) public {... */\n    tag_9:\n      tag_40\n      0x04\n      dup1\n      calldatasize\n      sub\n      dup2\n      add\n      swap1\n      tag_41\n      swap2\n      swap1\n      tag_42\n      jump\t// in\n    tag_41:\n      tag_43\n      jump\t// in\n    tag_40:\n      stop\n        /* \"EparsFactory.sol\":229:256  uint256 public nftCount = 0 */\n    tag_12:\n      sload(0x02)\n      dup2\n      jump\t// out\n        /* \"EparsFactory.sol\":195:222  address public factoryOwner */\n    tag_16:\n      0x01\n      0x00\n      swap1\n      sload\n      swap1\n      0x0100\n      exp\n      swap1\n      div\n      0xffffffffffffffffffffffffffffffffffffffff\n      and\n      dup2\n      jump\t// out\n        /* \"EparsFactory.sol\":821:1026  function sendGift(address _to, uint256 _amount)... */\n    tag_22:\n        /* \"EparsFactory.sol\":931:943  bool success */\n      0x00\n        /* \"EparsFactory.sol\":780:792  factoryOwner */\n      0x01\n      0x00\n      swap1\n      sload\n      swap1\n      0x0100\n      exp\n      swap1\n      div\n      0xffffffffffffffffffffffffffffffffffffffff\n      and\n        /* \"EparsFactory.sol\":766:792  msg.sender == factoryOwner */\n      0xffffffffffffffffffffffffffffffffffffffff\n      and\n        /* \"EparsFactory.sol\":766:776  msg.sender */\n      caller\n        /* \"EparsFactory.sol\":766:792  msg.sender == factoryOwner */\n      0xffffffffffffffffffffffffffffffffffffffff\n      and\n      eq\n        /* \"EparsFactory.sol\":758:793  require(msg.sender == factoryOwner) */\n      tag_45\n      jumpi\n      0x00\n      dup1\n      revert\n    tag_45:\n        /* \"EparsFactory.sol\":961:973  tokenAddress */\n      0x00\n      dup1\n      sload\n      swap1\n      0x0100\n      exp\n      swap1\n      div\n      0xffffffffffffffffffffffffffffffffffffffff\n      and\n        /* \"EparsFactory.sol\":961:982  tokenAddress.transfer */\n      0xffffffffffffffffffffffffffffffffffffffff\n      and\n      0xa9059cbb\n        /* \"EparsFactory.sol\":983:986  _to */\n      dup5\n        /* \"EparsFactory.sol\":988:995  _amount */\n      dup5\n        /* \"EparsFactory.sol\":961:996  tokenAddress.transfer(_to, _amount) */\n      mload(0x40)\n      dup4\n      0xffffffff\n      and\n      0xe0\n      shl\n      dup2\n      mstore\n      0x04\n      add\n      tag_47\n      swap3\n      swap2\n      swap1\n      tag_48\n      jump\t// in\n    tag_47:\n      0x20\n      mload(0x40)\n      dup1\n      dup4\n      sub\n      dup2\n      0x00\n      dup8\n      gas\n      call\n      iszero\n      dup1\n      iszero\n      tag_50\n      jumpi\n      returndatasize\n      0x00\n      dup1\n      returndatacopy\n      revert(0x00, returndatasize)\n    tag_50:\n      pop\n      pop\n      pop\n      pop\n      mload(0x40)\n      returndatasize\n      not(0x1f)\n      0x1f\n      dup3\n      add\n      and\n      dup3\n      add\n      dup1\n      0x40\n      mstore\n      pop\n      dup2\n      add\n      swap1\n      tag_51\n      swap2\n      swap1\n      tag_52\n      jump\t// in\n    tag_51:\n      pop\n        /* \"EparsFactory.sol\":1014:1018  true */\n      0x01\n        /* \"EparsFactory.sol\":1007:1018  return true */\n      swap1\n      pop\n        /* \"EparsFactory.sol\":821:1026  function sendGift(address _to, uint256 _amount)... */\n      swap3\n      swap2\n      pop\n      pop\n      jump\t// out\n        /* \"EparsFactory.sol\":162:188  IERC20 public tokenAddress */\n    tag_26:\n      0x00\n      dup1\n      sload\n      swap1\n      0x0100\n      exp\n      swap1\n      div\n      0xffffffffffffffffffffffffffffffffffffffff\n      and\n      dup2\n      jump\t// out\n        /* \"EparsFactory.sol\":265:303  mapping(uint256 => NFT) public allNFTs */\n    tag_32:\n      mstore(0x20, 0x03)\n      dup1\n      0x00\n      mstore\n      keccak256(0x00, 0x40)\n      0x00\n      swap2\n      pop\n      swap1\n      pop\n      dup1\n      0x00\n      add\n      sload\n      swap1\n      dup1\n      0x01\n      add\n      dup1\n      sload\n      tag_53\n      swap1\n      tag_54\n      jump\t// in\n    tag_53:\n      dup1\n      0x1f\n      add\n      0x20\n      dup1\n      swap2\n      div\n      mul\n      0x20\n      add\n      mload(0x40)\n      swap1\n      dup2\n      add\n      0x40\n      mstore\n      dup1\n      swap3\n      swap2\n      swap1\n      dup2\n      dup2\n      mstore\n      0x20\n      add\n      dup3\n      dup1\n      sload\n      tag_55\n      swap1\n      tag_54\n      jump\t// in\n    tag_55:\n      dup1\n      iszero\n      tag_56\n      jumpi\n      dup1\n      0x1f\n      lt\n      tag_57\n      jumpi\n      0x0100\n      dup1\n      dup4\n      sload\n      div\n      mul\n      dup4\n      mstore\n      swap2\n      0x20\n      add\n      swap2\n      jump(tag_56)\n    tag_57:\n      dup3\n      add\n      swap2\n      swap1\n      0x00\n      mstore\n      keccak256(0x00, 0x20)\n      swap1\n    tag_58:\n      dup2\n      sload\n      dup2\n      mstore\n      swap1\n      0x01\n      add\n      swap1\n      0x20\n      add\n      dup1\n      dup4\n      gt\n      tag_58\n      jumpi\n      dup3\n      swap1\n      sub\n      0x1f\n      and\n      dup3\n      add\n      swap2\n    tag_56:\n      pop\n      pop\n      pop\n      pop\n      pop\n      swap1\n      pop\n      dup3\n      jump\t// out\n        /* \"EparsFactory.sol\":1034:1198  function getBalance(address _owner)... */\n    tag_38:\n        /* \"EparsFactory.sol\":1120:1135  uint256 balance */\n      0x00\n        /* \"EparsFactory.sol\":1160:1172  tokenAddress */\n      dup1\n      0x00\n      swap1\n      sload\n      swap1\n      0x0100\n      exp\n      swap1\n      div\n      0xffffffffffffffffffffffffffffffffffffffff\n      and\n        /* \"EparsFactory.sol\":1160:1182  tokenAddress.balanceOf */\n      0xffffffffffffffffffffffffffffffffffffffff\n      and\n      0x70a08231\n        /* \"EparsFactory.sol\":1183:1189  _owner */\n      dup4\n        /* \"EparsFactory.sol\":1160:1190  tokenAddress.balanceOf(_owner) */\n      mload(0x40)\n      dup3\n      0xffffffff\n      and\n      0xe0\n      shl\n      dup2\n      mstore\n      0x04\n      add\n      tag_60\n      swap2\n      swap1\n      tag_18\n      jump\t// in\n    tag_60:\n      0x20\n      mload(0x40)\n      dup1\n      dup4\n      sub\n      dup2\n      dup7\n      gas\n      staticcall\n      iszero\n      dup1\n      iszero\n      tag_62\n      jumpi\n      returndatasize\n      0x00\n      dup1\n      returndatacopy\n      revert(0x00, returndatasize)\n    tag_62:\n      pop\n      pop\n      pop\n      pop\n      mload(0x40)\n      returndatasize\n      not(0x1f)\n      0x1f\n      dup3\n      add\n      and\n      dup3\n      add\n      dup1\n      0x40\n      mstore\n      pop\n      dup2\n      add\n      swap1\n      tag_63\n      swap2\n      swap1\n      tag_64\n      jump\t// in\n    tag_63:\n        /* \"EparsFactory.sol\":1153:1190  return tokenAddress.balanceOf(_owner) */\n      swap1\n      pop\n        /* \"EparsFactory.sol\":1034:1198  function getBalance(address _owner)... */\n      swap2\n      swap1\n      pop\n      jump\t// out\n        /* \"EparsFactory.sol\":507:636  function mintNFT(string memory _pic) public {... */\n    tag_43:\n        /* \"EparsFactory.sol\":582:601  NFT(nftCount, _pic) */\n      mload(0x40)\n      dup1\n      0x40\n      add\n      0x40\n      mstore\n      dup1\n        /* \"EparsFactory.sol\":586:594  nftCount */\n      sload(0x02)\n        /* \"EparsFactory.sol\":582:601  NFT(nftCount, _pic) */\n      dup2\n      mstore\n      0x20\n      add\n        /* \"EparsFactory.sol\":596:600  _pic */\n      dup3\n        /* \"EparsFactory.sol\":582:601  NFT(nftCount, _pic) */\n      dup2\n      mstore\n      pop\n        /* \"EparsFactory.sol\":562:569  allNFTs */\n      0x03\n        /* \"EparsFactory.sol\":562:579  allNFTs[nftCount] */\n      0x00\n        /* \"EparsFactory.sol\":570:578  nftCount */\n      sload(0x02)\n        /* \"EparsFactory.sol\":562:579  allNFTs[nftCount] */\n      dup2\n      mstore\n      0x20\n      add\n      swap1\n      dup2\n      mstore\n      0x20\n      add\n      0x00\n      keccak256\n        /* \"EparsFactory.sol\":562:601  allNFTs[nftCount] = NFT(nftCount, _pic) */\n      0x00\n      dup3\n      add\n      mload\n      dup2\n      0x00\n      add\n      sstore\n      0x20\n      dup3\n      add\n      mload\n      dup2\n      0x01\n      add\n      swap1\n      dup2\n      tag_66\n      swap2\n      swap1\n      tag_67\n      jump\t// in\n    tag_66:\n      pop\n      swap1\n      pop\n      pop\n        /* \"EparsFactory.sol\":612:628  incrementCount() */\n      tag_68\n        /* \"EparsFactory.sol\":612:626  incrementCount */\n      tag_69\n        /* \"EparsFactory.sol\":612:628  incrementCount() */\n      jump\t// in\n    tag_68:\n        /* \"EparsFactory.sol\":507:636  function mintNFT(string memory _pic) public {... */\n      pop\n      jump\t// out\n        /* \"EparsFactory.sol\":644:711  function incrementCount() internal {... */\n    tag_69:\n        /* \"EparsFactory.sol\":702:703  1 */\n      0x01\n        /* \"EparsFactory.sol\":690:698  nftCount */\n      0x02\n      0x00\n        /* \"EparsFactory.sol\":690:703  nftCount += 1 */\n      dup3\n      dup3\n      sload\n      tag_71\n      swap2\n      swap1\n      tag_72\n      jump\t// in\n    tag_71:\n      swap3\n      pop\n      pop\n      dup2\n      swap1\n      sstore\n      pop\n        /* \"EparsFactory.sol\":644:711  function incrementCount() internal {... */\n      jump\t// out\n        /* \"#utility.yul\":7:84   */\n    tag_73:\n        /* \"#utility.yul\":44:51   */\n      0x00\n        /* \"#utility.yul\":73:78   */\n      dup2\n        /* \"#utility.yul\":62:78   */\n      swap1\n      pop\n        /* \"#utility.yul\":7:84   */\n      swap2\n      swap1\n      pop\n      jump\t// out\n        /* \"#utility.yul\":90:208   */\n    tag_74:\n        /* \"#utility.yul\":177:201   */\n      tag_128\n        /* \"#utility.yul\":195:200   */\n      dup2\n        /* \"#utility.yul\":177:201   */\n      tag_73\n      jump\t// in\n    tag_128:\n        /* \"#utility.yul\":172:175   */\n      dup3\n        /* \"#utility.yul\":165:202   */\n      mstore\n        /* \"#utility.yul\":90:208   */\n      pop\n      pop\n      jump\t// out\n        /* \"#utility.yul\":214:436   */\n    tag_14:\n        /* \"#utility.yul\":307:311   */\n      0x00\n        /* \"#utility.yul\":345:347   */\n      0x20\n        /* \"#utility.yul\":334:343   */\n      dup3\n        /* \"#utility.yul\":330:348   */\n      add\n        /* \"#utility.yul\":322:348   */\n      swap1\n      pop\n        /* \"#utility.yul\":358:429   */\n      tag_130\n        /* \"#utility.yul\":426:427   */\n      0x00\n        /* \"#utility.yul\":415:424   */\n      dup4\n        /* \"#utility.yul\":411:428   */\n      add\n        /* \"#utility.yul\":402:408   */\n      dup5\n        /* \"#utility.yul\":358:429   */\n      tag_74\n      jump\t// in\n    tag_130:\n        /* \"#utility.yul\":214:436   */\n      swap3\n      swap2\n      pop\n      pop\n      jump\t// out\n        /* \"#utility.yul\":442:568   */\n    tag_75:\n        /* \"#utility.yul\":479:486   */\n      0x00\n        /* \"#utility.yul\":519:561   */\n      0xffffffffffffffffffffffffffffffffffffffff\n        /* \"#utility.yul\":512:517   */\n      dup3\n        /* \"#utility.yul\":508:562   */\n      and\n        /* \"#utility.yul\":497:562   */\n      swap1\n      pop\n        /* \"#utility.yul\":442:568   */\n      swap2\n      swap1\n      pop\n      jump\t// out\n        /* \"#utility.yul\":574:670   */\n    tag_76:\n        /* \"#utility.yul\":611:618   */\n      0x00\n        /* \"#utility.yul\":640:664   */\n      tag_133\n        /* \"#utility.yul\":658:663   */\n      dup3\n        /* \"#utility.yul\":640:664   */\n      tag_75\n      jump\t// in\n    tag_133:\n        /* \"#utility.yul\":629:664   */\n      swap1\n      pop\n        /* \"#utility.yul\":574:670   */\n      swap2\n      swap1\n      pop\n      jump\t// out\n        /* \"#utility.yul\":676:794   */\n    tag_77:\n        /* \"#utility.yul\":763:787   */\n      tag_135\n        /* \"#utility.yul\":781:786   */\n      dup2\n        /* \"#utility.yul\":763:787   */\n      tag_76\n      jump\t// in\n    tag_135:\n        /* \"#utility.yul\":758:761   */\n      dup3\n        /* \"#utility.yul\":751:788   */\n      mstore\n        /* \"#utility.yul\":676:794   */\n      pop\n      pop\n      jump\t// out\n        /* \"#utility.yul\":800:1022   */\n    tag_18:\n        /* \"#utility.yul\":893:897   */\n      0x00\n        /* \"#utility.yul\":931:933   */\n      0x20\n        /* \"#utility.yul\":920:929   */\n      dup3\n        /* \"#utility.yul\":916:934   */\n      add\n        /* \"#utility.yul\":908:934   */\n      swap1\n      pop\n        /* \"#utility.yul\":944:1015   */\n      tag_137\n        /* \"#utility.yul\":1012:1013   */\n      0x00\n        /* \"#utility.yul\":1001:1010   */\n      dup4\n        /* \"#utility.yul\":997:1014   */\n      add\n        /* \"#utility.yul\":988:994   */\n      dup5\n        /* \"#utility.yul\":944:1015   */\n      tag_77\n      jump\t// in\n    tag_137:\n        /* \"#utility.yul\":800:1022   */\n      swap3\n      swap2\n      pop\n      pop\n      jump\t// out\n        /* \"#utility.yul\":1028:1103   */\n    tag_78:\n        /* \"#utility.yul\":1061:1067   */\n      0x00\n        /* \"#utility.yul\":1094:1096   */\n      0x40\n        /* \"#utility.yul\":1088:1097   */\n      mload\n        /* \"#utility.yul\":1078:1097   */\n      swap1\n      pop\n        /* \"#utility.yul\":1028:1103   */\n      swap1\n      jump\t// out\n        /* \"#utility.yul\":1109:1226   */\n    tag_79:\n        /* \"#utility.yul\":1218:1219   */\n      0x00\n        /* \"#utility.yul\":1215:1216   */\n      dup1\n        /* \"#utility.yul\":1208:1220   */\n      revert\n        /* \"#utility.yul\":1232:1349   */\n    tag_80:\n        /* \"#utility.yul\":1341:1342   */\n      0x00\n        /* \"#utility.yul\":1338:1339   */\n      dup1\n        /* \"#utility.yul\":1331:1343   */\n      revert\n        /* \"#utility.yul\":1355:1477   */\n    tag_81:\n        /* \"#utility.yul\":1428:1452   */\n      tag_142\n        /* \"#utility.yul\":1446:1451   */\n      dup2\n        /* \"#utility.yul\":1428:1452   */\n      tag_76\n      jump\t// in\n    tag_142:\n        /* \"#utility.yul\":1421:1426   */\n      dup2\n        /* \"#utility.yul\":1418:1453   */\n      eq\n        /* \"#utility.yul\":1408:1471   */\n      tag_143\n      jumpi\n        /* \"#utility.yul\":1467:1468   */\n      0x00\n        /* \"#utility.yul\":1464:1465   */\n      dup1\n        /* \"#utility.yul\":1457:1469   */\n      revert\n        /* \"#utility.yul\":1408:1471   */\n    tag_143:\n        /* \"#utility.yul\":1355:1477   */\n      pop\n      jump\t// out\n        /* \"#utility.yul\":1483:1622   */\n    tag_82:\n        /* \"#utility.yul\":1529:1534   */\n      0x00\n        /* \"#utility.yul\":1567:1573   */\n      dup2\n        /* \"#utility.yul\":1554:1574   */\n      calldataload\n        /* \"#utility.yul\":1545:1574   */\n      swap1\n      pop\n        /* \"#utility.yul\":1583:1616   */\n      tag_145\n        /* \"#utility.yul\":1610:1615   */\n      dup2\n        /* \"#utility.yul\":1583:1616   */\n      tag_81\n      jump\t// in\n    tag_145:\n        /* \"#utility.yul\":1483:1622   */\n      swap3\n      swap2\n      pop\n      pop\n      jump\t// out\n        /* \"#utility.yul\":1628:1750   */\n    tag_83:\n        /* \"#utility.yul\":1701:1725   */\n      tag_147\n        /* \"#utility.yul\":1719:1724   */\n      dup2\n        /* \"#utility.yul\":1701:1725   */\n      tag_73\n      jump\t// in\n    tag_147:\n        /* \"#utility.yul\":1694:1699   */\n      dup2\n        /* \"#utility.yul\":1691:1726   */\n      eq\n        /* \"#utility.yul\":1681:1744   */\n      tag_148\n      jumpi\n        /* \"#utility.yul\":1740:1741   */\n      0x00\n        /* \"#utility.yul\":1737:1738   */\n      dup1\n        /* \"#utility.yul\":1730:1742   */\n      revert\n        /* \"#utility.yul\":1681:1744   */\n    tag_148:\n        /* \"#utility.yul\":1628:1750   */\n      pop\n      jump\t// out\n        /* \"#utility.yul\":1756:1895   */\n    tag_84:\n        /* \"#utility.yul\":1802:1807   */\n      0x00\n        /* \"#utility.yul\":1840:1846   */\n      dup2\n        /* \"#utility.yul\":1827:1847   */\n      calldataload\n        /* \"#utility.yul\":1818:1847   */\n      swap1\n      pop\n        /* \"#utility.yul\":1856:1889   */\n      tag_150\n        /* \"#utility.yul\":1883:1888   */\n      dup2\n        /* \"#utility.yul\":1856:1889   */\n      tag_83\n      jump\t// in\n    tag_150:\n        /* \"#utility.yul\":1756:1895   */\n      swap3\n      swap2\n      pop\n      pop\n      jump\t// out\n        /* \"#utility.yul\":1901:2375   */\n    tag_21:\n        /* \"#utility.yul\":1969:1975   */\n      0x00\n        /* \"#utility.yul\":1977:1983   */\n      dup1\n        /* \"#utility.yul\":2026:2028   */\n      0x40\n        /* \"#utility.yul\":2014:2023   */\n      dup4\n        /* \"#utility.yul\":2005:2012   */\n      dup6\n        /* \"#utility.yul\":2001:2024   */\n      sub\n        /* \"#utility.yul\":1997:2029   */\n      slt\n        /* \"#utility.yul\":1994:2113   */\n      iszero\n      tag_152\n      jumpi\n        /* \"#utility.yul\":2032:2111   */\n      tag_153\n      tag_79\n      jump\t// in\n    tag_153:\n        /* \"#utility.yul\":1994:2113   */\n    tag_152:\n        /* \"#utility.yul\":2152:2153   */\n      0x00\n        /* \"#utility.yul\":2177:2230   */\n      tag_154\n        /* \"#utility.yul\":2222:2229   */\n      dup6\n        /* \"#utility.yul\":2213:2219   */\n      dup3\n        /* \"#utility.yul\":2202:2211   */\n      dup7\n        /* \"#utility.yul\":2198:2220   */\n      add\n        /* \"#utility.yul\":2177:2230   */\n      tag_82\n      jump\t// in\n    tag_154:\n        /* \"#utility.yul\":2167:2230   */\n      swap3\n      pop\n        /* \"#utility.yul\":2123:2240   */\n      pop\n        /* \"#utility.yul\":2279:2281   */\n      0x20\n        /* \"#utility.yul\":2305:2358   */\n      tag_155\n        /* \"#utility.yul\":2350:2357   */\n      dup6\n        /* \"#utility.yul\":2341:2347   */\n      dup3\n        /* \"#utility.yul\":2330:2339   */\n      dup7\n        /* \"#utility.yul\":2326:2348   */\n      add\n        /* \"#utility.yul\":2305:2358   */\n      tag_84\n      jump\t// in\n    tag_155:\n        /* \"#utility.yul\":2295:2358   */\n      swap2\n      pop\n        /* \"#utility.yul\":2250:2368   */\n      pop\n        /* \"#utility.yul\":1901:2375   */\n      swap3\n      pop\n      swap3\n      swap1\n      pop\n      jump\t// out\n        /* \"#utility.yul\":2381:2471   */\n    tag_85:\n        /* \"#utility.yul\":2415:2422   */\n      0x00\n        /* \"#utility.yul\":2458:2463   */\n      dup2\n        /* \"#utility.yul\":2451:2464   */\n      iszero\n        /* \"#utility.yul\":2444:2465   */\n      iszero\n        /* \"#utility.yul\":2433:2465   */\n      swap1\n      pop\n        /* \"#utility.yul\":2381:2471   */\n      swap2\n      swap1\n      pop\n      jump\t// out\n        /* \"#utility.yul\":2477:2586   */\n    tag_86:\n        /* \"#utility.yul\":2558:2579   */\n      tag_158\n        /* \"#utility.yul\":2573:2578   */\n      dup2\n        /* \"#utility.yul\":2558:2579   */\n      tag_85\n      jump\t// in\n    tag_158:\n        /* \"#utility.yul\":2553:2556   */\n      dup3\n        /* \"#utility.yul\":2546:2580   */\n      mstore\n        /* \"#utility.yul\":2477:2586   */\n      pop\n      pop\n      jump\t// out\n        /* \"#utility.yul\":2592:2802   */\n    tag_24:\n        /* \"#utility.yul\":2679:2683   */\n      0x00\n        /* \"#utility.yul\":2717:2719   */\n      0x20\n        /* \"#utility.yul\":2706:2715   */\n      dup3\n        /* \"#utility.yul\":2702:2720   */\n      add\n        /* \"#utility.yul\":2694:2720   */\n      swap1\n      pop\n        /* \"#utility.yul\":2730:2795   */\n      tag_160\n        /* \"#utility.yul\":2792:2793   */\n      0x00\n        /* \"#utility.yul\":2781:2790   */\n      dup4\n        /* \"#utility.yul\":2777:2794   */\n      add\n        /* \"#utility.yul\":2768:2774   */\n      dup5\n        /* \"#utility.yul\":2730:2795   */\n      tag_86\n      jump\t// in\n    tag_160:\n        /* \"#utility.yul\":2592:2802   */\n      swap3\n      swap2\n      pop\n      pop\n      jump\t// out\n        /* \"#utility.yul\":2808:2868   */\n    tag_87:\n        /* \"#utility.yul\":2836:2839   */\n      0x00\n        /* \"#utility.yul\":2857:2862   */\n      dup2\n        /* \"#utility.yul\":2850:2862   */\n      swap1\n      pop\n        /* \"#utility.yul\":2808:2868   */\n      swap2\n      swap1\n      pop\n      jump\t// out\n        /* \"#utility.yul\":2874:3016   */\n    tag_88:\n        /* \"#utility.yul\":2924:2933   */\n      0x00\n        /* \"#utility.yul\":2957:3010   */\n      tag_163\n        /* \"#utility.yul\":2975:3009   */\n      tag_164\n        /* \"#utility.yul\":2984:3008   */\n      tag_165\n        /* \"#utility.yul\":3002:3007   */\n      dup5\n        /* \"#utility.yul\":2984:3008   */\n      tag_75\n      jump\t// in\n    tag_165:\n        /* \"#utility.yul\":2975:3009   */\n      tag_87\n      jump\t// in\n    tag_164:\n        /* \"#utility.yul\":2957:3010   */\n      tag_75\n      jump\t// in\n    tag_163:\n        /* \"#utility.yul\":2944:3010   */\n      swap1\n      pop\n        /* \"#utility.yul\":2874:3016   */\n      swap2\n      swap1\n      pop\n      jump\t// out\n        /* \"#utility.yul\":3022:3148   */\n    tag_89:\n        /* \"#utility.yul\":3072:3081   */\n      0x00\n        /* \"#utility.yul\":3105:3142   */\n      tag_167\n        /* \"#utility.yul\":3136:3141   */\n      dup3\n        /* \"#utility.yul\":3105:3142   */\n      tag_88\n      jump\t// in\n    tag_167:\n        /* \"#utility.yul\":3092:3142   */\n      swap1\n      pop\n        /* \"#utility.yul\":3022:3148   */\n      swap2\n      swap1\n      pop\n      jump\t// out\n        /* \"#utility.yul\":3154:3294   */\n    tag_90:\n        /* \"#utility.yul\":3218:3227   */\n      0x00\n        /* \"#utility.yul\":3251:3288   */\n      tag_169\n        /* \"#utility.yul\":3282:3287   */\n      dup3\n        /* \"#utility.yul\":3251:3288   */\n      tag_89\n      jump\t// in\n    tag_169:\n        /* \"#utility.yul\":3238:3288   */\n      swap1\n      pop\n        /* \"#utility.yul\":3154:3294   */\n      swap2\n      swap1\n      pop\n      jump\t// out\n        /* \"#utility.yul\":3300:3459   */\n    tag_91:\n        /* \"#utility.yul\":3401:3452   */\n      tag_171\n        /* \"#utility.yul\":3446:3451   */\n      dup2\n        /* \"#utility.yul\":3401:3452   */\n      tag_90\n      jump\t// in\n    tag_171:\n        /* \"#utility.yul\":3396:3399   */\n      dup3\n        /* \"#utility.yul\":3389:3453   */\n      mstore\n        /* \"#utility.yul\":3300:3459   */\n      pop\n      pop\n      jump\t// out\n        /* \"#utility.yul\":3465:3715   */\n    tag_28:\n        /* \"#utility.yul\":3572:3576   */\n      0x00\n        /* \"#utility.yul\":3610:3612   */\n      0x20\n        /* \"#utility.yul\":3599:3608   */\n      dup3\n        /* \"#utility.yul\":3595:3613   */\n      add\n        /* \"#utility.yul\":3587:3613   */\n      swap1\n      pop\n        /* \"#utility.yul\":3623:3708   */\n      tag_173\n        /* \"#utility.yul\":3705:3706   */\n      0x00\n        /* \"#utility.yul\":3694:3703   */\n      dup4\n        /* \"#utility.yul\":3690:3707   */\n      add\n        /* \"#utility.yul\":3681:3687   */\n      dup5\n        /* \"#utility.yul\":3623:3708   */\n      tag_91\n      jump\t// in\n    tag_173:\n        /* \"#utility.yul\":3465:3715   */\n      swap3\n      swap2\n      pop\n      pop\n      jump\t// out\n        /* \"#utility.yul\":3721:4050   */\n    tag_31:\n        /* \"#utility.yul\":3780:3786   */\n      0x00\n        /* \"#utility.yul\":3829:3831   */\n      0x20\n        /* \"#utility.yul\":3817:3826   */\n      dup3\n        /* \"#utility.yul\":3808:3815   */\n      dup5\n        /* \"#utility.yul\":3804:3827   */\n      sub\n        /* \"#utility.yul\":3800:3832   */\n      slt\n        /* \"#utility.yul\":3797:3916   */\n      iszero\n      tag_175\n      jumpi\n        /* \"#utility.yul\":3835:3914   */\n      tag_176\n      tag_79\n      jump\t// in\n    tag_176:\n        /* \"#utility.yul\":3797:3916   */\n    tag_175:\n        /* \"#utility.yul\":3955:3956   */\n      0x00\n        /* \"#utility.yul\":3980:4033   */\n      tag_177\n        /* \"#utility.yul\":4025:4032   */\n      dup5\n        /* \"#utility.yul\":4016:4022   */\n      dup3\n        /* \"#utility.yul\":4005:4014   */\n      dup6\n        /* \"#utility.yul\":4001:4023   */\n      add\n        /* \"#utility.yul\":3980:4033   */\n      tag_84\n      jump\t// in\n    tag_177:\n        /* \"#utility.yul\":3970:4033   */\n      swap2\n      pop\n        /* \"#utility.yul\":3926:4043   */\n      pop\n        /* \"#utility.yul\":3721:4050   */\n      swap3\n      swap2\n      pop\n      pop\n      jump\t// out\n        /* \"#utility.yul\":4056:4155   */\n    tag_92:\n        /* \"#utility.yul\":4108:4114   */\n      0x00\n        /* \"#utility.yul\":4142:4147   */\n      dup2\n        /* \"#utility.yul\":4136:4148   */\n      mload\n        /* \"#utility.yul\":4126:4148   */\n      swap1\n      pop\n        /* \"#utility.yul\":4056:4155   */\n      swap2\n      swap1\n      pop\n      jump\t// out\n        /* \"#utility.yul\":4161:4330   */\n    tag_93:\n        /* \"#utility.yul\":4245:4256   */\n      0x00\n        /* \"#utility.yul\":4279:4285   */\n      dup3\n        /* \"#utility.yul\":4274:4277   */\n      dup3\n        /* \"#utility.yul\":4267:4286   */\n      mstore\n        /* \"#utility.yul\":4319:4323   */\n      0x20\n        /* \"#utility.yul\":4314:4317   */\n      dup3\n        /* \"#utility.yul\":4310:4324   */\n      add\n        /* \"#utility.yul\":4295:4324   */\n      swap1\n      pop\n        /* \"#utility.yul\":4161:4330   */\n      swap3\n      swap2\n      pop\n      pop\n      jump\t// out\n        /* \"#utility.yul\":4336:4643   */\n    tag_94:\n        /* \"#utility.yul\":4404:4405   */\n      0x00\n        /* \"#utility.yul\":4414:4527   */\n    tag_181:\n        /* \"#utility.yul\":4428:4434   */\n      dup4\n        /* \"#utility.yul\":4425:4426   */\n      dup2\n        /* \"#utility.yul\":4422:4435   */\n      lt\n        /* \"#utility.yul\":4414:4527   */\n      iszero\n      tag_183\n      jumpi\n        /* \"#utility.yul\":4513:4514   */\n      dup1\n        /* \"#utility.yul\":4508:4511   */\n      dup3\n        /* \"#utility.yul\":4504:4515   */\n      add\n        /* \"#utility.yul\":4498:4516   */\n      mload\n        /* \"#utility.yul\":4494:4495   */\n      dup2\n        /* \"#utility.yul\":4489:4492   */\n      dup5\n        /* \"#utility.yul\":4485:4496   */\n      add\n        /* \"#utility.yul\":4478:4517   */\n      mstore\n        /* \"#utility.yul\":4450:4452   */\n      0x20\n        /* \"#utility.yul\":4447:4448   */\n      dup2\n        /* \"#utility.yul\":4443:4453   */\n      add\n        /* \"#utility.yul\":4438:4453   */\n      swap1\n      pop\n        /* \"#utility.yul\":4414:4527   */\n      jump(tag_181)\n    tag_183:\n        /* \"#utility.yul\":4545:4551   */\n      dup4\n        /* \"#utility.yul\":4542:4543   */\n      dup2\n        /* \"#utility.yul\":4539:4552   */\n      gt\n        /* \"#utility.yul\":4536:4637   */\n      iszero\n      tag_184\n      jumpi\n        /* \"#utility.yul\":4625:4626   */\n      0x00\n        /* \"#utility.yul\":4616:4622   */\n      dup5\n        /* \"#utility.yul\":4611:4614   */\n      dup5\n        /* \"#utility.yul\":4607:4623   */\n      add\n        /* \"#utility.yul\":4600:4627   */\n      mstore\n        /* \"#utility.yul\":4536:4637   */\n    tag_184:\n        /* \"#utility.yul\":4385:4643   */\n      pop\n        /* \"#utility.yul\":4336:4643   */\n      pop\n      pop\n      pop\n      jump\t// out\n        /* \"#utility.yul\":4649:4751   */\n    tag_95:\n        /* \"#utility.yul\":4690:4696   */\n      0x00\n        /* \"#utility.yul\":4741:4743   */\n      0x1f\n        /* \"#utility.yul\":4737:4744   */\n      not\n        /* \"#utility.yul\":4732:4734   */\n      0x1f\n        /* \"#utility.yul\":4725:4730   */\n      dup4\n        /* \"#utility.yul\":4721:4735   */\n      add\n        /* \"#utility.yul\":4717:4745   */\n      and\n        /* \"#utility.yul\":4707:4745   */\n      swap1\n      pop\n        /* \"#utility.yul\":4649:4751   */\n      swap2\n      swap1\n      pop\n      jump\t// out\n        /* \"#utility.yul\":4757:5121   */\n    tag_96:\n        /* \"#utility.yul\":4845:4848   */\n      0x00\n        /* \"#utility.yul\":4873:4912   */\n      tag_187\n        /* \"#utility.yul\":4906:4911   */\n      dup3\n        /* \"#utility.yul\":4873:4912   */\n      tag_92\n      jump\t// in\n    tag_187:\n        /* \"#utility.yul\":4928:4999   */\n      tag_188\n        /* \"#utility.yul\":4992:4998   */\n      dup2\n        /* \"#utility.yul\":4987:4990   */\n      dup6\n        /* \"#utility.yul\":4928:4999   */\n      tag_93\n      jump\t// in\n    tag_188:\n        /* \"#utility.yul\":4921:4999   */\n      swap4\n      pop\n        /* \"#utility.yul\":5008:5060   */\n      tag_189\n        /* \"#utility.yul\":5053:5059   */\n      dup2\n        /* \"#utility.yul\":5048:5051   */\n      dup6\n        /* \"#utility.yul\":5041:5045   */\n      0x20\n        /* \"#utility.yul\":5034:5039   */\n      dup7\n        /* \"#utility.yul\":5030:5046   */\n      add\n        /* \"#utility.yul\":5008:5060   */\n      tag_94\n      jump\t// in\n    tag_189:\n        /* \"#utility.yul\":5085:5114   */\n      tag_190\n        /* \"#utility.yul\":5107:5113   */\n      dup2\n        /* \"#utility.yul\":5085:5114   */\n      tag_95\n      jump\t// in\n    tag_190:\n        /* \"#utility.yul\":5080:5083   */\n      dup5\n        /* \"#utility.yul\":5076:5115   */\n      add\n        /* \"#utility.yul\":5069:5115   */\n      swap2\n      pop\n        /* \"#utility.yul\":4849:5121   */\n      pop\n        /* \"#utility.yul\":4757:5121   */\n      swap3\n      swap2\n      pop\n      pop\n      jump\t// out\n        /* \"#utility.yul\":5127:5550   */\n    tag_34:\n        /* \"#utility.yul\":5268:5272   */\n      0x00\n        /* \"#utility.yul\":5306:5308   */\n      0x40\n        /* \"#utility.yul\":5295:5304   */\n      dup3\n        /* \"#utility.yul\":5291:5309   */\n      add\n        /* \"#utility.yul\":5283:5309   */\n      swap1\n      pop\n        /* \"#utility.yul\":5319:5390   */\n      tag_192\n        /* \"#utility.yul\":5387:5388   */\n      0x00\n        /* \"#utility.yul\":5376:5385   */\n      dup4\n        /* \"#utility.yul\":5372:5389   */\n      add\n        /* \"#utility.yul\":5363:5369   */\n      dup6\n        /* \"#utility.yul\":5319:5390   */\n      tag_74\n      jump\t// in\n    tag_192:\n        /* \"#utility.yul\":5437:5446   */\n      dup2\n        /* \"#utility.yul\":5431:5435   */\n      dup2\n        /* \"#utility.yul\":5427:5447   */\n      sub\n        /* \"#utility.yul\":5422:5424   */\n      0x20\n        /* \"#utility.yul\":5411:5420   */\n      dup4\n        /* \"#utility.yul\":5407:5425   */\n      add\n        /* \"#utility.yul\":5400:5448   */\n      mstore\n        /* \"#utility.yul\":5465:5543   */\n      tag_193\n        /* \"#utility.yul\":5538:5542   */\n      dup2\n        /* \"#utility.yul\":5529:5535   */\n      dup5\n        /* \"#utility.yul\":5465:5543   */\n      tag_96\n      jump\t// in\n    tag_193:\n        /* \"#utility.yul\":5457:5543   */\n      swap1\n      pop\n        /* \"#utility.yul\":5127:5550   */\n      swap4\n      swap3\n      pop\n      pop\n      pop\n      jump\t// out\n        /* \"#utility.yul\":5556:5885   */\n    tag_37:\n        /* \"#utility.yul\":5615:5621   */\n      0x00\n        /* \"#utility.yul\":5664:5666   */\n      0x20\n        /* \"#utility.yul\":5652:5661   */\n      dup3\n        /* \"#utility.yul\":5643:5650   */\n      dup5\n        /* \"#utility.yul\":5639:5662   */\n      sub\n        /* \"#utility.yul\":5635:5667   */\n      slt\n        /* \"#utility.yul\":5632:5751   */\n      iszero\n      tag_195\n      jumpi\n        /* \"#utility.yul\":5670:5749   */\n      tag_196\n      tag_79\n      jump\t// in\n    tag_196:\n        /* \"#utility.yul\":5632:5751   */\n    tag_195:\n        /* \"#utility.yul\":5790:5791   */\n      0x00\n        /* \"#utility.yul\":5815:5868   */\n      tag_197\n        /* \"#utility.yul\":5860:5867   */\n      dup5\n        /* \"#utility.yul\":5851:5857   */\n      dup3\n        /* \"#utility.yul\":5840:5849   */\n      dup6\n        /* \"#utility.yul\":5836:5858   */\n      add\n        /* \"#utility.yul\":5815:5868   */\n      tag_82\n      jump\t// in\n    tag_197:\n        /* \"#utility.yul\":5805:5868   */\n      swap2\n      pop\n        /* \"#utility.yul\":5761:5878   */\n      pop\n        /* \"#utility.yul\":5556:5885   */\n      swap3\n      swap2\n      pop\n      pop\n      jump\t// out\n        /* \"#utility.yul\":5891:6008   */\n    tag_97:\n        /* \"#utility.yul\":6000:6001   */\n      0x00\n        /* \"#utility.yul\":5997:5998   */\n      dup1\n        /* \"#utility.yul\":5990:6002   */\n      revert\n        /* \"#utility.yul\":6014:6131   */\n    tag_98:\n        /* \"#utility.yul\":6123:6124   */\n      0x00\n        /* \"#utility.yul\":6120:6121   */\n      dup1\n        /* \"#utility.yul\":6113:6125   */\n      revert\n        /* \"#utility.yul\":6137:6317   */\n    tag_99:\n        /* \"#utility.yul\":6185:6262   */\n      0x4e487b7100000000000000000000000000000000000000000000000000000000\n        /* \"#utility.yul\":6182:6183   */\n      0x00\n        /* \"#utility.yul\":6175:6263   */\n      mstore\n        /* \"#utility.yul\":6282:6286   */\n      0x41\n        /* \"#utility.yul\":6279:6280   */\n      0x04\n        /* \"#utility.yul\":6272:6287   */\n      mstore\n        /* \"#utility.yul\":6306:6310   */\n      0x24\n        /* \"#utility.yul\":6303:6304   */\n      0x00\n        /* \"#utility.yul\":6296:6311   */\n      revert\n        /* \"#utility.yul\":6323:6604   */\n    tag_100:\n        /* \"#utility.yul\":6406:6433   */\n      tag_202\n        /* \"#utility.yul\":6428:6432   */\n      dup3\n        /* \"#utility.yul\":6406:6433   */\n      tag_95\n      jump\t// in\n    tag_202:\n        /* \"#utility.yul\":6398:6404   */\n      dup2\n        /* \"#utility.yul\":6394:6434   */\n      add\n        /* \"#utility.yul\":6536:6542   */\n      dup2\n        /* \"#utility.yul\":6524:6534   */\n      dup2\n        /* \"#utility.yul\":6521:6543   */\n      lt\n        /* \"#utility.yul\":6500:6518   */\n      0xffffffffffffffff\n        /* \"#utility.yul\":6488:6498   */\n      dup3\n        /* \"#utility.yul\":6485:6519   */\n      gt\n        /* \"#utility.yul\":6482:6544   */\n      or\n        /* \"#utility.yul\":6479:6567   */\n      iszero\n      tag_203\n      jumpi\n        /* \"#utility.yul\":6547:6565   */\n      tag_204\n      tag_99\n      jump\t// in\n    tag_204:\n        /* \"#utility.yul\":6479:6567   */\n    tag_203:\n        /* \"#utility.yul\":6587:6597   */\n      dup1\n        /* \"#utility.yul\":6583:6585   */\n      0x40\n        /* \"#utility.yul\":6576:6598   */\n      mstore\n        /* \"#utility.yul\":6366:6604   */\n      pop\n        /* \"#utility.yul\":6323:6604   */\n      pop\n      pop\n      jump\t// out\n        /* \"#utility.yul\":6610:6739   */\n    tag_101:\n        /* \"#utility.yul\":6644:6650   */\n      0x00\n        /* \"#utility.yul\":6671:6691   */\n      tag_206\n      tag_78\n      jump\t// in\n    tag_206:\n        /* \"#utility.yul\":6661:6691   */\n      swap1\n      pop\n        /* \"#utility.yul\":6700:6733   */\n      tag_207\n        /* \"#utility.yul\":6728:6732   */\n      dup3\n        /* \"#utility.yul\":6720:6726   */\n      dup3\n        /* \"#utility.yul\":6700:6733   */\n      tag_100\n      jump\t// in\n    tag_207:\n        /* \"#utility.yul\":6610:6739   */\n      swap2\n      swap1\n      pop\n      jump\t// out\n        /* \"#utility.yul\":6745:7053   */\n    tag_102:\n        /* \"#utility.yul\":6807:6811   */\n      0x00\n        /* \"#utility.yul\":6897:6915   */\n      0xffffffffffffffff\n        /* \"#utility.yul\":6889:6895   */\n      dup3\n        /* \"#utility.yul\":6886:6916   */\n      gt\n        /* \"#utility.yul\":6883:6939   */\n      iszero\n      tag_209\n      jumpi\n        /* \"#utility.yul\":6919:6937   */\n      tag_210\n      tag_99\n      jump\t// in\n    tag_210:\n        /* \"#utility.yul\":6883:6939   */\n    tag_209:\n        /* \"#utility.yul\":6957:6986   */\n      tag_211\n        /* \"#utility.yul\":6979:6985   */\n      dup3\n        /* \"#utility.yul\":6957:6986   */\n      tag_95\n      jump\t// in\n    tag_211:\n        /* \"#utility.yul\":6949:6986   */\n      swap1\n      pop\n        /* \"#utility.yul\":7041:7045   */\n      0x20\n        /* \"#utility.yul\":7035:7039   */\n      dup2\n        /* \"#utility.yul\":7031:7046   */\n      add\n        /* \"#utility.yul\":7023:7046   */\n      swap1\n      pop\n        /* \"#utility.yul\":6745:7053   */\n      swap2\n      swap1\n      pop\n      jump\t// out\n        /* \"#utility.yul\":7059:7213   */\n    tag_103:\n        /* \"#utility.yul\":7143:7149   */\n      dup3\n        /* \"#utility.yul\":7138:7141   */\n      dup2\n        /* \"#utility.yul\":7133:7136   */\n      dup4\n        /* \"#utility.yul\":7120:7150   */\n      calldatacopy\n        /* \"#utility.yul\":7205:7206   */\n      0x00\n        /* \"#utility.yul\":7196:7202   */\n      dup4\n        /* \"#utility.yul\":7191:7194   */\n      dup4\n        /* \"#utility.yul\":7187:7203   */\n      add\n        /* \"#utility.yul\":7180:7207   */\n      mstore\n        /* \"#utility.yul\":7059:7213   */\n      pop\n      pop\n      pop\n      jump\t// out\n        /* \"#utility.yul\":7219:7631   */\n    tag_104:\n        /* \"#utility.yul\":7297:7302   */\n      0x00\n        /* \"#utility.yul\":7322:7388   */\n      tag_214\n        /* \"#utility.yul\":7338:7387   */\n      tag_215\n        /* \"#utility.yul\":7380:7386   */\n      dup5\n        /* \"#utility.yul\":7338:7387   */\n      tag_102\n      jump\t// in\n    tag_215:\n        /* \"#utility.yul\":7322:7388   */\n      tag_101\n      jump\t// in\n    tag_214:\n        /* \"#utility.yul\":7313:7388   */\n      swap1\n      pop\n        /* \"#utility.yul\":7411:7417   */\n      dup3\n        /* \"#utility.yul\":7404:7409   */\n      dup2\n        /* \"#utility.yul\":7397:7418   */\n      mstore\n        /* \"#utility.yul\":7449:7453   */\n      0x20\n        /* \"#utility.yul\":7442:7447   */\n      dup2\n        /* \"#utility.yul\":7438:7454   */\n      add\n        /* \"#utility.yul\":7487:7490   */\n      dup5\n        /* \"#utility.yul\":7478:7484   */\n      dup5\n        /* \"#utility.yul\":7473:7476   */\n      dup5\n        /* \"#utility.yul\":7469:7485   */\n      add\n        /* \"#utility.yul\":7466:7491   */\n      gt\n        /* \"#utility.yul\":7463:7575   */\n      iszero\n      tag_216\n      jumpi\n        /* \"#utility.yul\":7494:7573   */\n      tag_217\n      tag_98\n      jump\t// in\n    tag_217:\n        /* \"#utility.yul\":7463:7575   */\n    tag_216:\n        /* \"#utility.yul\":7584:7625   */\n      tag_218\n        /* \"#utility.yul\":7618:7624   */\n      dup5\n        /* \"#utility.yul\":7613:7616   */\n      dup3\n        /* \"#utility.yul\":7608:7611   */\n      dup6\n        /* \"#utility.yul\":7584:7625   */\n      tag_103\n      jump\t// in\n    tag_218:\n        /* \"#utility.yul\":7303:7631   */\n      pop\n        /* \"#utility.yul\":7219:7631   */\n      swap4\n      swap3\n      pop\n      pop\n      pop\n      jump\t// out\n        /* \"#utility.yul\":7651:7991   */\n    tag_105:\n        /* \"#utility.yul\":7707:7712   */\n      0x00\n        /* \"#utility.yul\":7756:7759   */\n      dup3\n        /* \"#utility.yul\":7749:7753   */\n      0x1f\n        /* \"#utility.yul\":7741:7747   */\n      dup4\n        /* \"#utility.yul\":7737:7754   */\n      add\n        /* \"#utility.yul\":7733:7760   */\n      slt\n        /* \"#utility.yul\":7723:7845   */\n      tag_220\n      jumpi\n        /* \"#utility.yul\":7764:7843   */\n      tag_221\n      tag_97\n      jump\t// in\n    tag_221:\n        /* \"#utility.yul\":7723:7845   */\n    tag_220:\n        /* \"#utility.yul\":7881:7887   */\n      dup2\n        /* \"#utility.yul\":7868:7888   */\n      calldataload\n        /* \"#utility.yul\":7906:7985   */\n      tag_222\n        /* \"#utility.yul\":7981:7984   */\n      dup5\n        /* \"#utility.yul\":7973:7979   */\n      dup3\n        /* \"#utility.yul\":7966:7970   */\n      0x20\n        /* \"#utility.yul\":7958:7964   */\n      dup7\n        /* \"#utility.yul\":7954:7971   */\n      add\n        /* \"#utility.yul\":7906:7985   */\n      tag_104\n      jump\t// in\n    tag_222:\n        /* \"#utility.yul\":7897:7985   */\n      swap2\n      pop\n        /* \"#utility.yul\":7713:7991   */\n      pop\n        /* \"#utility.yul\":7651:7991   */\n      swap3\n      swap2\n      pop\n      pop\n      jump\t// out\n        /* \"#utility.yul\":7997:8506   */\n    tag_42:\n        /* \"#utility.yul\":8066:8072   */\n      0x00\n        /* \"#utility.yul\":8115:8117   */\n      0x20\n        /* \"#utility.yul\":8103:8112   */\n      dup3\n        /* \"#utility.yul\":8094:8101   */\n      dup5\n        /* \"#utility.yul\":8090:8113   */\n      sub\n        /* \"#utility.yul\":8086:8118   */\n      slt\n        /* \"#utility.yul\":8083:8202   */\n      iszero\n      tag_224\n      jumpi\n        /* \"#utility.yul\":8121:8200   */\n      tag_225\n      tag_79\n      jump\t// in\n    tag_225:\n        /* \"#utility.yul\":8083:8202   */\n    tag_224:\n        /* \"#utility.yul\":8269:8270   */\n      0x00\n        /* \"#utility.yul\":8258:8267   */\n      dup3\n        /* \"#utility.yul\":8254:8271   */\n      add\n        /* \"#utility.yul\":8241:8272   */\n      calldataload\n        /* \"#utility.yul\":8299:8317   */\n      0xffffffffffffffff\n        /* \"#utility.yul\":8291:8297   */\n      dup2\n        /* \"#utility.yul\":8288:8318   */\n      gt\n        /* \"#utility.yul\":8285:8402   */\n      iszero\n      tag_226\n      jumpi\n        /* \"#utility.yul\":8321:8400   */\n      tag_227\n      tag_80\n      jump\t// in\n    tag_227:\n        /* \"#utility.yul\":8285:8402   */\n    tag_226:\n        /* \"#utility.yul\":8426:8489   */\n      tag_228\n        /* \"#utility.yul\":8481:8488   */\n      dup5\n        /* \"#utility.yul\":8472:8478   */\n      dup3\n        /* \"#utility.yul\":8461:8470   */\n      dup6\n        /* \"#utility.yul\":8457:8479   */\n      add\n        /* \"#utility.yul\":8426:8489   */\n      tag_105\n      jump\t// in\n    tag_228:\n        /* \"#utility.yul\":8416:8489   */\n      swap2\n      pop\n        /* \"#utility.yul\":8212:8499   */\n      pop\n        /* \"#utility.yul\":7997:8506   */\n      swap3\n      swap2\n      pop\n      pop\n      jump\t// out\n        /* \"#utility.yul\":8512:8844   */\n    tag_48:\n        /* \"#utility.yul\":8633:8637   */\n      0x00\n        /* \"#utility.yul\":8671:8673   */\n      0x40\n        /* \"#utility.yul\":8660:8669   */\n      dup3\n        /* \"#utility.yul\":8656:8674   */\n      add\n        /* \"#utility.yul\":8648:8674   */\n      swap1\n      pop\n        /* \"#utility.yul\":8684:8755   */\n      tag_230\n        /* \"#utility.yul\":8752:8753   */\n      0x00\n        /* \"#utility.yul\":8741:8750   */\n      dup4\n        /* \"#utility.yul\":8737:8754   */\n      add\n        /* \"#utility.yul\":8728:8734   */\n      dup6\n        /* \"#utility.yul\":8684:8755   */\n      tag_77\n      jump\t// in\n    tag_230:\n        /* \"#utility.yul\":8765:8837   */\n      tag_231\n        /* \"#utility.yul\":8833:8835   */\n      0x20\n        /* \"#utility.yul\":8822:8831   */\n      dup4\n        /* \"#utility.yul\":8818:8836   */\n      add\n        /* \"#utility.yul\":8809:8815   */\n      dup5\n        /* \"#utility.yul\":8765:8837   */\n      tag_74\n      jump\t// in\n    tag_231:\n        /* \"#utility.yul\":8512:8844   */\n      swap4\n      swap3\n      pop\n      pop\n      pop\n      jump\t// out\n        /* \"#utility.yul\":8850:8966   */\n    tag_106:\n        /* \"#utility.yul\":8920:8941   */\n      tag_233\n        /* \"#utility.yul\":8935:8940   */\n      dup2\n        /* \"#utility.yul\":8920:8941   */\n      tag_85\n      jump\t// in\n    tag_233:\n        /* \"#utility.yul\":8913:8918   */\n      dup2\n        /* \"#utility.yul\":8910:8942   */\n      eq\n        /* \"#utility.yul\":8900:8960   */\n      tag_234\n      jumpi\n        /* \"#utility.yul\":8956:8957   */\n      0x00\n        /* \"#utility.yul\":8953:8954   */\n      dup1\n        /* \"#utility.yul\":8946:8958   */\n      revert\n        /* \"#utility.yul\":8900:8960   */\n    tag_234:\n        /* \"#utility.yul\":8850:8966   */\n      pop\n      jump\t// out\n        /* \"#utility.yul\":8972:9109   */\n    tag_107:\n        /* \"#utility.yul\":9026:9031   */\n      0x00\n        /* \"#utility.yul\":9057:9063   */\n      dup2\n        /* \"#utility.yul\":9051:9064   */\n      mload\n        /* \"#utility.yul\":9042:9064   */\n      swap1\n      pop\n        /* \"#utility.yul\":9073:9103   */\n      tag_236\n        /* \"#utility.yul\":9097:9102   */\n      dup2\n        /* \"#utility.yul\":9073:9103   */\n      tag_106\n      jump\t// in\n    tag_236:\n        /* \"#utility.yul\":8972:9109   */\n      swap3\n      swap2\n      pop\n      pop\n      jump\t// out\n        /* \"#utility.yul\":9115:9460   */\n    tag_52:\n        /* \"#utility.yul\":9182:9188   */\n      0x00\n        /* \"#utility.yul\":9231:9233   */\n      0x20\n        /* \"#utility.yul\":9219:9228   */\n      dup3\n        /* \"#utility.yul\":9210:9217   */\n      dup5\n        /* \"#utility.yul\":9206:9229   */\n      sub\n        /* \"#utility.yul\":9202:9234   */\n      slt\n        /* \"#utility.yul\":9199:9318   */\n      iszero\n      tag_238\n      jumpi\n        /* \"#utility.yul\":9237:9316   */\n      tag_239\n      tag_79\n      jump\t// in\n    tag_239:\n        /* \"#utility.yul\":9199:9318   */\n    tag_238:\n        /* \"#utility.yul\":9357:9358   */\n      0x00\n        /* \"#utility.yul\":9382:9443   */\n      tag_240\n        /* \"#utility.yul\":9435:9442   */\n      dup5\n        /* \"#utility.yul\":9426:9432   */\n      dup3\n        /* \"#utility.yul\":9415:9424   */\n      dup6\n        /* \"#utility.yul\":9411:9433   */\n      add\n        /* \"#utility.yul\":9382:9443   */\n      tag_107\n      jump\t// in\n    tag_240:\n        /* \"#utility.yul\":9372:9443   */\n      swap2\n      pop\n        /* \"#utility.yul\":9328:9453   */\n      pop\n        /* \"#utility.yul\":9115:9460   */\n      swap3\n      swap2\n      pop\n      pop\n      jump\t// out\n        /* \"#utility.yul\":9466:9646   */\n    tag_108:\n        /* \"#utility.yul\":9514:9591   */\n      0x4e487b7100000000000000000000000000000000000000000000000000000000\n        /* \"#utility.yul\":9511:9512   */\n      0x00\n        /* \"#utility.yul\":9504:9592   */\n      mstore\n        /* \"#utility.yul\":9611:9615   */\n      0x22\n        /* \"#utility.yul\":9608:9609   */\n      0x04\n        /* \"#utility.yul\":9601:9616   */\n      mstore\n        /* \"#utility.yul\":9635:9639   */\n      0x24\n        /* \"#utility.yul\":9632:9633   */\n      0x00\n        /* \"#utility.yul\":9625:9640   */\n      revert\n        /* \"#utility.yul\":9652:9972   */\n    tag_54:\n        /* \"#utility.yul\":9696:9702   */\n      0x00\n        /* \"#utility.yul\":9733:9734   */\n      0x02\n        /* \"#utility.yul\":9727:9731   */\n      dup3\n        /* \"#utility.yul\":9723:9735   */\n      div\n        /* \"#utility.yul\":9713:9735   */\n      swap1\n      pop\n        /* \"#utility.yul\":9780:9781   */\n      0x01\n        /* \"#utility.yul\":9774:9778   */\n      dup3\n        /* \"#utility.yul\":9770:9782   */\n      and\n        /* \"#utility.yul\":9801:9819   */\n      dup1\n        /* \"#utility.yul\":9791:9872   */\n      tag_243\n      jumpi\n        /* \"#utility.yul\":9857:9861   */\n      0x7f\n        /* \"#utility.yul\":9849:9855   */\n      dup3\n        /* \"#utility.yul\":9845:9862   */\n      and\n        /* \"#utility.yul\":9835:9862   */\n      swap2\n      pop\n        /* \"#utility.yul\":9791:9872   */\n    tag_243:\n        /* \"#utility.yul\":9919:9921   */\n      0x20\n        /* \"#utility.yul\":9911:9917   */\n      dup3\n        /* \"#utility.yul\":9908:9922   */\n      lt\n        /* \"#utility.yul\":9888:9906   */\n      dup2\n        /* \"#utility.yul\":9885:9923   */\n      sub\n        /* \"#utility.yul\":9882:9966   */\n      tag_244\n      jumpi\n        /* \"#utility.yul\":9938:9956   */\n      tag_245\n      tag_108\n      jump\t// in\n    tag_245:\n        /* \"#utility.yul\":9882:9966   */\n    tag_244:\n        /* \"#utility.yul\":9703:9972   */\n      pop\n        /* \"#utility.yul\":9652:9972   */\n      swap2\n      swap1\n      pop\n      jump\t// out\n        /* \"#utility.yul\":9978:10121   */\n    tag_109:\n        /* \"#utility.yul\":10035:10040   */\n      0x00\n        /* \"#utility.yul\":10066:10072   */\n      dup2\n        /* \"#utility.yul\":10060:10073   */\n      mload\n        /* \"#utility.yul\":10051:10073   */\n      swap1\n      pop\n        /* \"#utility.yul\":10082:10115   */\n      tag_247\n        /* \"#utility.yul\":10109:10114   */\n      dup2\n        /* \"#utility.yul\":10082:10115   */\n      tag_83\n      jump\t// in\n    tag_247:\n        /* \"#utility.yul\":9978:10121   */\n      swap3\n      swap2\n      pop\n      pop\n      jump\t// out\n        /* \"#utility.yul\":10127:10478   */\n    tag_64:\n        /* \"#utility.yul\":10197:10203   */\n      0x00\n        /* \"#utility.yul\":10246:10248   */\n      0x20\n        /* \"#utility.yul\":10234:10243   */\n      dup3\n        /* \"#utility.yul\":10225:10232   */\n      dup5\n        /* \"#utility.yul\":10221:10244   */\n      sub\n        /* \"#utility.yul\":10217:10249   */\n      slt\n        /* \"#utility.yul\":10214:10333   */\n      iszero\n      tag_249\n      jumpi\n        /* \"#utility.yul\":10252:10331   */\n      tag_250\n      tag_79\n      jump\t// in\n    tag_250:\n        /* \"#utility.yul\":10214:10333   */\n    tag_249:\n        /* \"#utility.yul\":10372:10373   */\n      0x00\n        /* \"#utility.yul\":10397:10461   */\n      tag_251\n        /* \"#utility.yul\":10453:10460   */\n      dup5\n        /* \"#utility.yul\":10444:10450   */\n      dup3\n        /* \"#utility.yul\":10433:10442   */\n      dup6\n        /* \"#utility.yul\":10429:10451   */\n      add\n        /* \"#utility.yul\":10397:10461   */\n      tag_109\n      jump\t// in\n    tag_251:\n        /* \"#utility.yul\":10387:10461   */\n      swap2\n      pop\n        /* \"#utility.yul\":10343:10471   */\n      pop\n        /* \"#utility.yul\":10127:10478   */\n      swap3\n      swap2\n      pop\n      pop\n      jump\t// out\n        /* \"#utility.yul\":10484:10625   */\n    tag_110:\n        /* \"#utility.yul\":10533:10537   */\n      0x00\n        /* \"#utility.yul\":10556:10559   */\n      dup2\n        /* \"#utility.yul\":10548:10559   */\n      swap1\n      pop\n        /* \"#utility.yul\":10579:10582   */\n      dup2\n        /* \"#utility.yul\":10576:10577   */\n      0x00\n        /* \"#utility.yul\":10569:10583   */\n      mstore\n        /* \"#utility.yul\":10613:10617   */\n      0x20\n        /* \"#utility.yul\":10610:10611   */\n      0x00\n        /* \"#utility.yul\":10600:10618   */\n      keccak256\n        /* \"#utility.yul\":10592:10618   */\n      swap1\n      pop\n        /* \"#utility.yul\":10484:10625   */\n      swap2\n      swap1\n      pop\n      jump\t// out\n        /* \"#utility.yul\":10631:10724   */\n    tag_111:\n        /* \"#utility.yul\":10668:10674   */\n      0x00\n        /* \"#utility.yul\":10715:10717   */\n      0x20\n        /* \"#utility.yul\":10710:10712   */\n      0x1f\n        /* \"#utility.yul\":10703:10708   */\n      dup4\n        /* \"#utility.yul\":10699:10713   */\n      add\n        /* \"#utility.yul\":10695:10718   */\n      div\n        /* \"#utility.yul\":10685:10718   */\n      swap1\n      pop\n        /* \"#utility.yul\":10631:10724   */\n      swap2\n      swap1\n      pop\n      jump\t// out\n        /* \"#utility.yul\":10730:10837   */\n    tag_112:\n        /* \"#utility.yul\":10774:10782   */\n      0x00\n        /* \"#utility.yul\":10824:10829   */\n      dup3\n        /* \"#utility.yul\":10818:10822   */\n      dup3\n        /* \"#utility.yul\":10814:10830   */\n      shl\n        /* \"#utility.yul\":10793:10830   */\n      swap1\n      pop\n        /* \"#utility.yul\":10730:10837   */\n      swap3\n      swap2\n      pop\n      pop\n      jump\t// out\n        /* \"#utility.yul\":10843:11236   */\n    tag_113:\n        /* \"#utility.yul\":10912:10918   */\n      0x00\n        /* \"#utility.yul\":10962:10963   */\n      0x08\n        /* \"#utility.yul\":10950:10960   */\n      dup4\n        /* \"#utility.yul\":10946:10964   */\n      mul\n        /* \"#utility.yul\":10985:11082   */\n      tag_256\n        /* \"#utility.yul\":11015:11081   */\n      0xffffffffffffffffffffffffffffffffffffffffffffffffffffffffffffffff\n        /* \"#utility.yul\":11004:11013   */\n      dup3\n        /* \"#utility.yul\":10985:11082   */\n      tag_112\n      jump\t// in\n    tag_256:\n        /* \"#utility.yul\":11103:11142   */\n      tag_257\n        /* \"#utility.yul\":11133:11141   */\n      dup7\n        /* \"#utility.yul\":11122:11131   */\n      dup4\n        /* \"#utility.yul\":11103:11142   */\n      tag_112\n      jump\t// in\n    tag_257:\n        /* \"#utility.yul\":11091:11142   */\n      swap6\n      pop\n        /* \"#utility.yul\":11175:11179   */\n      dup1\n        /* \"#utility.yul\":11171:11180   */\n      not\n        /* \"#utility.yul\":11164:11169   */\n      dup5\n        /* \"#utility.yul\":11160:11181   */\n      and\n        /* \"#utility.yul\":11151:11181   */\n      swap4\n      pop\n        /* \"#utility.yul\":11224:11228   */\n      dup1\n        /* \"#utility.yul\":11214:11222   */\n      dup7\n        /* \"#utility.yul\":11210:11229   */\n      and\n        /* \"#utility.yul\":11203:11208   */\n      dup5\n        /* \"#utility.yul\":11200:11230   */\n      or\n        /* \"#utility.yul\":11190:11230   */\n      swap3\n      pop\n        /* \"#utility.yul\":10919:11236   */\n      pop\n      pop\n        /* \"#utility.yul\":10843:11236   */\n      swap4\n      swap3\n      pop\n      pop\n      pop\n      jump\t// out\n        /* \"#utility.yul\":11242:11384   */\n    tag_114:\n        /* \"#utility.yul\":11292:11301   */\n      0x00\n        /* \"#utility.yul\":11325:11378   */\n      tag_259\n        /* \"#utility.yul\":11343:11377   */\n      tag_260\n        /* \"#utility.yul\":11352:11376   */\n      tag_261\n        /* \"#utility.yul\":11370:11375   */\n      dup5\n        /* \"#utility.yul\":11352:11376   */\n      tag_73\n      jump\t// in\n    tag_261:\n        /* \"#utility.yul\":11343:11377   */\n      tag_87\n      jump\t// in\n    tag_260:\n        /* \"#utility.yul\":11325:11378   */\n      tag_73\n      jump\t// in\n    tag_259:\n        /* \"#utility.yul\":11312:11378   */\n      swap1\n      pop\n        /* \"#utility.yul\":11242:11384   */\n      swap2\n      swap1\n      pop\n      jump\t// out\n        /* \"#utility.yul\":11390:11465   */\n    tag_115:\n        /* \"#utility.yul\":11433:11436   */\n      0x00\n        /* \"#utility.yul\":11454:11459   */\n      dup2\n        /* \"#utility.yul\":11447:11459   */\n      swap1\n      pop\n        /* \"#utility.yul\":11390:11465   */\n      swap2\n      swap1\n      pop\n      jump\t// out\n        /* \"#utility.yul\":11471:11740   */\n    tag_116:\n        /* \"#utility.yul\":11581:11620   */\n      tag_264\n        /* \"#utility.yul\":11612:11619   */\n      dup4\n        /* \"#utility.yul\":11581:11620   */\n      tag_114\n      jump\t// in\n    tag_264:\n        /* \"#utility.yul\":11642:11733   */\n      tag_265\n        /* \"#utility.yul\":11691:11732   */\n      tag_266\n        /* \"#utility.yul\":11715:11731   */\n      dup3\n        /* \"#utility.yul\":11691:11732   */\n      tag_115\n      jump\t// in\n    tag_266:\n        /* \"#utility.yul\":11683:11689   */\n      dup5\n        /* \"#utility.yul\":11676:11680   */\n      dup5\n        /* \"#utility.yul\":11670:11681   */\n      sload\n        /* \"#utility.yul\":11642:11733   */\n      tag_113\n      jump\t// in\n    tag_265:\n        /* \"#utility.yul\":11636:11640   */\n      dup3\n        /* \"#utility.yul\":11629:11734   */\n      sstore\n        /* \"#utility.yul\":11547:11740   */\n      pop\n        /* \"#utility.yul\":11471:11740   */\n      pop\n      pop\n      pop\n      jump\t// out\n        /* \"#utility.yul\":11746:11819   */\n    tag_117:\n        /* \"#utility.yul\":11791:11794   */\n      0x00\n        /* \"#utility.yul\":11746:11819   */\n      swap1\n      jump\t// out\n        /* \"#utility.yul\":11825:12014   */\n    tag_118:\n        /* \"#utility.yul\":11902:11934   */\n      tag_269\n      tag_117\n      jump\t// in\n    tag_269:\n        /* \"#utility.yul\":11943:12008   */\n      tag_270\n        /* \"#utility.yul\":12001:12007   */\n      dup2\n        /* \"#utility.yul\":11993:11999   */\n      dup5\n        /* \"#utility.yul\":11987:11991   */\n      dup5\n        /* \"#utility.yul\":11943:12008   */\n      tag_116\n      jump\t// in\n    tag_270:\n        /* \"#utility.yul\":11878:12014   */\n      pop\n        /* \"#utility.yul\":11825:12014   */\n      pop\n      pop\n      jump\t// out\n        /* \"#utility.yul\":12020:12206   */\n    tag_119:\n        /* \"#utility.yul\":12080:12200   */\n    tag_272:\n        /* \"#utility.yul\":12097:12100   */\n      dup2\n        /* \"#utility.yul\":12090:12095   */\n      dup2\n        /* \"#utility.yul\":12087:12101   */\n      lt\n        /* \"#utility.yul\":12080:12200   */\n      iszero\n      tag_274\n      jumpi\n        /* \"#utility.yul\":12151:12190   */\n      tag_275\n        /* \"#utility.yul\":12188:12189   */\n      0x00\n        /* \"#utility.yul\":12181:12186   */\n      dup3\n        /* \"#utility.yul\":12151:12190   */\n      tag_118\n      jump\t// in\n    tag_275:\n        /* \"#utility.yul\":12124:12125   */\n      0x01\n        /* \"#utility.yul\":12117:12122   */\n      dup2\n        /* \"#utility.yul\":12113:12126   */\n      add\n        /* \"#utility.yul\":12104:12126   */\n      swap1\n      pop\n        /* \"#utility.yul\":12080:12200   */\n      jump(tag_272)\n    tag_274:\n        /* \"#utility.yul\":12020:12206   */\n      pop\n      pop\n      jump\t// out\n        /* \"#utility.yul\":12212:12755   */\n    tag_120:\n        /* \"#utility.yul\":12313:12315   */\n      0x1f\n        /* \"#utility.yul\":12308:12311   */\n      dup3\n        /* \"#utility.yul\":12305:12316   */\n      gt\n        /* \"#utility.yul\":12302:12748   */\n      iszero\n      tag_277\n      jumpi\n        /* \"#utility.yul\":12347:12385   */\n      tag_278\n        /* \"#utility.yul\":12379:12384   */\n      dup2\n        /* \"#utility.yul\":12347:12385   */\n      tag_110\n      jump\t// in\n    tag_278:\n        /* \"#utility.yul\":12431:12460   */\n      tag_279\n        /* \"#utility.yul\":12449:12459   */\n      dup5\n        /* \"#utility.yul\":12431:12460   */\n      tag_111\n      jump\t// in\n    tag_279:\n        /* \"#utility.yul\":12421:12429   */\n      dup2\n        /* \"#utility.yul\":12417:12461   */\n      add\n        /* \"#utility.yul\":12614:12616   */\n      0x20\n        /* \"#utility.yul\":12602:12612   */\n      dup6\n        /* \"#utility.yul\":12599:12617   */\n      lt\n        /* \"#utility.yul\":12596:12645   */\n      iszero\n      tag_280\n      jumpi\n        /* \"#utility.yul\":12635:12643   */\n      dup2\n        /* \"#utility.yul\":12620:12643   */\n      swap1\n      pop\n        /* \"#utility.yul\":12596:12645   */\n    tag_280:\n        /* \"#utility.yul\":12658:12738   */\n      tag_281\n        /* \"#utility.yul\":12714:12736   */\n      tag_282\n        /* \"#utility.yul\":12732:12735   */\n      dup6\n        /* \"#utility.yul\":12714:12736   */\n      tag_111\n      jump\t// in\n    tag_282:\n        /* \"#utility.yul\":12704:12712   */\n      dup4\n        /* \"#utility.yul\":12700:12737   */\n      add\n        /* \"#utility.yul\":12687:12698   */\n      dup3\n        /* \"#utility.yul\":12658:12738   */\n      tag_119\n      jump\t// in\n    tag_281:\n        /* \"#utility.yul\":12317:12748   */\n      pop\n      pop\n        /* \"#utility.yul\":12302:12748   */\n    tag_277:\n        /* \"#utility.yul\":12212:12755   */\n      pop\n      pop\n      pop\n      jump\t// out\n        /* \"#utility.yul\":12761:12878   */\n    tag_121:\n        /* \"#utility.yul\":12815:12823   */\n      0x00\n        /* \"#utility.yul\":12865:12870   */\n      dup3\n        /* \"#utility.yul\":12859:12863   */\n      dup3\n        /* \"#utility.yul\":12855:12871   */\n      shr\n        /* \"#utility.yul\":12834:12871   */\n      swap1\n      pop\n        /* \"#utility.yul\":12761:12878   */\n      swap3\n      swap2\n      pop\n      pop\n      jump\t// out\n        /* \"#utility.yul\":12884:13053   */\n    tag_122:\n        /* \"#utility.yul\":12928:12934   */\n      0x00\n        /* \"#utility.yul\":12961:13012   */\n      tag_285\n        /* \"#utility.yul\":13009:13010   */\n      0x00\n        /* \"#utility.yul\":13005:13011   */\n      not\n        /* \"#utility.yul\":12997:13002   */\n      dup5\n        /* \"#utility.yul\":12994:12995   */\n      0x08\n        /* \"#utility.yul\":12990:13003   */\n      mul\n        /* \"#utility.yul\":12961:13012   */\n      tag_121\n      jump\t// in\n    tag_285:\n        /* \"#utility.yul\":12957:13013   */\n      not\n        /* \"#utility.yul\":13042:13046   */\n      dup1\n        /* \"#utility.yul\":13036:13040   */\n      dup4\n        /* \"#utility.yul\":13032:13047   */\n      and\n        /* \"#utility.yul\":13022:13047   */\n      swap2\n      pop\n        /* \"#utility.yul\":12935:13053   */\n      pop\n        /* \"#utility.yul\":12884:13053   */\n      swap3\n      swap2\n      pop\n      pop\n      jump\t// out\n        /* \"#utility.yul\":13058:13353   */\n    tag_123:\n        /* \"#utility.yul\":13134:13138   */\n      0x00\n        /* \"#utility.yul\":13280:13309   */\n      tag_287\n        /* \"#utility.yul\":13305:13308   */\n      dup4\n        /* \"#utility.yul\":13299:13303   */\n      dup4\n        /* \"#utility.yul\":13280:13309   */\n      tag_122\n      jump\t// in\n    tag_287:\n        /* \"#utility.yul\":13272:13309   */\n      swap2\n      pop\n        /* \"#utility.yul\":13342:13345   */\n      dup3\n        /* \"#utility.yul\":13339:13340   */\n      0x02\n        /* \"#utility.yul\":13335:13346   */\n      mul\n        /* \"#utility.yul\":13329:13333   */\n      dup3\n        /* \"#utility.yul\":13326:13347   */\n      or\n        /* \"#utility.yul\":13318:13347   */\n      swap1\n      pop\n        /* \"#utility.yul\":13058:13353   */\n      swap3\n      swap2\n      pop\n      pop\n      jump\t// out\n        /* \"#utility.yul\":13358:14753   */\n    tag_67:\n        /* \"#utility.yul\":13475:13512   */\n      tag_289\n        /* \"#utility.yul\":13508:13511   */\n      dup3\n        /* \"#utility.yul\":13475:13512   */\n      tag_92\n      jump\t// in\n    tag_289:\n        /* \"#utility.yul\":13577:13595   */\n      0xffffffffffffffff\n        /* \"#utility.yul\":13569:13575   */\n      dup2\n        /* \"#utility.yul\":13566:13596   */\n      gt\n        /* \"#utility.yul\":13563:13619   */\n      iszero\n      tag_290\n      jumpi\n        /* \"#utility.yul\":13599:13617   */\n      tag_291\n      tag_99\n      jump\t// in\n    tag_291:\n        /* \"#utility.yul\":13563:13619   */\n    tag_290:\n        /* \"#utility.yul\":13643:13681   */\n      tag_292\n        /* \"#utility.yul\":13675:13679   */\n      dup3\n        /* \"#utility.yul\":13669:13680   */\n      sload\n        /* \"#utility.yul\":13643:13681   */\n      tag_54\n      jump\t// in\n    tag_292:\n        /* \"#utility.yul\":13728:13795   */\n      tag_293\n        /* \"#utility.yul\":13788:13794   */\n      dup3\n        /* \"#utility.yul\":13780:13786   */\n      dup3\n        /* \"#utility.yul\":13774:13778   */\n      dup6\n        /* \"#utility.yul\":13728:13795   */\n      tag_120\n      jump\t// in\n    tag_293:\n        /* \"#utility.yul\":13822:13823   */\n      0x00\n        /* \"#utility.yul\":13846:13850   */\n      0x20\n        /* \"#utility.yul\":13833:13850   */\n      swap1\n      pop\n        /* \"#utility.yul\":13878:13880   */\n      0x1f\n        /* \"#utility.yul\":13870:13876   */\n      dup4\n        /* \"#utility.yul\":13867:13881   */\n      gt\n        /* \"#utility.yul\":13895:13896   */\n      0x01\n        /* \"#utility.yul\":13890:14508   */\n      dup2\n      eq\n      tag_295\n      jumpi\n        /* \"#utility.yul\":14552:14553   */\n      0x00\n        /* \"#utility.yul\":14569:14575   */\n      dup5\n        /* \"#utility.yul\":14566:14643   */\n      iszero\n      tag_296\n      jumpi\n        /* \"#utility.yul\":14618:14627   */\n      dup3\n        /* \"#utility.yul\":14613:14616   */\n      dup8\n        /* \"#utility.yul\":14609:14628   */\n      add\n        /* \"#utility.yul\":14603:14629   */\n      mload\n        /* \"#utility.yul\":14594:14629   */\n      swap1\n      pop\n        /* \"#utility.yul\":14566:14643   */\n    tag_296:\n        /* \"#utility.yul\":14669:14736   */\n      tag_297\n        /* \"#utility.yul\":14729:14735   */\n      dup6\n        /* \"#utility.yul\":14722:14727   */\n      dup3\n        /* \"#utility.yul\":14669:14736   */\n      tag_123\n      jump\t// in\n    tag_297:\n        /* \"#utility.yul\":14663:14667   */\n      dup7\n        /* \"#utility.yul\":14656:14737   */\n      sstore\n        /* \"#utility.yul\":14525:14747   */\n      pop\n        /* \"#utility.yul\":13860:14747   */\n      jump(tag_294)\n        /* \"#utility.yul\":13890:14508   */\n    tag_295:\n        /* \"#utility.yul\":13942:13946   */\n      0x1f\n        /* \"#utility.yul\":13938:13947   */\n      not\n        /* \"#utility.yul\":13930:13936   */\n      dup5\n        /* \"#utility.yul\":13926:13948   */\n      and\n        /* \"#utility.yul\":13976:14013   */\n      tag_298\n        /* \"#utility.yul\":14008:14012   */\n      dup7\n        /* \"#utility.yul\":13976:14013   */\n      tag_110\n      jump\t// in\n    tag_298:\n        /* \"#utility.yul\":14035:14036   */\n      0x00\n        /* \"#utility.yul\":14049:14257   */\n    tag_299:\n        /* \"#utility.yul\":14063:14070   */\n      dup3\n        /* \"#utility.yul\":14060:14061   */\n      dup2\n        /* \"#utility.yul\":14057:14071   */\n      lt\n        /* \"#utility.yul\":14049:14257   */\n      iszero\n      tag_301\n      jumpi\n        /* \"#utility.yul\":14142:14151   */\n      dup5\n        /* \"#utility.yul\":14137:14140   */\n      dup10\n        /* \"#utility.yul\":14133:14152   */\n      add\n        /* \"#utility.yul\":14127:14153   */\n      mload\n        /* \"#utility.yul\":14119:14125   */\n      dup3\n        /* \"#utility.yul\":14112:14154   */\n      sstore\n        /* \"#utility.yul\":14193:14194   */\n      0x01\n        /* \"#utility.yul\":14185:14191   */\n      dup3\n        /* \"#utility.yul\":14181:14195   */\n      add\n        /* \"#utility.yul\":14171:14195   */\n      swap2\n      pop\n        /* \"#utility.yul\":14240:14242   */\n      0x20\n        /* \"#utility.yul\":14229:14238   */\n      dup6\n        /* \"#utility.yul\":14225:14243   */\n      add\n        /* \"#utility.yul\":14212:14243   */\n      swap5\n      pop\n        /* \"#utility.yul\":14086:14090   */\n      0x20\n        /* \"#utility.yul\":14083:14084   */\n      dup2\n        /* \"#utility.yul\":14079:14091   */\n      add\n        /* \"#utility.yul\":14074:14091   */\n      swap1\n      pop\n        /* \"#utility.yul\":14049:14257   */\n      jump(tag_299)\n    tag_301:\n        /* \"#utility.yul\":14285:14291   */\n      dup7\n        /* \"#utility.yul\":14276:14283   */\n      dup4\n        /* \"#utility.yul\":14273:14292   */\n      lt\n        /* \"#utility.yul\":14270:14449   */\n      iszero\n      tag_302\n      jumpi\n        /* \"#utility.yul\":14343:14352   */\n      dup5\n        /* \"#utility.yul\":14338:14341   */\n      dup10\n        /* \"#utility.yul\":14334:14353   */\n      add\n        /* \"#utility.yul\":14328:14354   */\n      mload\n        /* \"#utility.yul\":14386:14434   */\n      tag_303\n        /* \"#utility.yul\":14428:14432   */\n      0x1f\n        /* \"#utility.yul\":14420:14426   */\n      dup10\n        /* \"#utility.yul\":14416:14433   */\n      and\n        /* \"#utility.yul\":14405:14414   */\n      dup3\n        /* \"#utility.yul\":14386:14434   */\n      tag_122\n      jump\t// in\n    tag_303:\n        /* \"#utility.yul\":14378:14384   */\n      dup4\n        /* \"#utility.yul\":14371:14435   */\n      sstore\n        /* \"#utility.yul\":14293:14449   */\n      pop\n        /* \"#utility.yul\":14270:14449   */\n    tag_302:\n        /* \"#utility.yul\":14495:14496   */\n      0x01\n        /* \"#utility.yul\":14491:14492   */\n      0x02\n        /* \"#utility.yul\":14483:14489   */\n      dup9\n        /* \"#utility.yul\":14479:14493   */\n      mul\n        /* \"#utility.yul\":14475:14497   */\n      add\n        /* \"#utility.yul\":14469:14473   */\n      dup9\n        /* \"#utility.yul\":14462:14498   */\n      sstore\n        /* \"#utility.yul\":13897:14508   */\n      pop\n      pop\n      pop\n        /* \"#utility.yul\":13860:14747   */\n    tag_294:\n      pop\n        /* \"#utility.yul\":13450:14753   */\n      pop\n      pop\n      pop\n        /* \"#utility.yul\":13358:14753   */\n      pop\n      pop\n      jump\t// out\n        /* \"#utility.yul\":14759:14939   */\n    tag_124:\n        /* \"#utility.yul\":14807:14884   */\n      0x4e487b7100000000000000000000000000000000000000000000000000000000\n        /* \"#utility.yul\":14804:14805   */\n      0x00\n        /* \"#utility.yul\":14797:14885   */\n      mstore\n        /* \"#utility.yul\":14904:14908   */\n      0x11\n        /* \"#utility.yul\":14901:14902   */\n      0x04\n        /* \"#utility.yul\":14894:14909   */\n      mstore\n        /* \"#utility.yul\":14928:14932   */\n      0x24\n        /* \"#utility.yul\":14925:14926   */\n      0x00\n        /* \"#utility.yul\":14918:14933   */\n      revert\n        /* \"#utility.yul\":14945:15136   */\n    tag_72:\n        /* \"#utility.yul\":14985:14988   */\n      0x00\n        /* \"#utility.yul\":15004:15024   */\n      tag_306\n        /* \"#utility.yul\":15022:15023   */\n      dup3\n        /* \"#utility.yul\":15004:15024   */\n      tag_73\n      jump\t// in\n    tag_306:\n        /* \"#utility.yul\":14999:15024   */\n      swap2\n      pop\n        /* \"#utility.yul\":15038:15058   */\n      tag_307\n        /* \"#utility.yul\":15056:15057   */\n      dup4\n        /* \"#utility.yul\":15038:15058   */\n      tag_73\n      jump\t// in\n    tag_307:\n        /* \"#utility.yul\":15033:15058   */\n      swap3\n      pop\n        /* \"#utility.yul\":15081:15082   */\n      dup3\n        /* \"#utility.yul\":15078:15079   */\n      dup3\n        /* \"#utility.yul\":15074:15083   */\n      add\n        /* \"#utility.yul\":15067:15083   */\n      swap1\n      pop\n        /* \"#utility.yul\":15102:15105   */\n      dup1\n        /* \"#utility.yul\":15099:15100   */\n      dup3\n        /* \"#utility.yul\":15096:15106   */\n      gt\n        /* \"#utility.yul\":15093:15129   */\n      iszero\n      tag_308\n      jumpi\n        /* \"#utility.yul\":15109:15127   */\n      tag_309\n      tag_124\n      jump\t// in\n    tag_309:\n        /* \"#utility.yul\":15093:15129   */\n    tag_308:\n        /* \"#utility.yul\":14945:15136   */\n      swap3\n      swap2\n      pop\n      pop\n      jump\t// out\n\n    auxdata: 0xa2646970667358221220710515f1f6669a2d83b67e924da10bf168bd114cd6e62c5bf27c8aad03f5ba1164736f6c637823302e382e31362d63692e323032322e372e31342b636f6d6d69742e38303030383865330054\n}\n",
				"bytecode": {
					"linkReferences": {},
					"object": "6080604052600060025534801561001557600080fd5b5060405162000ef538038062000ef583398181016040528101906100399190610135565b33600160006101000a81548173ffffffffffffffffffffffffffffffffffffffff021916908373ffffffffffffffffffffffffffffffffffffffff160217905550806000806101000a81548173ffffffffffffffffffffffffffffffffffffffff021916908373ffffffffffffffffffffffffffffffffffffffff16021790555050610162565b600080fd5b600073ffffffffffffffffffffffffffffffffffffffff82169050919050565b60006100f0826100c5565b9050919050565b6000610102826100e5565b9050919050565b610112816100f7565b811461011d57600080fd5b50565b60008151905061012f81610109565b92915050565b60006020828403121561014b5761014a6100c0565b5b600061015984828501610120565b91505092915050565b610d8380620001726000396000f3fe608060405234801561001057600080fd5b506004361061007d5760003560e01c80639d76ea581161005b5780639d76ea58146100ee578063bf162d671461010c578063f8b2cb4f1461013d578063fb37e8831461016d5761007d565b80630af2c6ca146100825780634273601c146100a057806363d9b4b1146100be575b600080fd5b61008a610189565b60405161009791906104bd565b60405180910390f35b6100a861018f565b6040516100b59190610519565b60405180910390f35b6100d860048036038101906100d391906105a0565b6101b5565b6040516100e591906105fb565b60405180910390f35b6100f66102ba565b6040516101039190610675565b60405180910390f35b61012660048036038101906101219190610690565b6102de565b604051610134929190610756565b60405180910390f35b61015760048036038101906101529190610786565b61038a565b60405161016491906104bd565b60405180910390f35b610187600480360381019061018291906108e8565b61042e565b005b60025481565b600160009054906101000a900473ffffffffffffffffffffffffffffffffffffffff1681565b6000600160009054906101000a900473ffffffffffffffffffffffffffffffffffffffff1673ffffffffffffffffffffffffffffffffffffffff163373ffffffffffffffffffffffffffffffffffffffff161461021157600080fd5b60008054906101000a900473ffffffffffffffffffffffffffffffffffffffff1673ffffffffffffffffffffffffffffffffffffffff1663a9059cbb84846040518363ffffffff1660e01b815260040161026c929190610931565b6020604051808303816000875af115801561028b573d6000803e3d6000fd5b505050506040513d601f19601f820116820180604052508101906102af9190610986565b506001905092915050565b60008054906101000a900473ffffffffffffffffffffffffffffffffffffffff1681565b6003602052806000526040600020600091509050806000015490806001018054610307906109e2565b80601f0160208091040260200160405190810160405280929190818152602001828054610333906109e2565b80156103805780601f1061035557610100808354040283529160200191610380565b820191906000526020600020905b81548152906001019060200180831161036357829003601f168201915b5050505050905082565b60008060009054906101000a900473ffffffffffffffffffffffffffffffffffffffff1673ffffffffffffffffffffffffffffffffffffffff166370a08231836040518263ffffffff1660e01b81526004016103e69190610519565b602060405180830381865afa158015610403573d6000803e3d6000fd5b505050506040513d601f19601f820116820180604052508101906104279190610a28565b9050919050565b60405180604001604052806002548152602001828152506003600060025481526020019081526020016000206000820151816000015560208201518160010190816104799190610bf7565b50905050610485610488565b50565b60016002600082825461049b9190610cf8565b92505081905550565b6000819050919050565b6104b7816104a4565b82525050565b60006020820190506104d260008301846104ae565b92915050565b600073ffffffffffffffffffffffffffffffffffffffff82169050919050565b6000610503826104d8565b9050919050565b610513816104f8565b82525050565b600060208201905061052e600083018461050a565b92915050565b6000604051905090565b600080fd5b600080fd5b610551816104f8565b811461055c57600080fd5b50565b60008135905061056e81610548565b92915050565b61057d816104a4565b811461058857600080fd5b50565b60008135905061059a81610574565b92915050565b600080604083850312156105b7576105b661053e565b5b60006105c58582860161055f565b92505060206105d68582860161058b565b9150509250929050565b60008115159050919050565b6105f5816105e0565b82525050565b600060208201905061061060008301846105ec565b92915050565b6000819050919050565b600061063b610636610631846104d8565b610616565b6104d8565b9050919050565b600061064d82610620565b9050919050565b600061065f82610642565b9050919050565b61066f81610654565b82525050565b600060208201905061068a6000830184610666565b92915050565b6000602082840312156106a6576106a561053e565b5b60006106b48482850161058b565b91505092915050565b600081519050919050565b600082825260208201905092915050565b60005b838110156106f75780820151818401526020810190506106dc565b83811115610706576000848401525b50505050565b6000601f19601f8301169050919050565b6000610728826106bd565b61073281856106c8565b93506107428185602086016106d9565b61074b8161070c565b840191505092915050565b600060408201905061076b60008301856104ae565b818103602083015261077d818461071d565b90509392505050565b60006020828403121561079c5761079b61053e565b5b60006107aa8482850161055f565b91505092915050565b600080fd5b600080fd5b7f4e487b7100000000000000000000000000000000000000000000000000000000600052604160045260246000fd5b6107f58261070c565b810181811067ffffffffffffffff82111715610814576108136107bd565b5b80604052505050565b6000610827610534565b905061083382826107ec565b919050565b600067ffffffffffffffff821115610853576108526107bd565b5b61085c8261070c565b9050602081019050919050565b82818337600083830152505050565b600061088b61088684610838565b61081d565b9050828152602081018484840111156108a7576108a66107b8565b5b6108b2848285610869565b509392505050565b600082601f8301126108cf576108ce6107b3565b5b81356108df848260208601610878565b91505092915050565b6000602082840312156108fe576108fd61053e565b5b600082013567ffffffffffffffff81111561091c5761091b610543565b5b610928848285016108ba565b91505092915050565b6000604082019050610946600083018561050a565b61095360208301846104ae565b9392505050565b610963816105e0565b811461096e57600080fd5b50565b6000815190506109808161095a565b92915050565b60006020828403121561099c5761099b61053e565b5b60006109aa84828501610971565b91505092915050565b7f4e487b7100000000000000000000000000000000000000000000000000000000600052602260045260246000fd5b600060028204905060018216806109fa57607f821691505b602082108103610a0d57610a0c6109b3565b5b50919050565b600081519050610a2281610574565b92915050565b600060208284031215610a3e57610a3d61053e565b5b6000610a4c84828501610a13565b91505092915050565b60008190508160005260206000209050919050565b60006020601f8301049050919050565b600082821b905092915050565b600060088302610ab77fffffffffffffffffffffffffffffffffffffffffffffffffffffffffffffffff82610a7a565b610ac18683610a7a565b95508019841693508086168417925050509392505050565b6000610af4610aef610aea846104a4565b610616565b6104a4565b9050919050565b6000819050919050565b610b0e83610ad9565b610b22610b1a82610afb565b848454610a87565b825550505050565b600090565b610b37610b2a565b610b42818484610b05565b505050565b5b81811015610b6657610b5b600082610b2f565b600181019050610b48565b5050565b601f821115610bab57610b7c81610a55565b610b8584610a6a565b81016020851015610b94578190505b610ba8610ba085610a6a565b830182610b47565b50505b505050565b600082821c905092915050565b6000610bce60001984600802610bb0565b1980831691505092915050565b6000610be78383610bbd565b9150826002028217905092915050565b610c00826106bd565b67ffffffffffffffff811115610c1957610c186107bd565b5b610c2382546109e2565b610c2e828285610b6a565b600060209050601f831160018114610c615760008415610c4f578287015190505b610c598582610bdb565b865550610cc1565b601f198416610c6f86610a55565b60005b82811015610c9757848901518255600182019150602085019450602081019050610c72565b86831015610cb45784890151610cb0601f891682610bbd565b8355505b6001600288020188555050505b505050505050565b7f4e487b7100000000000000000000000000000000000000000000000000000000600052601160045260246000fd5b6000610d03826104a4565b9150610d0e836104a4565b9250828201905080821115610d2657610d25610cc9565b5b9291505056fea2646970667358221220710515f1f6669a2d83b67e924da10bf168bd114cd6e62c5bf27c8aad03f5ba1164736f6c637823302e382e31362d63692e323032322e372e31342b636f6d6d69742e38303030383865330054",
					"opcodes": "PUSH1 0x80 PUSH1 0x40 MSTORE PUSH1 0x0 PUSH1 0x2 SSTORE CALLVALUE DUP1 ISZERO PUSH2 0x15 JUMPI PUSH1 0x0 DUP1 REVERT JUMPDEST POP PUSH1 0x40 MLOAD PUSH3 0xEF5 CODESIZE SUB DUP1 PUSH3 0xEF5 DUP4 CODECOPY DUP2 DUP2 ADD PUSH1 0x40 MSTORE DUP2 ADD SWAP1 PUSH2 0x39 SWAP2 SWAP1 PUSH2 0x135 JUMP JUMPDEST CALLER PUSH1 0x1 PUSH1 0x0 PUSH2 0x100 EXP DUP2 SLOAD DUP2 PUSH20 0xFFFFFFFFFFFFFFFFFFFFFFFFFFFFFFFFFFFFFFFF MUL NOT AND SWAP1 DUP4 PUSH20 0xFFFFFFFFFFFFFFFFFFFFFFFFFFFFFFFFFFFFFFFF AND MUL OR SWAP1 SSTORE POP DUP1 PUSH1 0x0 DUP1 PUSH2 0x100 EXP DUP2 SLOAD DUP2 PUSH20 0xFFFFFFFFFFFFFFFFFFFFFFFFFFFFFFFFFFFFFFFF MUL NOT AND SWAP1 DUP4 PUSH20 0xFFFFFFFFFFFFFFFFFFFFFFFFFFFFFFFFFFFFFFFF AND MUL OR SWAP1 SSTORE POP POP PUSH2 0x162 JUMP JUMPDEST PUSH1 0x0 DUP1 REVERT JUMPDEST PUSH1 0x0 PUSH20 0xFFFFFFFFFFFFFFFFFFFFFFFFFFFFFFFFFFFFFFFF DUP3 AND SWAP1 POP SWAP2 SWAP1 POP JUMP JUMPDEST PUSH1 0x0 PUSH2 0xF0 DUP3 PUSH2 0xC5 JUMP JUMPDEST SWAP1 POP SWAP2 SWAP1 POP JUMP JUMPDEST PUSH1 0x0 PUSH2 0x102 DUP3 PUSH2 0xE5 JUMP JUMPDEST SWAP1 POP SWAP2 SWAP1 POP JUMP JUMPDEST PUSH2 0x112 DUP2 PUSH2 0xF7 JUMP JUMPDEST DUP2 EQ PUSH2 0x11D JUMPI PUSH1 0x0 DUP1 REVERT JUMPDEST POP JUMP JUMPDEST PUSH1 0x0 DUP2 MLOAD SWAP1 POP PUSH2 0x12F DUP2 PUSH2 0x109 JUMP JUMPDEST SWAP3 SWAP2 POP POP JUMP JUMPDEST PUSH1 0x0 PUSH1 0x20 DUP3 DUP5 SUB SLT ISZERO PUSH2 0x14B JUMPI PUSH2 0x14A PUSH2 0xC0 JUMP JUMPDEST JUMPDEST PUSH1 0x0 PUSH2 0x159 DUP5 DUP3 DUP6 ADD PUSH2 0x120 JUMP JUMPDEST SWAP2 POP POP SWAP3 SWAP2 POP POP JUMP JUMPDEST PUSH2 0xD83 DUP1 PUSH3 0x172 PUSH1 0x0 CODECOPY PUSH1 0x0 RETURN INVALID PUSH1 0x80 PUSH1 0x40 MSTORE CALLVALUE DUP1 ISZERO PUSH2 0x10 JUMPI PUSH1 0x0 DUP1 REVERT JUMPDEST POP PUSH1 0x4 CALLDATASIZE LT PUSH2 0x7D JUMPI PUSH1 0x0 CALLDATALOAD PUSH1 0xE0 SHR DUP1 PUSH4 0x9D76EA58 GT PUSH2 0x5B JUMPI DUP1 PUSH4 0x9D76EA58 EQ PUSH2 0xEE JUMPI DUP1 PUSH4 0xBF162D67 EQ PUSH2 0x10C JUMPI DUP1 PUSH4 0xF8B2CB4F EQ PUSH2 0x13D JUMPI DUP1 PUSH4 0xFB37E883 EQ PUSH2 0x16D JUMPI PUSH2 0x7D JUMP JUMPDEST DUP1 PUSH4 0xAF2C6CA EQ PUSH2 0x82 JUMPI DUP1 PUSH4 0x4273601C EQ PUSH2 0xA0 JUMPI DUP1 PUSH4 0x63D9B4B1 EQ PUSH2 0xBE JUMPI JUMPDEST PUSH1 0x0 DUP1 REVERT JUMPDEST PUSH2 0x8A PUSH2 0x189 JUMP JUMPDEST PUSH1 0x40 MLOAD PUSH2 0x97 SWAP2 SWAP1 PUSH2 0x4BD JUMP JUMPDEST PUSH1 0x40 MLOAD DUP1 SWAP2 SUB SWAP1 RETURN JUMPDEST PUSH2 0xA8 PUSH2 0x18F JUMP JUMPDEST PUSH1 0x40 MLOAD PUSH2 0xB5 SWAP2 SWAP1 PUSH2 0x519 JUMP JUMPDEST PUSH1 0x40 MLOAD DUP1 SWAP2 SUB SWAP1 RETURN JUMPDEST PUSH2 0xD8 PUSH1 0x4 DUP1 CALLDATASIZE SUB DUP2 ADD SWAP1 PUSH2 0xD3 SWAP2 SWAP1 PUSH2 0x5A0 JUMP JUMPDEST PUSH2 0x1B5 JUMP JUMPDEST PUSH1 0x40 MLOAD PUSH2 0xE5 SWAP2 SWAP1 PUSH2 0x5FB JUMP JUMPDEST PUSH1 0x40 MLOAD DUP1 SWAP2 SUB SWAP1 RETURN JUMPDEST PUSH2 0xF6 PUSH2 0x2BA JUMP JUMPDEST PUSH1 0x40 MLOAD PUSH2 0x103 SWAP2 SWAP1 PUSH2 0x675 JUMP JUMPDEST PUSH1 0x40 MLOAD DUP1 SWAP2 SUB SWAP1 RETURN JUMPDEST PUSH2 0x126 PUSH1 0x4 DUP1 CALLDATASIZE SUB DUP2 ADD SWAP1 PUSH2 0x121 SWAP2 SWAP1 PUSH2 0x690 JUMP JUMPDEST PUSH2 0x2DE JUMP JUMPDEST PUSH1 0x40 MLOAD PUSH2 0x134 SWAP3 SWAP2 SWAP1 PUSH2 0x756 JUMP JUMPDEST PUSH1 0x40 MLOAD DUP1 SWAP2 SUB SWAP1 RETURN JUMPDEST PUSH2 0x157 PUSH1 0x4 DUP1 CALLDATASIZE SUB DUP2 ADD SWAP1 PUSH2 0x152 SWAP2 SWAP1 PUSH2 0x786 JUMP JUMPDEST PUSH2 0x38A JUMP JUMPDEST PUSH1 0x40 MLOAD PUSH2 0x164 SWAP2 SWAP1 PUSH2 0x4BD JUMP JUMPDEST PUSH1 0x40 MLOAD DUP1 SWAP2 SUB SWAP1 RETURN JUMPDEST PUSH2 0x187 PUSH1 0x4 DUP1 CALLDATASIZE SUB DUP2 ADD SWAP1 PUSH2 0x182 SWAP2 SWAP1 PUSH2 0x8E8 JUMP JUMPDEST PUSH2 0x42E JUMP JUMPDEST STOP JUMPDEST PUSH1 0x2 SLOAD DUP2 JUMP JUMPDEST PUSH1 0x1 PUSH1 0x0 SWAP1 SLOAD SWAP1 PUSH2 0x100 EXP SWAP1 DIV PUSH20 0xFFFFFFFFFFFFFFFFFFFFFFFFFFFFFFFFFFFFFFFF AND DUP2 JUMP JUMPDEST PUSH1 0x0 PUSH1 0x1 PUSH1 0x0 SWAP1 SLOAD SWAP1 PUSH2 0x100 EXP SWAP1 DIV PUSH20 0xFFFFFFFFFFFFFFFFFFFFFFFFFFFFFFFFFFFFFFFF AND PUSH20 0xFFFFFFFFFFFFFFFFFFFFFFFFFFFFFFFFFFFFFFFF AND CALLER PUSH20 0xFFFFFFFFFFFFFFFFFFFFFFFFFFFFFFFFFFFFFFFF AND EQ PUSH2 0x211 JUMPI PUSH1 0x0 DUP1 REVERT JUMPDEST PUSH1 0x0 DUP1 SLOAD SWAP1 PUSH2 0x100 EXP SWAP1 DIV PUSH20 0xFFFFFFFFFFFFFFFFFFFFFFFFFFFFFFFFFFFFFFFF AND PUSH20 0xFFFFFFFFFFFFFFFFFFFFFFFFFFFFFFFFFFFFFFFF AND PUSH4 0xA9059CBB DUP5 DUP5 PUSH1 0x40 MLOAD DUP4 PUSH4 0xFFFFFFFF AND PUSH1 0xE0 SHL DUP2 MSTORE PUSH1 0x4 ADD PUSH2 0x26C SWAP3 SWAP2 SWAP1 PUSH2 0x931 JUMP JUMPDEST PUSH1 0x20 PUSH1 0x40 MLOAD DUP1 DUP4 SUB DUP2 PUSH1 0x0 DUP8 GAS CALL ISZERO DUP1 ISZERO PUSH2 0x28B JUMPI RETURNDATASIZE PUSH1 0x0 DUP1 RETURNDATACOPY RETURNDATASIZE PUSH1 0x0 REVERT JUMPDEST POP POP POP POP PUSH1 0x40 MLOAD RETURNDATASIZE PUSH1 0x1F NOT PUSH1 0x1F DUP3 ADD AND DUP3 ADD DUP1 PUSH1 0x40 MSTORE POP DUP2 ADD SWAP1 PUSH2 0x2AF SWAP2 SWAP1 PUSH2 0x986 JUMP JUMPDEST POP PUSH1 0x1 SWAP1 POP SWAP3 SWAP2 POP POP JUMP JUMPDEST PUSH1 0x0 DUP1 SLOAD SWAP1 PUSH2 0x100 EXP SWAP1 DIV PUSH20 0xFFFFFFFFFFFFFFFFFFFFFFFFFFFFFFFFFFFFFFFF AND DUP2 JUMP JUMPDEST PUSH1 0x3 PUSH1 0x20 MSTORE DUP1 PUSH1 0x0 MSTORE PUSH1 0x40 PUSH1 0x0 KECCAK256 PUSH1 0x0 SWAP2 POP SWAP1 POP DUP1 PUSH1 0x0 ADD SLOAD SWAP1 DUP1 PUSH1 0x1 ADD DUP1 SLOAD PUSH2 0x307 SWAP1 PUSH2 0x9E2 JUMP JUMPDEST DUP1 PUSH1 0x1F ADD PUSH1 0x20 DUP1 SWAP2 DIV MUL PUSH1 0x20 ADD PUSH1 0x40 MLOAD SWAP1 DUP2 ADD PUSH1 0x40 MSTORE DUP1 SWAP3 SWAP2 SWAP1 DUP2 DUP2 MSTORE PUSH1 0x20 ADD DUP3 DUP1 SLOAD PUSH2 0x333 SWAP1 PUSH2 0x9E2 JUMP JUMPDEST DUP1 ISZERO PUSH2 0x380 JUMPI DUP1 PUSH1 0x1F LT PUSH2 0x355 JUMPI PUSH2 0x100 DUP1 DUP4 SLOAD DIV MUL DUP4 MSTORE SWAP2 PUSH1 0x20 ADD SWAP2 PUSH2 0x380 JUMP JUMPDEST DUP3 ADD SWAP2 SWAP1 PUSH1 0x0 MSTORE PUSH1 0x20 PUSH1 0x0 KECCAK256 SWAP1 JUMPDEST DUP2 SLOAD DUP2 MSTORE SWAP1 PUSH1 0x1 ADD SWAP1 PUSH1 0x20 ADD DUP1 DUP4 GT PUSH2 0x363 JUMPI DUP3 SWAP1 SUB PUSH1 0x1F AND DUP3 ADD SWAP2 JUMPDEST POP POP POP POP POP SWAP1 POP DUP3 JUMP JUMPDEST PUSH1 0x0 DUP1 PUSH1 0x0 SWAP1 SLOAD SWAP1 PUSH2 0x100 EXP SWAP1 DIV PUSH20 0xFFFFFFFFFFFFFFFFFFFFFFFFFFFFFFFFFFFFFFFF AND PUSH20 0xFFFFFFFFFFFFFFFFFFFFFFFFFFFFFFFFFFFFFFFF AND PUSH4 0x70A08231 DUP4 PUSH1 0x40 MLOAD DUP3 PUSH4 0xFFFFFFFF AND PUSH1 0xE0 SHL DUP2 MSTORE PUSH1 0x4 ADD PUSH2 0x3E6 SWAP2 SWAP1 PUSH2 0x519 JUMP JUMPDEST PUSH1 0x20 PUSH1 0x40 MLOAD DUP1 DUP4 SUB DUP2 DUP7 GAS STATICCALL ISZERO DUP1 ISZERO PUSH2 0x403 JUMPI RETURNDATASIZE PUSH1 0x0 DUP1 RETURNDATACOPY RETURNDATASIZE PUSH1 0x0 REVERT JUMPDEST POP POP POP POP PUSH1 0x40 MLOAD RETURNDATASIZE PUSH1 0x1F NOT PUSH1 0x1F DUP3 ADD AND DUP3 ADD DUP1 PUSH1 0x40 MSTORE POP DUP2 ADD SWAP1 PUSH2 0x427 SWAP2 SWAP1 PUSH2 0xA28 JUMP JUMPDEST SWAP1 POP SWAP2 SWAP1 POP JUMP JUMPDEST PUSH1 0x40 MLOAD DUP1 PUSH1 0x40 ADD PUSH1 0x40 MSTORE DUP1 PUSH1 0x2 SLOAD DUP2 MSTORE PUSH1 0x20 ADD DUP3 DUP2 MSTORE POP PUSH1 0x3 PUSH1 0x0 PUSH1 0x2 SLOAD DUP2 MSTORE PUSH1 0x20 ADD SWAP1 DUP2 MSTORE PUSH1 0x20 ADD PUSH1 0x0 KECCAK256 PUSH1 0x0 DUP3 ADD MLOAD DUP2 PUSH1 0x0 ADD SSTORE PUSH1 0x20 DUP3 ADD MLOAD DUP2 PUSH1 0x1 ADD SWAP1 DUP2 PUSH2 0x479 SWAP2 SWAP1 PUSH2 0xBF7 JUMP JUMPDEST POP SWAP1 POP POP PUSH2 0x485 PUSH2 0x488 JUMP JUMPDEST POP JUMP JUMPDEST PUSH1 0x1 PUSH1 0x2 PUSH1 0x0 DUP3 DUP3 SLOAD PUSH2 0x49B SWAP2 SWAP1 PUSH2 0xCF8 JUMP JUMPDEST SWAP3 POP POP DUP2 SWAP1 SSTORE POP JUMP JUMPDEST PUSH1 0x0 DUP2 SWAP1 POP SWAP2 SWAP1 POP JUMP JUMPDEST PUSH2 0x4B7 DUP2 PUSH2 0x4A4 JUMP JUMPDEST DUP3 MSTORE POP POP JUMP JUMPDEST PUSH1 0x0 PUSH1 0x20 DUP3 ADD SWAP1 POP PUSH2 0x4D2 PUSH1 0x0 DUP4 ADD DUP5 PUSH2 0x4AE JUMP JUMPDEST SWAP3 SWAP2 POP POP JUMP JUMPDEST PUSH1 0x0 PUSH20 0xFFFFFFFFFFFFFFFFFFFFFFFFFFFFFFFFFFFFFFFF DUP3 AND SWAP1 POP SWAP2 SWAP1 POP JUMP JUMPDEST PUSH1 0x0 PUSH2 0x503 DUP3 PUSH2 0x4D8 JUMP JUMPDEST SWAP1 POP SWAP2 SWAP1 POP JUMP JUMPDEST PUSH2 0x513 DUP2 PUSH2 0x4F8 JUMP JUMPDEST DUP3 MSTORE POP POP JUMP JUMPDEST PUSH1 0x0 PUSH1 0x20 DUP3 ADD SWAP1 POP PUSH2 0x52E PUSH1 0x0 DUP4 ADD DUP5 PUSH2 0x50A JUMP JUMPDEST SWAP3 SWAP2 POP POP JUMP JUMPDEST PUSH1 0x0 PUSH1 0x40 MLOAD SWAP1 POP SWAP1 JUMP JUMPDEST PUSH1 0x0 DUP1 REVERT JUMPDEST PUSH1 0x0 DUP1 REVERT JUMPDEST PUSH2 0x551 DUP2 PUSH2 0x4F8 JUMP JUMPDEST DUP2 EQ PUSH2 0x55C JUMPI PUSH1 0x0 DUP1 REVERT JUMPDEST POP JUMP JUMPDEST PUSH1 0x0 DUP2 CALLDATALOAD SWAP1 POP PUSH2 0x56E DUP2 PUSH2 0x548 JUMP JUMPDEST SWAP3 SWAP2 POP POP JUMP JUMPDEST PUSH2 0x57D DUP2 PUSH2 0x4A4 JUMP JUMPDEST DUP2 EQ PUSH2 0x588 JUMPI PUSH1 0x0 DUP1 REVERT JUMPDEST POP JUMP JUMPDEST PUSH1 0x0 DUP2 CALLDATALOAD SWAP1 POP PUSH2 0x59A DUP2 PUSH2 0x574 JUMP JUMPDEST SWAP3 SWAP2 POP POP JUMP JUMPDEST PUSH1 0x0 DUP1 PUSH1 0x40 DUP4 DUP6 SUB SLT ISZERO PUSH2 0x5B7 JUMPI PUSH2 0x5B6 PUSH2 0x53E JUMP JUMPDEST JUMPDEST PUSH1 0x0 PUSH2 0x5C5 DUP6 DUP3 DUP7 ADD PUSH2 0x55F JUMP JUMPDEST SWAP3 POP POP PUSH1 0x20 PUSH2 0x5D6 DUP6 DUP3 DUP7 ADD PUSH2 0x58B JUMP JUMPDEST SWAP2 POP POP SWAP3 POP SWAP3 SWAP1 POP JUMP JUMPDEST PUSH1 0x0 DUP2 ISZERO ISZERO SWAP1 POP SWAP2 SWAP1 POP JUMP JUMPDEST PUSH2 0x5F5 DUP2 PUSH2 0x5E0 JUMP JUMPDEST DUP3 MSTORE POP POP JUMP JUMPDEST PUSH1 0x0 PUSH1 0x20 DUP3 ADD SWAP1 POP PUSH2 0x610 PUSH1 0x0 DUP4 ADD DUP5 PUSH2 0x5EC JUMP JUMPDEST SWAP3 SWAP2 POP POP JUMP JUMPDEST PUSH1 0x0 DUP2 SWAP1 POP SWAP2 SWAP1 POP JUMP JUMPDEST PUSH1 0x0 PUSH2 0x63B PUSH2 0x636 PUSH2 0x631 DUP5 PUSH2 0x4D8 JUMP JUMPDEST PUSH2 0x616 JUMP JUMPDEST PUSH2 0x4D8 JUMP JUMPDEST SWAP1 POP SWAP2 SWAP1 POP JUMP JUMPDEST PUSH1 0x0 PUSH2 0x64D DUP3 PUSH2 0x620 JUMP JUMPDEST SWAP1 POP SWAP2 SWAP1 POP JUMP JUMPDEST PUSH1 0x0 PUSH2 0x65F DUP3 PUSH2 0x642 JUMP JUMPDEST SWAP1 POP SWAP2 SWAP1 POP JUMP JUMPDEST PUSH2 0x66F DUP2 PUSH2 0x654 JUMP JUMPDEST DUP3 MSTORE POP POP JUMP JUMPDEST PUSH1 0x0 PUSH1 0x20 DUP3 ADD SWAP1 POP PUSH2 0x68A PUSH1 0x0 DUP4 ADD DUP5 PUSH2 0x666 JUMP JUMPDEST SWAP3 SWAP2 POP POP JUMP JUMPDEST PUSH1 0x0 PUSH1 0x20 DUP3 DUP5 SUB SLT ISZERO PUSH2 0x6A6 JUMPI PUSH2 0x6A5 PUSH2 0x53E JUMP JUMPDEST JUMPDEST PUSH1 0x0 PUSH2 0x6B4 DUP5 DUP3 DUP6 ADD PUSH2 0x58B JUMP JUMPDEST SWAP2 POP POP SWAP3 SWAP2 POP POP JUMP JUMPDEST PUSH1 0x0 DUP2 MLOAD SWAP1 POP SWAP2 SWAP1 POP JUMP JUMPDEST PUSH1 0x0 DUP3 DUP3 MSTORE PUSH1 0x20 DUP3 ADD SWAP1 POP SWAP3 SWAP2 POP POP JUMP JUMPDEST PUSH1 0x0 JUMPDEST DUP4 DUP2 LT ISZERO PUSH2 0x6F7 JUMPI DUP1 DUP3 ADD MLOAD DUP2 DUP5 ADD MSTORE PUSH1 0x20 DUP2 ADD SWAP1 POP PUSH2 0x6DC JUMP JUMPDEST DUP4 DUP2 GT ISZERO PUSH2 0x706 JUMPI PUSH1 0x0 DUP5 DUP5 ADD MSTORE JUMPDEST POP POP POP POP JUMP JUMPDEST PUSH1 0x0 PUSH1 0x1F NOT PUSH1 0x1F DUP4 ADD AND SWAP1 POP SWAP2 SWAP1 POP JUMP JUMPDEST PUSH1 0x0 PUSH2 0x728 DUP3 PUSH2 0x6BD JUMP JUMPDEST PUSH2 0x732 DUP2 DUP6 PUSH2 0x6C8 JUMP JUMPDEST SWAP4 POP PUSH2 0x742 DUP2 DUP6 PUSH1 0x20 DUP7 ADD PUSH2 0x6D9 JUMP JUMPDEST PUSH2 0x74B DUP2 PUSH2 0x70C JUMP JUMPDEST DUP5 ADD SWAP2 POP POP SWAP3 SWAP2 POP POP JUMP JUMPDEST PUSH1 0x0 PUSH1 0x40 DUP3 ADD SWAP1 POP PUSH2 0x76B PUSH1 0x0 DUP4 ADD DUP6 PUSH2 0x4AE JUMP JUMPDEST DUP2 DUP2 SUB PUSH1 0x20 DUP4 ADD MSTORE PUSH2 0x77D DUP2 DUP5 PUSH2 0x71D JUMP JUMPDEST SWAP1 POP SWAP4 SWAP3 POP POP POP JUMP JUMPDEST PUSH1 0x0 PUSH1 0x20 DUP3 DUP5 SUB SLT ISZERO PUSH2 0x79C JUMPI PUSH2 0x79B PUSH2 0x53E JUMP JUMPDEST JUMPDEST PUSH1 0x0 PUSH2 0x7AA DUP5 DUP3 DUP6 ADD PUSH2 0x55F JUMP JUMPDEST SWAP2 POP POP SWAP3 SWAP2 POP POP JUMP JUMPDEST PUSH1 0x0 DUP1 REVERT JUMPDEST PUSH1 0x0 DUP1 REVERT JUMPDEST PUSH32 0x4E487B7100000000000000000000000000000000000000000000000000000000 PUSH1 0x0 MSTORE PUSH1 0x41 PUSH1 0x4 MSTORE PUSH1 0x24 PUSH1 0x0 REVERT JUMPDEST PUSH2 0x7F5 DUP3 PUSH2 0x70C JUMP JUMPDEST DUP2 ADD DUP2 DUP2 LT PUSH8 0xFFFFFFFFFFFFFFFF DUP3 GT OR ISZERO PUSH2 0x814 JUMPI PUSH2 0x813 PUSH2 0x7BD JUMP JUMPDEST JUMPDEST DUP1 PUSH1 0x40 MSTORE POP POP POP JUMP JUMPDEST PUSH1 0x0 PUSH2 0x827 PUSH2 0x534 JUMP JUMPDEST SWAP1 POP PUSH2 0x833 DUP3 DUP3 PUSH2 0x7EC JUMP JUMPDEST SWAP2 SWAP1 POP JUMP JUMPDEST PUSH1 0x0 PUSH8 0xFFFFFFFFFFFFFFFF DUP3 GT ISZERO PUSH2 0x853 JUMPI PUSH2 0x852 PUSH2 0x7BD JUMP JUMPDEST JUMPDEST PUSH2 0x85C DUP3 PUSH2 0x70C JUMP JUMPDEST SWAP1 POP PUSH1 0x20 DUP2 ADD SWAP1 POP SWAP2 SWAP1 POP JUMP JUMPDEST DUP3 DUP2 DUP4 CALLDATACOPY PUSH1 0x0 DUP4 DUP4 ADD MSTORE POP POP POP JUMP JUMPDEST PUSH1 0x0 PUSH2 0x88B PUSH2 0x886 DUP5 PUSH2 0x838 JUMP JUMPDEST PUSH2 0x81D JUMP JUMPDEST SWAP1 POP DUP3 DUP2 MSTORE PUSH1 0x20 DUP2 ADD DUP5 DUP5 DUP5 ADD GT ISZERO PUSH2 0x8A7 JUMPI PUSH2 0x8A6 PUSH2 0x7B8 JUMP JUMPDEST JUMPDEST PUSH2 0x8B2 DUP5 DUP3 DUP6 PUSH2 0x869 JUMP JUMPDEST POP SWAP4 SWAP3 POP POP POP JUMP JUMPDEST PUSH1 0x0 DUP3 PUSH1 0x1F DUP4 ADD SLT PUSH2 0x8CF JUMPI PUSH2 0x8CE PUSH2 0x7B3 JUMP JUMPDEST JUMPDEST DUP2 CALLDATALOAD PUSH2 0x8DF DUP5 DUP3 PUSH1 0x20 DUP7 ADD PUSH2 0x878 JUMP JUMPDEST SWAP2 POP POP SWAP3 SWAP2 POP POP JUMP JUMPDEST PUSH1 0x0 PUSH1 0x20 DUP3 DUP5 SUB SLT ISZERO PUSH2 0x8FE JUMPI PUSH2 0x8FD PUSH2 0x53E JUMP JUMPDEST JUMPDEST PUSH1 0x0 DUP3 ADD CALLDATALOAD PUSH8 0xFFFFFFFFFFFFFFFF DUP2 GT ISZERO PUSH2 0x91C JUMPI PUSH2 0x91B PUSH2 0x543 JUMP JUMPDEST JUMPDEST PUSH2 0x928 DUP5 DUP3 DUP6 ADD PUSH2 0x8BA JUMP JUMPDEST SWAP2 POP POP SWAP3 SWAP2 POP POP JUMP JUMPDEST PUSH1 0x0 PUSH1 0x40 DUP3 ADD SWAP1 POP PUSH2 0x946 PUSH1 0x0 DUP4 ADD DUP6 PUSH2 0x50A JUMP JUMPDEST PUSH2 0x953 PUSH1 0x20 DUP4 ADD DUP5 PUSH2 0x4AE JUMP JUMPDEST SWAP4 SWAP3 POP POP POP JUMP JUMPDEST PUSH2 0x963 DUP2 PUSH2 0x5E0 JUMP JUMPDEST DUP2 EQ PUSH2 0x96E JUMPI PUSH1 0x0 DUP1 REVERT JUMPDEST POP JUMP JUMPDEST PUSH1 0x0 DUP2 MLOAD SWAP1 POP PUSH2 0x980 DUP2 PUSH2 0x95A JUMP JUMPDEST SWAP3 SWAP2 POP POP JUMP JUMPDEST PUSH1 0x0 PUSH1 0x20 DUP3 DUP5 SUB SLT ISZERO PUSH2 0x99C JUMPI PUSH2 0x99B PUSH2 0x53E JUMP JUMPDEST JUMPDEST PUSH1 0x0 PUSH2 0x9AA DUP5 DUP3 DUP6 ADD PUSH2 0x971 JUMP JUMPDEST SWAP2 POP POP SWAP3 SWAP2 POP POP JUMP JUMPDEST PUSH32 0x4E487B7100000000000000000000000000000000000000000000000000000000 PUSH1 0x0 MSTORE PUSH1 0x22 PUSH1 0x4 MSTORE PUSH1 0x24 PUSH1 0x0 REVERT JUMPDEST PUSH1 0x0 PUSH1 0x2 DUP3 DIV SWAP1 POP PUSH1 0x1 DUP3 AND DUP1 PUSH2 0x9FA JUMPI PUSH1 0x7F DUP3 AND SWAP2 POP JUMPDEST PUSH1 0x20 DUP3 LT DUP2 SUB PUSH2 0xA0D JUMPI PUSH2 0xA0C PUSH2 0x9B3 JUMP JUMPDEST JUMPDEST POP SWAP2 SWAP1 POP JUMP JUMPDEST PUSH1 0x0 DUP2 MLOAD SWAP1 POP PUSH2 0xA22 DUP2 PUSH2 0x574 JUMP JUMPDEST SWAP3 SWAP2 POP POP JUMP JUMPDEST PUSH1 0x0 PUSH1 0x20 DUP3 DUP5 SUB SLT ISZERO PUSH2 0xA3E JUMPI PUSH2 0xA3D PUSH2 0x53E JUMP JUMPDEST JUMPDEST PUSH1 0x0 PUSH2 0xA4C DUP5 DUP3 DUP6 ADD PUSH2 0xA13 JUMP JUMPDEST SWAP2 POP POP SWAP3 SWAP2 POP POP JUMP JUMPDEST PUSH1 0x0 DUP2 SWAP1 POP DUP2 PUSH1 0x0 MSTORE PUSH1 0x20 PUSH1 0x0 KECCAK256 SWAP1 POP SWAP2 SWAP1 POP JUMP JUMPDEST PUSH1 0x0 PUSH1 0x20 PUSH1 0x1F DUP4 ADD DIV SWAP1 POP SWAP2 SWAP1 POP JUMP JUMPDEST PUSH1 0x0 DUP3 DUP3 SHL SWAP1 POP SWAP3 SWAP2 POP POP JUMP JUMPDEST PUSH1 0x0 PUSH1 0x8 DUP4 MUL PUSH2 0xAB7 PUSH32 0xFFFFFFFFFFFFFFFFFFFFFFFFFFFFFFFFFFFFFFFFFFFFFFFFFFFFFFFFFFFFFFFF DUP3 PUSH2 0xA7A JUMP JUMPDEST PUSH2 0xAC1 DUP7 DUP4 PUSH2 0xA7A JUMP JUMPDEST SWAP6 POP DUP1 NOT DUP5 AND SWAP4 POP DUP1 DUP7 AND DUP5 OR SWAP3 POP POP POP SWAP4 SWAP3 POP POP POP JUMP JUMPDEST PUSH1 0x0 PUSH2 0xAF4 PUSH2 0xAEF PUSH2 0xAEA DUP5 PUSH2 0x4A4 JUMP JUMPDEST PUSH2 0x616 JUMP JUMPDEST PUSH2 0x4A4 JUMP JUMPDEST SWAP1 POP SWAP2 SWAP1 POP JUMP JUMPDEST PUSH1 0x0 DUP2 SWAP1 POP SWAP2 SWAP1 POP JUMP JUMPDEST PUSH2 0xB0E DUP4 PUSH2 0xAD9 JUMP JUMPDEST PUSH2 0xB22 PUSH2 0xB1A DUP3 PUSH2 0xAFB JUMP JUMPDEST DUP5 DUP5 SLOAD PUSH2 0xA87 JUMP JUMPDEST DUP3 SSTORE POP POP POP POP JUMP JUMPDEST PUSH1 0x0 SWAP1 JUMP JUMPDEST PUSH2 0xB37 PUSH2 0xB2A JUMP JUMPDEST PUSH2 0xB42 DUP2 DUP5 DUP5 PUSH2 0xB05 JUMP JUMPDEST POP POP POP JUMP JUMPDEST JUMPDEST DUP2 DUP2 LT ISZERO PUSH2 0xB66 JUMPI PUSH2 0xB5B PUSH1 0x0 DUP3 PUSH2 0xB2F JUMP JUMPDEST PUSH1 0x1 DUP2 ADD SWAP1 POP PUSH2 0xB48 JUMP JUMPDEST POP POP JUMP JUMPDEST PUSH1 0x1F DUP3 GT ISZERO PUSH2 0xBAB JUMPI PUSH2 0xB7C DUP2 PUSH2 0xA55 JUMP JUMPDEST PUSH2 0xB85 DUP5 PUSH2 0xA6A JUMP JUMPDEST DUP2 ADD PUSH1 0x20 DUP6 LT ISZERO PUSH2 0xB94 JUMPI DUP2 SWAP1 POP JUMPDEST PUSH2 0xBA8 PUSH2 0xBA0 DUP6 PUSH2 0xA6A JUMP JUMPDEST DUP4 ADD DUP3 PUSH2 0xB47 JUMP JUMPDEST POP POP JUMPDEST POP POP POP JUMP JUMPDEST PUSH1 0x0 DUP3 DUP3 SHR SWAP1 POP SWAP3 SWAP2 POP POP JUMP JUMPDEST PUSH1 0x0 PUSH2 0xBCE PUSH1 0x0 NOT DUP5 PUSH1 0x8 MUL PUSH2 0xBB0 JUMP JUMPDEST NOT DUP1 DUP4 AND SWAP2 POP POP SWAP3 SWAP2 POP POP JUMP JUMPDEST PUSH1 0x0 PUSH2 0xBE7 DUP4 DUP4 PUSH2 0xBBD JUMP JUMPDEST SWAP2 POP DUP3 PUSH1 0x2 MUL DUP3 OR SWAP1 POP SWAP3 SWAP2 POP POP JUMP JUMPDEST PUSH2 0xC00 DUP3 PUSH2 0x6BD JUMP JUMPDEST PUSH8 0xFFFFFFFFFFFFFFFF DUP2 GT ISZERO PUSH2 0xC19 JUMPI PUSH2 0xC18 PUSH2 0x7BD JUMP JUMPDEST JUMPDEST PUSH2 0xC23 DUP3 SLOAD PUSH2 0x9E2 JUMP JUMPDEST PUSH2 0xC2E DUP3 DUP3 DUP6 PUSH2 0xB6A JUMP JUMPDEST PUSH1 0x0 PUSH1 0x20 SWAP1 POP PUSH1 0x1F DUP4 GT PUSH1 0x1 DUP2 EQ PUSH2 0xC61 JUMPI PUSH1 0x0 DUP5 ISZERO PUSH2 0xC4F JUMPI DUP3 DUP8 ADD MLOAD SWAP1 POP JUMPDEST PUSH2 0xC59 DUP6 DUP3 PUSH2 0xBDB JUMP JUMPDEST DUP7 SSTORE POP PUSH2 0xCC1 JUMP JUMPDEST PUSH1 0x1F NOT DUP5 AND PUSH2 0xC6F DUP7 PUSH2 0xA55 JUMP JUMPDEST PUSH1 0x0 JUMPDEST DUP3 DUP2 LT ISZERO PUSH2 0xC97 JUMPI DUP5 DUP10 ADD MLOAD DUP3 SSTORE PUSH1 0x1 DUP3 ADD SWAP2 POP PUSH1 0x20 DUP6 ADD SWAP5 POP PUSH1 0x20 DUP2 ADD SWAP1 POP PUSH2 0xC72 JUMP JUMPDEST DUP7 DUP4 LT ISZERO PUSH2 0xCB4 JUMPI DUP5 DUP10 ADD MLOAD PUSH2 0xCB0 PUSH1 0x1F DUP10 AND DUP3 PUSH2 0xBBD JUMP JUMPDEST DUP4 SSTORE POP JUMPDEST PUSH1 0x1 PUSH1 0x2 DUP9 MUL ADD DUP9 SSTORE POP POP POP JUMPDEST POP POP POP POP POP POP JUMP JUMPDEST PUSH32 0x4E487B7100000000000000000000000000000000000000000000000000000000 PUSH1 0x0 MSTORE PUSH1 0x11 PUSH1 0x4 MSTORE PUSH1 0x24 PUSH1 0x0 REVERT JUMPDEST PUSH1 0x0 PUSH2 0xD03 DUP3 PUSH2 0x4A4 JUMP JUMPDEST SWAP2 POP PUSH2 0xD0E DUP4 PUSH2 0x4A4 JUMP JUMPDEST SWAP3 POP DUP3 DUP3 ADD SWAP1 POP DUP1 DUP3 GT ISZERO PUSH2 0xD26 JUMPI PUSH2 0xD25 PUSH2 0xCC9 JUMP JUMPDEST JUMPDEST SWAP3 SWAP2 POP POP JUMP INVALID LOG2 PUSH5 0x6970667358 0x22 SLT KECCAK256 PUSH18 0x515F1F6669A2D83B67E924DA10BF168BD11 0x4C 0xD6 0xE6 0x2C JUMPDEST CALLCODE PUSH29 0x8AAD03F5BA1164736F6C637823302E382E31362D63692E323032322E37 0x2E BALANCE CALLVALUE 0x2B PUSH4 0x6F6D6D69 PUSH21 0x2E3830303038386533005400000000000000000000 "
				},
				"gasEstimates": {
					"creation": {
						"codeDepositCost": "691800",
						"executionCost": "infinite",
						"totalCost": "infinite"
					},
					"external": {
						"allNFTs(uint256)": "infinite",
						"factoryOwner()": "2537",
						"getBalance(address)": "infinite",
						"mintNFT(string)": "infinite",
						"nftCount()": "2430",
						"sendGift(address,uint256)": "infinite",
						"tokenAddress()": "infinite"
					},
					"internal": {
						"incrementCount()": "infinite"
					}
				},
				"methodIdentifiers": {
					"allNFTs(uint256)": "bf162d67",
					"factoryOwner()": "4273601c",
					"getBalance(address)": "f8b2cb4f",
					"mintNFT(string)": "fb37e883",
					"nftCount()": "0af2c6ca",
					"sendGift(address,uint256)": "63d9b4b1",
					"tokenAddress()": "9d76ea58"
				}
			},
			"storageLayout": {
				"storage": [
					{
						"astId": 716,
						"contract": "EparsFactory.sol:EparsFactory",
						"label": "tokenAddress",
						"offset": 0,
						"slot": "0",
						"type": "t_contract(IERC20)663"
					},
					{
						"astId": 718,
						"contract": "EparsFactory.sol:EparsFactory",
						"label": "factoryOwner",
						"offset": 0,
						"slot": "1",
						"type": "t_address"
					},
					{
						"astId": 721,
						"contract": "EparsFactory.sol:EparsFactory",
						"label": "nftCount",
						"offset": 0,
						"slot": "2",
						"type": "t_uint256"
					},
					{
						"astId": 726,
						"contract": "EparsFactory.sol:EparsFactory",
						"label": "allNFTs",
						"offset": 0,
						"slot": "3",
						"type": "t_mapping(t_uint256,t_struct(NFT)747_storage)"
					}
				],
				"types": {
					"t_address": {
						"encoding": "inplace",
						"label": "address",
						"numberOfBytes": "20"
					},
					"t_contract(IERC20)663": {
						"encoding": "inplace",
						"label": "contract IERC20",
						"numberOfBytes": "20"
					},
					"t_mapping(t_uint256,t_struct(NFT)747_storage)": {
						"encoding": "mapping",
						"key": "t_uint256",
						"label": "mapping(uint256 => struct EparsFactory.NFT)",
						"numberOfBytes": "32",
						"value": "t_struct(NFT)747_storage"
					},
					"t_string_storage": {
						"encoding": "bytes",
						"label": "string",
						"numberOfBytes": "32"
					},
					"t_struct(NFT)747_storage": {
						"encoding": "inplace",
						"label": "struct EparsFactory.NFT",
						"members": [
							{
								"astId": 744,
								"contract": "EparsFactory.sol:EparsFactory",
								"label": "_id",
								"offset": 0,
								"slot": "0",
								"type": "t_uint256"
							},
							{
								"astId": 746,
								"contract": "EparsFactory.sol:EparsFactory",
								"label": "pic",
								"offset": 0,
								"slot": "1",
								"type": "t_string_storage"
							}
						],
						"numberOfBytes": "64"
					},
					"t_uint256": {
						"encoding": "inplace",
						"label": "uint256",
						"numberOfBytes": "32"
					}
				}
			},
			"userdoc": {
				"kind": "user",
				"methods": {},
				"version": 1
			}
		}
	}
}